{
	"compilerInput": "{\"language\":\"Solidity\",\"sources\":{\"dsda.sol\":{\"content\":\"// SPDX-License-Identifier: MIT\\r\\npragma solidity ^0.8.0;\\r\\n\\r\\ncontract StudentDataStorage {\\r\\n    struct Student {\\r\\n        string studentName;\\r\\n        string adminName;\\r\\n        string ipfsHash;\\r\\n        string blake3Hash;\\r\\n        string timestamp;  // Change data type to string\\r\\n    }\\r\\n\\r\\n    mapping(uint256 => Student) public students;\\r\\n    uint256 public studentCount;\\r\\n\\r\\n    event StudentAdded(uint256 indexed index, string studentName, string adminName, string ipfsHash, string blake3Hash, string timestamp);\\r\\n\\r\\n    function addStudentData(string memory _studentName, string memory _adminName, string memory _ipfsHash, string memory _blake3Hash, string memory _timestamp) public {\\r\\n        students[studentCount] = Student(_studentName, _adminName, _ipfsHash, _blake3Hash, _timestamp);\\r\\n        emit StudentAdded(studentCount, _studentName, _adminName, _ipfsHash, _blake3Hash, _timestamp);\\r\\n        studentCount++;\\r\\n    }\\r\\n\\r\\n    function getStudentDataByQuery(string memory queryType, string memory queryValue) public view returns (string memory studentName, string memory adminName, string memory ipfsHash, string memory blake3Hash, string memory timestamp) {\\r\\n        require(studentCount > 0, \\\"No students added yet\\\");\\r\\n\\r\\n        for (uint256 i = 0; i < studentCount; i++) {\\r\\n            if (compareStrings(students[i].studentName, queryValue) && compareStrings(queryType, \\\"studentName\\\")) {\\r\\n                return (students[i].studentName, students[i].adminName, students[i].ipfsHash, students[i].blake3Hash, students[i].timestamp);\\r\\n            }\\r\\n            if (compareStrings(students[i].ipfsHash, queryValue) && compareStrings(queryType, \\\"ipfsHash\\\")) {\\r\\n                return (students[i].studentName, students[i].adminName, students[i].ipfsHash, students[i].blake3Hash, students[i].timestamp);\\r\\n            }\\r\\n        }\\r\\n        revert(\\\"Student not found\\\");\\r\\n    }\\r\\n\\r\\n    function compareStrings(string memory a, string memory b) internal pure returns (bool) {\\r\\n        return (keccak256(abi.encodePacked((a))) == keccak256(abi.encodePacked((b))));\\r\\n    }\\r\\n}\\r\\n\"}},\"settings\":{\"optimizer\":{\"enabled\":false,\"runs\":200},\"outputSelection\":{\"*\":{\"\":[\"ast\"],\"*\":[\"abi\",\"metadata\",\"devdoc\",\"userdoc\",\"storageLayout\",\"evm.legacyAssembly\",\"evm.bytecode\",\"evm.deployedBytecode\",\"evm.methodIdentifiers\",\"evm.gasEstimates\",\"evm.assembly\"]}},\"remappings\":[],\"evmVersion\":\"london\"}}",
	"name": "StudentDataStorage",
	"bytecode": {
		"linkReferences": {},
		"object": "6080604052348015600f57600080fd5b5061174b8061001f6000396000f3fe608060405234801561001057600080fd5b506004361061004c5760003560e01c806306ead22e146100515780635d52d08f14610085578063cb451629146100b9578063e581f9ee146100d5575b600080fd5b61006b60048036038101906100669190610e84565b6100f3565b60405161007c959493929190610f41565b60405180910390f35b61009f600480360381019061009a91906110ec565b6103d1565b6040516100b0959493929190610f41565b60405180910390f35b6100d360048036038101906100ce9190611164565b610cce565b005b6100dd610ddb565b6040516100ea919061127a565b60405180910390f35b6000602052806000526040600020600091509050806000018054610116906112c4565b80601f0160208091040260200160405190810160405280929190818152602001828054610142906112c4565b801561018f5780601f106101645761010080835404028352916020019161018f565b820191906000526020600020905b81548152906001019060200180831161017257829003601f168201915b5050505050908060010180546101a4906112c4565b80601f01602080910402602001604051908101604052809291908181526020018280546101d0906112c4565b801561021d5780601f106101f25761010080835404028352916020019161021d565b820191906000526020600020905b81548152906001019060200180831161020057829003601f168201915b505050505090806002018054610232906112c4565b80601f016020809104026020016040519081016040528092919081815260200182805461025e906112c4565b80156102ab5780601f10610280576101008083540402835291602001916102ab565b820191906000526020600020905b81548152906001019060200180831161028e57829003601f168201915b5050505050908060030180546102c0906112c4565b80601f01602080910402602001604051908101604052809291908181526020018280546102ec906112c4565b80156103395780601f1061030e57610100808354040283529160200191610339565b820191906000526020600020905b81548152906001019060200180831161031c57829003601f168201915b50505050509080600401805461034e906112c4565b80601f016020809104026020016040519081016040528092919081815260200182805461037a906112c4565b80156103c75780601f1061039c576101008083540402835291602001916103c7565b820191906000526020600020905b8154815290600101906020018083116103aa57829003601f168201915b5050505050905085565b606080606080606060006001541161041e576040517f08c379a000000000000000000000000000000000000000000000000000000000815260040161041590611341565b60405180910390fd5b60005b600154811015610c88576104d2600080838152602001908152602001600020600001805461044e906112c4565b80601f016020809104026020016040519081016040528092919081815260200182805461047a906112c4565b80156104c75780601f1061049c576101008083540402835291602001916104c7565b820191906000526020600020905b8154815290600101906020018083116104aa57829003601f168201915b505050505088610de1565b80156105195750610518886040518060400160405280600b81526020017f73747564656e744e616d65000000000000000000000000000000000000000000815250610de1565b5b1561085357600080828152602001908152602001600020600001600080838152602001908152602001600020600101600080848152602001908152602001600020600201600080858152602001908152602001600020600301600080868152602001908152602001600020600401848054610593906112c4565b80601f01602080910402602001604051908101604052809291908181526020018280546105bf906112c4565b801561060c5780601f106105e15761010080835404028352916020019161060c565b820191906000526020600020905b8154815290600101906020018083116105ef57829003601f168201915b5050505050945083805461061f906112c4565b80601f016020809104026020016040519081016040528092919081815260200182805461064b906112c4565b80156106985780601f1061066d57610100808354040283529160200191610698565b820191906000526020600020905b81548152906001019060200180831161067b57829003601f168201915b505050505093508280546106ab906112c4565b80601f01602080910402602001604051908101604052809291908181526020018280546106d7906112c4565b80156107245780601f106106f957610100808354040283529160200191610724565b820191906000526020600020905b81548152906001019060200180831161070757829003601f168201915b50505050509250818054610737906112c4565b80601f0160208091040260200160405190810160405280929190818152602001828054610763906112c4565b80156107b05780601f10610785576101008083540402835291602001916107b0565b820191906000526020600020905b81548152906001019060200180831161079357829003601f168201915b505050505091508080546107c3906112c4565b80601f01602080910402602001604051908101604052809291908181526020018280546107ef906112c4565b801561083c5780601f106108115761010080835404028352916020019161083c565b820191906000526020600020905b81548152906001019060200180831161081f57829003601f168201915b505050505090509550955095509550955050610cc4565b6108fa6000808381526020019081526020016000206002018054610876906112c4565b80601f01602080910402602001604051908101604052809291908181526020018280546108a2906112c4565b80156108ef5780601f106108c4576101008083540402835291602001916108ef565b820191906000526020600020905b8154815290600101906020018083116108d257829003601f168201915b505050505088610de1565b80156109415750610940886040518060400160405280600881526020017f6970667348617368000000000000000000000000000000000000000000000000815250610de1565b5b15610c7b576000808281526020019081526020016000206000016000808381526020019081526020016000206001016000808481526020019081526020016000206002016000808581526020019081526020016000206003016000808681526020019081526020016000206004018480546109bb906112c4565b80601f01602080910402602001604051908101604052809291908181526020018280546109e7906112c4565b8015610a345780601f10610a0957610100808354040283529160200191610a34565b820191906000526020600020905b815481529060010190602001808311610a1757829003601f168201915b50505050509450838054610a47906112c4565b80601f0160208091040260200160405190810160405280929190818152602001828054610a73906112c4565b8015610ac05780601f10610a9557610100808354040283529160200191610ac0565b820191906000526020600020905b815481529060010190602001808311610aa357829003601f168201915b50505050509350828054610ad3906112c4565b80601f0160208091040260200160405190810160405280929190818152602001828054610aff906112c4565b8015610b4c5780601f10610b2157610100808354040283529160200191610b4c565b820191906000526020600020905b815481529060010190602001808311610b2f57829003601f168201915b50505050509250818054610b5f906112c4565b80601f0160208091040260200160405190810160405280929190818152602001828054610b8b906112c4565b8015610bd85780601f10610bad57610100808354040283529160200191610bd8565b820191906000526020600020905b815481529060010190602001808311610bbb57829003601f168201915b50505050509150808054610beb906112c4565b80601f0160208091040260200160405190810160405280929190818152602001828054610c17906112c4565b8015610c645780601f10610c3957610100808354040283529160200191610c64565b820191906000526020600020905b815481529060010190602001808311610c4757829003601f168201915b505050505090509550955095509550955050610cc4565b8080600101915050610421565b506040517f08c379a0000000000000000000000000000000000000000000000000000000008152600401610cbb906113ad565b60405180910390fd5b9295509295909350565b6040518060a001604052808681526020018581526020018481526020018381526020018281525060008060015481526020019081526020016000206000820151816000019081610d1e9190611579565b506020820151816001019081610d349190611579565b506040820151816002019081610d4a9190611579565b506060820151816003019081610d609190611579565b506080820151816004019081610d769190611579565b509050506001547f552d7a7b2cc9fc6db021bcd1a30d794aac5937d58dff36ae3bbd24d18fe9085e8686868686604051610db4959493929190610f41565b60405180910390a260016000815480929190610dcf9061167a565b91905055505050505050565b60015481565b600081604051602001610df491906116fe565b6040516020818303038152906040528051906020012083604051602001610e1b91906116fe565b6040516020818303038152906040528051906020012014905092915050565b6000604051905090565b600080fd5b600080fd5b6000819050919050565b610e6181610e4e565b8114610e6c57600080fd5b50565b600081359050610e7e81610e58565b92915050565b600060208284031215610e9a57610e99610e44565b5b6000610ea884828501610e6f565b91505092915050565b600081519050919050565b600082825260208201905092915050565b60005b83811015610eeb578082015181840152602081019050610ed0565b60008484015250505050565b6000601f19601f8301169050919050565b6000610f1382610eb1565b610f1d8185610ebc565b9350610f2d818560208601610ecd565b610f3681610ef7565b840191505092915050565b600060a0820190508181036000830152610f5b8188610f08565b90508181036020830152610f6f8187610f08565b90508181036040830152610f838186610f08565b90508181036060830152610f978185610f08565b90508181036080830152610fab8184610f08565b90509695505050505050565b600080fd5b600080fd5b7f4e487b7100000000000000000000000000000000000000000000000000000000600052604160045260246000fd5b610ff982610ef7565b810181811067ffffffffffffffff8211171561101857611017610fc1565b5b80604052505050565b600061102b610e3a565b90506110378282610ff0565b919050565b600067ffffffffffffffff82111561105757611056610fc1565b5b61106082610ef7565b9050602081019050919050565b82818337600083830152505050565b600061108f61108a8461103c565b611021565b9050828152602081018484840111156110ab576110aa610fbc565b5b6110b684828561106d565b509392505050565b600082601f8301126110d3576110d2610fb7565b5b81356110e384826020860161107c565b91505092915050565b6000806040838503121561110357611102610e44565b5b600083013567ffffffffffffffff81111561112157611120610e49565b5b61112d858286016110be565b925050602083013567ffffffffffffffff81111561114e5761114d610e49565b5b61115a858286016110be565b9150509250929050565b600080600080600060a086880312156111805761117f610e44565b5b600086013567ffffffffffffffff81111561119e5761119d610e49565b5b6111aa888289016110be565b955050602086013567ffffffffffffffff8111156111cb576111ca610e49565b5b6111d7888289016110be565b945050604086013567ffffffffffffffff8111156111f8576111f7610e49565b5b611204888289016110be565b935050606086013567ffffffffffffffff81111561122557611224610e49565b5b611231888289016110be565b925050608086013567ffffffffffffffff81111561125257611251610e49565b5b61125e888289016110be565b9150509295509295909350565b61127481610e4e565b82525050565b600060208201905061128f600083018461126b565b92915050565b7f4e487b7100000000000000000000000000000000000000000000000000000000600052602260045260246000fd5b600060028204905060018216806112dc57607f821691505b6020821081036112ef576112ee611295565b5b50919050565b7f4e6f2073747564656e7473206164646564207965740000000000000000000000600082015250565b600061132b601583610ebc565b9150611336826112f5565b602082019050919050565b6000602082019050818103600083015261135a8161131e565b9050919050565b7f53747564656e74206e6f7420666f756e64000000000000000000000000000000600082015250565b6000611397601183610ebc565b91506113a282611361565b602082019050919050565b600060208201905081810360008301526113c68161138a565b9050919050565b60008190508160005260206000209050919050565b60006020601f8301049050919050565b600082821b905092915050565b60006008830261142f7fffffffffffffffffffffffffffffffffffffffffffffffffffffffffffffffff826113f2565b61143986836113f2565b95508019841693508086168417925050509392505050565b6000819050919050565b600061147661147161146c84610e4e565b611451565b610e4e565b9050919050565b6000819050919050565b6114908361145b565b6114a461149c8261147d565b8484546113ff565b825550505050565b600090565b6114b96114ac565b6114c4818484611487565b505050565b5b818110156114e8576114dd6000826114b1565b6001810190506114ca565b5050565b601f82111561152d576114fe816113cd565b611507846113e2565b81016020851015611516578190505b61152a611522856113e2565b8301826114c9565b50505b505050565b600082821c905092915050565b600061155060001984600802611532565b1980831691505092915050565b6000611569838361153f565b9150826002028217905092915050565b61158282610eb1565b67ffffffffffffffff81111561159b5761159a610fc1565b5b6115a582546112c4565b6115b08282856114ec565b600060209050601f8311600181146115e357600084156115d1578287015190505b6115db858261155d565b865550611643565b601f1984166115f1866113cd565b60005b82811015611619578489015182556001820191506020850194506020810190506115f4565b868310156116365784890151611632601f89168261153f565b8355505b6001600288020188555050505b505050505050565b7f4e487b7100000000000000000000000000000000000000000000000000000000600052601160045260246000fd5b600061168582610e4e565b91507fffffffffffffffffffffffffffffffffffffffffffffffffffffffffffffffff82036116b7576116b661164b565b5b600182019050919050565b600081905092915050565b60006116d882610eb1565b6116e281856116c2565b93506116f2818560208601610ecd565b80840191505092915050565b600061170a82846116cd565b91508190509291505056fea26469706673582212205be6a01ef3d003b9c5d2df1c85747adc85d824f1134c7bd59b6348c5c7da739664736f6c63430008190033",
		"opcodes": "PUSH1 0x80 PUSH1 0x40 MSTORE CALLVALUE DUP1 ISZERO PUSH1 0xF JUMPI PUSH1 0x0 DUP1 REVERT JUMPDEST POP PUSH2 0x174B DUP1 PUSH2 0x1F PUSH1 0x0 CODECOPY PUSH1 0x0 RETURN INVALID PUSH1 0x80 PUSH1 0x40 MSTORE CALLVALUE DUP1 ISZERO PUSH2 0x10 JUMPI PUSH1 0x0 DUP1 REVERT JUMPDEST POP PUSH1 0x4 CALLDATASIZE LT PUSH2 0x4C JUMPI PUSH1 0x0 CALLDATALOAD PUSH1 0xE0 SHR DUP1 PUSH4 0x6EAD22E EQ PUSH2 0x51 JUMPI DUP1 PUSH4 0x5D52D08F EQ PUSH2 0x85 JUMPI DUP1 PUSH4 0xCB451629 EQ PUSH2 0xB9 JUMPI DUP1 PUSH4 0xE581F9EE EQ PUSH2 0xD5 JUMPI JUMPDEST PUSH1 0x0 DUP1 REVERT JUMPDEST PUSH2 0x6B PUSH1 0x4 DUP1 CALLDATASIZE SUB DUP2 ADD SWAP1 PUSH2 0x66 SWAP2 SWAP1 PUSH2 0xE84 JUMP JUMPDEST PUSH2 0xF3 JUMP JUMPDEST PUSH1 0x40 MLOAD PUSH2 0x7C SWAP6 SWAP5 SWAP4 SWAP3 SWAP2 SWAP1 PUSH2 0xF41 JUMP JUMPDEST PUSH1 0x40 MLOAD DUP1 SWAP2 SUB SWAP1 RETURN JUMPDEST PUSH2 0x9F PUSH1 0x4 DUP1 CALLDATASIZE SUB DUP2 ADD SWAP1 PUSH2 0x9A SWAP2 SWAP1 PUSH2 0x10EC JUMP JUMPDEST PUSH2 0x3D1 JUMP JUMPDEST PUSH1 0x40 MLOAD PUSH2 0xB0 SWAP6 SWAP5 SWAP4 SWAP3 SWAP2 SWAP1 PUSH2 0xF41 JUMP JUMPDEST PUSH1 0x40 MLOAD DUP1 SWAP2 SUB SWAP1 RETURN JUMPDEST PUSH2 0xD3 PUSH1 0x4 DUP1 CALLDATASIZE SUB DUP2 ADD SWAP1 PUSH2 0xCE SWAP2 SWAP1 PUSH2 0x1164 JUMP JUMPDEST PUSH2 0xCCE JUMP JUMPDEST STOP JUMPDEST PUSH2 0xDD PUSH2 0xDDB JUMP JUMPDEST PUSH1 0x40 MLOAD PUSH2 0xEA SWAP2 SWAP1 PUSH2 0x127A JUMP JUMPDEST PUSH1 0x40 MLOAD DUP1 SWAP2 SUB SWAP1 RETURN JUMPDEST PUSH1 0x0 PUSH1 0x20 MSTORE DUP1 PUSH1 0x0 MSTORE PUSH1 0x40 PUSH1 0x0 KECCAK256 PUSH1 0x0 SWAP2 POP SWAP1 POP DUP1 PUSH1 0x0 ADD DUP1 SLOAD PUSH2 0x116 SWAP1 PUSH2 0x12C4 JUMP JUMPDEST DUP1 PUSH1 0x1F ADD PUSH1 0x20 DUP1 SWAP2 DIV MUL PUSH1 0x20 ADD PUSH1 0x40 MLOAD SWAP1 DUP2 ADD PUSH1 0x40 MSTORE DUP1 SWAP3 SWAP2 SWAP1 DUP2 DUP2 MSTORE PUSH1 0x20 ADD DUP3 DUP1 SLOAD PUSH2 0x142 SWAP1 PUSH2 0x12C4 JUMP JUMPDEST DUP1 ISZERO PUSH2 0x18F JUMPI DUP1 PUSH1 0x1F LT PUSH2 0x164 JUMPI PUSH2 0x100 DUP1 DUP4 SLOAD DIV MUL DUP4 MSTORE SWAP2 PUSH1 0x20 ADD SWAP2 PUSH2 0x18F JUMP JUMPDEST DUP3 ADD SWAP2 SWAP1 PUSH1 0x0 MSTORE PUSH1 0x20 PUSH1 0x0 KECCAK256 SWAP1 JUMPDEST DUP2 SLOAD DUP2 MSTORE SWAP1 PUSH1 0x1 ADD SWAP1 PUSH1 0x20 ADD DUP1 DUP4 GT PUSH2 0x172 JUMPI DUP3 SWAP1 SUB PUSH1 0x1F AND DUP3 ADD SWAP2 JUMPDEST POP POP POP POP POP SWAP1 DUP1 PUSH1 0x1 ADD DUP1 SLOAD PUSH2 0x1A4 SWAP1 PUSH2 0x12C4 JUMP JUMPDEST DUP1 PUSH1 0x1F ADD PUSH1 0x20 DUP1 SWAP2 DIV MUL PUSH1 0x20 ADD PUSH1 0x40 MLOAD SWAP1 DUP2 ADD PUSH1 0x40 MSTORE DUP1 SWAP3 SWAP2 SWAP1 DUP2 DUP2 MSTORE PUSH1 0x20 ADD DUP3 DUP1 SLOAD PUSH2 0x1D0 SWAP1 PUSH2 0x12C4 JUMP JUMPDEST DUP1 ISZERO PUSH2 0x21D JUMPI DUP1 PUSH1 0x1F LT PUSH2 0x1F2 JUMPI PUSH2 0x100 DUP1 DUP4 SLOAD DIV MUL DUP4 MSTORE SWAP2 PUSH1 0x20 ADD SWAP2 PUSH2 0x21D JUMP JUMPDEST DUP3 ADD SWAP2 SWAP1 PUSH1 0x0 MSTORE PUSH1 0x20 PUSH1 0x0 KECCAK256 SWAP1 JUMPDEST DUP2 SLOAD DUP2 MSTORE SWAP1 PUSH1 0x1 ADD SWAP1 PUSH1 0x20 ADD DUP1 DUP4 GT PUSH2 0x200 JUMPI DUP3 SWAP1 SUB PUSH1 0x1F AND DUP3 ADD SWAP2 JUMPDEST POP POP POP POP POP SWAP1 DUP1 PUSH1 0x2 ADD DUP1 SLOAD PUSH2 0x232 SWAP1 PUSH2 0x12C4 JUMP JUMPDEST DUP1 PUSH1 0x1F ADD PUSH1 0x20 DUP1 SWAP2 DIV MUL PUSH1 0x20 ADD PUSH1 0x40 MLOAD SWAP1 DUP2 ADD PUSH1 0x40 MSTORE DUP1 SWAP3 SWAP2 SWAP1 DUP2 DUP2 MSTORE PUSH1 0x20 ADD DUP3 DUP1 SLOAD PUSH2 0x25E SWAP1 PUSH2 0x12C4 JUMP JUMPDEST DUP1 ISZERO PUSH2 0x2AB JUMPI DUP1 PUSH1 0x1F LT PUSH2 0x280 JUMPI PUSH2 0x100 DUP1 DUP4 SLOAD DIV MUL DUP4 MSTORE SWAP2 PUSH1 0x20 ADD SWAP2 PUSH2 0x2AB JUMP JUMPDEST DUP3 ADD SWAP2 SWAP1 PUSH1 0x0 MSTORE PUSH1 0x20 PUSH1 0x0 KECCAK256 SWAP1 JUMPDEST DUP2 SLOAD DUP2 MSTORE SWAP1 PUSH1 0x1 ADD SWAP1 PUSH1 0x20 ADD DUP1 DUP4 GT PUSH2 0x28E JUMPI DUP3 SWAP1 SUB PUSH1 0x1F AND DUP3 ADD SWAP2 JUMPDEST POP POP POP POP POP SWAP1 DUP1 PUSH1 0x3 ADD DUP1 SLOAD PUSH2 0x2C0 SWAP1 PUSH2 0x12C4 JUMP JUMPDEST DUP1 PUSH1 0x1F ADD PUSH1 0x20 DUP1 SWAP2 DIV MUL PUSH1 0x20 ADD PUSH1 0x40 MLOAD SWAP1 DUP2 ADD PUSH1 0x40 MSTORE DUP1 SWAP3 SWAP2 SWAP1 DUP2 DUP2 MSTORE PUSH1 0x20 ADD DUP3 DUP1 SLOAD PUSH2 0x2EC SWAP1 PUSH2 0x12C4 JUMP JUMPDEST DUP1 ISZERO PUSH2 0x339 JUMPI DUP1 PUSH1 0x1F LT PUSH2 0x30E JUMPI PUSH2 0x100 DUP1 DUP4 SLOAD DIV MUL DUP4 MSTORE SWAP2 PUSH1 0x20 ADD SWAP2 PUSH2 0x339 JUMP JUMPDEST DUP3 ADD SWAP2 SWAP1 PUSH1 0x0 MSTORE PUSH1 0x20 PUSH1 0x0 KECCAK256 SWAP1 JUMPDEST DUP2 SLOAD DUP2 MSTORE SWAP1 PUSH1 0x1 ADD SWAP1 PUSH1 0x20 ADD DUP1 DUP4 GT PUSH2 0x31C JUMPI DUP3 SWAP1 SUB PUSH1 0x1F AND DUP3 ADD SWAP2 JUMPDEST POP POP POP POP POP SWAP1 DUP1 PUSH1 0x4 ADD DUP1 SLOAD PUSH2 0x34E SWAP1 PUSH2 0x12C4 JUMP JUMPDEST DUP1 PUSH1 0x1F ADD PUSH1 0x20 DUP1 SWAP2 DIV MUL PUSH1 0x20 ADD PUSH1 0x40 MLOAD SWAP1 DUP2 ADD PUSH1 0x40 MSTORE DUP1 SWAP3 SWAP2 SWAP1 DUP2 DUP2 MSTORE PUSH1 0x20 ADD DUP3 DUP1 SLOAD PUSH2 0x37A SWAP1 PUSH2 0x12C4 JUMP JUMPDEST DUP1 ISZERO PUSH2 0x3C7 JUMPI DUP1 PUSH1 0x1F LT PUSH2 0x39C JUMPI PUSH2 0x100 DUP1 DUP4 SLOAD DIV MUL DUP4 MSTORE SWAP2 PUSH1 0x20 ADD SWAP2 PUSH2 0x3C7 JUMP JUMPDEST DUP3 ADD SWAP2 SWAP1 PUSH1 0x0 MSTORE PUSH1 0x20 PUSH1 0x0 KECCAK256 SWAP1 JUMPDEST DUP2 SLOAD DUP2 MSTORE SWAP1 PUSH1 0x1 ADD SWAP1 PUSH1 0x20 ADD DUP1 DUP4 GT PUSH2 0x3AA JUMPI DUP3 SWAP1 SUB PUSH1 0x1F AND DUP3 ADD SWAP2 JUMPDEST POP POP POP POP POP SWAP1 POP DUP6 JUMP JUMPDEST PUSH1 0x60 DUP1 PUSH1 0x60 DUP1 PUSH1 0x60 PUSH1 0x0 PUSH1 0x1 SLOAD GT PUSH2 0x41E JUMPI PUSH1 0x40 MLOAD PUSH32 0x8C379A000000000000000000000000000000000000000000000000000000000 DUP2 MSTORE PUSH1 0x4 ADD PUSH2 0x415 SWAP1 PUSH2 0x1341 JUMP JUMPDEST PUSH1 0x40 MLOAD DUP1 SWAP2 SUB SWAP1 REVERT JUMPDEST PUSH1 0x0 JUMPDEST PUSH1 0x1 SLOAD DUP2 LT ISZERO PUSH2 0xC88 JUMPI PUSH2 0x4D2 PUSH1 0x0 DUP1 DUP4 DUP2 MSTORE PUSH1 0x20 ADD SWAP1 DUP2 MSTORE PUSH1 0x20 ADD PUSH1 0x0 KECCAK256 PUSH1 0x0 ADD DUP1 SLOAD PUSH2 0x44E SWAP1 PUSH2 0x12C4 JUMP JUMPDEST DUP1 PUSH1 0x1F ADD PUSH1 0x20 DUP1 SWAP2 DIV MUL PUSH1 0x20 ADD PUSH1 0x40 MLOAD SWAP1 DUP2 ADD PUSH1 0x40 MSTORE DUP1 SWAP3 SWAP2 SWAP1 DUP2 DUP2 MSTORE PUSH1 0x20 ADD DUP3 DUP1 SLOAD PUSH2 0x47A SWAP1 PUSH2 0x12C4 JUMP JUMPDEST DUP1 ISZERO PUSH2 0x4C7 JUMPI DUP1 PUSH1 0x1F LT PUSH2 0x49C JUMPI PUSH2 0x100 DUP1 DUP4 SLOAD DIV MUL DUP4 MSTORE SWAP2 PUSH1 0x20 ADD SWAP2 PUSH2 0x4C7 JUMP JUMPDEST DUP3 ADD SWAP2 SWAP1 PUSH1 0x0 MSTORE PUSH1 0x20 PUSH1 0x0 KECCAK256 SWAP1 JUMPDEST DUP2 SLOAD DUP2 MSTORE SWAP1 PUSH1 0x1 ADD SWAP1 PUSH1 0x20 ADD DUP1 DUP4 GT PUSH2 0x4AA JUMPI DUP3 SWAP1 SUB PUSH1 0x1F AND DUP3 ADD SWAP2 JUMPDEST POP POP POP POP POP DUP9 PUSH2 0xDE1 JUMP JUMPDEST DUP1 ISZERO PUSH2 0x519 JUMPI POP PUSH2 0x518 DUP9 PUSH1 0x40 MLOAD DUP1 PUSH1 0x40 ADD PUSH1 0x40 MSTORE DUP1 PUSH1 0xB DUP2 MSTORE PUSH1 0x20 ADD PUSH32 0x73747564656E744E616D65000000000000000000000000000000000000000000 DUP2 MSTORE POP PUSH2 0xDE1 JUMP JUMPDEST JUMPDEST ISZERO PUSH2 0x853 JUMPI PUSH1 0x0 DUP1 DUP3 DUP2 MSTORE PUSH1 0x20 ADD SWAP1 DUP2 MSTORE PUSH1 0x20 ADD PUSH1 0x0 KECCAK256 PUSH1 0x0 ADD PUSH1 0x0 DUP1 DUP4 DUP2 MSTORE PUSH1 0x20 ADD SWAP1 DUP2 MSTORE PUSH1 0x20 ADD PUSH1 0x0 KECCAK256 PUSH1 0x1 ADD PUSH1 0x0 DUP1 DUP5 DUP2 MSTORE PUSH1 0x20 ADD SWAP1 DUP2 MSTORE PUSH1 0x20 ADD PUSH1 0x0 KECCAK256 PUSH1 0x2 ADD PUSH1 0x0 DUP1 DUP6 DUP2 MSTORE PUSH1 0x20 ADD SWAP1 DUP2 MSTORE PUSH1 0x20 ADD PUSH1 0x0 KECCAK256 PUSH1 0x3 ADD PUSH1 0x0 DUP1 DUP7 DUP2 MSTORE PUSH1 0x20 ADD SWAP1 DUP2 MSTORE PUSH1 0x20 ADD PUSH1 0x0 KECCAK256 PUSH1 0x4 ADD DUP5 DUP1 SLOAD PUSH2 0x593 SWAP1 PUSH2 0x12C4 JUMP JUMPDEST DUP1 PUSH1 0x1F ADD PUSH1 0x20 DUP1 SWAP2 DIV MUL PUSH1 0x20 ADD PUSH1 0x40 MLOAD SWAP1 DUP2 ADD PUSH1 0x40 MSTORE DUP1 SWAP3 SWAP2 SWAP1 DUP2 DUP2 MSTORE PUSH1 0x20 ADD DUP3 DUP1 SLOAD PUSH2 0x5BF SWAP1 PUSH2 0x12C4 JUMP JUMPDEST DUP1 ISZERO PUSH2 0x60C JUMPI DUP1 PUSH1 0x1F LT PUSH2 0x5E1 JUMPI PUSH2 0x100 DUP1 DUP4 SLOAD DIV MUL DUP4 MSTORE SWAP2 PUSH1 0x20 ADD SWAP2 PUSH2 0x60C JUMP JUMPDEST DUP3 ADD SWAP2 SWAP1 PUSH1 0x0 MSTORE PUSH1 0x20 PUSH1 0x0 KECCAK256 SWAP1 JUMPDEST DUP2 SLOAD DUP2 MSTORE SWAP1 PUSH1 0x1 ADD SWAP1 PUSH1 0x20 ADD DUP1 DUP4 GT PUSH2 0x5EF JUMPI DUP3 SWAP1 SUB PUSH1 0x1F AND DUP3 ADD SWAP2 JUMPDEST POP POP POP POP POP SWAP5 POP DUP4 DUP1 SLOAD PUSH2 0x61F SWAP1 PUSH2 0x12C4 JUMP JUMPDEST DUP1 PUSH1 0x1F ADD PUSH1 0x20 DUP1 SWAP2 DIV MUL PUSH1 0x20 ADD PUSH1 0x40 MLOAD SWAP1 DUP2 ADD PUSH1 0x40 MSTORE DUP1 SWAP3 SWAP2 SWAP1 DUP2 DUP2 MSTORE PUSH1 0x20 ADD DUP3 DUP1 SLOAD PUSH2 0x64B SWAP1 PUSH2 0x12C4 JUMP JUMPDEST DUP1 ISZERO PUSH2 0x698 JUMPI DUP1 PUSH1 0x1F LT PUSH2 0x66D JUMPI PUSH2 0x100 DUP1 DUP4 SLOAD DIV MUL DUP4 MSTORE SWAP2 PUSH1 0x20 ADD SWAP2 PUSH2 0x698 JUMP JUMPDEST DUP3 ADD SWAP2 SWAP1 PUSH1 0x0 MSTORE PUSH1 0x20 PUSH1 0x0 KECCAK256 SWAP1 JUMPDEST DUP2 SLOAD DUP2 MSTORE SWAP1 PUSH1 0x1 ADD SWAP1 PUSH1 0x20 ADD DUP1 DUP4 GT PUSH2 0x67B JUMPI DUP3 SWAP1 SUB PUSH1 0x1F AND DUP3 ADD SWAP2 JUMPDEST POP POP POP POP POP SWAP4 POP DUP3 DUP1 SLOAD PUSH2 0x6AB SWAP1 PUSH2 0x12C4 JUMP JUMPDEST DUP1 PUSH1 0x1F ADD PUSH1 0x20 DUP1 SWAP2 DIV MUL PUSH1 0x20 ADD PUSH1 0x40 MLOAD SWAP1 DUP2 ADD PUSH1 0x40 MSTORE DUP1 SWAP3 SWAP2 SWAP1 DUP2 DUP2 MSTORE PUSH1 0x20 ADD DUP3 DUP1 SLOAD PUSH2 0x6D7 SWAP1 PUSH2 0x12C4 JUMP JUMPDEST DUP1 ISZERO PUSH2 0x724 JUMPI DUP1 PUSH1 0x1F LT PUSH2 0x6F9 JUMPI PUSH2 0x100 DUP1 DUP4 SLOAD DIV MUL DUP4 MSTORE SWAP2 PUSH1 0x20 ADD SWAP2 PUSH2 0x724 JUMP JUMPDEST DUP3 ADD SWAP2 SWAP1 PUSH1 0x0 MSTORE PUSH1 0x20 PUSH1 0x0 KECCAK256 SWAP1 JUMPDEST DUP2 SLOAD DUP2 MSTORE SWAP1 PUSH1 0x1 ADD SWAP1 PUSH1 0x20 ADD DUP1 DUP4 GT PUSH2 0x707 JUMPI DUP3 SWAP1 SUB PUSH1 0x1F AND DUP3 ADD SWAP2 JUMPDEST POP POP POP POP POP SWAP3 POP DUP2 DUP1 SLOAD PUSH2 0x737 SWAP1 PUSH2 0x12C4 JUMP JUMPDEST DUP1 PUSH1 0x1F ADD PUSH1 0x20 DUP1 SWAP2 DIV MUL PUSH1 0x20 ADD PUSH1 0x40 MLOAD SWAP1 DUP2 ADD PUSH1 0x40 MSTORE DUP1 SWAP3 SWAP2 SWAP1 DUP2 DUP2 MSTORE PUSH1 0x20 ADD DUP3 DUP1 SLOAD PUSH2 0x763 SWAP1 PUSH2 0x12C4 JUMP JUMPDEST DUP1 ISZERO PUSH2 0x7B0 JUMPI DUP1 PUSH1 0x1F LT PUSH2 0x785 JUMPI PUSH2 0x100 DUP1 DUP4 SLOAD DIV MUL DUP4 MSTORE SWAP2 PUSH1 0x20 ADD SWAP2 PUSH2 0x7B0 JUMP JUMPDEST DUP3 ADD SWAP2 SWAP1 PUSH1 0x0 MSTORE PUSH1 0x20 PUSH1 0x0 KECCAK256 SWAP1 JUMPDEST DUP2 SLOAD DUP2 MSTORE SWAP1 PUSH1 0x1 ADD SWAP1 PUSH1 0x20 ADD DUP1 DUP4 GT PUSH2 0x793 JUMPI DUP3 SWAP1 SUB PUSH1 0x1F AND DUP3 ADD SWAP2 JUMPDEST POP POP POP POP POP SWAP2 POP DUP1 DUP1 SLOAD PUSH2 0x7C3 SWAP1 PUSH2 0x12C4 JUMP JUMPDEST DUP1 PUSH1 0x1F ADD PUSH1 0x20 DUP1 SWAP2 DIV MUL PUSH1 0x20 ADD PUSH1 0x40 MLOAD SWAP1 DUP2 ADD PUSH1 0x40 MSTORE DUP1 SWAP3 SWAP2 SWAP1 DUP2 DUP2 MSTORE PUSH1 0x20 ADD DUP3 DUP1 SLOAD PUSH2 0x7EF SWAP1 PUSH2 0x12C4 JUMP JUMPDEST DUP1 ISZERO PUSH2 0x83C JUMPI DUP1 PUSH1 0x1F LT PUSH2 0x811 JUMPI PUSH2 0x100 DUP1 DUP4 SLOAD DIV MUL DUP4 MSTORE SWAP2 PUSH1 0x20 ADD SWAP2 PUSH2 0x83C JUMP JUMPDEST DUP3 ADD SWAP2 SWAP1 PUSH1 0x0 MSTORE PUSH1 0x20 PUSH1 0x0 KECCAK256 SWAP1 JUMPDEST DUP2 SLOAD DUP2 MSTORE SWAP1 PUSH1 0x1 ADD SWAP1 PUSH1 0x20 ADD DUP1 DUP4 GT PUSH2 0x81F JUMPI DUP3 SWAP1 SUB PUSH1 0x1F AND DUP3 ADD SWAP2 JUMPDEST POP POP POP POP POP SWAP1 POP SWAP6 POP SWAP6 POP SWAP6 POP SWAP6 POP SWAP6 POP POP PUSH2 0xCC4 JUMP JUMPDEST PUSH2 0x8FA PUSH1 0x0 DUP1 DUP4 DUP2 MSTORE PUSH1 0x20 ADD SWAP1 DUP2 MSTORE PUSH1 0x20 ADD PUSH1 0x0 KECCAK256 PUSH1 0x2 ADD DUP1 SLOAD PUSH2 0x876 SWAP1 PUSH2 0x12C4 JUMP JUMPDEST DUP1 PUSH1 0x1F ADD PUSH1 0x20 DUP1 SWAP2 DIV MUL PUSH1 0x20 ADD PUSH1 0x40 MLOAD SWAP1 DUP2 ADD PUSH1 0x40 MSTORE DUP1 SWAP3 SWAP2 SWAP1 DUP2 DUP2 MSTORE PUSH1 0x20 ADD DUP3 DUP1 SLOAD PUSH2 0x8A2 SWAP1 PUSH2 0x12C4 JUMP JUMPDEST DUP1 ISZERO PUSH2 0x8EF JUMPI DUP1 PUSH1 0x1F LT PUSH2 0x8C4 JUMPI PUSH2 0x100 DUP1 DUP4 SLOAD DIV MUL DUP4 MSTORE SWAP2 PUSH1 0x20 ADD SWAP2 PUSH2 0x8EF JUMP JUMPDEST DUP3 ADD SWAP2 SWAP1 PUSH1 0x0 MSTORE PUSH1 0x20 PUSH1 0x0 KECCAK256 SWAP1 JUMPDEST DUP2 SLOAD DUP2 MSTORE SWAP1 PUSH1 0x1 ADD SWAP1 PUSH1 0x20 ADD DUP1 DUP4 GT PUSH2 0x8D2 JUMPI DUP3 SWAP1 SUB PUSH1 0x1F AND DUP3 ADD SWAP2 JUMPDEST POP POP POP POP POP DUP9 PUSH2 0xDE1 JUMP JUMPDEST DUP1 ISZERO PUSH2 0x941 JUMPI POP PUSH2 0x940 DUP9 PUSH1 0x40 MLOAD DUP1 PUSH1 0x40 ADD PUSH1 0x40 MSTORE DUP1 PUSH1 0x8 DUP2 MSTORE PUSH1 0x20 ADD PUSH32 0x6970667348617368000000000000000000000000000000000000000000000000 DUP2 MSTORE POP PUSH2 0xDE1 JUMP JUMPDEST JUMPDEST ISZERO PUSH2 0xC7B JUMPI PUSH1 0x0 DUP1 DUP3 DUP2 MSTORE PUSH1 0x20 ADD SWAP1 DUP2 MSTORE PUSH1 0x20 ADD PUSH1 0x0 KECCAK256 PUSH1 0x0 ADD PUSH1 0x0 DUP1 DUP4 DUP2 MSTORE PUSH1 0x20 ADD SWAP1 DUP2 MSTORE PUSH1 0x20 ADD PUSH1 0x0 KECCAK256 PUSH1 0x1 ADD PUSH1 0x0 DUP1 DUP5 DUP2 MSTORE PUSH1 0x20 ADD SWAP1 DUP2 MSTORE PUSH1 0x20 ADD PUSH1 0x0 KECCAK256 PUSH1 0x2 ADD PUSH1 0x0 DUP1 DUP6 DUP2 MSTORE PUSH1 0x20 ADD SWAP1 DUP2 MSTORE PUSH1 0x20 ADD PUSH1 0x0 KECCAK256 PUSH1 0x3 ADD PUSH1 0x0 DUP1 DUP7 DUP2 MSTORE PUSH1 0x20 ADD SWAP1 DUP2 MSTORE PUSH1 0x20 ADD PUSH1 0x0 KECCAK256 PUSH1 0x4 ADD DUP5 DUP1 SLOAD PUSH2 0x9BB SWAP1 PUSH2 0x12C4 JUMP JUMPDEST DUP1 PUSH1 0x1F ADD PUSH1 0x20 DUP1 SWAP2 DIV MUL PUSH1 0x20 ADD PUSH1 0x40 MLOAD SWAP1 DUP2 ADD PUSH1 0x40 MSTORE DUP1 SWAP3 SWAP2 SWAP1 DUP2 DUP2 MSTORE PUSH1 0x20 ADD DUP3 DUP1 SLOAD PUSH2 0x9E7 SWAP1 PUSH2 0x12C4 JUMP JUMPDEST DUP1 ISZERO PUSH2 0xA34 JUMPI DUP1 PUSH1 0x1F LT PUSH2 0xA09 JUMPI PUSH2 0x100 DUP1 DUP4 SLOAD DIV MUL DUP4 MSTORE SWAP2 PUSH1 0x20 ADD SWAP2 PUSH2 0xA34 JUMP JUMPDEST DUP3 ADD SWAP2 SWAP1 PUSH1 0x0 MSTORE PUSH1 0x20 PUSH1 0x0 KECCAK256 SWAP1 JUMPDEST DUP2 SLOAD DUP2 MSTORE SWAP1 PUSH1 0x1 ADD SWAP1 PUSH1 0x20 ADD DUP1 DUP4 GT PUSH2 0xA17 JUMPI DUP3 SWAP1 SUB PUSH1 0x1F AND DUP3 ADD SWAP2 JUMPDEST POP POP POP POP POP SWAP5 POP DUP4 DUP1 SLOAD PUSH2 0xA47 SWAP1 PUSH2 0x12C4 JUMP JUMPDEST DUP1 PUSH1 0x1F ADD PUSH1 0x20 DUP1 SWAP2 DIV MUL PUSH1 0x20 ADD PUSH1 0x40 MLOAD SWAP1 DUP2 ADD PUSH1 0x40 MSTORE DUP1 SWAP3 SWAP2 SWAP1 DUP2 DUP2 MSTORE PUSH1 0x20 ADD DUP3 DUP1 SLOAD PUSH2 0xA73 SWAP1 PUSH2 0x12C4 JUMP JUMPDEST DUP1 ISZERO PUSH2 0xAC0 JUMPI DUP1 PUSH1 0x1F LT PUSH2 0xA95 JUMPI PUSH2 0x100 DUP1 DUP4 SLOAD DIV MUL DUP4 MSTORE SWAP2 PUSH1 0x20 ADD SWAP2 PUSH2 0xAC0 JUMP JUMPDEST DUP3 ADD SWAP2 SWAP1 PUSH1 0x0 MSTORE PUSH1 0x20 PUSH1 0x0 KECCAK256 SWAP1 JUMPDEST DUP2 SLOAD DUP2 MSTORE SWAP1 PUSH1 0x1 ADD SWAP1 PUSH1 0x20 ADD DUP1 DUP4 GT PUSH2 0xAA3 JUMPI DUP3 SWAP1 SUB PUSH1 0x1F AND DUP3 ADD SWAP2 JUMPDEST POP POP POP POP POP SWAP4 POP DUP3 DUP1 SLOAD PUSH2 0xAD3 SWAP1 PUSH2 0x12C4 JUMP JUMPDEST DUP1 PUSH1 0x1F ADD PUSH1 0x20 DUP1 SWAP2 DIV MUL PUSH1 0x20 ADD PUSH1 0x40 MLOAD SWAP1 DUP2 ADD PUSH1 0x40 MSTORE DUP1 SWAP3 SWAP2 SWAP1 DUP2 DUP2 MSTORE PUSH1 0x20 ADD DUP3 DUP1 SLOAD PUSH2 0xAFF SWAP1 PUSH2 0x12C4 JUMP JUMPDEST DUP1 ISZERO PUSH2 0xB4C JUMPI DUP1 PUSH1 0x1F LT PUSH2 0xB21 JUMPI PUSH2 0x100 DUP1 DUP4 SLOAD DIV MUL DUP4 MSTORE SWAP2 PUSH1 0x20 ADD SWAP2 PUSH2 0xB4C JUMP JUMPDEST DUP3 ADD SWAP2 SWAP1 PUSH1 0x0 MSTORE PUSH1 0x20 PUSH1 0x0 KECCAK256 SWAP1 JUMPDEST DUP2 SLOAD DUP2 MSTORE SWAP1 PUSH1 0x1 ADD SWAP1 PUSH1 0x20 ADD DUP1 DUP4 GT PUSH2 0xB2F JUMPI DUP3 SWAP1 SUB PUSH1 0x1F AND DUP3 ADD SWAP2 JUMPDEST POP POP POP POP POP SWAP3 POP DUP2 DUP1 SLOAD PUSH2 0xB5F SWAP1 PUSH2 0x12C4 JUMP JUMPDEST DUP1 PUSH1 0x1F ADD PUSH1 0x20 DUP1 SWAP2 DIV MUL PUSH1 0x20 ADD PUSH1 0x40 MLOAD SWAP1 DUP2 ADD PUSH1 0x40 MSTORE DUP1 SWAP3 SWAP2 SWAP1 DUP2 DUP2 MSTORE PUSH1 0x20 ADD DUP3 DUP1 SLOAD PUSH2 0xB8B SWAP1 PUSH2 0x12C4 JUMP JUMPDEST DUP1 ISZERO PUSH2 0xBD8 JUMPI DUP1 PUSH1 0x1F LT PUSH2 0xBAD JUMPI PUSH2 0x100 DUP1 DUP4 SLOAD DIV MUL DUP4 MSTORE SWAP2 PUSH1 0x20 ADD SWAP2 PUSH2 0xBD8 JUMP JUMPDEST DUP3 ADD SWAP2 SWAP1 PUSH1 0x0 MSTORE PUSH1 0x20 PUSH1 0x0 KECCAK256 SWAP1 JUMPDEST DUP2 SLOAD DUP2 MSTORE SWAP1 PUSH1 0x1 ADD SWAP1 PUSH1 0x20 ADD DUP1 DUP4 GT PUSH2 0xBBB JUMPI DUP3 SWAP1 SUB PUSH1 0x1F AND DUP3 ADD SWAP2 JUMPDEST POP POP POP POP POP SWAP2 POP DUP1 DUP1 SLOAD PUSH2 0xBEB SWAP1 PUSH2 0x12C4 JUMP JUMPDEST DUP1 PUSH1 0x1F ADD PUSH1 0x20 DUP1 SWAP2 DIV MUL PUSH1 0x20 ADD PUSH1 0x40 MLOAD SWAP1 DUP2 ADD PUSH1 0x40 MSTORE DUP1 SWAP3 SWAP2 SWAP1 DUP2 DUP2 MSTORE PUSH1 0x20 ADD DUP3 DUP1 SLOAD PUSH2 0xC17 SWAP1 PUSH2 0x12C4 JUMP JUMPDEST DUP1 ISZERO PUSH2 0xC64 JUMPI DUP1 PUSH1 0x1F LT PUSH2 0xC39 JUMPI PUSH2 0x100 DUP1 DUP4 SLOAD DIV MUL DUP4 MSTORE SWAP2 PUSH1 0x20 ADD SWAP2 PUSH2 0xC64 JUMP JUMPDEST DUP3 ADD SWAP2 SWAP1 PUSH1 0x0 MSTORE PUSH1 0x20 PUSH1 0x0 KECCAK256 SWAP1 JUMPDEST DUP2 SLOAD DUP2 MSTORE SWAP1 PUSH1 0x1 ADD SWAP1 PUSH1 0x20 ADD DUP1 DUP4 GT PUSH2 0xC47 JUMPI DUP3 SWAP1 SUB PUSH1 0x1F AND DUP3 ADD SWAP2 JUMPDEST POP POP POP POP POP SWAP1 POP SWAP6 POP SWAP6 POP SWAP6 POP SWAP6 POP SWAP6 POP POP PUSH2 0xCC4 JUMP JUMPDEST DUP1 DUP1 PUSH1 0x1 ADD SWAP2 POP POP PUSH2 0x421 JUMP JUMPDEST POP PUSH1 0x40 MLOAD PUSH32 0x8C379A000000000000000000000000000000000000000000000000000000000 DUP2 MSTORE PUSH1 0x4 ADD PUSH2 0xCBB SWAP1 PUSH2 0x13AD JUMP JUMPDEST PUSH1 0x40 MLOAD DUP1 SWAP2 SUB SWAP1 REVERT JUMPDEST SWAP3 SWAP6 POP SWAP3 SWAP6 SWAP1 SWAP4 POP JUMP JUMPDEST PUSH1 0x40 MLOAD DUP1 PUSH1 0xA0 ADD PUSH1 0x40 MSTORE DUP1 DUP7 DUP2 MSTORE PUSH1 0x20 ADD DUP6 DUP2 MSTORE PUSH1 0x20 ADD DUP5 DUP2 MSTORE PUSH1 0x20 ADD DUP4 DUP2 MSTORE PUSH1 0x20 ADD DUP3 DUP2 MSTORE POP PUSH1 0x0 DUP1 PUSH1 0x1 SLOAD DUP2 MSTORE PUSH1 0x20 ADD SWAP1 DUP2 MSTORE PUSH1 0x20 ADD PUSH1 0x0 KECCAK256 PUSH1 0x0 DUP3 ADD MLOAD DUP2 PUSH1 0x0 ADD SWAP1 DUP2 PUSH2 0xD1E SWAP2 SWAP1 PUSH2 0x1579 JUMP JUMPDEST POP PUSH1 0x20 DUP3 ADD MLOAD DUP2 PUSH1 0x1 ADD SWAP1 DUP2 PUSH2 0xD34 SWAP2 SWAP1 PUSH2 0x1579 JUMP JUMPDEST POP PUSH1 0x40 DUP3 ADD MLOAD DUP2 PUSH1 0x2 ADD SWAP1 DUP2 PUSH2 0xD4A SWAP2 SWAP1 PUSH2 0x1579 JUMP JUMPDEST POP PUSH1 0x60 DUP3 ADD MLOAD DUP2 PUSH1 0x3 ADD SWAP1 DUP2 PUSH2 0xD60 SWAP2 SWAP1 PUSH2 0x1579 JUMP JUMPDEST POP PUSH1 0x80 DUP3 ADD MLOAD DUP2 PUSH1 0x4 ADD SWAP1 DUP2 PUSH2 0xD76 SWAP2 SWAP1 PUSH2 0x1579 JUMP JUMPDEST POP SWAP1 POP POP PUSH1 0x1 SLOAD PUSH32 0x552D7A7B2CC9FC6DB021BCD1A30D794AAC5937D58DFF36AE3BBD24D18FE9085E DUP7 DUP7 DUP7 DUP7 DUP7 PUSH1 0x40 MLOAD PUSH2 0xDB4 SWAP6 SWAP5 SWAP4 SWAP3 SWAP2 SWAP1 PUSH2 0xF41 JUMP JUMPDEST PUSH1 0x40 MLOAD DUP1 SWAP2 SUB SWAP1 LOG2 PUSH1 0x1 PUSH1 0x0 DUP2 SLOAD DUP1 SWAP3 SWAP2 SWAP1 PUSH2 0xDCF SWAP1 PUSH2 0x167A JUMP JUMPDEST SWAP2 SWAP1 POP SSTORE POP POP POP POP POP POP JUMP JUMPDEST PUSH1 0x1 SLOAD DUP2 JUMP JUMPDEST PUSH1 0x0 DUP2 PUSH1 0x40 MLOAD PUSH1 0x20 ADD PUSH2 0xDF4 SWAP2 SWAP1 PUSH2 0x16FE JUMP JUMPDEST PUSH1 0x40 MLOAD PUSH1 0x20 DUP2 DUP4 SUB SUB DUP2 MSTORE SWAP1 PUSH1 0x40 MSTORE DUP1 MLOAD SWAP1 PUSH1 0x20 ADD KECCAK256 DUP4 PUSH1 0x40 MLOAD PUSH1 0x20 ADD PUSH2 0xE1B SWAP2 SWAP1 PUSH2 0x16FE JUMP JUMPDEST PUSH1 0x40 MLOAD PUSH1 0x20 DUP2 DUP4 SUB SUB DUP2 MSTORE SWAP1 PUSH1 0x40 MSTORE DUP1 MLOAD SWAP1 PUSH1 0x20 ADD KECCAK256 EQ SWAP1 POP SWAP3 SWAP2 POP POP JUMP JUMPDEST PUSH1 0x0 PUSH1 0x40 MLOAD SWAP1 POP SWAP1 JUMP JUMPDEST PUSH1 0x0 DUP1 REVERT JUMPDEST PUSH1 0x0 DUP1 REVERT JUMPDEST PUSH1 0x0 DUP2 SWAP1 POP SWAP2 SWAP1 POP JUMP JUMPDEST PUSH2 0xE61 DUP2 PUSH2 0xE4E JUMP JUMPDEST DUP2 EQ PUSH2 0xE6C JUMPI PUSH1 0x0 DUP1 REVERT JUMPDEST POP JUMP JUMPDEST PUSH1 0x0 DUP2 CALLDATALOAD SWAP1 POP PUSH2 0xE7E DUP2 PUSH2 0xE58 JUMP JUMPDEST SWAP3 SWAP2 POP POP JUMP JUMPDEST PUSH1 0x0 PUSH1 0x20 DUP3 DUP5 SUB SLT ISZERO PUSH2 0xE9A JUMPI PUSH2 0xE99 PUSH2 0xE44 JUMP JUMPDEST JUMPDEST PUSH1 0x0 PUSH2 0xEA8 DUP5 DUP3 DUP6 ADD PUSH2 0xE6F JUMP JUMPDEST SWAP2 POP POP SWAP3 SWAP2 POP POP JUMP JUMPDEST PUSH1 0x0 DUP2 MLOAD SWAP1 POP SWAP2 SWAP1 POP JUMP JUMPDEST PUSH1 0x0 DUP3 DUP3 MSTORE PUSH1 0x20 DUP3 ADD SWAP1 POP SWAP3 SWAP2 POP POP JUMP JUMPDEST PUSH1 0x0 JUMPDEST DUP4 DUP2 LT ISZERO PUSH2 0xEEB JUMPI DUP1 DUP3 ADD MLOAD DUP2 DUP5 ADD MSTORE PUSH1 0x20 DUP2 ADD SWAP1 POP PUSH2 0xED0 JUMP JUMPDEST PUSH1 0x0 DUP5 DUP5 ADD MSTORE POP POP POP POP JUMP JUMPDEST PUSH1 0x0 PUSH1 0x1F NOT PUSH1 0x1F DUP4 ADD AND SWAP1 POP SWAP2 SWAP1 POP JUMP JUMPDEST PUSH1 0x0 PUSH2 0xF13 DUP3 PUSH2 0xEB1 JUMP JUMPDEST PUSH2 0xF1D DUP2 DUP6 PUSH2 0xEBC JUMP JUMPDEST SWAP4 POP PUSH2 0xF2D DUP2 DUP6 PUSH1 0x20 DUP7 ADD PUSH2 0xECD JUMP JUMPDEST PUSH2 0xF36 DUP2 PUSH2 0xEF7 JUMP JUMPDEST DUP5 ADD SWAP2 POP POP SWAP3 SWAP2 POP POP JUMP JUMPDEST PUSH1 0x0 PUSH1 0xA0 DUP3 ADD SWAP1 POP DUP2 DUP2 SUB PUSH1 0x0 DUP4 ADD MSTORE PUSH2 0xF5B DUP2 DUP9 PUSH2 0xF08 JUMP JUMPDEST SWAP1 POP DUP2 DUP2 SUB PUSH1 0x20 DUP4 ADD MSTORE PUSH2 0xF6F DUP2 DUP8 PUSH2 0xF08 JUMP JUMPDEST SWAP1 POP DUP2 DUP2 SUB PUSH1 0x40 DUP4 ADD MSTORE PUSH2 0xF83 DUP2 DUP7 PUSH2 0xF08 JUMP JUMPDEST SWAP1 POP DUP2 DUP2 SUB PUSH1 0x60 DUP4 ADD MSTORE PUSH2 0xF97 DUP2 DUP6 PUSH2 0xF08 JUMP JUMPDEST SWAP1 POP DUP2 DUP2 SUB PUSH1 0x80 DUP4 ADD MSTORE PUSH2 0xFAB DUP2 DUP5 PUSH2 0xF08 JUMP JUMPDEST SWAP1 POP SWAP7 SWAP6 POP POP POP POP POP POP JUMP JUMPDEST PUSH1 0x0 DUP1 REVERT JUMPDEST PUSH1 0x0 DUP1 REVERT JUMPDEST PUSH32 0x4E487B7100000000000000000000000000000000000000000000000000000000 PUSH1 0x0 MSTORE PUSH1 0x41 PUSH1 0x4 MSTORE PUSH1 0x24 PUSH1 0x0 REVERT JUMPDEST PUSH2 0xFF9 DUP3 PUSH2 0xEF7 JUMP JUMPDEST DUP2 ADD DUP2 DUP2 LT PUSH8 0xFFFFFFFFFFFFFFFF DUP3 GT OR ISZERO PUSH2 0x1018 JUMPI PUSH2 0x1017 PUSH2 0xFC1 JUMP JUMPDEST JUMPDEST DUP1 PUSH1 0x40 MSTORE POP POP POP JUMP JUMPDEST PUSH1 0x0 PUSH2 0x102B PUSH2 0xE3A JUMP JUMPDEST SWAP1 POP PUSH2 0x1037 DUP3 DUP3 PUSH2 0xFF0 JUMP JUMPDEST SWAP2 SWAP1 POP JUMP JUMPDEST PUSH1 0x0 PUSH8 0xFFFFFFFFFFFFFFFF DUP3 GT ISZERO PUSH2 0x1057 JUMPI PUSH2 0x1056 PUSH2 0xFC1 JUMP JUMPDEST JUMPDEST PUSH2 0x1060 DUP3 PUSH2 0xEF7 JUMP JUMPDEST SWAP1 POP PUSH1 0x20 DUP2 ADD SWAP1 POP SWAP2 SWAP1 POP JUMP JUMPDEST DUP3 DUP2 DUP4 CALLDATACOPY PUSH1 0x0 DUP4 DUP4 ADD MSTORE POP POP POP JUMP JUMPDEST PUSH1 0x0 PUSH2 0x108F PUSH2 0x108A DUP5 PUSH2 0x103C JUMP JUMPDEST PUSH2 0x1021 JUMP JUMPDEST SWAP1 POP DUP3 DUP2 MSTORE PUSH1 0x20 DUP2 ADD DUP5 DUP5 DUP5 ADD GT ISZERO PUSH2 0x10AB JUMPI PUSH2 0x10AA PUSH2 0xFBC JUMP JUMPDEST JUMPDEST PUSH2 0x10B6 DUP5 DUP3 DUP6 PUSH2 0x106D JUMP JUMPDEST POP SWAP4 SWAP3 POP POP POP JUMP JUMPDEST PUSH1 0x0 DUP3 PUSH1 0x1F DUP4 ADD SLT PUSH2 0x10D3 JUMPI PUSH2 0x10D2 PUSH2 0xFB7 JUMP JUMPDEST JUMPDEST DUP2 CALLDATALOAD PUSH2 0x10E3 DUP5 DUP3 PUSH1 0x20 DUP7 ADD PUSH2 0x107C JUMP JUMPDEST SWAP2 POP POP SWAP3 SWAP2 POP POP JUMP JUMPDEST PUSH1 0x0 DUP1 PUSH1 0x40 DUP4 DUP6 SUB SLT ISZERO PUSH2 0x1103 JUMPI PUSH2 0x1102 PUSH2 0xE44 JUMP JUMPDEST JUMPDEST PUSH1 0x0 DUP4 ADD CALLDATALOAD PUSH8 0xFFFFFFFFFFFFFFFF DUP2 GT ISZERO PUSH2 0x1121 JUMPI PUSH2 0x1120 PUSH2 0xE49 JUMP JUMPDEST JUMPDEST PUSH2 0x112D DUP6 DUP3 DUP7 ADD PUSH2 0x10BE JUMP JUMPDEST SWAP3 POP POP PUSH1 0x20 DUP4 ADD CALLDATALOAD PUSH8 0xFFFFFFFFFFFFFFFF DUP2 GT ISZERO PUSH2 0x114E JUMPI PUSH2 0x114D PUSH2 0xE49 JUMP JUMPDEST JUMPDEST PUSH2 0x115A DUP6 DUP3 DUP7 ADD PUSH2 0x10BE JUMP JUMPDEST SWAP2 POP POP SWAP3 POP SWAP3 SWAP1 POP JUMP JUMPDEST PUSH1 0x0 DUP1 PUSH1 0x0 DUP1 PUSH1 0x0 PUSH1 0xA0 DUP7 DUP9 SUB SLT ISZERO PUSH2 0x1180 JUMPI PUSH2 0x117F PUSH2 0xE44 JUMP JUMPDEST JUMPDEST PUSH1 0x0 DUP7 ADD CALLDATALOAD PUSH8 0xFFFFFFFFFFFFFFFF DUP2 GT ISZERO PUSH2 0x119E JUMPI PUSH2 0x119D PUSH2 0xE49 JUMP JUMPDEST JUMPDEST PUSH2 0x11AA DUP9 DUP3 DUP10 ADD PUSH2 0x10BE JUMP JUMPDEST SWAP6 POP POP PUSH1 0x20 DUP7 ADD CALLDATALOAD PUSH8 0xFFFFFFFFFFFFFFFF DUP2 GT ISZERO PUSH2 0x11CB JUMPI PUSH2 0x11CA PUSH2 0xE49 JUMP JUMPDEST JUMPDEST PUSH2 0x11D7 DUP9 DUP3 DUP10 ADD PUSH2 0x10BE JUMP JUMPDEST SWAP5 POP POP PUSH1 0x40 DUP7 ADD CALLDATALOAD PUSH8 0xFFFFFFFFFFFFFFFF DUP2 GT ISZERO PUSH2 0x11F8 JUMPI PUSH2 0x11F7 PUSH2 0xE49 JUMP JUMPDEST JUMPDEST PUSH2 0x1204 DUP9 DUP3 DUP10 ADD PUSH2 0x10BE JUMP JUMPDEST SWAP4 POP POP PUSH1 0x60 DUP7 ADD CALLDATALOAD PUSH8 0xFFFFFFFFFFFFFFFF DUP2 GT ISZERO PUSH2 0x1225 JUMPI PUSH2 0x1224 PUSH2 0xE49 JUMP JUMPDEST JUMPDEST PUSH2 0x1231 DUP9 DUP3 DUP10 ADD PUSH2 0x10BE JUMP JUMPDEST SWAP3 POP POP PUSH1 0x80 DUP7 ADD CALLDATALOAD PUSH8 0xFFFFFFFFFFFFFFFF DUP2 GT ISZERO PUSH2 0x1252 JUMPI PUSH2 0x1251 PUSH2 0xE49 JUMP JUMPDEST JUMPDEST PUSH2 0x125E DUP9 DUP3 DUP10 ADD PUSH2 0x10BE JUMP JUMPDEST SWAP2 POP POP SWAP3 SWAP6 POP SWAP3 SWAP6 SWAP1 SWAP4 POP JUMP JUMPDEST PUSH2 0x1274 DUP2 PUSH2 0xE4E JUMP JUMPDEST DUP3 MSTORE POP POP JUMP JUMPDEST PUSH1 0x0 PUSH1 0x20 DUP3 ADD SWAP1 POP PUSH2 0x128F PUSH1 0x0 DUP4 ADD DUP5 PUSH2 0x126B JUMP JUMPDEST SWAP3 SWAP2 POP POP JUMP JUMPDEST PUSH32 0x4E487B7100000000000000000000000000000000000000000000000000000000 PUSH1 0x0 MSTORE PUSH1 0x22 PUSH1 0x4 MSTORE PUSH1 0x24 PUSH1 0x0 REVERT JUMPDEST PUSH1 0x0 PUSH1 0x2 DUP3 DIV SWAP1 POP PUSH1 0x1 DUP3 AND DUP1 PUSH2 0x12DC JUMPI PUSH1 0x7F DUP3 AND SWAP2 POP JUMPDEST PUSH1 0x20 DUP3 LT DUP2 SUB PUSH2 0x12EF JUMPI PUSH2 0x12EE PUSH2 0x1295 JUMP JUMPDEST JUMPDEST POP SWAP2 SWAP1 POP JUMP JUMPDEST PUSH32 0x4E6F2073747564656E7473206164646564207965740000000000000000000000 PUSH1 0x0 DUP3 ADD MSTORE POP JUMP JUMPDEST PUSH1 0x0 PUSH2 0x132B PUSH1 0x15 DUP4 PUSH2 0xEBC JUMP JUMPDEST SWAP2 POP PUSH2 0x1336 DUP3 PUSH2 0x12F5 JUMP JUMPDEST PUSH1 0x20 DUP3 ADD SWAP1 POP SWAP2 SWAP1 POP JUMP JUMPDEST PUSH1 0x0 PUSH1 0x20 DUP3 ADD SWAP1 POP DUP2 DUP2 SUB PUSH1 0x0 DUP4 ADD MSTORE PUSH2 0x135A DUP2 PUSH2 0x131E JUMP JUMPDEST SWAP1 POP SWAP2 SWAP1 POP JUMP JUMPDEST PUSH32 0x53747564656E74206E6F7420666F756E64000000000000000000000000000000 PUSH1 0x0 DUP3 ADD MSTORE POP JUMP JUMPDEST PUSH1 0x0 PUSH2 0x1397 PUSH1 0x11 DUP4 PUSH2 0xEBC JUMP JUMPDEST SWAP2 POP PUSH2 0x13A2 DUP3 PUSH2 0x1361 JUMP JUMPDEST PUSH1 0x20 DUP3 ADD SWAP1 POP SWAP2 SWAP1 POP JUMP JUMPDEST PUSH1 0x0 PUSH1 0x20 DUP3 ADD SWAP1 POP DUP2 DUP2 SUB PUSH1 0x0 DUP4 ADD MSTORE PUSH2 0x13C6 DUP2 PUSH2 0x138A JUMP JUMPDEST SWAP1 POP SWAP2 SWAP1 POP JUMP JUMPDEST PUSH1 0x0 DUP2 SWAP1 POP DUP2 PUSH1 0x0 MSTORE PUSH1 0x20 PUSH1 0x0 KECCAK256 SWAP1 POP SWAP2 SWAP1 POP JUMP JUMPDEST PUSH1 0x0 PUSH1 0x20 PUSH1 0x1F DUP4 ADD DIV SWAP1 POP SWAP2 SWAP1 POP JUMP JUMPDEST PUSH1 0x0 DUP3 DUP3 SHL SWAP1 POP SWAP3 SWAP2 POP POP JUMP JUMPDEST PUSH1 0x0 PUSH1 0x8 DUP4 MUL PUSH2 0x142F PUSH32 0xFFFFFFFFFFFFFFFFFFFFFFFFFFFFFFFFFFFFFFFFFFFFFFFFFFFFFFFFFFFFFFFF DUP3 PUSH2 0x13F2 JUMP JUMPDEST PUSH2 0x1439 DUP7 DUP4 PUSH2 0x13F2 JUMP JUMPDEST SWAP6 POP DUP1 NOT DUP5 AND SWAP4 POP DUP1 DUP7 AND DUP5 OR SWAP3 POP POP POP SWAP4 SWAP3 POP POP POP JUMP JUMPDEST PUSH1 0x0 DUP2 SWAP1 POP SWAP2 SWAP1 POP JUMP JUMPDEST PUSH1 0x0 PUSH2 0x1476 PUSH2 0x1471 PUSH2 0x146C DUP5 PUSH2 0xE4E JUMP JUMPDEST PUSH2 0x1451 JUMP JUMPDEST PUSH2 0xE4E JUMP JUMPDEST SWAP1 POP SWAP2 SWAP1 POP JUMP JUMPDEST PUSH1 0x0 DUP2 SWAP1 POP SWAP2 SWAP1 POP JUMP JUMPDEST PUSH2 0x1490 DUP4 PUSH2 0x145B JUMP JUMPDEST PUSH2 0x14A4 PUSH2 0x149C DUP3 PUSH2 0x147D JUMP JUMPDEST DUP5 DUP5 SLOAD PUSH2 0x13FF JUMP JUMPDEST DUP3 SSTORE POP POP POP POP JUMP JUMPDEST PUSH1 0x0 SWAP1 JUMP JUMPDEST PUSH2 0x14B9 PUSH2 0x14AC JUMP JUMPDEST PUSH2 0x14C4 DUP2 DUP5 DUP5 PUSH2 0x1487 JUMP JUMPDEST POP POP POP JUMP JUMPDEST JUMPDEST DUP2 DUP2 LT ISZERO PUSH2 0x14E8 JUMPI PUSH2 0x14DD PUSH1 0x0 DUP3 PUSH2 0x14B1 JUMP JUMPDEST PUSH1 0x1 DUP2 ADD SWAP1 POP PUSH2 0x14CA JUMP JUMPDEST POP POP JUMP JUMPDEST PUSH1 0x1F DUP3 GT ISZERO PUSH2 0x152D JUMPI PUSH2 0x14FE DUP2 PUSH2 0x13CD JUMP JUMPDEST PUSH2 0x1507 DUP5 PUSH2 0x13E2 JUMP JUMPDEST DUP2 ADD PUSH1 0x20 DUP6 LT ISZERO PUSH2 0x1516 JUMPI DUP2 SWAP1 POP JUMPDEST PUSH2 0x152A PUSH2 0x1522 DUP6 PUSH2 0x13E2 JUMP JUMPDEST DUP4 ADD DUP3 PUSH2 0x14C9 JUMP JUMPDEST POP POP JUMPDEST POP POP POP JUMP JUMPDEST PUSH1 0x0 DUP3 DUP3 SHR SWAP1 POP SWAP3 SWAP2 POP POP JUMP JUMPDEST PUSH1 0x0 PUSH2 0x1550 PUSH1 0x0 NOT DUP5 PUSH1 0x8 MUL PUSH2 0x1532 JUMP JUMPDEST NOT DUP1 DUP4 AND SWAP2 POP POP SWAP3 SWAP2 POP POP JUMP JUMPDEST PUSH1 0x0 PUSH2 0x1569 DUP4 DUP4 PUSH2 0x153F JUMP JUMPDEST SWAP2 POP DUP3 PUSH1 0x2 MUL DUP3 OR SWAP1 POP SWAP3 SWAP2 POP POP JUMP JUMPDEST PUSH2 0x1582 DUP3 PUSH2 0xEB1 JUMP JUMPDEST PUSH8 0xFFFFFFFFFFFFFFFF DUP2 GT ISZERO PUSH2 0x159B JUMPI PUSH2 0x159A PUSH2 0xFC1 JUMP JUMPDEST JUMPDEST PUSH2 0x15A5 DUP3 SLOAD PUSH2 0x12C4 JUMP JUMPDEST PUSH2 0x15B0 DUP3 DUP3 DUP6 PUSH2 0x14EC JUMP JUMPDEST PUSH1 0x0 PUSH1 0x20 SWAP1 POP PUSH1 0x1F DUP4 GT PUSH1 0x1 DUP2 EQ PUSH2 0x15E3 JUMPI PUSH1 0x0 DUP5 ISZERO PUSH2 0x15D1 JUMPI DUP3 DUP8 ADD MLOAD SWAP1 POP JUMPDEST PUSH2 0x15DB DUP6 DUP3 PUSH2 0x155D JUMP JUMPDEST DUP7 SSTORE POP PUSH2 0x1643 JUMP JUMPDEST PUSH1 0x1F NOT DUP5 AND PUSH2 0x15F1 DUP7 PUSH2 0x13CD JUMP JUMPDEST PUSH1 0x0 JUMPDEST DUP3 DUP2 LT ISZERO PUSH2 0x1619 JUMPI DUP5 DUP10 ADD MLOAD DUP3 SSTORE PUSH1 0x1 DUP3 ADD SWAP2 POP PUSH1 0x20 DUP6 ADD SWAP5 POP PUSH1 0x20 DUP2 ADD SWAP1 POP PUSH2 0x15F4 JUMP JUMPDEST DUP7 DUP4 LT ISZERO PUSH2 0x1636 JUMPI DUP5 DUP10 ADD MLOAD PUSH2 0x1632 PUSH1 0x1F DUP10 AND DUP3 PUSH2 0x153F JUMP JUMPDEST DUP4 SSTORE POP JUMPDEST PUSH1 0x1 PUSH1 0x2 DUP9 MUL ADD DUP9 SSTORE POP POP POP JUMPDEST POP POP POP POP POP POP JUMP JUMPDEST PUSH32 0x4E487B7100000000000000000000000000000000000000000000000000000000 PUSH1 0x0 MSTORE PUSH1 0x11 PUSH1 0x4 MSTORE PUSH1 0x24 PUSH1 0x0 REVERT JUMPDEST PUSH1 0x0 PUSH2 0x1685 DUP3 PUSH2 0xE4E JUMP JUMPDEST SWAP2 POP PUSH32 0xFFFFFFFFFFFFFFFFFFFFFFFFFFFFFFFFFFFFFFFFFFFFFFFFFFFFFFFFFFFFFFFF DUP3 SUB PUSH2 0x16B7 JUMPI PUSH2 0x16B6 PUSH2 0x164B JUMP JUMPDEST JUMPDEST PUSH1 0x1 DUP3 ADD SWAP1 POP SWAP2 SWAP1 POP JUMP JUMPDEST PUSH1 0x0 DUP2 SWAP1 POP SWAP3 SWAP2 POP POP JUMP JUMPDEST PUSH1 0x0 PUSH2 0x16D8 DUP3 PUSH2 0xEB1 JUMP JUMPDEST PUSH2 0x16E2 DUP2 DUP6 PUSH2 0x16C2 JUMP JUMPDEST SWAP4 POP PUSH2 0x16F2 DUP2 DUP6 PUSH1 0x20 DUP7 ADD PUSH2 0xECD JUMP JUMPDEST DUP1 DUP5 ADD SWAP2 POP POP SWAP3 SWAP2 POP POP JUMP JUMPDEST PUSH1 0x0 PUSH2 0x170A DUP3 DUP5 PUSH2 0x16CD JUMP JUMPDEST SWAP2 POP DUP2 SWAP1 POP SWAP3 SWAP2 POP POP JUMP INVALID LOG2 PUSH5 0x6970667358 0x22 SLT KECCAK256 JUMPDEST 0xE6 LOG0 0x1E RETURN 0xD0 SUB 0xB9 0xC5 0xD2 0xDF SHR DUP6 PUSH21 0x7ADC85D824F1134C7BD59B6348C5C7DA739664736F PUSH13 0x63430008190033000000000000 "
	},
	"abi": [
		{
			"anonymous": false,
			"inputs": [
				{
					"indexed": true,
					"internalType": "uint256",
					"name": "index",
					"type": "uint256"
				},
				{
					"indexed": false,
					"internalType": "string",
					"name": "studentName",
					"type": "string"
				},
				{
					"indexed": false,
					"internalType": "string",
					"name": "adminName",
					"type": "string"
				},
				{
					"indexed": false,
					"internalType": "string",
					"name": "ipfsHash",
					"type": "string"
				},
				{
					"indexed": false,
					"internalType": "string",
					"name": "blake3Hash",
					"type": "string"
				},
				{
					"indexed": false,
					"internalType": "string",
					"name": "timestamp",
					"type": "string"
				}
			],
			"name": "StudentAdded",
			"type": "event"
		},
		{
			"inputs": [
				{
					"internalType": "string",
					"name": "_studentName",
					"type": "string"
				},
				{
					"internalType": "string",
					"name": "_adminName",
					"type": "string"
				},
				{
					"internalType": "string",
					"name": "_ipfsHash",
					"type": "string"
				},
				{
					"internalType": "string",
					"name": "_blake3Hash",
					"type": "string"
				},
				{
					"internalType": "string",
					"name": "_timestamp",
					"type": "string"
				}
			],
			"name": "addStudentData",
			"outputs": [],
			"stateMutability": "nonpayable",
			"type": "function"
		},
		{
			"inputs": [
				{
					"internalType": "string",
					"name": "queryType",
					"type": "string"
				},
				{
					"internalType": "string",
					"name": "queryValue",
					"type": "string"
				}
			],
			"name": "getStudentDataByQuery",
			"outputs": [
				{
					"internalType": "string",
					"name": "studentName",
					"type": "string"
				},
				{
					"internalType": "string",
					"name": "adminName",
					"type": "string"
				},
				{
					"internalType": "string",
					"name": "ipfsHash",
					"type": "string"
				},
				{
					"internalType": "string",
					"name": "blake3Hash",
					"type": "string"
				},
				{
					"internalType": "string",
					"name": "timestamp",
					"type": "string"
				}
			],
			"stateMutability": "view",
			"type": "function"
		},
		{
			"inputs": [],
			"name": "studentCount",
			"outputs": [
				{
					"internalType": "uint256",
					"name": "",
					"type": "uint256"
				}
			],
			"stateMutability": "view",
			"type": "function"
		},
		{
			"inputs": [
				{
					"internalType": "uint256",
					"name": "",
					"type": "uint256"
				}
			],
			"name": "students",
			"outputs": [
				{
					"internalType": "string",
					"name": "studentName",
					"type": "string"
				},
				{
					"internalType": "string",
					"name": "adminName",
					"type": "string"
				},
				{
					"internalType": "string",
					"name": "ipfsHash",
					"type": "string"
				},
				{
					"internalType": "string",
					"name": "blake3Hash",
					"type": "string"
				},
				{
					"internalType": "string",
					"name": "timestamp",
					"type": "string"
				}
			],
			"stateMutability": "view",
			"type": "function"
		}
	],
	"storageLayout": {
		"storage": [
			{
				"astId": 17,
				"contract": "dsda.sol:StudentDataStorage",
				"label": "students",
				"offset": 0,
				"slot": "0",
				"type": "t_mapping(t_uint256,t_struct(Student)12_storage)"
			},
			{
				"astId": 19,
				"contract": "dsda.sol:StudentDataStorage",
				"label": "studentCount",
				"offset": 0,
				"slot": "1",
				"type": "t_uint256"
			}
		],
		"types": {
			"t_mapping(t_uint256,t_struct(Student)12_storage)": {
				"encoding": "mapping",
				"key": "t_uint256",
				"label": "mapping(uint256 => struct StudentDataStorage.Student)",
				"numberOfBytes": "32",
				"value": "t_struct(Student)12_storage"
			},
			"t_string_storage": {
				"encoding": "bytes",
				"label": "string",
				"numberOfBytes": "32"
			},
			"t_struct(Student)12_storage": {
				"encoding": "inplace",
				"label": "struct StudentDataStorage.Student",
				"members": [
					{
						"astId": 3,
						"contract": "dsda.sol:StudentDataStorage",
						"label": "studentName",
						"offset": 0,
						"slot": "0",
						"type": "t_string_storage"
					},
					{
						"astId": 5,
						"contract": "dsda.sol:StudentDataStorage",
						"label": "adminName",
						"offset": 0,
						"slot": "1",
						"type": "t_string_storage"
					},
					{
						"astId": 7,
						"contract": "dsda.sol:StudentDataStorage",
						"label": "ipfsHash",
						"offset": 0,
						"slot": "2",
						"type": "t_string_storage"
					},
					{
						"astId": 9,
						"contract": "dsda.sol:StudentDataStorage",
						"label": "blake3Hash",
						"offset": 0,
						"slot": "3",
						"type": "t_string_storage"
					},
					{
						"astId": 11,
						"contract": "dsda.sol:StudentDataStorage",
						"label": "timestamp",
						"offset": 0,
						"slot": "4",
						"type": "t_string_storage"
					}
				],
				"numberOfBytes": "160"
			},
			"t_uint256": {
				"encoding": "inplace",
				"label": "uint256",
				"numberOfBytes": "32"
			}
		}
	},
	"web3Deploy": "var studentdatastorageContract = new web3.eth.Contract([{\"anonymous\":false,\"inputs\":[{\"indexed\":true,\"internalType\":\"uint256\",\"name\":\"index\",\"type\":\"uint256\"},{\"indexed\":false,\"internalType\":\"string\",\"name\":\"studentName\",\"type\":\"string\"},{\"indexed\":false,\"internalType\":\"string\",\"name\":\"adminName\",\"type\":\"string\"},{\"indexed\":false,\"internalType\":\"string\",\"name\":\"ipfsHash\",\"type\":\"string\"},{\"indexed\":false,\"internalType\":\"string\",\"name\":\"blake3Hash\",\"type\":\"string\"},{\"indexed\":false,\"internalType\":\"string\",\"name\":\"timestamp\",\"type\":\"string\"}],\"name\":\"StudentAdded\",\"type\":\"event\"},{\"inputs\":[{\"internalType\":\"string\",\"name\":\"_studentName\",\"type\":\"string\"},{\"internalType\":\"string\",\"name\":\"_adminName\",\"type\":\"string\"},{\"internalType\":\"string\",\"name\":\"_ipfsHash\",\"type\":\"string\"},{\"internalType\":\"string\",\"name\":\"_blake3Hash\",\"type\":\"string\"},{\"internalType\":\"string\",\"name\":\"_timestamp\",\"type\":\"string\"}],\"name\":\"addStudentData\",\"outputs\":[],\"stateMutability\":\"nonpayable\",\"type\":\"function\"},{\"inputs\":[{\"internalType\":\"string\",\"name\":\"queryType\",\"type\":\"string\"},{\"internalType\":\"string\",\"name\":\"queryValue\",\"type\":\"string\"}],\"name\":\"getStudentDataByQuery\",\"outputs\":[{\"internalType\":\"string\",\"name\":\"studentName\",\"type\":\"string\"},{\"internalType\":\"string\",\"name\":\"adminName\",\"type\":\"string\"},{\"internalType\":\"string\",\"name\":\"ipfsHash\",\"type\":\"string\"},{\"internalType\":\"string\",\"name\":\"blake3Hash\",\"type\":\"string\"},{\"internalType\":\"string\",\"name\":\"timestamp\",\"type\":\"string\"}],\"stateMutability\":\"view\",\"type\":\"function\"},{\"inputs\":[],\"name\":\"studentCount\",\"outputs\":[{\"internalType\":\"uint256\",\"name\":\"\",\"type\":\"uint256\"}],\"stateMutability\":\"view\",\"type\":\"function\"},{\"inputs\":[{\"internalType\":\"uint256\",\"name\":\"\",\"type\":\"uint256\"}],\"name\":\"students\",\"outputs\":[{\"internalType\":\"string\",\"name\":\"studentName\",\"type\":\"string\"},{\"internalType\":\"string\",\"name\":\"adminName\",\"type\":\"string\"},{\"internalType\":\"string\",\"name\":\"ipfsHash\",\"type\":\"string\"},{\"internalType\":\"string\",\"name\":\"blake3Hash\",\"type\":\"string\"},{\"internalType\":\"string\",\"name\":\"timestamp\",\"type\":\"string\"}],\"stateMutability\":\"view\",\"type\":\"function\"}]);\nvar studentdatastorage = studentdatastorageContract.deploy({\n     data: '0x6080604052348015600f57600080fd5b5061174b8061001f6000396000f3fe608060405234801561001057600080fd5b506004361061004c5760003560e01c806306ead22e146100515780635d52d08f14610085578063cb451629146100b9578063e581f9ee146100d5575b600080fd5b61006b60048036038101906100669190610e84565b6100f3565b60405161007c959493929190610f41565b60405180910390f35b61009f600480360381019061009a91906110ec565b6103d1565b6040516100b0959493929190610f41565b60405180910390f35b6100d360048036038101906100ce9190611164565b610cce565b005b6100dd610ddb565b6040516100ea919061127a565b60405180910390f35b6000602052806000526040600020600091509050806000018054610116906112c4565b80601f0160208091040260200160405190810160405280929190818152602001828054610142906112c4565b801561018f5780601f106101645761010080835404028352916020019161018f565b820191906000526020600020905b81548152906001019060200180831161017257829003601f168201915b5050505050908060010180546101a4906112c4565b80601f01602080910402602001604051908101604052809291908181526020018280546101d0906112c4565b801561021d5780601f106101f25761010080835404028352916020019161021d565b820191906000526020600020905b81548152906001019060200180831161020057829003601f168201915b505050505090806002018054610232906112c4565b80601f016020809104026020016040519081016040528092919081815260200182805461025e906112c4565b80156102ab5780601f10610280576101008083540402835291602001916102ab565b820191906000526020600020905b81548152906001019060200180831161028e57829003601f168201915b5050505050908060030180546102c0906112c4565b80601f01602080910402602001604051908101604052809291908181526020018280546102ec906112c4565b80156103395780601f1061030e57610100808354040283529160200191610339565b820191906000526020600020905b81548152906001019060200180831161031c57829003601f168201915b50505050509080600401805461034e906112c4565b80601f016020809104026020016040519081016040528092919081815260200182805461037a906112c4565b80156103c75780601f1061039c576101008083540402835291602001916103c7565b820191906000526020600020905b8154815290600101906020018083116103aa57829003601f168201915b5050505050905085565b606080606080606060006001541161041e576040517f08c379a000000000000000000000000000000000000000000000000000000000815260040161041590611341565b60405180910390fd5b60005b600154811015610c88576104d2600080838152602001908152602001600020600001805461044e906112c4565b80601f016020809104026020016040519081016040528092919081815260200182805461047a906112c4565b80156104c75780601f1061049c576101008083540402835291602001916104c7565b820191906000526020600020905b8154815290600101906020018083116104aa57829003601f168201915b505050505088610de1565b80156105195750610518886040518060400160405280600b81526020017f73747564656e744e616d65000000000000000000000000000000000000000000815250610de1565b5b1561085357600080828152602001908152602001600020600001600080838152602001908152602001600020600101600080848152602001908152602001600020600201600080858152602001908152602001600020600301600080868152602001908152602001600020600401848054610593906112c4565b80601f01602080910402602001604051908101604052809291908181526020018280546105bf906112c4565b801561060c5780601f106105e15761010080835404028352916020019161060c565b820191906000526020600020905b8154815290600101906020018083116105ef57829003601f168201915b5050505050945083805461061f906112c4565b80601f016020809104026020016040519081016040528092919081815260200182805461064b906112c4565b80156106985780601f1061066d57610100808354040283529160200191610698565b820191906000526020600020905b81548152906001019060200180831161067b57829003601f168201915b505050505093508280546106ab906112c4565b80601f01602080910402602001604051908101604052809291908181526020018280546106d7906112c4565b80156107245780601f106106f957610100808354040283529160200191610724565b820191906000526020600020905b81548152906001019060200180831161070757829003601f168201915b50505050509250818054610737906112c4565b80601f0160208091040260200160405190810160405280929190818152602001828054610763906112c4565b80156107b05780601f10610785576101008083540402835291602001916107b0565b820191906000526020600020905b81548152906001019060200180831161079357829003601f168201915b505050505091508080546107c3906112c4565b80601f01602080910402602001604051908101604052809291908181526020018280546107ef906112c4565b801561083c5780601f106108115761010080835404028352916020019161083c565b820191906000526020600020905b81548152906001019060200180831161081f57829003601f168201915b505050505090509550955095509550955050610cc4565b6108fa6000808381526020019081526020016000206002018054610876906112c4565b80601f01602080910402602001604051908101604052809291908181526020018280546108a2906112c4565b80156108ef5780601f106108c4576101008083540402835291602001916108ef565b820191906000526020600020905b8154815290600101906020018083116108d257829003601f168201915b505050505088610de1565b80156109415750610940886040518060400160405280600881526020017f6970667348617368000000000000000000000000000000000000000000000000815250610de1565b5b15610c7b576000808281526020019081526020016000206000016000808381526020019081526020016000206001016000808481526020019081526020016000206002016000808581526020019081526020016000206003016000808681526020019081526020016000206004018480546109bb906112c4565b80601f01602080910402602001604051908101604052809291908181526020018280546109e7906112c4565b8015610a345780601f10610a0957610100808354040283529160200191610a34565b820191906000526020600020905b815481529060010190602001808311610a1757829003601f168201915b50505050509450838054610a47906112c4565b80601f0160208091040260200160405190810160405280929190818152602001828054610a73906112c4565b8015610ac05780601f10610a9557610100808354040283529160200191610ac0565b820191906000526020600020905b815481529060010190602001808311610aa357829003601f168201915b50505050509350828054610ad3906112c4565b80601f0160208091040260200160405190810160405280929190818152602001828054610aff906112c4565b8015610b4c5780601f10610b2157610100808354040283529160200191610b4c565b820191906000526020600020905b815481529060010190602001808311610b2f57829003601f168201915b50505050509250818054610b5f906112c4565b80601f0160208091040260200160405190810160405280929190818152602001828054610b8b906112c4565b8015610bd85780601f10610bad57610100808354040283529160200191610bd8565b820191906000526020600020905b815481529060010190602001808311610bbb57829003601f168201915b50505050509150808054610beb906112c4565b80601f0160208091040260200160405190810160405280929190818152602001828054610c17906112c4565b8015610c645780601f10610c3957610100808354040283529160200191610c64565b820191906000526020600020905b815481529060010190602001808311610c4757829003601f168201915b505050505090509550955095509550955050610cc4565b8080600101915050610421565b506040517f08c379a0000000000000000000000000000000000000000000000000000000008152600401610cbb906113ad565b60405180910390fd5b9295509295909350565b6040518060a001604052808681526020018581526020018481526020018381526020018281525060008060015481526020019081526020016000206000820151816000019081610d1e9190611579565b506020820151816001019081610d349190611579565b506040820151816002019081610d4a9190611579565b506060820151816003019081610d609190611579565b506080820151816004019081610d769190611579565b509050506001547f552d7a7b2cc9fc6db021bcd1a30d794aac5937d58dff36ae3bbd24d18fe9085e8686868686604051610db4959493929190610f41565b60405180910390a260016000815480929190610dcf9061167a565b91905055505050505050565b60015481565b600081604051602001610df491906116fe565b6040516020818303038152906040528051906020012083604051602001610e1b91906116fe565b6040516020818303038152906040528051906020012014905092915050565b6000604051905090565b600080fd5b600080fd5b6000819050919050565b610e6181610e4e565b8114610e6c57600080fd5b50565b600081359050610e7e81610e58565b92915050565b600060208284031215610e9a57610e99610e44565b5b6000610ea884828501610e6f565b91505092915050565b600081519050919050565b600082825260208201905092915050565b60005b83811015610eeb578082015181840152602081019050610ed0565b60008484015250505050565b6000601f19601f8301169050919050565b6000610f1382610eb1565b610f1d8185610ebc565b9350610f2d818560208601610ecd565b610f3681610ef7565b840191505092915050565b600060a0820190508181036000830152610f5b8188610f08565b90508181036020830152610f6f8187610f08565b90508181036040830152610f838186610f08565b90508181036060830152610f978185610f08565b90508181036080830152610fab8184610f08565b90509695505050505050565b600080fd5b600080fd5b7f4e487b7100000000000000000000000000000000000000000000000000000000600052604160045260246000fd5b610ff982610ef7565b810181811067ffffffffffffffff8211171561101857611017610fc1565b5b80604052505050565b600061102b610e3a565b90506110378282610ff0565b919050565b600067ffffffffffffffff82111561105757611056610fc1565b5b61106082610ef7565b9050602081019050919050565b82818337600083830152505050565b600061108f61108a8461103c565b611021565b9050828152602081018484840111156110ab576110aa610fbc565b5b6110b684828561106d565b509392505050565b600082601f8301126110d3576110d2610fb7565b5b81356110e384826020860161107c565b91505092915050565b6000806040838503121561110357611102610e44565b5b600083013567ffffffffffffffff81111561112157611120610e49565b5b61112d858286016110be565b925050602083013567ffffffffffffffff81111561114e5761114d610e49565b5b61115a858286016110be565b9150509250929050565b600080600080600060a086880312156111805761117f610e44565b5b600086013567ffffffffffffffff81111561119e5761119d610e49565b5b6111aa888289016110be565b955050602086013567ffffffffffffffff8111156111cb576111ca610e49565b5b6111d7888289016110be565b945050604086013567ffffffffffffffff8111156111f8576111f7610e49565b5b611204888289016110be565b935050606086013567ffffffffffffffff81111561122557611224610e49565b5b611231888289016110be565b925050608086013567ffffffffffffffff81111561125257611251610e49565b5b61125e888289016110be565b9150509295509295909350565b61127481610e4e565b82525050565b600060208201905061128f600083018461126b565b92915050565b7f4e487b7100000000000000000000000000000000000000000000000000000000600052602260045260246000fd5b600060028204905060018216806112dc57607f821691505b6020821081036112ef576112ee611295565b5b50919050565b7f4e6f2073747564656e7473206164646564207965740000000000000000000000600082015250565b600061132b601583610ebc565b9150611336826112f5565b602082019050919050565b6000602082019050818103600083015261135a8161131e565b9050919050565b7f53747564656e74206e6f7420666f756e64000000000000000000000000000000600082015250565b6000611397601183610ebc565b91506113a282611361565b602082019050919050565b600060208201905081810360008301526113c68161138a565b9050919050565b60008190508160005260206000209050919050565b60006020601f8301049050919050565b600082821b905092915050565b60006008830261142f7fffffffffffffffffffffffffffffffffffffffffffffffffffffffffffffffff826113f2565b61143986836113f2565b95508019841693508086168417925050509392505050565b6000819050919050565b600061147661147161146c84610e4e565b611451565b610e4e565b9050919050565b6000819050919050565b6114908361145b565b6114a461149c8261147d565b8484546113ff565b825550505050565b600090565b6114b96114ac565b6114c4818484611487565b505050565b5b818110156114e8576114dd6000826114b1565b6001810190506114ca565b5050565b601f82111561152d576114fe816113cd565b611507846113e2565b81016020851015611516578190505b61152a611522856113e2565b8301826114c9565b50505b505050565b600082821c905092915050565b600061155060001984600802611532565b1980831691505092915050565b6000611569838361153f565b9150826002028217905092915050565b61158282610eb1565b67ffffffffffffffff81111561159b5761159a610fc1565b5b6115a582546112c4565b6115b08282856114ec565b600060209050601f8311600181146115e357600084156115d1578287015190505b6115db858261155d565b865550611643565b601f1984166115f1866113cd565b60005b82811015611619578489015182556001820191506020850194506020810190506115f4565b868310156116365784890151611632601f89168261153f565b8355505b6001600288020188555050505b505050505050565b7f4e487b7100000000000000000000000000000000000000000000000000000000600052601160045260246000fd5b600061168582610e4e565b91507fffffffffffffffffffffffffffffffffffffffffffffffffffffffffffffffff82036116b7576116b661164b565b5b600182019050919050565b600081905092915050565b60006116d882610eb1565b6116e281856116c2565b93506116f2818560208601610ecd565b80840191505092915050565b600061170a82846116cd565b91508190509291505056fea26469706673582212205be6a01ef3d003b9c5d2df1c85747adc85d824f1134c7bd59b6348c5c7da739664736f6c63430008190033', \n     arguments: [\n     ]\n}).send({\n     from: web3.eth.accounts[0], \n     gas: '4700000'\n   }, function (e, contract){\n    console.log(e, contract);\n    if (typeof contract.address !== 'undefined') {\n         console.log('Contract mined! address: ' + contract.address + ' transactionHash: ' + contract.transactionHash);\n    }\n })",
	"functionHashes": {
		"cb451629": "addStudentData(string,string,string,string,string)",
		"5d52d08f": "getStudentDataByQuery(string,string)",
		"e581f9ee": "studentCount()",
		"06ead22e": "students(uint256)"
	},
	"gasEstimates": {
		"Creation": {
			"codeDepositCost": "1192600",
			"executionCost": "1241",
			"totalCost": "1193841"
		},
		"External": {
			"addStudentData(string,string,string,string,string)": "infinite",
			"getStudentDataByQuery(string,string)": "infinite",
			"studentCount()": "2473",
			"students(uint256)": "infinite"
		},
		"Internal": {
			"compareStrings(string memory,string memory)": "infinite"
		}
	},
	"devdoc": {
		"kind": "dev",
		"methods": {},
		"version": 1
	},
	"userdoc": {
		"kind": "user",
		"methods": {},
		"version": 1
	},
	"Runtime Bytecode": {
		"immutableReferences": {},
		"linkReferences": {},
		"object": "608060405234801561001057600080fd5b506004361061004c5760003560e01c806306ead22e146100515780635d52d08f14610085578063cb451629146100b9578063e581f9ee146100d5575b600080fd5b61006b60048036038101906100669190610e84565b6100f3565b60405161007c959493929190610f41565b60405180910390f35b61009f600480360381019061009a91906110ec565b6103d1565b6040516100b0959493929190610f41565b60405180910390f35b6100d360048036038101906100ce9190611164565b610cce565b005b6100dd610ddb565b6040516100ea919061127a565b60405180910390f35b6000602052806000526040600020600091509050806000018054610116906112c4565b80601f0160208091040260200160405190810160405280929190818152602001828054610142906112c4565b801561018f5780601f106101645761010080835404028352916020019161018f565b820191906000526020600020905b81548152906001019060200180831161017257829003601f168201915b5050505050908060010180546101a4906112c4565b80601f01602080910402602001604051908101604052809291908181526020018280546101d0906112c4565b801561021d5780601f106101f25761010080835404028352916020019161021d565b820191906000526020600020905b81548152906001019060200180831161020057829003601f168201915b505050505090806002018054610232906112c4565b80601f016020809104026020016040519081016040528092919081815260200182805461025e906112c4565b80156102ab5780601f10610280576101008083540402835291602001916102ab565b820191906000526020600020905b81548152906001019060200180831161028e57829003601f168201915b5050505050908060030180546102c0906112c4565b80601f01602080910402602001604051908101604052809291908181526020018280546102ec906112c4565b80156103395780601f1061030e57610100808354040283529160200191610339565b820191906000526020600020905b81548152906001019060200180831161031c57829003601f168201915b50505050509080600401805461034e906112c4565b80601f016020809104026020016040519081016040528092919081815260200182805461037a906112c4565b80156103c75780601f1061039c576101008083540402835291602001916103c7565b820191906000526020600020905b8154815290600101906020018083116103aa57829003601f168201915b5050505050905085565b606080606080606060006001541161041e576040517f08c379a000000000000000000000000000000000000000000000000000000000815260040161041590611341565b60405180910390fd5b60005b600154811015610c88576104d2600080838152602001908152602001600020600001805461044e906112c4565b80601f016020809104026020016040519081016040528092919081815260200182805461047a906112c4565b80156104c75780601f1061049c576101008083540402835291602001916104c7565b820191906000526020600020905b8154815290600101906020018083116104aa57829003601f168201915b505050505088610de1565b80156105195750610518886040518060400160405280600b81526020017f73747564656e744e616d65000000000000000000000000000000000000000000815250610de1565b5b1561085357600080828152602001908152602001600020600001600080838152602001908152602001600020600101600080848152602001908152602001600020600201600080858152602001908152602001600020600301600080868152602001908152602001600020600401848054610593906112c4565b80601f01602080910402602001604051908101604052809291908181526020018280546105bf906112c4565b801561060c5780601f106105e15761010080835404028352916020019161060c565b820191906000526020600020905b8154815290600101906020018083116105ef57829003601f168201915b5050505050945083805461061f906112c4565b80601f016020809104026020016040519081016040528092919081815260200182805461064b906112c4565b80156106985780601f1061066d57610100808354040283529160200191610698565b820191906000526020600020905b81548152906001019060200180831161067b57829003601f168201915b505050505093508280546106ab906112c4565b80601f01602080910402602001604051908101604052809291908181526020018280546106d7906112c4565b80156107245780601f106106f957610100808354040283529160200191610724565b820191906000526020600020905b81548152906001019060200180831161070757829003601f168201915b50505050509250818054610737906112c4565b80601f0160208091040260200160405190810160405280929190818152602001828054610763906112c4565b80156107b05780601f10610785576101008083540402835291602001916107b0565b820191906000526020600020905b81548152906001019060200180831161079357829003601f168201915b505050505091508080546107c3906112c4565b80601f01602080910402602001604051908101604052809291908181526020018280546107ef906112c4565b801561083c5780601f106108115761010080835404028352916020019161083c565b820191906000526020600020905b81548152906001019060200180831161081f57829003601f168201915b505050505090509550955095509550955050610cc4565b6108fa6000808381526020019081526020016000206002018054610876906112c4565b80601f01602080910402602001604051908101604052809291908181526020018280546108a2906112c4565b80156108ef5780601f106108c4576101008083540402835291602001916108ef565b820191906000526020600020905b8154815290600101906020018083116108d257829003601f168201915b505050505088610de1565b80156109415750610940886040518060400160405280600881526020017f6970667348617368000000000000000000000000000000000000000000000000815250610de1565b5b15610c7b576000808281526020019081526020016000206000016000808381526020019081526020016000206001016000808481526020019081526020016000206002016000808581526020019081526020016000206003016000808681526020019081526020016000206004018480546109bb906112c4565b80601f01602080910402602001604051908101604052809291908181526020018280546109e7906112c4565b8015610a345780601f10610a0957610100808354040283529160200191610a34565b820191906000526020600020905b815481529060010190602001808311610a1757829003601f168201915b50505050509450838054610a47906112c4565b80601f0160208091040260200160405190810160405280929190818152602001828054610a73906112c4565b8015610ac05780601f10610a9557610100808354040283529160200191610ac0565b820191906000526020600020905b815481529060010190602001808311610aa357829003601f168201915b50505050509350828054610ad3906112c4565b80601f0160208091040260200160405190810160405280929190818152602001828054610aff906112c4565b8015610b4c5780601f10610b2157610100808354040283529160200191610b4c565b820191906000526020600020905b815481529060010190602001808311610b2f57829003601f168201915b50505050509250818054610b5f906112c4565b80601f0160208091040260200160405190810160405280929190818152602001828054610b8b906112c4565b8015610bd85780601f10610bad57610100808354040283529160200191610bd8565b820191906000526020600020905b815481529060010190602001808311610bbb57829003601f168201915b50505050509150808054610beb906112c4565b80601f0160208091040260200160405190810160405280929190818152602001828054610c17906112c4565b8015610c645780601f10610c3957610100808354040283529160200191610c64565b820191906000526020600020905b815481529060010190602001808311610c4757829003601f168201915b505050505090509550955095509550955050610cc4565b8080600101915050610421565b506040517f08c379a0000000000000000000000000000000000000000000000000000000008152600401610cbb906113ad565b60405180910390fd5b9295509295909350565b6040518060a001604052808681526020018581526020018481526020018381526020018281525060008060015481526020019081526020016000206000820151816000019081610d1e9190611579565b506020820151816001019081610d349190611579565b506040820151816002019081610d4a9190611579565b506060820151816003019081610d609190611579565b506080820151816004019081610d769190611579565b509050506001547f552d7a7b2cc9fc6db021bcd1a30d794aac5937d58dff36ae3bbd24d18fe9085e8686868686604051610db4959493929190610f41565b60405180910390a260016000815480929190610dcf9061167a565b91905055505050505050565b60015481565b600081604051602001610df491906116fe565b6040516020818303038152906040528051906020012083604051602001610e1b91906116fe565b6040516020818303038152906040528051906020012014905092915050565b6000604051905090565b600080fd5b600080fd5b6000819050919050565b610e6181610e4e565b8114610e6c57600080fd5b50565b600081359050610e7e81610e58565b92915050565b600060208284031215610e9a57610e99610e44565b5b6000610ea884828501610e6f565b91505092915050565b600081519050919050565b600082825260208201905092915050565b60005b83811015610eeb578082015181840152602081019050610ed0565b60008484015250505050565b6000601f19601f8301169050919050565b6000610f1382610eb1565b610f1d8185610ebc565b9350610f2d818560208601610ecd565b610f3681610ef7565b840191505092915050565b600060a0820190508181036000830152610f5b8188610f08565b90508181036020830152610f6f8187610f08565b90508181036040830152610f838186610f08565b90508181036060830152610f978185610f08565b90508181036080830152610fab8184610f08565b90509695505050505050565b600080fd5b600080fd5b7f4e487b7100000000000000000000000000000000000000000000000000000000600052604160045260246000fd5b610ff982610ef7565b810181811067ffffffffffffffff8211171561101857611017610fc1565b5b80604052505050565b600061102b610e3a565b90506110378282610ff0565b919050565b600067ffffffffffffffff82111561105757611056610fc1565b5b61106082610ef7565b9050602081019050919050565b82818337600083830152505050565b600061108f61108a8461103c565b611021565b9050828152602081018484840111156110ab576110aa610fbc565b5b6110b684828561106d565b509392505050565b600082601f8301126110d3576110d2610fb7565b5b81356110e384826020860161107c565b91505092915050565b6000806040838503121561110357611102610e44565b5b600083013567ffffffffffffffff81111561112157611120610e49565b5b61112d858286016110be565b925050602083013567ffffffffffffffff81111561114e5761114d610e49565b5b61115a858286016110be565b9150509250929050565b600080600080600060a086880312156111805761117f610e44565b5b600086013567ffffffffffffffff81111561119e5761119d610e49565b5b6111aa888289016110be565b955050602086013567ffffffffffffffff8111156111cb576111ca610e49565b5b6111d7888289016110be565b945050604086013567ffffffffffffffff8111156111f8576111f7610e49565b5b611204888289016110be565b935050606086013567ffffffffffffffff81111561122557611224610e49565b5b611231888289016110be565b925050608086013567ffffffffffffffff81111561125257611251610e49565b5b61125e888289016110be565b9150509295509295909350565b61127481610e4e565b82525050565b600060208201905061128f600083018461126b565b92915050565b7f4e487b7100000000000000000000000000000000000000000000000000000000600052602260045260246000fd5b600060028204905060018216806112dc57607f821691505b6020821081036112ef576112ee611295565b5b50919050565b7f4e6f2073747564656e7473206164646564207965740000000000000000000000600082015250565b600061132b601583610ebc565b9150611336826112f5565b602082019050919050565b6000602082019050818103600083015261135a8161131e565b9050919050565b7f53747564656e74206e6f7420666f756e64000000000000000000000000000000600082015250565b6000611397601183610ebc565b91506113a282611361565b602082019050919050565b600060208201905081810360008301526113c68161138a565b9050919050565b60008190508160005260206000209050919050565b60006020601f8301049050919050565b600082821b905092915050565b60006008830261142f7fffffffffffffffffffffffffffffffffffffffffffffffffffffffffffffffff826113f2565b61143986836113f2565b95508019841693508086168417925050509392505050565b6000819050919050565b600061147661147161146c84610e4e565b611451565b610e4e565b9050919050565b6000819050919050565b6114908361145b565b6114a461149c8261147d565b8484546113ff565b825550505050565b600090565b6114b96114ac565b6114c4818484611487565b505050565b5b818110156114e8576114dd6000826114b1565b6001810190506114ca565b5050565b601f82111561152d576114fe816113cd565b611507846113e2565b81016020851015611516578190505b61152a611522856113e2565b8301826114c9565b50505b505050565b600082821c905092915050565b600061155060001984600802611532565b1980831691505092915050565b6000611569838361153f565b9150826002028217905092915050565b61158282610eb1565b67ffffffffffffffff81111561159b5761159a610fc1565b5b6115a582546112c4565b6115b08282856114ec565b600060209050601f8311600181146115e357600084156115d1578287015190505b6115db858261155d565b865550611643565b601f1984166115f1866113cd565b60005b82811015611619578489015182556001820191506020850194506020810190506115f4565b868310156116365784890151611632601f89168261153f565b8355505b6001600288020188555050505b505050505050565b7f4e487b7100000000000000000000000000000000000000000000000000000000600052601160045260246000fd5b600061168582610e4e565b91507fffffffffffffffffffffffffffffffffffffffffffffffffffffffffffffffff82036116b7576116b661164b565b5b600182019050919050565b600081905092915050565b60006116d882610eb1565b6116e281856116c2565b93506116f2818560208601610ecd565b80840191505092915050565b600061170a82846116cd565b91508190509291505056fea26469706673582212205be6a01ef3d003b9c5d2df1c85747adc85d824f1134c7bd59b6348c5c7da739664736f6c63430008190033",
		"opcodes": "PUSH1 0x80 PUSH1 0x40 MSTORE CALLVALUE DUP1 ISZERO PUSH2 0x10 JUMPI PUSH1 0x0 DUP1 REVERT JUMPDEST POP PUSH1 0x4 CALLDATASIZE LT PUSH2 0x4C JUMPI PUSH1 0x0 CALLDATALOAD PUSH1 0xE0 SHR DUP1 PUSH4 0x6EAD22E EQ PUSH2 0x51 JUMPI DUP1 PUSH4 0x5D52D08F EQ PUSH2 0x85 JUMPI DUP1 PUSH4 0xCB451629 EQ PUSH2 0xB9 JUMPI DUP1 PUSH4 0xE581F9EE EQ PUSH2 0xD5 JUMPI JUMPDEST PUSH1 0x0 DUP1 REVERT JUMPDEST PUSH2 0x6B PUSH1 0x4 DUP1 CALLDATASIZE SUB DUP2 ADD SWAP1 PUSH2 0x66 SWAP2 SWAP1 PUSH2 0xE84 JUMP JUMPDEST PUSH2 0xF3 JUMP JUMPDEST PUSH1 0x40 MLOAD PUSH2 0x7C SWAP6 SWAP5 SWAP4 SWAP3 SWAP2 SWAP1 PUSH2 0xF41 JUMP JUMPDEST PUSH1 0x40 MLOAD DUP1 SWAP2 SUB SWAP1 RETURN JUMPDEST PUSH2 0x9F PUSH1 0x4 DUP1 CALLDATASIZE SUB DUP2 ADD SWAP1 PUSH2 0x9A SWAP2 SWAP1 PUSH2 0x10EC JUMP JUMPDEST PUSH2 0x3D1 JUMP JUMPDEST PUSH1 0x40 MLOAD PUSH2 0xB0 SWAP6 SWAP5 SWAP4 SWAP3 SWAP2 SWAP1 PUSH2 0xF41 JUMP JUMPDEST PUSH1 0x40 MLOAD DUP1 SWAP2 SUB SWAP1 RETURN JUMPDEST PUSH2 0xD3 PUSH1 0x4 DUP1 CALLDATASIZE SUB DUP2 ADD SWAP1 PUSH2 0xCE SWAP2 SWAP1 PUSH2 0x1164 JUMP JUMPDEST PUSH2 0xCCE JUMP JUMPDEST STOP JUMPDEST PUSH2 0xDD PUSH2 0xDDB JUMP JUMPDEST PUSH1 0x40 MLOAD PUSH2 0xEA SWAP2 SWAP1 PUSH2 0x127A JUMP JUMPDEST PUSH1 0x40 MLOAD DUP1 SWAP2 SUB SWAP1 RETURN JUMPDEST PUSH1 0x0 PUSH1 0x20 MSTORE DUP1 PUSH1 0x0 MSTORE PUSH1 0x40 PUSH1 0x0 KECCAK256 PUSH1 0x0 SWAP2 POP SWAP1 POP DUP1 PUSH1 0x0 ADD DUP1 SLOAD PUSH2 0x116 SWAP1 PUSH2 0x12C4 JUMP JUMPDEST DUP1 PUSH1 0x1F ADD PUSH1 0x20 DUP1 SWAP2 DIV MUL PUSH1 0x20 ADD PUSH1 0x40 MLOAD SWAP1 DUP2 ADD PUSH1 0x40 MSTORE DUP1 SWAP3 SWAP2 SWAP1 DUP2 DUP2 MSTORE PUSH1 0x20 ADD DUP3 DUP1 SLOAD PUSH2 0x142 SWAP1 PUSH2 0x12C4 JUMP JUMPDEST DUP1 ISZERO PUSH2 0x18F JUMPI DUP1 PUSH1 0x1F LT PUSH2 0x164 JUMPI PUSH2 0x100 DUP1 DUP4 SLOAD DIV MUL DUP4 MSTORE SWAP2 PUSH1 0x20 ADD SWAP2 PUSH2 0x18F JUMP JUMPDEST DUP3 ADD SWAP2 SWAP1 PUSH1 0x0 MSTORE PUSH1 0x20 PUSH1 0x0 KECCAK256 SWAP1 JUMPDEST DUP2 SLOAD DUP2 MSTORE SWAP1 PUSH1 0x1 ADD SWAP1 PUSH1 0x20 ADD DUP1 DUP4 GT PUSH2 0x172 JUMPI DUP3 SWAP1 SUB PUSH1 0x1F AND DUP3 ADD SWAP2 JUMPDEST POP POP POP POP POP SWAP1 DUP1 PUSH1 0x1 ADD DUP1 SLOAD PUSH2 0x1A4 SWAP1 PUSH2 0x12C4 JUMP JUMPDEST DUP1 PUSH1 0x1F ADD PUSH1 0x20 DUP1 SWAP2 DIV MUL PUSH1 0x20 ADD PUSH1 0x40 MLOAD SWAP1 DUP2 ADD PUSH1 0x40 MSTORE DUP1 SWAP3 SWAP2 SWAP1 DUP2 DUP2 MSTORE PUSH1 0x20 ADD DUP3 DUP1 SLOAD PUSH2 0x1D0 SWAP1 PUSH2 0x12C4 JUMP JUMPDEST DUP1 ISZERO PUSH2 0x21D JUMPI DUP1 PUSH1 0x1F LT PUSH2 0x1F2 JUMPI PUSH2 0x100 DUP1 DUP4 SLOAD DIV MUL DUP4 MSTORE SWAP2 PUSH1 0x20 ADD SWAP2 PUSH2 0x21D JUMP JUMPDEST DUP3 ADD SWAP2 SWAP1 PUSH1 0x0 MSTORE PUSH1 0x20 PUSH1 0x0 KECCAK256 SWAP1 JUMPDEST DUP2 SLOAD DUP2 MSTORE SWAP1 PUSH1 0x1 ADD SWAP1 PUSH1 0x20 ADD DUP1 DUP4 GT PUSH2 0x200 JUMPI DUP3 SWAP1 SUB PUSH1 0x1F AND DUP3 ADD SWAP2 JUMPDEST POP POP POP POP POP SWAP1 DUP1 PUSH1 0x2 ADD DUP1 SLOAD PUSH2 0x232 SWAP1 PUSH2 0x12C4 JUMP JUMPDEST DUP1 PUSH1 0x1F ADD PUSH1 0x20 DUP1 SWAP2 DIV MUL PUSH1 0x20 ADD PUSH1 0x40 MLOAD SWAP1 DUP2 ADD PUSH1 0x40 MSTORE DUP1 SWAP3 SWAP2 SWAP1 DUP2 DUP2 MSTORE PUSH1 0x20 ADD DUP3 DUP1 SLOAD PUSH2 0x25E SWAP1 PUSH2 0x12C4 JUMP JUMPDEST DUP1 ISZERO PUSH2 0x2AB JUMPI DUP1 PUSH1 0x1F LT PUSH2 0x280 JUMPI PUSH2 0x100 DUP1 DUP4 SLOAD DIV MUL DUP4 MSTORE SWAP2 PUSH1 0x20 ADD SWAP2 PUSH2 0x2AB JUMP JUMPDEST DUP3 ADD SWAP2 SWAP1 PUSH1 0x0 MSTORE PUSH1 0x20 PUSH1 0x0 KECCAK256 SWAP1 JUMPDEST DUP2 SLOAD DUP2 MSTORE SWAP1 PUSH1 0x1 ADD SWAP1 PUSH1 0x20 ADD DUP1 DUP4 GT PUSH2 0x28E JUMPI DUP3 SWAP1 SUB PUSH1 0x1F AND DUP3 ADD SWAP2 JUMPDEST POP POP POP POP POP SWAP1 DUP1 PUSH1 0x3 ADD DUP1 SLOAD PUSH2 0x2C0 SWAP1 PUSH2 0x12C4 JUMP JUMPDEST DUP1 PUSH1 0x1F ADD PUSH1 0x20 DUP1 SWAP2 DIV MUL PUSH1 0x20 ADD PUSH1 0x40 MLOAD SWAP1 DUP2 ADD PUSH1 0x40 MSTORE DUP1 SWAP3 SWAP2 SWAP1 DUP2 DUP2 MSTORE PUSH1 0x20 ADD DUP3 DUP1 SLOAD PUSH2 0x2EC SWAP1 PUSH2 0x12C4 JUMP JUMPDEST DUP1 ISZERO PUSH2 0x339 JUMPI DUP1 PUSH1 0x1F LT PUSH2 0x30E JUMPI PUSH2 0x100 DUP1 DUP4 SLOAD DIV MUL DUP4 MSTORE SWAP2 PUSH1 0x20 ADD SWAP2 PUSH2 0x339 JUMP JUMPDEST DUP3 ADD SWAP2 SWAP1 PUSH1 0x0 MSTORE PUSH1 0x20 PUSH1 0x0 KECCAK256 SWAP1 JUMPDEST DUP2 SLOAD DUP2 MSTORE SWAP1 PUSH1 0x1 ADD SWAP1 PUSH1 0x20 ADD DUP1 DUP4 GT PUSH2 0x31C JUMPI DUP3 SWAP1 SUB PUSH1 0x1F AND DUP3 ADD SWAP2 JUMPDEST POP POP POP POP POP SWAP1 DUP1 PUSH1 0x4 ADD DUP1 SLOAD PUSH2 0x34E SWAP1 PUSH2 0x12C4 JUMP JUMPDEST DUP1 PUSH1 0x1F ADD PUSH1 0x20 DUP1 SWAP2 DIV MUL PUSH1 0x20 ADD PUSH1 0x40 MLOAD SWAP1 DUP2 ADD PUSH1 0x40 MSTORE DUP1 SWAP3 SWAP2 SWAP1 DUP2 DUP2 MSTORE PUSH1 0x20 ADD DUP3 DUP1 SLOAD PUSH2 0x37A SWAP1 PUSH2 0x12C4 JUMP JUMPDEST DUP1 ISZERO PUSH2 0x3C7 JUMPI DUP1 PUSH1 0x1F LT PUSH2 0x39C JUMPI PUSH2 0x100 DUP1 DUP4 SLOAD DIV MUL DUP4 MSTORE SWAP2 PUSH1 0x20 ADD SWAP2 PUSH2 0x3C7 JUMP JUMPDEST DUP3 ADD SWAP2 SWAP1 PUSH1 0x0 MSTORE PUSH1 0x20 PUSH1 0x0 KECCAK256 SWAP1 JUMPDEST DUP2 SLOAD DUP2 MSTORE SWAP1 PUSH1 0x1 ADD SWAP1 PUSH1 0x20 ADD DUP1 DUP4 GT PUSH2 0x3AA JUMPI DUP3 SWAP1 SUB PUSH1 0x1F AND DUP3 ADD SWAP2 JUMPDEST POP POP POP POP POP SWAP1 POP DUP6 JUMP JUMPDEST PUSH1 0x60 DUP1 PUSH1 0x60 DUP1 PUSH1 0x60 PUSH1 0x0 PUSH1 0x1 SLOAD GT PUSH2 0x41E JUMPI PUSH1 0x40 MLOAD PUSH32 0x8C379A000000000000000000000000000000000000000000000000000000000 DUP2 MSTORE PUSH1 0x4 ADD PUSH2 0x415 SWAP1 PUSH2 0x1341 JUMP JUMPDEST PUSH1 0x40 MLOAD DUP1 SWAP2 SUB SWAP1 REVERT JUMPDEST PUSH1 0x0 JUMPDEST PUSH1 0x1 SLOAD DUP2 LT ISZERO PUSH2 0xC88 JUMPI PUSH2 0x4D2 PUSH1 0x0 DUP1 DUP4 DUP2 MSTORE PUSH1 0x20 ADD SWAP1 DUP2 MSTORE PUSH1 0x20 ADD PUSH1 0x0 KECCAK256 PUSH1 0x0 ADD DUP1 SLOAD PUSH2 0x44E SWAP1 PUSH2 0x12C4 JUMP JUMPDEST DUP1 PUSH1 0x1F ADD PUSH1 0x20 DUP1 SWAP2 DIV MUL PUSH1 0x20 ADD PUSH1 0x40 MLOAD SWAP1 DUP2 ADD PUSH1 0x40 MSTORE DUP1 SWAP3 SWAP2 SWAP1 DUP2 DUP2 MSTORE PUSH1 0x20 ADD DUP3 DUP1 SLOAD PUSH2 0x47A SWAP1 PUSH2 0x12C4 JUMP JUMPDEST DUP1 ISZERO PUSH2 0x4C7 JUMPI DUP1 PUSH1 0x1F LT PUSH2 0x49C JUMPI PUSH2 0x100 DUP1 DUP4 SLOAD DIV MUL DUP4 MSTORE SWAP2 PUSH1 0x20 ADD SWAP2 PUSH2 0x4C7 JUMP JUMPDEST DUP3 ADD SWAP2 SWAP1 PUSH1 0x0 MSTORE PUSH1 0x20 PUSH1 0x0 KECCAK256 SWAP1 JUMPDEST DUP2 SLOAD DUP2 MSTORE SWAP1 PUSH1 0x1 ADD SWAP1 PUSH1 0x20 ADD DUP1 DUP4 GT PUSH2 0x4AA JUMPI DUP3 SWAP1 SUB PUSH1 0x1F AND DUP3 ADD SWAP2 JUMPDEST POP POP POP POP POP DUP9 PUSH2 0xDE1 JUMP JUMPDEST DUP1 ISZERO PUSH2 0x519 JUMPI POP PUSH2 0x518 DUP9 PUSH1 0x40 MLOAD DUP1 PUSH1 0x40 ADD PUSH1 0x40 MSTORE DUP1 PUSH1 0xB DUP2 MSTORE PUSH1 0x20 ADD PUSH32 0x73747564656E744E616D65000000000000000000000000000000000000000000 DUP2 MSTORE POP PUSH2 0xDE1 JUMP JUMPDEST JUMPDEST ISZERO PUSH2 0x853 JUMPI PUSH1 0x0 DUP1 DUP3 DUP2 MSTORE PUSH1 0x20 ADD SWAP1 DUP2 MSTORE PUSH1 0x20 ADD PUSH1 0x0 KECCAK256 PUSH1 0x0 ADD PUSH1 0x0 DUP1 DUP4 DUP2 MSTORE PUSH1 0x20 ADD SWAP1 DUP2 MSTORE PUSH1 0x20 ADD PUSH1 0x0 KECCAK256 PUSH1 0x1 ADD PUSH1 0x0 DUP1 DUP5 DUP2 MSTORE PUSH1 0x20 ADD SWAP1 DUP2 MSTORE PUSH1 0x20 ADD PUSH1 0x0 KECCAK256 PUSH1 0x2 ADD PUSH1 0x0 DUP1 DUP6 DUP2 MSTORE PUSH1 0x20 ADD SWAP1 DUP2 MSTORE PUSH1 0x20 ADD PUSH1 0x0 KECCAK256 PUSH1 0x3 ADD PUSH1 0x0 DUP1 DUP7 DUP2 MSTORE PUSH1 0x20 ADD SWAP1 DUP2 MSTORE PUSH1 0x20 ADD PUSH1 0x0 KECCAK256 PUSH1 0x4 ADD DUP5 DUP1 SLOAD PUSH2 0x593 SWAP1 PUSH2 0x12C4 JUMP JUMPDEST DUP1 PUSH1 0x1F ADD PUSH1 0x20 DUP1 SWAP2 DIV MUL PUSH1 0x20 ADD PUSH1 0x40 MLOAD SWAP1 DUP2 ADD PUSH1 0x40 MSTORE DUP1 SWAP3 SWAP2 SWAP1 DUP2 DUP2 MSTORE PUSH1 0x20 ADD DUP3 DUP1 SLOAD PUSH2 0x5BF SWAP1 PUSH2 0x12C4 JUMP JUMPDEST DUP1 ISZERO PUSH2 0x60C JUMPI DUP1 PUSH1 0x1F LT PUSH2 0x5E1 JUMPI PUSH2 0x100 DUP1 DUP4 SLOAD DIV MUL DUP4 MSTORE SWAP2 PUSH1 0x20 ADD SWAP2 PUSH2 0x60C JUMP JUMPDEST DUP3 ADD SWAP2 SWAP1 PUSH1 0x0 MSTORE PUSH1 0x20 PUSH1 0x0 KECCAK256 SWAP1 JUMPDEST DUP2 SLOAD DUP2 MSTORE SWAP1 PUSH1 0x1 ADD SWAP1 PUSH1 0x20 ADD DUP1 DUP4 GT PUSH2 0x5EF JUMPI DUP3 SWAP1 SUB PUSH1 0x1F AND DUP3 ADD SWAP2 JUMPDEST POP POP POP POP POP SWAP5 POP DUP4 DUP1 SLOAD PUSH2 0x61F SWAP1 PUSH2 0x12C4 JUMP JUMPDEST DUP1 PUSH1 0x1F ADD PUSH1 0x20 DUP1 SWAP2 DIV MUL PUSH1 0x20 ADD PUSH1 0x40 MLOAD SWAP1 DUP2 ADD PUSH1 0x40 MSTORE DUP1 SWAP3 SWAP2 SWAP1 DUP2 DUP2 MSTORE PUSH1 0x20 ADD DUP3 DUP1 SLOAD PUSH2 0x64B SWAP1 PUSH2 0x12C4 JUMP JUMPDEST DUP1 ISZERO PUSH2 0x698 JUMPI DUP1 PUSH1 0x1F LT PUSH2 0x66D JUMPI PUSH2 0x100 DUP1 DUP4 SLOAD DIV MUL DUP4 MSTORE SWAP2 PUSH1 0x20 ADD SWAP2 PUSH2 0x698 JUMP JUMPDEST DUP3 ADD SWAP2 SWAP1 PUSH1 0x0 MSTORE PUSH1 0x20 PUSH1 0x0 KECCAK256 SWAP1 JUMPDEST DUP2 SLOAD DUP2 MSTORE SWAP1 PUSH1 0x1 ADD SWAP1 PUSH1 0x20 ADD DUP1 DUP4 GT PUSH2 0x67B JUMPI DUP3 SWAP1 SUB PUSH1 0x1F AND DUP3 ADD SWAP2 JUMPDEST POP POP POP POP POP SWAP4 POP DUP3 DUP1 SLOAD PUSH2 0x6AB SWAP1 PUSH2 0x12C4 JUMP JUMPDEST DUP1 PUSH1 0x1F ADD PUSH1 0x20 DUP1 SWAP2 DIV MUL PUSH1 0x20 ADD PUSH1 0x40 MLOAD SWAP1 DUP2 ADD PUSH1 0x40 MSTORE DUP1 SWAP3 SWAP2 SWAP1 DUP2 DUP2 MSTORE PUSH1 0x20 ADD DUP3 DUP1 SLOAD PUSH2 0x6D7 SWAP1 PUSH2 0x12C4 JUMP JUMPDEST DUP1 ISZERO PUSH2 0x724 JUMPI DUP1 PUSH1 0x1F LT PUSH2 0x6F9 JUMPI PUSH2 0x100 DUP1 DUP4 SLOAD DIV MUL DUP4 MSTORE SWAP2 PUSH1 0x20 ADD SWAP2 PUSH2 0x724 JUMP JUMPDEST DUP3 ADD SWAP2 SWAP1 PUSH1 0x0 MSTORE PUSH1 0x20 PUSH1 0x0 KECCAK256 SWAP1 JUMPDEST DUP2 SLOAD DUP2 MSTORE SWAP1 PUSH1 0x1 ADD SWAP1 PUSH1 0x20 ADD DUP1 DUP4 GT PUSH2 0x707 JUMPI DUP3 SWAP1 SUB PUSH1 0x1F AND DUP3 ADD SWAP2 JUMPDEST POP POP POP POP POP SWAP3 POP DUP2 DUP1 SLOAD PUSH2 0x737 SWAP1 PUSH2 0x12C4 JUMP JUMPDEST DUP1 PUSH1 0x1F ADD PUSH1 0x20 DUP1 SWAP2 DIV MUL PUSH1 0x20 ADD PUSH1 0x40 MLOAD SWAP1 DUP2 ADD PUSH1 0x40 MSTORE DUP1 SWAP3 SWAP2 SWAP1 DUP2 DUP2 MSTORE PUSH1 0x20 ADD DUP3 DUP1 SLOAD PUSH2 0x763 SWAP1 PUSH2 0x12C4 JUMP JUMPDEST DUP1 ISZERO PUSH2 0x7B0 JUMPI DUP1 PUSH1 0x1F LT PUSH2 0x785 JUMPI PUSH2 0x100 DUP1 DUP4 SLOAD DIV MUL DUP4 MSTORE SWAP2 PUSH1 0x20 ADD SWAP2 PUSH2 0x7B0 JUMP JUMPDEST DUP3 ADD SWAP2 SWAP1 PUSH1 0x0 MSTORE PUSH1 0x20 PUSH1 0x0 KECCAK256 SWAP1 JUMPDEST DUP2 SLOAD DUP2 MSTORE SWAP1 PUSH1 0x1 ADD SWAP1 PUSH1 0x20 ADD DUP1 DUP4 GT PUSH2 0x793 JUMPI DUP3 SWAP1 SUB PUSH1 0x1F AND DUP3 ADD SWAP2 JUMPDEST POP POP POP POP POP SWAP2 POP DUP1 DUP1 SLOAD PUSH2 0x7C3 SWAP1 PUSH2 0x12C4 JUMP JUMPDEST DUP1 PUSH1 0x1F ADD PUSH1 0x20 DUP1 SWAP2 DIV MUL PUSH1 0x20 ADD PUSH1 0x40 MLOAD SWAP1 DUP2 ADD PUSH1 0x40 MSTORE DUP1 SWAP3 SWAP2 SWAP1 DUP2 DUP2 MSTORE PUSH1 0x20 ADD DUP3 DUP1 SLOAD PUSH2 0x7EF SWAP1 PUSH2 0x12C4 JUMP JUMPDEST DUP1 ISZERO PUSH2 0x83C JUMPI DUP1 PUSH1 0x1F LT PUSH2 0x811 JUMPI PUSH2 0x100 DUP1 DUP4 SLOAD DIV MUL DUP4 MSTORE SWAP2 PUSH1 0x20 ADD SWAP2 PUSH2 0x83C JUMP JUMPDEST DUP3 ADD SWAP2 SWAP1 PUSH1 0x0 MSTORE PUSH1 0x20 PUSH1 0x0 KECCAK256 SWAP1 JUMPDEST DUP2 SLOAD DUP2 MSTORE SWAP1 PUSH1 0x1 ADD SWAP1 PUSH1 0x20 ADD DUP1 DUP4 GT PUSH2 0x81F JUMPI DUP3 SWAP1 SUB PUSH1 0x1F AND DUP3 ADD SWAP2 JUMPDEST POP POP POP POP POP SWAP1 POP SWAP6 POP SWAP6 POP SWAP6 POP SWAP6 POP SWAP6 POP POP PUSH2 0xCC4 JUMP JUMPDEST PUSH2 0x8FA PUSH1 0x0 DUP1 DUP4 DUP2 MSTORE PUSH1 0x20 ADD SWAP1 DUP2 MSTORE PUSH1 0x20 ADD PUSH1 0x0 KECCAK256 PUSH1 0x2 ADD DUP1 SLOAD PUSH2 0x876 SWAP1 PUSH2 0x12C4 JUMP JUMPDEST DUP1 PUSH1 0x1F ADD PUSH1 0x20 DUP1 SWAP2 DIV MUL PUSH1 0x20 ADD PUSH1 0x40 MLOAD SWAP1 DUP2 ADD PUSH1 0x40 MSTORE DUP1 SWAP3 SWAP2 SWAP1 DUP2 DUP2 MSTORE PUSH1 0x20 ADD DUP3 DUP1 SLOAD PUSH2 0x8A2 SWAP1 PUSH2 0x12C4 JUMP JUMPDEST DUP1 ISZERO PUSH2 0x8EF JUMPI DUP1 PUSH1 0x1F LT PUSH2 0x8C4 JUMPI PUSH2 0x100 DUP1 DUP4 SLOAD DIV MUL DUP4 MSTORE SWAP2 PUSH1 0x20 ADD SWAP2 PUSH2 0x8EF JUMP JUMPDEST DUP3 ADD SWAP2 SWAP1 PUSH1 0x0 MSTORE PUSH1 0x20 PUSH1 0x0 KECCAK256 SWAP1 JUMPDEST DUP2 SLOAD DUP2 MSTORE SWAP1 PUSH1 0x1 ADD SWAP1 PUSH1 0x20 ADD DUP1 DUP4 GT PUSH2 0x8D2 JUMPI DUP3 SWAP1 SUB PUSH1 0x1F AND DUP3 ADD SWAP2 JUMPDEST POP POP POP POP POP DUP9 PUSH2 0xDE1 JUMP JUMPDEST DUP1 ISZERO PUSH2 0x941 JUMPI POP PUSH2 0x940 DUP9 PUSH1 0x40 MLOAD DUP1 PUSH1 0x40 ADD PUSH1 0x40 MSTORE DUP1 PUSH1 0x8 DUP2 MSTORE PUSH1 0x20 ADD PUSH32 0x6970667348617368000000000000000000000000000000000000000000000000 DUP2 MSTORE POP PUSH2 0xDE1 JUMP JUMPDEST JUMPDEST ISZERO PUSH2 0xC7B JUMPI PUSH1 0x0 DUP1 DUP3 DUP2 MSTORE PUSH1 0x20 ADD SWAP1 DUP2 MSTORE PUSH1 0x20 ADD PUSH1 0x0 KECCAK256 PUSH1 0x0 ADD PUSH1 0x0 DUP1 DUP4 DUP2 MSTORE PUSH1 0x20 ADD SWAP1 DUP2 MSTORE PUSH1 0x20 ADD PUSH1 0x0 KECCAK256 PUSH1 0x1 ADD PUSH1 0x0 DUP1 DUP5 DUP2 MSTORE PUSH1 0x20 ADD SWAP1 DUP2 MSTORE PUSH1 0x20 ADD PUSH1 0x0 KECCAK256 PUSH1 0x2 ADD PUSH1 0x0 DUP1 DUP6 DUP2 MSTORE PUSH1 0x20 ADD SWAP1 DUP2 MSTORE PUSH1 0x20 ADD PUSH1 0x0 KECCAK256 PUSH1 0x3 ADD PUSH1 0x0 DUP1 DUP7 DUP2 MSTORE PUSH1 0x20 ADD SWAP1 DUP2 MSTORE PUSH1 0x20 ADD PUSH1 0x0 KECCAK256 PUSH1 0x4 ADD DUP5 DUP1 SLOAD PUSH2 0x9BB SWAP1 PUSH2 0x12C4 JUMP JUMPDEST DUP1 PUSH1 0x1F ADD PUSH1 0x20 DUP1 SWAP2 DIV MUL PUSH1 0x20 ADD PUSH1 0x40 MLOAD SWAP1 DUP2 ADD PUSH1 0x40 MSTORE DUP1 SWAP3 SWAP2 SWAP1 DUP2 DUP2 MSTORE PUSH1 0x20 ADD DUP3 DUP1 SLOAD PUSH2 0x9E7 SWAP1 PUSH2 0x12C4 JUMP JUMPDEST DUP1 ISZERO PUSH2 0xA34 JUMPI DUP1 PUSH1 0x1F LT PUSH2 0xA09 JUMPI PUSH2 0x100 DUP1 DUP4 SLOAD DIV MUL DUP4 MSTORE SWAP2 PUSH1 0x20 ADD SWAP2 PUSH2 0xA34 JUMP JUMPDEST DUP3 ADD SWAP2 SWAP1 PUSH1 0x0 MSTORE PUSH1 0x20 PUSH1 0x0 KECCAK256 SWAP1 JUMPDEST DUP2 SLOAD DUP2 MSTORE SWAP1 PUSH1 0x1 ADD SWAP1 PUSH1 0x20 ADD DUP1 DUP4 GT PUSH2 0xA17 JUMPI DUP3 SWAP1 SUB PUSH1 0x1F AND DUP3 ADD SWAP2 JUMPDEST POP POP POP POP POP SWAP5 POP DUP4 DUP1 SLOAD PUSH2 0xA47 SWAP1 PUSH2 0x12C4 JUMP JUMPDEST DUP1 PUSH1 0x1F ADD PUSH1 0x20 DUP1 SWAP2 DIV MUL PUSH1 0x20 ADD PUSH1 0x40 MLOAD SWAP1 DUP2 ADD PUSH1 0x40 MSTORE DUP1 SWAP3 SWAP2 SWAP1 DUP2 DUP2 MSTORE PUSH1 0x20 ADD DUP3 DUP1 SLOAD PUSH2 0xA73 SWAP1 PUSH2 0x12C4 JUMP JUMPDEST DUP1 ISZERO PUSH2 0xAC0 JUMPI DUP1 PUSH1 0x1F LT PUSH2 0xA95 JUMPI PUSH2 0x100 DUP1 DUP4 SLOAD DIV MUL DUP4 MSTORE SWAP2 PUSH1 0x20 ADD SWAP2 PUSH2 0xAC0 JUMP JUMPDEST DUP3 ADD SWAP2 SWAP1 PUSH1 0x0 MSTORE PUSH1 0x20 PUSH1 0x0 KECCAK256 SWAP1 JUMPDEST DUP2 SLOAD DUP2 MSTORE SWAP1 PUSH1 0x1 ADD SWAP1 PUSH1 0x20 ADD DUP1 DUP4 GT PUSH2 0xAA3 JUMPI DUP3 SWAP1 SUB PUSH1 0x1F AND DUP3 ADD SWAP2 JUMPDEST POP POP POP POP POP SWAP4 POP DUP3 DUP1 SLOAD PUSH2 0xAD3 SWAP1 PUSH2 0x12C4 JUMP JUMPDEST DUP1 PUSH1 0x1F ADD PUSH1 0x20 DUP1 SWAP2 DIV MUL PUSH1 0x20 ADD PUSH1 0x40 MLOAD SWAP1 DUP2 ADD PUSH1 0x40 MSTORE DUP1 SWAP3 SWAP2 SWAP1 DUP2 DUP2 MSTORE PUSH1 0x20 ADD DUP3 DUP1 SLOAD PUSH2 0xAFF SWAP1 PUSH2 0x12C4 JUMP JUMPDEST DUP1 ISZERO PUSH2 0xB4C JUMPI DUP1 PUSH1 0x1F LT PUSH2 0xB21 JUMPI PUSH2 0x100 DUP1 DUP4 SLOAD DIV MUL DUP4 MSTORE SWAP2 PUSH1 0x20 ADD SWAP2 PUSH2 0xB4C JUMP JUMPDEST DUP3 ADD SWAP2 SWAP1 PUSH1 0x0 MSTORE PUSH1 0x20 PUSH1 0x0 KECCAK256 SWAP1 JUMPDEST DUP2 SLOAD DUP2 MSTORE SWAP1 PUSH1 0x1 ADD SWAP1 PUSH1 0x20 ADD DUP1 DUP4 GT PUSH2 0xB2F JUMPI DUP3 SWAP1 SUB PUSH1 0x1F AND DUP3 ADD SWAP2 JUMPDEST POP POP POP POP POP SWAP3 POP DUP2 DUP1 SLOAD PUSH2 0xB5F SWAP1 PUSH2 0x12C4 JUMP JUMPDEST DUP1 PUSH1 0x1F ADD PUSH1 0x20 DUP1 SWAP2 DIV MUL PUSH1 0x20 ADD PUSH1 0x40 MLOAD SWAP1 DUP2 ADD PUSH1 0x40 MSTORE DUP1 SWAP3 SWAP2 SWAP1 DUP2 DUP2 MSTORE PUSH1 0x20 ADD DUP3 DUP1 SLOAD PUSH2 0xB8B SWAP1 PUSH2 0x12C4 JUMP JUMPDEST DUP1 ISZERO PUSH2 0xBD8 JUMPI DUP1 PUSH1 0x1F LT PUSH2 0xBAD JUMPI PUSH2 0x100 DUP1 DUP4 SLOAD DIV MUL DUP4 MSTORE SWAP2 PUSH1 0x20 ADD SWAP2 PUSH2 0xBD8 JUMP JUMPDEST DUP3 ADD SWAP2 SWAP1 PUSH1 0x0 MSTORE PUSH1 0x20 PUSH1 0x0 KECCAK256 SWAP1 JUMPDEST DUP2 SLOAD DUP2 MSTORE SWAP1 PUSH1 0x1 ADD SWAP1 PUSH1 0x20 ADD DUP1 DUP4 GT PUSH2 0xBBB JUMPI DUP3 SWAP1 SUB PUSH1 0x1F AND DUP3 ADD SWAP2 JUMPDEST POP POP POP POP POP SWAP2 POP DUP1 DUP1 SLOAD PUSH2 0xBEB SWAP1 PUSH2 0x12C4 JUMP JUMPDEST DUP1 PUSH1 0x1F ADD PUSH1 0x20 DUP1 SWAP2 DIV MUL PUSH1 0x20 ADD PUSH1 0x40 MLOAD SWAP1 DUP2 ADD PUSH1 0x40 MSTORE DUP1 SWAP3 SWAP2 SWAP1 DUP2 DUP2 MSTORE PUSH1 0x20 ADD DUP3 DUP1 SLOAD PUSH2 0xC17 SWAP1 PUSH2 0x12C4 JUMP JUMPDEST DUP1 ISZERO PUSH2 0xC64 JUMPI DUP1 PUSH1 0x1F LT PUSH2 0xC39 JUMPI PUSH2 0x100 DUP1 DUP4 SLOAD DIV MUL DUP4 MSTORE SWAP2 PUSH1 0x20 ADD SWAP2 PUSH2 0xC64 JUMP JUMPDEST DUP3 ADD SWAP2 SWAP1 PUSH1 0x0 MSTORE PUSH1 0x20 PUSH1 0x0 KECCAK256 SWAP1 JUMPDEST DUP2 SLOAD DUP2 MSTORE SWAP1 PUSH1 0x1 ADD SWAP1 PUSH1 0x20 ADD DUP1 DUP4 GT PUSH2 0xC47 JUMPI DUP3 SWAP1 SUB PUSH1 0x1F AND DUP3 ADD SWAP2 JUMPDEST POP POP POP POP POP SWAP1 POP SWAP6 POP SWAP6 POP SWAP6 POP SWAP6 POP SWAP6 POP POP PUSH2 0xCC4 JUMP JUMPDEST DUP1 DUP1 PUSH1 0x1 ADD SWAP2 POP POP PUSH2 0x421 JUMP JUMPDEST POP PUSH1 0x40 MLOAD PUSH32 0x8C379A000000000000000000000000000000000000000000000000000000000 DUP2 MSTORE PUSH1 0x4 ADD PUSH2 0xCBB SWAP1 PUSH2 0x13AD JUMP JUMPDEST PUSH1 0x40 MLOAD DUP1 SWAP2 SUB SWAP1 REVERT JUMPDEST SWAP3 SWAP6 POP SWAP3 SWAP6 SWAP1 SWAP4 POP JUMP JUMPDEST PUSH1 0x40 MLOAD DUP1 PUSH1 0xA0 ADD PUSH1 0x40 MSTORE DUP1 DUP7 DUP2 MSTORE PUSH1 0x20 ADD DUP6 DUP2 MSTORE PUSH1 0x20 ADD DUP5 DUP2 MSTORE PUSH1 0x20 ADD DUP4 DUP2 MSTORE PUSH1 0x20 ADD DUP3 DUP2 MSTORE POP PUSH1 0x0 DUP1 PUSH1 0x1 SLOAD DUP2 MSTORE PUSH1 0x20 ADD SWAP1 DUP2 MSTORE PUSH1 0x20 ADD PUSH1 0x0 KECCAK256 PUSH1 0x0 DUP3 ADD MLOAD DUP2 PUSH1 0x0 ADD SWAP1 DUP2 PUSH2 0xD1E SWAP2 SWAP1 PUSH2 0x1579 JUMP JUMPDEST POP PUSH1 0x20 DUP3 ADD MLOAD DUP2 PUSH1 0x1 ADD SWAP1 DUP2 PUSH2 0xD34 SWAP2 SWAP1 PUSH2 0x1579 JUMP JUMPDEST POP PUSH1 0x40 DUP3 ADD MLOAD DUP2 PUSH1 0x2 ADD SWAP1 DUP2 PUSH2 0xD4A SWAP2 SWAP1 PUSH2 0x1579 JUMP JUMPDEST POP PUSH1 0x60 DUP3 ADD MLOAD DUP2 PUSH1 0x3 ADD SWAP1 DUP2 PUSH2 0xD60 SWAP2 SWAP1 PUSH2 0x1579 JUMP JUMPDEST POP PUSH1 0x80 DUP3 ADD MLOAD DUP2 PUSH1 0x4 ADD SWAP1 DUP2 PUSH2 0xD76 SWAP2 SWAP1 PUSH2 0x1579 JUMP JUMPDEST POP SWAP1 POP POP PUSH1 0x1 SLOAD PUSH32 0x552D7A7B2CC9FC6DB021BCD1A30D794AAC5937D58DFF36AE3BBD24D18FE9085E DUP7 DUP7 DUP7 DUP7 DUP7 PUSH1 0x40 MLOAD PUSH2 0xDB4 SWAP6 SWAP5 SWAP4 SWAP3 SWAP2 SWAP1 PUSH2 0xF41 JUMP JUMPDEST PUSH1 0x40 MLOAD DUP1 SWAP2 SUB SWAP1 LOG2 PUSH1 0x1 PUSH1 0x0 DUP2 SLOAD DUP1 SWAP3 SWAP2 SWAP1 PUSH2 0xDCF SWAP1 PUSH2 0x167A JUMP JUMPDEST SWAP2 SWAP1 POP SSTORE POP POP POP POP POP POP JUMP JUMPDEST PUSH1 0x1 SLOAD DUP2 JUMP JUMPDEST PUSH1 0x0 DUP2 PUSH1 0x40 MLOAD PUSH1 0x20 ADD PUSH2 0xDF4 SWAP2 SWAP1 PUSH2 0x16FE JUMP JUMPDEST PUSH1 0x40 MLOAD PUSH1 0x20 DUP2 DUP4 SUB SUB DUP2 MSTORE SWAP1 PUSH1 0x40 MSTORE DUP1 MLOAD SWAP1 PUSH1 0x20 ADD KECCAK256 DUP4 PUSH1 0x40 MLOAD PUSH1 0x20 ADD PUSH2 0xE1B SWAP2 SWAP1 PUSH2 0x16FE JUMP JUMPDEST PUSH1 0x40 MLOAD PUSH1 0x20 DUP2 DUP4 SUB SUB DUP2 MSTORE SWAP1 PUSH1 0x40 MSTORE DUP1 MLOAD SWAP1 PUSH1 0x20 ADD KECCAK256 EQ SWAP1 POP SWAP3 SWAP2 POP POP JUMP JUMPDEST PUSH1 0x0 PUSH1 0x40 MLOAD SWAP1 POP SWAP1 JUMP JUMPDEST PUSH1 0x0 DUP1 REVERT JUMPDEST PUSH1 0x0 DUP1 REVERT JUMPDEST PUSH1 0x0 DUP2 SWAP1 POP SWAP2 SWAP1 POP JUMP JUMPDEST PUSH2 0xE61 DUP2 PUSH2 0xE4E JUMP JUMPDEST DUP2 EQ PUSH2 0xE6C JUMPI PUSH1 0x0 DUP1 REVERT JUMPDEST POP JUMP JUMPDEST PUSH1 0x0 DUP2 CALLDATALOAD SWAP1 POP PUSH2 0xE7E DUP2 PUSH2 0xE58 JUMP JUMPDEST SWAP3 SWAP2 POP POP JUMP JUMPDEST PUSH1 0x0 PUSH1 0x20 DUP3 DUP5 SUB SLT ISZERO PUSH2 0xE9A JUMPI PUSH2 0xE99 PUSH2 0xE44 JUMP JUMPDEST JUMPDEST PUSH1 0x0 PUSH2 0xEA8 DUP5 DUP3 DUP6 ADD PUSH2 0xE6F JUMP JUMPDEST SWAP2 POP POP SWAP3 SWAP2 POP POP JUMP JUMPDEST PUSH1 0x0 DUP2 MLOAD SWAP1 POP SWAP2 SWAP1 POP JUMP JUMPDEST PUSH1 0x0 DUP3 DUP3 MSTORE PUSH1 0x20 DUP3 ADD SWAP1 POP SWAP3 SWAP2 POP POP JUMP JUMPDEST PUSH1 0x0 JUMPDEST DUP4 DUP2 LT ISZERO PUSH2 0xEEB JUMPI DUP1 DUP3 ADD MLOAD DUP2 DUP5 ADD MSTORE PUSH1 0x20 DUP2 ADD SWAP1 POP PUSH2 0xED0 JUMP JUMPDEST PUSH1 0x0 DUP5 DUP5 ADD MSTORE POP POP POP POP JUMP JUMPDEST PUSH1 0x0 PUSH1 0x1F NOT PUSH1 0x1F DUP4 ADD AND SWAP1 POP SWAP2 SWAP1 POP JUMP JUMPDEST PUSH1 0x0 PUSH2 0xF13 DUP3 PUSH2 0xEB1 JUMP JUMPDEST PUSH2 0xF1D DUP2 DUP6 PUSH2 0xEBC JUMP JUMPDEST SWAP4 POP PUSH2 0xF2D DUP2 DUP6 PUSH1 0x20 DUP7 ADD PUSH2 0xECD JUMP JUMPDEST PUSH2 0xF36 DUP2 PUSH2 0xEF7 JUMP JUMPDEST DUP5 ADD SWAP2 POP POP SWAP3 SWAP2 POP POP JUMP JUMPDEST PUSH1 0x0 PUSH1 0xA0 DUP3 ADD SWAP1 POP DUP2 DUP2 SUB PUSH1 0x0 DUP4 ADD MSTORE PUSH2 0xF5B DUP2 DUP9 PUSH2 0xF08 JUMP JUMPDEST SWAP1 POP DUP2 DUP2 SUB PUSH1 0x20 DUP4 ADD MSTORE PUSH2 0xF6F DUP2 DUP8 PUSH2 0xF08 JUMP JUMPDEST SWAP1 POP DUP2 DUP2 SUB PUSH1 0x40 DUP4 ADD MSTORE PUSH2 0xF83 DUP2 DUP7 PUSH2 0xF08 JUMP JUMPDEST SWAP1 POP DUP2 DUP2 SUB PUSH1 0x60 DUP4 ADD MSTORE PUSH2 0xF97 DUP2 DUP6 PUSH2 0xF08 JUMP JUMPDEST SWAP1 POP DUP2 DUP2 SUB PUSH1 0x80 DUP4 ADD MSTORE PUSH2 0xFAB DUP2 DUP5 PUSH2 0xF08 JUMP JUMPDEST SWAP1 POP SWAP7 SWAP6 POP POP POP POP POP POP JUMP JUMPDEST PUSH1 0x0 DUP1 REVERT JUMPDEST PUSH1 0x0 DUP1 REVERT JUMPDEST PUSH32 0x4E487B7100000000000000000000000000000000000000000000000000000000 PUSH1 0x0 MSTORE PUSH1 0x41 PUSH1 0x4 MSTORE PUSH1 0x24 PUSH1 0x0 REVERT JUMPDEST PUSH2 0xFF9 DUP3 PUSH2 0xEF7 JUMP JUMPDEST DUP2 ADD DUP2 DUP2 LT PUSH8 0xFFFFFFFFFFFFFFFF DUP3 GT OR ISZERO PUSH2 0x1018 JUMPI PUSH2 0x1017 PUSH2 0xFC1 JUMP JUMPDEST JUMPDEST DUP1 PUSH1 0x40 MSTORE POP POP POP JUMP JUMPDEST PUSH1 0x0 PUSH2 0x102B PUSH2 0xE3A JUMP JUMPDEST SWAP1 POP PUSH2 0x1037 DUP3 DUP3 PUSH2 0xFF0 JUMP JUMPDEST SWAP2 SWAP1 POP JUMP JUMPDEST PUSH1 0x0 PUSH8 0xFFFFFFFFFFFFFFFF DUP3 GT ISZERO PUSH2 0x1057 JUMPI PUSH2 0x1056 PUSH2 0xFC1 JUMP JUMPDEST JUMPDEST PUSH2 0x1060 DUP3 PUSH2 0xEF7 JUMP JUMPDEST SWAP1 POP PUSH1 0x20 DUP2 ADD SWAP1 POP SWAP2 SWAP1 POP JUMP JUMPDEST DUP3 DUP2 DUP4 CALLDATACOPY PUSH1 0x0 DUP4 DUP4 ADD MSTORE POP POP POP JUMP JUMPDEST PUSH1 0x0 PUSH2 0x108F PUSH2 0x108A DUP5 PUSH2 0x103C JUMP JUMPDEST PUSH2 0x1021 JUMP JUMPDEST SWAP1 POP DUP3 DUP2 MSTORE PUSH1 0x20 DUP2 ADD DUP5 DUP5 DUP5 ADD GT ISZERO PUSH2 0x10AB JUMPI PUSH2 0x10AA PUSH2 0xFBC JUMP JUMPDEST JUMPDEST PUSH2 0x10B6 DUP5 DUP3 DUP6 PUSH2 0x106D JUMP JUMPDEST POP SWAP4 SWAP3 POP POP POP JUMP JUMPDEST PUSH1 0x0 DUP3 PUSH1 0x1F DUP4 ADD SLT PUSH2 0x10D3 JUMPI PUSH2 0x10D2 PUSH2 0xFB7 JUMP JUMPDEST JUMPDEST DUP2 CALLDATALOAD PUSH2 0x10E3 DUP5 DUP3 PUSH1 0x20 DUP7 ADD PUSH2 0x107C JUMP JUMPDEST SWAP2 POP POP SWAP3 SWAP2 POP POP JUMP JUMPDEST PUSH1 0x0 DUP1 PUSH1 0x40 DUP4 DUP6 SUB SLT ISZERO PUSH2 0x1103 JUMPI PUSH2 0x1102 PUSH2 0xE44 JUMP JUMPDEST JUMPDEST PUSH1 0x0 DUP4 ADD CALLDATALOAD PUSH8 0xFFFFFFFFFFFFFFFF DUP2 GT ISZERO PUSH2 0x1121 JUMPI PUSH2 0x1120 PUSH2 0xE49 JUMP JUMPDEST JUMPDEST PUSH2 0x112D DUP6 DUP3 DUP7 ADD PUSH2 0x10BE JUMP JUMPDEST SWAP3 POP POP PUSH1 0x20 DUP4 ADD CALLDATALOAD PUSH8 0xFFFFFFFFFFFFFFFF DUP2 GT ISZERO PUSH2 0x114E JUMPI PUSH2 0x114D PUSH2 0xE49 JUMP JUMPDEST JUMPDEST PUSH2 0x115A DUP6 DUP3 DUP7 ADD PUSH2 0x10BE JUMP JUMPDEST SWAP2 POP POP SWAP3 POP SWAP3 SWAP1 POP JUMP JUMPDEST PUSH1 0x0 DUP1 PUSH1 0x0 DUP1 PUSH1 0x0 PUSH1 0xA0 DUP7 DUP9 SUB SLT ISZERO PUSH2 0x1180 JUMPI PUSH2 0x117F PUSH2 0xE44 JUMP JUMPDEST JUMPDEST PUSH1 0x0 DUP7 ADD CALLDATALOAD PUSH8 0xFFFFFFFFFFFFFFFF DUP2 GT ISZERO PUSH2 0x119E JUMPI PUSH2 0x119D PUSH2 0xE49 JUMP JUMPDEST JUMPDEST PUSH2 0x11AA DUP9 DUP3 DUP10 ADD PUSH2 0x10BE JUMP JUMPDEST SWAP6 POP POP PUSH1 0x20 DUP7 ADD CALLDATALOAD PUSH8 0xFFFFFFFFFFFFFFFF DUP2 GT ISZERO PUSH2 0x11CB JUMPI PUSH2 0x11CA PUSH2 0xE49 JUMP JUMPDEST JUMPDEST PUSH2 0x11D7 DUP9 DUP3 DUP10 ADD PUSH2 0x10BE JUMP JUMPDEST SWAP5 POP POP PUSH1 0x40 DUP7 ADD CALLDATALOAD PUSH8 0xFFFFFFFFFFFFFFFF DUP2 GT ISZERO PUSH2 0x11F8 JUMPI PUSH2 0x11F7 PUSH2 0xE49 JUMP JUMPDEST JUMPDEST PUSH2 0x1204 DUP9 DUP3 DUP10 ADD PUSH2 0x10BE JUMP JUMPDEST SWAP4 POP POP PUSH1 0x60 DUP7 ADD CALLDATALOAD PUSH8 0xFFFFFFFFFFFFFFFF DUP2 GT ISZERO PUSH2 0x1225 JUMPI PUSH2 0x1224 PUSH2 0xE49 JUMP JUMPDEST JUMPDEST PUSH2 0x1231 DUP9 DUP3 DUP10 ADD PUSH2 0x10BE JUMP JUMPDEST SWAP3 POP POP PUSH1 0x80 DUP7 ADD CALLDATALOAD PUSH8 0xFFFFFFFFFFFFFFFF DUP2 GT ISZERO PUSH2 0x1252 JUMPI PUSH2 0x1251 PUSH2 0xE49 JUMP JUMPDEST JUMPDEST PUSH2 0x125E DUP9 DUP3 DUP10 ADD PUSH2 0x10BE JUMP JUMPDEST SWAP2 POP POP SWAP3 SWAP6 POP SWAP3 SWAP6 SWAP1 SWAP4 POP JUMP JUMPDEST PUSH2 0x1274 DUP2 PUSH2 0xE4E JUMP JUMPDEST DUP3 MSTORE POP POP JUMP JUMPDEST PUSH1 0x0 PUSH1 0x20 DUP3 ADD SWAP1 POP PUSH2 0x128F PUSH1 0x0 DUP4 ADD DUP5 PUSH2 0x126B JUMP JUMPDEST SWAP3 SWAP2 POP POP JUMP JUMPDEST PUSH32 0x4E487B7100000000000000000000000000000000000000000000000000000000 PUSH1 0x0 MSTORE PUSH1 0x22 PUSH1 0x4 MSTORE PUSH1 0x24 PUSH1 0x0 REVERT JUMPDEST PUSH1 0x0 PUSH1 0x2 DUP3 DIV SWAP1 POP PUSH1 0x1 DUP3 AND DUP1 PUSH2 0x12DC JUMPI PUSH1 0x7F DUP3 AND SWAP2 POP JUMPDEST PUSH1 0x20 DUP3 LT DUP2 SUB PUSH2 0x12EF JUMPI PUSH2 0x12EE PUSH2 0x1295 JUMP JUMPDEST JUMPDEST POP SWAP2 SWAP1 POP JUMP JUMPDEST PUSH32 0x4E6F2073747564656E7473206164646564207965740000000000000000000000 PUSH1 0x0 DUP3 ADD MSTORE POP JUMP JUMPDEST PUSH1 0x0 PUSH2 0x132B PUSH1 0x15 DUP4 PUSH2 0xEBC JUMP JUMPDEST SWAP2 POP PUSH2 0x1336 DUP3 PUSH2 0x12F5 JUMP JUMPDEST PUSH1 0x20 DUP3 ADD SWAP1 POP SWAP2 SWAP1 POP JUMP JUMPDEST PUSH1 0x0 PUSH1 0x20 DUP3 ADD SWAP1 POP DUP2 DUP2 SUB PUSH1 0x0 DUP4 ADD MSTORE PUSH2 0x135A DUP2 PUSH2 0x131E JUMP JUMPDEST SWAP1 POP SWAP2 SWAP1 POP JUMP JUMPDEST PUSH32 0x53747564656E74206E6F7420666F756E64000000000000000000000000000000 PUSH1 0x0 DUP3 ADD MSTORE POP JUMP JUMPDEST PUSH1 0x0 PUSH2 0x1397 PUSH1 0x11 DUP4 PUSH2 0xEBC JUMP JUMPDEST SWAP2 POP PUSH2 0x13A2 DUP3 PUSH2 0x1361 JUMP JUMPDEST PUSH1 0x20 DUP3 ADD SWAP1 POP SWAP2 SWAP1 POP JUMP JUMPDEST PUSH1 0x0 PUSH1 0x20 DUP3 ADD SWAP1 POP DUP2 DUP2 SUB PUSH1 0x0 DUP4 ADD MSTORE PUSH2 0x13C6 DUP2 PUSH2 0x138A JUMP JUMPDEST SWAP1 POP SWAP2 SWAP1 POP JUMP JUMPDEST PUSH1 0x0 DUP2 SWAP1 POP DUP2 PUSH1 0x0 MSTORE PUSH1 0x20 PUSH1 0x0 KECCAK256 SWAP1 POP SWAP2 SWAP1 POP JUMP JUMPDEST PUSH1 0x0 PUSH1 0x20 PUSH1 0x1F DUP4 ADD DIV SWAP1 POP SWAP2 SWAP1 POP JUMP JUMPDEST PUSH1 0x0 DUP3 DUP3 SHL SWAP1 POP SWAP3 SWAP2 POP POP JUMP JUMPDEST PUSH1 0x0 PUSH1 0x8 DUP4 MUL PUSH2 0x142F PUSH32 0xFFFFFFFFFFFFFFFFFFFFFFFFFFFFFFFFFFFFFFFFFFFFFFFFFFFFFFFFFFFFFFFF DUP3 PUSH2 0x13F2 JUMP JUMPDEST PUSH2 0x1439 DUP7 DUP4 PUSH2 0x13F2 JUMP JUMPDEST SWAP6 POP DUP1 NOT DUP5 AND SWAP4 POP DUP1 DUP7 AND DUP5 OR SWAP3 POP POP POP SWAP4 SWAP3 POP POP POP JUMP JUMPDEST PUSH1 0x0 DUP2 SWAP1 POP SWAP2 SWAP1 POP JUMP JUMPDEST PUSH1 0x0 PUSH2 0x1476 PUSH2 0x1471 PUSH2 0x146C DUP5 PUSH2 0xE4E JUMP JUMPDEST PUSH2 0x1451 JUMP JUMPDEST PUSH2 0xE4E JUMP JUMPDEST SWAP1 POP SWAP2 SWAP1 POP JUMP JUMPDEST PUSH1 0x0 DUP2 SWAP1 POP SWAP2 SWAP1 POP JUMP JUMPDEST PUSH2 0x1490 DUP4 PUSH2 0x145B JUMP JUMPDEST PUSH2 0x14A4 PUSH2 0x149C DUP3 PUSH2 0x147D JUMP JUMPDEST DUP5 DUP5 SLOAD PUSH2 0x13FF JUMP JUMPDEST DUP3 SSTORE POP POP POP POP JUMP JUMPDEST PUSH1 0x0 SWAP1 JUMP JUMPDEST PUSH2 0x14B9 PUSH2 0x14AC JUMP JUMPDEST PUSH2 0x14C4 DUP2 DUP5 DUP5 PUSH2 0x1487 JUMP JUMPDEST POP POP POP JUMP JUMPDEST JUMPDEST DUP2 DUP2 LT ISZERO PUSH2 0x14E8 JUMPI PUSH2 0x14DD PUSH1 0x0 DUP3 PUSH2 0x14B1 JUMP JUMPDEST PUSH1 0x1 DUP2 ADD SWAP1 POP PUSH2 0x14CA JUMP JUMPDEST POP POP JUMP JUMPDEST PUSH1 0x1F DUP3 GT ISZERO PUSH2 0x152D JUMPI PUSH2 0x14FE DUP2 PUSH2 0x13CD JUMP JUMPDEST PUSH2 0x1507 DUP5 PUSH2 0x13E2 JUMP JUMPDEST DUP2 ADD PUSH1 0x20 DUP6 LT ISZERO PUSH2 0x1516 JUMPI DUP2 SWAP1 POP JUMPDEST PUSH2 0x152A PUSH2 0x1522 DUP6 PUSH2 0x13E2 JUMP JUMPDEST DUP4 ADD DUP3 PUSH2 0x14C9 JUMP JUMPDEST POP POP JUMPDEST POP POP POP JUMP JUMPDEST PUSH1 0x0 DUP3 DUP3 SHR SWAP1 POP SWAP3 SWAP2 POP POP JUMP JUMPDEST PUSH1 0x0 PUSH2 0x1550 PUSH1 0x0 NOT DUP5 PUSH1 0x8 MUL PUSH2 0x1532 JUMP JUMPDEST NOT DUP1 DUP4 AND SWAP2 POP POP SWAP3 SWAP2 POP POP JUMP JUMPDEST PUSH1 0x0 PUSH2 0x1569 DUP4 DUP4 PUSH2 0x153F JUMP JUMPDEST SWAP2 POP DUP3 PUSH1 0x2 MUL DUP3 OR SWAP1 POP SWAP3 SWAP2 POP POP JUMP JUMPDEST PUSH2 0x1582 DUP3 PUSH2 0xEB1 JUMP JUMPDEST PUSH8 0xFFFFFFFFFFFFFFFF DUP2 GT ISZERO PUSH2 0x159B JUMPI PUSH2 0x159A PUSH2 0xFC1 JUMP JUMPDEST JUMPDEST PUSH2 0x15A5 DUP3 SLOAD PUSH2 0x12C4 JUMP JUMPDEST PUSH2 0x15B0 DUP3 DUP3 DUP6 PUSH2 0x14EC JUMP JUMPDEST PUSH1 0x0 PUSH1 0x20 SWAP1 POP PUSH1 0x1F DUP4 GT PUSH1 0x1 DUP2 EQ PUSH2 0x15E3 JUMPI PUSH1 0x0 DUP5 ISZERO PUSH2 0x15D1 JUMPI DUP3 DUP8 ADD MLOAD SWAP1 POP JUMPDEST PUSH2 0x15DB DUP6 DUP3 PUSH2 0x155D JUMP JUMPDEST DUP7 SSTORE POP PUSH2 0x1643 JUMP JUMPDEST PUSH1 0x1F NOT DUP5 AND PUSH2 0x15F1 DUP7 PUSH2 0x13CD JUMP JUMPDEST PUSH1 0x0 JUMPDEST DUP3 DUP2 LT ISZERO PUSH2 0x1619 JUMPI DUP5 DUP10 ADD MLOAD DUP3 SSTORE PUSH1 0x1 DUP3 ADD SWAP2 POP PUSH1 0x20 DUP6 ADD SWAP5 POP PUSH1 0x20 DUP2 ADD SWAP1 POP PUSH2 0x15F4 JUMP JUMPDEST DUP7 DUP4 LT ISZERO PUSH2 0x1636 JUMPI DUP5 DUP10 ADD MLOAD PUSH2 0x1632 PUSH1 0x1F DUP10 AND DUP3 PUSH2 0x153F JUMP JUMPDEST DUP4 SSTORE POP JUMPDEST PUSH1 0x1 PUSH1 0x2 DUP9 MUL ADD DUP9 SSTORE POP POP POP JUMPDEST POP POP POP POP POP POP JUMP JUMPDEST PUSH32 0x4E487B7100000000000000000000000000000000000000000000000000000000 PUSH1 0x0 MSTORE PUSH1 0x11 PUSH1 0x4 MSTORE PUSH1 0x24 PUSH1 0x0 REVERT JUMPDEST PUSH1 0x0 PUSH2 0x1685 DUP3 PUSH2 0xE4E JUMP JUMPDEST SWAP2 POP PUSH32 0xFFFFFFFFFFFFFFFFFFFFFFFFFFFFFFFFFFFFFFFFFFFFFFFFFFFFFFFFFFFFFFFF DUP3 SUB PUSH2 0x16B7 JUMPI PUSH2 0x16B6 PUSH2 0x164B JUMP JUMPDEST JUMPDEST PUSH1 0x1 DUP3 ADD SWAP1 POP SWAP2 SWAP1 POP JUMP JUMPDEST PUSH1 0x0 DUP2 SWAP1 POP SWAP3 SWAP2 POP POP JUMP JUMPDEST PUSH1 0x0 PUSH2 0x16D8 DUP3 PUSH2 0xEB1 JUMP JUMPDEST PUSH2 0x16E2 DUP2 DUP6 PUSH2 0x16C2 JUMP JUMPDEST SWAP4 POP PUSH2 0x16F2 DUP2 DUP6 PUSH1 0x20 DUP7 ADD PUSH2 0xECD JUMP JUMPDEST DUP1 DUP5 ADD SWAP2 POP POP SWAP3 SWAP2 POP POP JUMP JUMPDEST PUSH1 0x0 PUSH2 0x170A DUP3 DUP5 PUSH2 0x16CD JUMP JUMPDEST SWAP2 POP DUP2 SWAP1 POP SWAP3 SWAP2 POP POP JUMP INVALID LOG2 PUSH5 0x6970667358 0x22 SLT KECCAK256 JUMPDEST 0xE6 LOG0 0x1E RETURN 0xD0 SUB 0xB9 0xC5 0xD2 0xDF SHR DUP6 PUSH21 0x7ADC85D824F1134C7BD59B6348C5C7DA739664736F PUSH13 0x63430008190033000000000000 "
	},
	"Assembly": ".code\n  PUSH 80\t\t\tcontract StudentDataStorage {\\...\n  PUSH 40\t\t\tcontract StudentDataStorage {\\...\n  MSTORE \t\t\tcontract StudentDataStorage {\\...\n  CALLVALUE \t\t\tcontract StudentDataStorage {\\...\n  DUP1 \t\t\tcontract StudentDataStorage {\\...\n  ISZERO \t\t\tcontract StudentDataStorage {\\...\n  PUSH [tag] 1\t\t\tcontract StudentDataStorage {\\...\n  JUMPI \t\t\tcontract StudentDataStorage {\\...\n  PUSH 0\t\t\tcontract StudentDataStorage {\\...\n  DUP1 \t\t\tcontract StudentDataStorage {\\...\n  REVERT \t\t\tcontract StudentDataStorage {\\...\ntag 1\t\t\tcontract StudentDataStorage {\\...\n  JUMPDEST \t\t\tcontract StudentDataStorage {\\...\n  POP \t\t\tcontract StudentDataStorage {\\...\n  PUSH #[$] 0000000000000000000000000000000000000000000000000000000000000000\t\t\tcontract StudentDataStorage {\\...\n  DUP1 \t\t\tcontract StudentDataStorage {\\...\n  PUSH [$] 0000000000000000000000000000000000000000000000000000000000000000\t\t\tcontract StudentDataStorage {\\...\n  PUSH 0\t\t\tcontract StudentDataStorage {\\...\n  CODECOPY \t\t\tcontract StudentDataStorage {\\...\n  PUSH 0\t\t\tcontract StudentDataStorage {\\...\n  RETURN \t\t\tcontract StudentDataStorage {\\...\n.data\n  0:\n    .code\n      PUSH 80\t\t\tcontract StudentDataStorage {\\...\n      PUSH 40\t\t\tcontract StudentDataStorage {\\...\n      MSTORE \t\t\tcontract StudentDataStorage {\\...\n      CALLVALUE \t\t\tcontract StudentDataStorage {\\...\n      DUP1 \t\t\tcontract StudentDataStorage {\\...\n      ISZERO \t\t\tcontract StudentDataStorage {\\...\n      PUSH [tag] 1\t\t\tcontract StudentDataStorage {\\...\n      JUMPI \t\t\tcontract StudentDataStorage {\\...\n      PUSH 0\t\t\tcontract StudentDataStorage {\\...\n      DUP1 \t\t\tcontract StudentDataStorage {\\...\n      REVERT \t\t\tcontract StudentDataStorage {\\...\n    tag 1\t\t\tcontract StudentDataStorage {\\...\n      JUMPDEST \t\t\tcontract StudentDataStorage {\\...\n      POP \t\t\tcontract StudentDataStorage {\\...\n      PUSH 4\t\t\tcontract StudentDataStorage {\\...\n      CALLDATASIZE \t\t\tcontract StudentDataStorage {\\...\n      LT \t\t\tcontract StudentDataStorage {\\...\n      PUSH [tag] 2\t\t\tcontract StudentDataStorage {\\...\n      JUMPI \t\t\tcontract StudentDataStorage {\\...\n      PUSH 0\t\t\tcontract StudentDataStorage {\\...\n      CALLDATALOAD \t\t\tcontract StudentDataStorage {\\...\n      PUSH E0\t\t\tcontract StudentDataStorage {\\...\n      SHR \t\t\tcontract StudentDataStorage {\\...\n      DUP1 \t\t\tcontract StudentDataStorage {\\...\n      PUSH 6EAD22E\t\t\tcontract StudentDataStorage {\\...\n      EQ \t\t\tcontract StudentDataStorage {\\...\n      PUSH [tag] 3\t\t\tcontract StudentDataStorage {\\...\n      JUMPI \t\t\tcontract StudentDataStorage {\\...\n      DUP1 \t\t\tcontract StudentDataStorage {\\...\n      PUSH 5D52D08F\t\t\tcontract StudentDataStorage {\\...\n      EQ \t\t\tcontract StudentDataStorage {\\...\n      PUSH [tag] 4\t\t\tcontract StudentDataStorage {\\...\n      JUMPI \t\t\tcontract StudentDataStorage {\\...\n      DUP1 \t\t\tcontract StudentDataStorage {\\...\n      PUSH CB451629\t\t\tcontract StudentDataStorage {\\...\n      EQ \t\t\tcontract StudentDataStorage {\\...\n      PUSH [tag] 5\t\t\tcontract StudentDataStorage {\\...\n      JUMPI \t\t\tcontract StudentDataStorage {\\...\n      DUP1 \t\t\tcontract StudentDataStorage {\\...\n      PUSH E581F9EE\t\t\tcontract StudentDataStorage {\\...\n      EQ \t\t\tcontract StudentDataStorage {\\...\n      PUSH [tag] 6\t\t\tcontract StudentDataStorage {\\...\n      JUMPI \t\t\tcontract StudentDataStorage {\\...\n    tag 2\t\t\tcontract StudentDataStorage {\\...\n      JUMPDEST \t\t\tcontract StudentDataStorage {\\...\n      PUSH 0\t\t\tcontract StudentDataStorage {\\...\n      DUP1 \t\t\tcontract StudentDataStorage {\\...\n      REVERT \t\t\tcontract StudentDataStorage {\\...\n    tag 3\t\t\tmapping(uint256 => Student) pu...\n      JUMPDEST \t\t\tmapping(uint256 => Student) pu...\n      PUSH [tag] 7\t\t\tmapping(uint256 => Student) pu...\n      PUSH 4\t\t\tmapping(uint256 => Student) pu...\n      DUP1 \t\t\tmapping(uint256 => Student) pu...\n      CALLDATASIZE \t\t\tmapping(uint256 => Student) pu...\n      SUB \t\t\tmapping(uint256 => Student) pu...\n      DUP2 \t\t\tmapping(uint256 => Student) pu...\n      ADD \t\t\tmapping(uint256 => Student) pu...\n      SWAP1 \t\t\tmapping(uint256 => Student) pu...\n      PUSH [tag] 8\t\t\tmapping(uint256 => Student) pu...\n      SWAP2 \t\t\tmapping(uint256 => Student) pu...\n      SWAP1 \t\t\tmapping(uint256 => Student) pu...\n      PUSH [tag] 9\t\t\tmapping(uint256 => Student) pu...\n      JUMP \t\t\tmapping(uint256 => Student) pu...\n    tag 8\t\t\tmapping(uint256 => Student) pu...\n      JUMPDEST \t\t\tmapping(uint256 => Student) pu...\n      PUSH [tag] 10\t\t\tmapping(uint256 => Student) pu...\n      JUMP \t\t\tmapping(uint256 => Student) pu...\n    tag 7\t\t\tmapping(uint256 => Student) pu...\n      JUMPDEST \t\t\tmapping(uint256 => Student) pu...\n      PUSH 40\t\t\tmapping(uint256 => Student) pu...\n      MLOAD \t\t\tmapping(uint256 => Student) pu...\n      PUSH [tag] 11\t\t\tmapping(uint256 => Student) pu...\n      SWAP6 \t\t\tmapping(uint256 => Student) pu...\n      SWAP5 \t\t\tmapping(uint256 => Student) pu...\n      SWAP4 \t\t\tmapping(uint256 => Student) pu...\n      SWAP3 \t\t\tmapping(uint256 => Student) pu...\n      SWAP2 \t\t\tmapping(uint256 => Student) pu...\n      SWAP1 \t\t\tmapping(uint256 => Student) pu...\n      PUSH [tag] 12\t\t\tmapping(uint256 => Student) pu...\n      JUMP \t\t\tmapping(uint256 => Student) pu...\n    tag 11\t\t\tmapping(uint256 => Student) pu...\n      JUMPDEST \t\t\tmapping(uint256 => Student) pu...\n      PUSH 40\t\t\tmapping(uint256 => Student) pu...\n      MLOAD \t\t\tmapping(uint256 => Student) pu...\n      DUP1 \t\t\tmapping(uint256 => Student) pu...\n      SWAP2 \t\t\tmapping(uint256 => Student) pu...\n      SUB \t\t\tmapping(uint256 => Student) pu...\n      SWAP1 \t\t\tmapping(uint256 => Student) pu...\n      RETURN \t\t\tmapping(uint256 => Student) pu...\n    tag 4\t\t\tfunction getStudentDataByQuery...\n      JUMPDEST \t\t\tfunction getStudentDataByQuery...\n      PUSH [tag] 13\t\t\tfunction getStudentDataByQuery...\n      PUSH 4\t\t\tfunction getStudentDataByQuery...\n      DUP1 \t\t\tfunction getStudentDataByQuery...\n      CALLDATASIZE \t\t\tfunction getStudentDataByQuery...\n      SUB \t\t\tfunction getStudentDataByQuery...\n      DUP2 \t\t\tfunction getStudentDataByQuery...\n      ADD \t\t\tfunction getStudentDataByQuery...\n      SWAP1 \t\t\tfunction getStudentDataByQuery...\n      PUSH [tag] 14\t\t\tfunction getStudentDataByQuery...\n      SWAP2 \t\t\tfunction getStudentDataByQuery...\n      SWAP1 \t\t\tfunction getStudentDataByQuery...\n      PUSH [tag] 15\t\t\tfunction getStudentDataByQuery...\n      JUMP \t\t\tfunction getStudentDataByQuery...\n    tag 14\t\t\tfunction getStudentDataByQuery...\n      JUMPDEST \t\t\tfunction getStudentDataByQuery...\n      PUSH [tag] 16\t\t\tfunction getStudentDataByQuery...\n      JUMP \t\t\tfunction getStudentDataByQuery...\n    tag 13\t\t\tfunction getStudentDataByQuery...\n      JUMPDEST \t\t\tfunction getStudentDataByQuery...\n      PUSH 40\t\t\tfunction getStudentDataByQuery...\n      MLOAD \t\t\tfunction getStudentDataByQuery...\n      PUSH [tag] 17\t\t\tfunction getStudentDataByQuery...\n      SWAP6 \t\t\tfunction getStudentDataByQuery...\n      SWAP5 \t\t\tfunction getStudentDataByQuery...\n      SWAP4 \t\t\tfunction getStudentDataByQuery...\n      SWAP3 \t\t\tfunction getStudentDataByQuery...\n      SWAP2 \t\t\tfunction getStudentDataByQuery...\n      SWAP1 \t\t\tfunction getStudentDataByQuery...\n      PUSH [tag] 12\t\t\tfunction getStudentDataByQuery...\n      JUMP \t\t\tfunction getStudentDataByQuery...\n    tag 17\t\t\tfunction getStudentDataByQuery...\n      JUMPDEST \t\t\tfunction getStudentDataByQuery...\n      PUSH 40\t\t\tfunction getStudentDataByQuery...\n      MLOAD \t\t\tfunction getStudentDataByQuery...\n      DUP1 \t\t\tfunction getStudentDataByQuery...\n      SWAP2 \t\t\tfunction getStudentDataByQuery...\n      SUB \t\t\tfunction getStudentDataByQuery...\n      SWAP1 \t\t\tfunction getStudentDataByQuery...\n      RETURN \t\t\tfunction getStudentDataByQuery...\n    tag 5\t\t\tfunction addStudentData(string...\n      JUMPDEST \t\t\tfunction addStudentData(string...\n      PUSH [tag] 18\t\t\tfunction addStudentData(string...\n      PUSH 4\t\t\tfunction addStudentData(string...\n      DUP1 \t\t\tfunction addStudentData(string...\n      CALLDATASIZE \t\t\tfunction addStudentData(string...\n      SUB \t\t\tfunction addStudentData(string...\n      DUP2 \t\t\tfunction addStudentData(string...\n      ADD \t\t\tfunction addStudentData(string...\n      SWAP1 \t\t\tfunction addStudentData(string...\n      PUSH [tag] 19\t\t\tfunction addStudentData(string...\n      SWAP2 \t\t\tfunction addStudentData(string...\n      SWAP1 \t\t\tfunction addStudentData(string...\n      PUSH [tag] 20\t\t\tfunction addStudentData(string...\n      JUMP \t\t\tfunction addStudentData(string...\n    tag 19\t\t\tfunction addStudentData(string...\n      JUMPDEST \t\t\tfunction addStudentData(string...\n      PUSH [tag] 21\t\t\tfunction addStudentData(string...\n      JUMP \t\t\tfunction addStudentData(string...\n    tag 18\t\t\tfunction addStudentData(string...\n      JUMPDEST \t\t\tfunction addStudentData(string...\n      STOP \t\t\tfunction addStudentData(string...\n    tag 6\t\t\tuint256 public studentCount\n      JUMPDEST \t\t\tuint256 public studentCount\n      PUSH [tag] 22\t\t\tuint256 public studentCount\n      PUSH [tag] 23\t\t\tuint256 public studentCount\n      JUMP \t\t\tuint256 public studentCount\n    tag 22\t\t\tuint256 public studentCount\n      JUMPDEST \t\t\tuint256 public studentCount\n      PUSH 40\t\t\tuint256 public studentCount\n      MLOAD \t\t\tuint256 public studentCount\n      PUSH [tag] 24\t\t\tuint256 public studentCount\n      SWAP2 \t\t\tuint256 public studentCount\n      SWAP1 \t\t\tuint256 public studentCount\n      PUSH [tag] 25\t\t\tuint256 public studentCount\n      JUMP \t\t\tuint256 public studentCount\n    tag 24\t\t\tuint256 public studentCount\n      JUMPDEST \t\t\tuint256 public studentCount\n      PUSH 40\t\t\tuint256 public studentCount\n      MLOAD \t\t\tuint256 public studentCount\n      DUP1 \t\t\tuint256 public studentCount\n      SWAP2 \t\t\tuint256 public studentCount\n      SUB \t\t\tuint256 public studentCount\n      SWAP1 \t\t\tuint256 public studentCount\n      RETURN \t\t\tuint256 public studentCount\n    tag 10\t\t\tmapping(uint256 => Student) pu...\n      JUMPDEST \t\t\tmapping(uint256 => Student) pu...\n      PUSH 0\t\t\tmapping(uint256 => Student) pu...\n      PUSH 20\t\t\tmapping(uint256 => Student) pu...\n      MSTORE \t\t\tmapping(uint256 => Student) pu...\n      DUP1 \t\t\tmapping(uint256 => Student) pu...\n      PUSH 0\t\t\tmapping(uint256 => Student) pu...\n      MSTORE \t\t\tmapping(uint256 => Student) pu...\n      PUSH 40\t\t\tmapping(uint256 => Student) pu...\n      PUSH 0\t\t\tmapping(uint256 => Student) pu...\n      KECCAK256 \t\t\tmapping(uint256 => Student) pu...\n      PUSH 0\t\t\tmapping(uint256 => Student) pu...\n      SWAP2 \t\t\tmapping(uint256 => Student) pu...\n      POP \t\t\tmapping(uint256 => Student) pu...\n      SWAP1 \t\t\tmapping(uint256 => Student) pu...\n      POP \t\t\tmapping(uint256 => Student) pu...\n      DUP1 \t\t\tmapping(uint256 => Student) pu...\n      PUSH 0\t\t\tmapping(uint256 => Student) pu...\n      ADD \t\t\tmapping(uint256 => Student) pu...\n      DUP1 \t\t\tmapping(uint256 => Student) pu...\n      SLOAD \t\t\tmapping(uint256 => Student) pu...\n      PUSH [tag] 26\t\t\tmapping(uint256 => Student) pu...\n      SWAP1 \t\t\tmapping(uint256 => Student) pu...\n      PUSH [tag] 27\t\t\tmapping(uint256 => Student) pu...\n      JUMP \t\t\tmapping(uint256 => Student) pu...\n    tag 26\t\t\tmapping(uint256 => Student) pu...\n      JUMPDEST \t\t\tmapping(uint256 => Student) pu...\n      DUP1 \t\t\tmapping(uint256 => Student) pu...\n      PUSH 1F\t\t\tmapping(uint256 => Student) pu...\n      ADD \t\t\tmapping(uint256 => Student) pu...\n      PUSH 20\t\t\tmapping(uint256 => Student) pu...\n      DUP1 \t\t\tmapping(uint256 => Student) pu...\n      SWAP2 \t\t\tmapping(uint256 => Student) pu...\n      DIV \t\t\tmapping(uint256 => Student) pu...\n      MUL \t\t\tmapping(uint256 => Student) pu...\n      PUSH 20\t\t\tmapping(uint256 => Student) pu...\n      ADD \t\t\tmapping(uint256 => Student) pu...\n      PUSH 40\t\t\tmapping(uint256 => Student) pu...\n      MLOAD \t\t\tmapping(uint256 => Student) pu...\n      SWAP1 \t\t\tmapping(uint256 => Student) pu...\n      DUP2 \t\t\tmapping(uint256 => Student) pu...\n      ADD \t\t\tmapping(uint256 => Student) pu...\n      PUSH 40\t\t\tmapping(uint256 => Student) pu...\n      MSTORE \t\t\tmapping(uint256 => Student) pu...\n      DUP1 \t\t\tmapping(uint256 => Student) pu...\n      SWAP3 \t\t\tmapping(uint256 => Student) pu...\n      SWAP2 \t\t\tmapping(uint256 => Student) pu...\n      SWAP1 \t\t\tmapping(uint256 => Student) pu...\n      DUP2 \t\t\tmapping(uint256 => Student) pu...\n      DUP2 \t\t\tmapping(uint256 => Student) pu...\n      MSTORE \t\t\tmapping(uint256 => Student) pu...\n      PUSH 20\t\t\tmapping(uint256 => Student) pu...\n      ADD \t\t\tmapping(uint256 => Student) pu...\n      DUP3 \t\t\tmapping(uint256 => Student) pu...\n      DUP1 \t\t\tmapping(uint256 => Student) pu...\n      SLOAD \t\t\tmapping(uint256 => Student) pu...\n      PUSH [tag] 28\t\t\tmapping(uint256 => Student) pu...\n      SWAP1 \t\t\tmapping(uint256 => Student) pu...\n      PUSH [tag] 27\t\t\tmapping(uint256 => Student) pu...\n      JUMP \t\t\tmapping(uint256 => Student) pu...\n    tag 28\t\t\tmapping(uint256 => Student) pu...\n      JUMPDEST \t\t\tmapping(uint256 => Student) pu...\n      DUP1 \t\t\tmapping(uint256 => Student) pu...\n      ISZERO \t\t\tmapping(uint256 => Student) pu...\n      PUSH [tag] 29\t\t\tmapping(uint256 => Student) pu...\n      JUMPI \t\t\tmapping(uint256 => Student) pu...\n      DUP1 \t\t\tmapping(uint256 => Student) pu...\n      PUSH 1F\t\t\tmapping(uint256 => Student) pu...\n      LT \t\t\tmapping(uint256 => Student) pu...\n      PUSH [tag] 30\t\t\tmapping(uint256 => Student) pu...\n      JUMPI \t\t\tmapping(uint256 => Student) pu...\n      PUSH 100\t\t\tmapping(uint256 => Student) pu...\n      DUP1 \t\t\tmapping(uint256 => Student) pu...\n      DUP4 \t\t\tmapping(uint256 => Student) pu...\n      SLOAD \t\t\tmapping(uint256 => Student) pu...\n      DIV \t\t\tmapping(uint256 => Student) pu...\n      MUL \t\t\tmapping(uint256 => Student) pu...\n      DUP4 \t\t\tmapping(uint256 => Student) pu...\n      MSTORE \t\t\tmapping(uint256 => Student) pu...\n      SWAP2 \t\t\tmapping(uint256 => Student) pu...\n      PUSH 20\t\t\tmapping(uint256 => Student) pu...\n      ADD \t\t\tmapping(uint256 => Student) pu...\n      SWAP2 \t\t\tmapping(uint256 => Student) pu...\n      PUSH [tag] 29\t\t\tmapping(uint256 => Student) pu...\n      JUMP \t\t\tmapping(uint256 => Student) pu...\n    tag 30\t\t\tmapping(uint256 => Student) pu...\n      JUMPDEST \t\t\tmapping(uint256 => Student) pu...\n      DUP3 \t\t\tmapping(uint256 => Student) pu...\n      ADD \t\t\tmapping(uint256 => Student) pu...\n      SWAP2 \t\t\tmapping(uint256 => Student) pu...\n      SWAP1 \t\t\tmapping(uint256 => Student) pu...\n      PUSH 0\t\t\tmapping(uint256 => Student) pu...\n      MSTORE \t\t\tmapping(uint256 => Student) pu...\n      PUSH 20\t\t\tmapping(uint256 => Student) pu...\n      PUSH 0\t\t\tmapping(uint256 => Student) pu...\n      KECCAK256 \t\t\tmapping(uint256 => Student) pu...\n      SWAP1 \t\t\tmapping(uint256 => Student) pu...\n    tag 31\t\t\tmapping(uint256 => Student) pu...\n      JUMPDEST \t\t\tmapping(uint256 => Student) pu...\n      DUP2 \t\t\tmapping(uint256 => Student) pu...\n      SLOAD \t\t\tmapping(uint256 => Student) pu...\n      DUP2 \t\t\tmapping(uint256 => Student) pu...\n      MSTORE \t\t\tmapping(uint256 => Student) pu...\n      SWAP1 \t\t\tmapping(uint256 => Student) pu...\n      PUSH 1\t\t\tmapping(uint256 => Student) pu...\n      ADD \t\t\tmapping(uint256 => Student) pu...\n      SWAP1 \t\t\tmapping(uint256 => Student) pu...\n      PUSH 20\t\t\tmapping(uint256 => Student) pu...\n      ADD \t\t\tmapping(uint256 => Student) pu...\n      DUP1 \t\t\tmapping(uint256 => Student) pu...\n      DUP4 \t\t\tmapping(uint256 => Student) pu...\n      GT \t\t\tmapping(uint256 => Student) pu...\n      PUSH [tag] 31\t\t\tmapping(uint256 => Student) pu...\n      JUMPI \t\t\tmapping(uint256 => Student) pu...\n      DUP3 \t\t\tmapping(uint256 => Student) pu...\n      SWAP1 \t\t\tmapping(uint256 => Student) pu...\n      SUB \t\t\tmapping(uint256 => Student) pu...\n      PUSH 1F\t\t\tmapping(uint256 => Student) pu...\n      AND \t\t\tmapping(uint256 => Student) pu...\n      DUP3 \t\t\tmapping(uint256 => Student) pu...\n      ADD \t\t\tmapping(uint256 => Student) pu...\n      SWAP2 \t\t\tmapping(uint256 => Student) pu...\n    tag 29\t\t\tmapping(uint256 => Student) pu...\n      JUMPDEST \t\t\tmapping(uint256 => Student) pu...\n      POP \t\t\tmapping(uint256 => Student) pu...\n      POP \t\t\tmapping(uint256 => Student) pu...\n      POP \t\t\tmapping(uint256 => Student) pu...\n      POP \t\t\tmapping(uint256 => Student) pu...\n      POP \t\t\tmapping(uint256 => Student) pu...\n      SWAP1 \t\t\tmapping(uint256 => Student) pu...\n      DUP1 \t\t\tmapping(uint256 => Student) pu...\n      PUSH 1\t\t\tmapping(uint256 => Student) pu...\n      ADD \t\t\tmapping(uint256 => Student) pu...\n      DUP1 \t\t\tmapping(uint256 => Student) pu...\n      SLOAD \t\t\tmapping(uint256 => Student) pu...\n      PUSH [tag] 32\t\t\tmapping(uint256 => Student) pu...\n      SWAP1 \t\t\tmapping(uint256 => Student) pu...\n      PUSH [tag] 27\t\t\tmapping(uint256 => Student) pu...\n      JUMP \t\t\tmapping(uint256 => Student) pu...\n    tag 32\t\t\tmapping(uint256 => Student) pu...\n      JUMPDEST \t\t\tmapping(uint256 => Student) pu...\n      DUP1 \t\t\tmapping(uint256 => Student) pu...\n      PUSH 1F\t\t\tmapping(uint256 => Student) pu...\n      ADD \t\t\tmapping(uint256 => Student) pu...\n      PUSH 20\t\t\tmapping(uint256 => Student) pu...\n      DUP1 \t\t\tmapping(uint256 => Student) pu...\n      SWAP2 \t\t\tmapping(uint256 => Student) pu...\n      DIV \t\t\tmapping(uint256 => Student) pu...\n      MUL \t\t\tmapping(uint256 => Student) pu...\n      PUSH 20\t\t\tmapping(uint256 => Student) pu...\n      ADD \t\t\tmapping(uint256 => Student) pu...\n      PUSH 40\t\t\tmapping(uint256 => Student) pu...\n      MLOAD \t\t\tmapping(uint256 => Student) pu...\n      SWAP1 \t\t\tmapping(uint256 => Student) pu...\n      DUP2 \t\t\tmapping(uint256 => Student) pu...\n      ADD \t\t\tmapping(uint256 => Student) pu...\n      PUSH 40\t\t\tmapping(uint256 => Student) pu...\n      MSTORE \t\t\tmapping(uint256 => Student) pu...\n      DUP1 \t\t\tmapping(uint256 => Student) pu...\n      SWAP3 \t\t\tmapping(uint256 => Student) pu...\n      SWAP2 \t\t\tmapping(uint256 => Student) pu...\n      SWAP1 \t\t\tmapping(uint256 => Student) pu...\n      DUP2 \t\t\tmapping(uint256 => Student) pu...\n      DUP2 \t\t\tmapping(uint256 => Student) pu...\n      MSTORE \t\t\tmapping(uint256 => Student) pu...\n      PUSH 20\t\t\tmapping(uint256 => Student) pu...\n      ADD \t\t\tmapping(uint256 => Student) pu...\n      DUP3 \t\t\tmapping(uint256 => Student) pu...\n      DUP1 \t\t\tmapping(uint256 => Student) pu...\n      SLOAD \t\t\tmapping(uint256 => Student) pu...\n      PUSH [tag] 33\t\t\tmapping(uint256 => Student) pu...\n      SWAP1 \t\t\tmapping(uint256 => Student) pu...\n      PUSH [tag] 27\t\t\tmapping(uint256 => Student) pu...\n      JUMP \t\t\tmapping(uint256 => Student) pu...\n    tag 33\t\t\tmapping(uint256 => Student) pu...\n      JUMPDEST \t\t\tmapping(uint256 => Student) pu...\n      DUP1 \t\t\tmapping(uint256 => Student) pu...\n      ISZERO \t\t\tmapping(uint256 => Student) pu...\n      PUSH [tag] 34\t\t\tmapping(uint256 => Student) pu...\n      JUMPI \t\t\tmapping(uint256 => Student) pu...\n      DUP1 \t\t\tmapping(uint256 => Student) pu...\n      PUSH 1F\t\t\tmapping(uint256 => Student) pu...\n      LT \t\t\tmapping(uint256 => Student) pu...\n      PUSH [tag] 35\t\t\tmapping(uint256 => Student) pu...\n      JUMPI \t\t\tmapping(uint256 => Student) pu...\n      PUSH 100\t\t\tmapping(uint256 => Student) pu...\n      DUP1 \t\t\tmapping(uint256 => Student) pu...\n      DUP4 \t\t\tmapping(uint256 => Student) pu...\n      SLOAD \t\t\tmapping(uint256 => Student) pu...\n      DIV \t\t\tmapping(uint256 => Student) pu...\n      MUL \t\t\tmapping(uint256 => Student) pu...\n      DUP4 \t\t\tmapping(uint256 => Student) pu...\n      MSTORE \t\t\tmapping(uint256 => Student) pu...\n      SWAP2 \t\t\tmapping(uint256 => Student) pu...\n      PUSH 20\t\t\tmapping(uint256 => Student) pu...\n      ADD \t\t\tmapping(uint256 => Student) pu...\n      SWAP2 \t\t\tmapping(uint256 => Student) pu...\n      PUSH [tag] 34\t\t\tmapping(uint256 => Student) pu...\n      JUMP \t\t\tmapping(uint256 => Student) pu...\n    tag 35\t\t\tmapping(uint256 => Student) pu...\n      JUMPDEST \t\t\tmapping(uint256 => Student) pu...\n      DUP3 \t\t\tmapping(uint256 => Student) pu...\n      ADD \t\t\tmapping(uint256 => Student) pu...\n      SWAP2 \t\t\tmapping(uint256 => Student) pu...\n      SWAP1 \t\t\tmapping(uint256 => Student) pu...\n      PUSH 0\t\t\tmapping(uint256 => Student) pu...\n      MSTORE \t\t\tmapping(uint256 => Student) pu...\n      PUSH 20\t\t\tmapping(uint256 => Student) pu...\n      PUSH 0\t\t\tmapping(uint256 => Student) pu...\n      KECCAK256 \t\t\tmapping(uint256 => Student) pu...\n      SWAP1 \t\t\tmapping(uint256 => Student) pu...\n    tag 36\t\t\tmapping(uint256 => Student) pu...\n      JUMPDEST \t\t\tmapping(uint256 => Student) pu...\n      DUP2 \t\t\tmapping(uint256 => Student) pu...\n      SLOAD \t\t\tmapping(uint256 => Student) pu...\n      DUP2 \t\t\tmapping(uint256 => Student) pu...\n      MSTORE \t\t\tmapping(uint256 => Student) pu...\n      SWAP1 \t\t\tmapping(uint256 => Student) pu...\n      PUSH 1\t\t\tmapping(uint256 => Student) pu...\n      ADD \t\t\tmapping(uint256 => Student) pu...\n      SWAP1 \t\t\tmapping(uint256 => Student) pu...\n      PUSH 20\t\t\tmapping(uint256 => Student) pu...\n      ADD \t\t\tmapping(uint256 => Student) pu...\n      DUP1 \t\t\tmapping(uint256 => Student) pu...\n      DUP4 \t\t\tmapping(uint256 => Student) pu...\n      GT \t\t\tmapping(uint256 => Student) pu...\n      PUSH [tag] 36\t\t\tmapping(uint256 => Student) pu...\n      JUMPI \t\t\tmapping(uint256 => Student) pu...\n      DUP3 \t\t\tmapping(uint256 => Student) pu...\n      SWAP1 \t\t\tmapping(uint256 => Student) pu...\n      SUB \t\t\tmapping(uint256 => Student) pu...\n      PUSH 1F\t\t\tmapping(uint256 => Student) pu...\n      AND \t\t\tmapping(uint256 => Student) pu...\n      DUP3 \t\t\tmapping(uint256 => Student) pu...\n      ADD \t\t\tmapping(uint256 => Student) pu...\n      SWAP2 \t\t\tmapping(uint256 => Student) pu...\n    tag 34\t\t\tmapping(uint256 => Student) pu...\n      JUMPDEST \t\t\tmapping(uint256 => Student) pu...\n      POP \t\t\tmapping(uint256 => Student) pu...\n      POP \t\t\tmapping(uint256 => Student) pu...\n      POP \t\t\tmapping(uint256 => Student) pu...\n      POP \t\t\tmapping(uint256 => Student) pu...\n      POP \t\t\tmapping(uint256 => Student) pu...\n      SWAP1 \t\t\tmapping(uint256 => Student) pu...\n      DUP1 \t\t\tmapping(uint256 => Student) pu...\n      PUSH 2\t\t\tmapping(uint256 => Student) pu...\n      ADD \t\t\tmapping(uint256 => Student) pu...\n      DUP1 \t\t\tmapping(uint256 => Student) pu...\n      SLOAD \t\t\tmapping(uint256 => Student) pu...\n      PUSH [tag] 37\t\t\tmapping(uint256 => Student) pu...\n      SWAP1 \t\t\tmapping(uint256 => Student) pu...\n      PUSH [tag] 27\t\t\tmapping(uint256 => Student) pu...\n      JUMP \t\t\tmapping(uint256 => Student) pu...\n    tag 37\t\t\tmapping(uint256 => Student) pu...\n      JUMPDEST \t\t\tmapping(uint256 => Student) pu...\n      DUP1 \t\t\tmapping(uint256 => Student) pu...\n      PUSH 1F\t\t\tmapping(uint256 => Student) pu...\n      ADD \t\t\tmapping(uint256 => Student) pu...\n      PUSH 20\t\t\tmapping(uint256 => Student) pu...\n      DUP1 \t\t\tmapping(uint256 => Student) pu...\n      SWAP2 \t\t\tmapping(uint256 => Student) pu...\n      DIV \t\t\tmapping(uint256 => Student) pu...\n      MUL \t\t\tmapping(uint256 => Student) pu...\n      PUSH 20\t\t\tmapping(uint256 => Student) pu...\n      ADD \t\t\tmapping(uint256 => Student) pu...\n      PUSH 40\t\t\tmapping(uint256 => Student) pu...\n      MLOAD \t\t\tmapping(uint256 => Student) pu...\n      SWAP1 \t\t\tmapping(uint256 => Student) pu...\n      DUP2 \t\t\tmapping(uint256 => Student) pu...\n      ADD \t\t\tmapping(uint256 => Student) pu...\n      PUSH 40\t\t\tmapping(uint256 => Student) pu...\n      MSTORE \t\t\tmapping(uint256 => Student) pu...\n      DUP1 \t\t\tmapping(uint256 => Student) pu...\n      SWAP3 \t\t\tmapping(uint256 => Student) pu...\n      SWAP2 \t\t\tmapping(uint256 => Student) pu...\n      SWAP1 \t\t\tmapping(uint256 => Student) pu...\n      DUP2 \t\t\tmapping(uint256 => Student) pu...\n      DUP2 \t\t\tmapping(uint256 => Student) pu...\n      MSTORE \t\t\tmapping(uint256 => Student) pu...\n      PUSH 20\t\t\tmapping(uint256 => Student) pu...\n      ADD \t\t\tmapping(uint256 => Student) pu...\n      DUP3 \t\t\tmapping(uint256 => Student) pu...\n      DUP1 \t\t\tmapping(uint256 => Student) pu...\n      SLOAD \t\t\tmapping(uint256 => Student) pu...\n      PUSH [tag] 38\t\t\tmapping(uint256 => Student) pu...\n      SWAP1 \t\t\tmapping(uint256 => Student) pu...\n      PUSH [tag] 27\t\t\tmapping(uint256 => Student) pu...\n      JUMP \t\t\tmapping(uint256 => Student) pu...\n    tag 38\t\t\tmapping(uint256 => Student) pu...\n      JUMPDEST \t\t\tmapping(uint256 => Student) pu...\n      DUP1 \t\t\tmapping(uint256 => Student) pu...\n      ISZERO \t\t\tmapping(uint256 => Student) pu...\n      PUSH [tag] 39\t\t\tmapping(uint256 => Student) pu...\n      JUMPI \t\t\tmapping(uint256 => Student) pu...\n      DUP1 \t\t\tmapping(uint256 => Student) pu...\n      PUSH 1F\t\t\tmapping(uint256 => Student) pu...\n      LT \t\t\tmapping(uint256 => Student) pu...\n      PUSH [tag] 40\t\t\tmapping(uint256 => Student) pu...\n      JUMPI \t\t\tmapping(uint256 => Student) pu...\n      PUSH 100\t\t\tmapping(uint256 => Student) pu...\n      DUP1 \t\t\tmapping(uint256 => Student) pu...\n      DUP4 \t\t\tmapping(uint256 => Student) pu...\n      SLOAD \t\t\tmapping(uint256 => Student) pu...\n      DIV \t\t\tmapping(uint256 => Student) pu...\n      MUL \t\t\tmapping(uint256 => Student) pu...\n      DUP4 \t\t\tmapping(uint256 => Student) pu...\n      MSTORE \t\t\tmapping(uint256 => Student) pu...\n      SWAP2 \t\t\tmapping(uint256 => Student) pu...\n      PUSH 20\t\t\tmapping(uint256 => Student) pu...\n      ADD \t\t\tmapping(uint256 => Student) pu...\n      SWAP2 \t\t\tmapping(uint256 => Student) pu...\n      PUSH [tag] 39\t\t\tmapping(uint256 => Student) pu...\n      JUMP \t\t\tmapping(uint256 => Student) pu...\n    tag 40\t\t\tmapping(uint256 => Student) pu...\n      JUMPDEST \t\t\tmapping(uint256 => Student) pu...\n      DUP3 \t\t\tmapping(uint256 => Student) pu...\n      ADD \t\t\tmapping(uint256 => Student) pu...\n      SWAP2 \t\t\tmapping(uint256 => Student) pu...\n      SWAP1 \t\t\tmapping(uint256 => Student) pu...\n      PUSH 0\t\t\tmapping(uint256 => Student) pu...\n      MSTORE \t\t\tmapping(uint256 => Student) pu...\n      PUSH 20\t\t\tmapping(uint256 => Student) pu...\n      PUSH 0\t\t\tmapping(uint256 => Student) pu...\n      KECCAK256 \t\t\tmapping(uint256 => Student) pu...\n      SWAP1 \t\t\tmapping(uint256 => Student) pu...\n    tag 41\t\t\tmapping(uint256 => Student) pu...\n      JUMPDEST \t\t\tmapping(uint256 => Student) pu...\n      DUP2 \t\t\tmapping(uint256 => Student) pu...\n      SLOAD \t\t\tmapping(uint256 => Student) pu...\n      DUP2 \t\t\tmapping(uint256 => Student) pu...\n      MSTORE \t\t\tmapping(uint256 => Student) pu...\n      SWAP1 \t\t\tmapping(uint256 => Student) pu...\n      PUSH 1\t\t\tmapping(uint256 => Student) pu...\n      ADD \t\t\tmapping(uint256 => Student) pu...\n      SWAP1 \t\t\tmapping(uint256 => Student) pu...\n      PUSH 20\t\t\tmapping(uint256 => Student) pu...\n      ADD \t\t\tmapping(uint256 => Student) pu...\n      DUP1 \t\t\tmapping(uint256 => Student) pu...\n      DUP4 \t\t\tmapping(uint256 => Student) pu...\n      GT \t\t\tmapping(uint256 => Student) pu...\n      PUSH [tag] 41\t\t\tmapping(uint256 => Student) pu...\n      JUMPI \t\t\tmapping(uint256 => Student) pu...\n      DUP3 \t\t\tmapping(uint256 => Student) pu...\n      SWAP1 \t\t\tmapping(uint256 => Student) pu...\n      SUB \t\t\tmapping(uint256 => Student) pu...\n      PUSH 1F\t\t\tmapping(uint256 => Student) pu...\n      AND \t\t\tmapping(uint256 => Student) pu...\n      DUP3 \t\t\tmapping(uint256 => Student) pu...\n      ADD \t\t\tmapping(uint256 => Student) pu...\n      SWAP2 \t\t\tmapping(uint256 => Student) pu...\n    tag 39\t\t\tmapping(uint256 => Student) pu...\n      JUMPDEST \t\t\tmapping(uint256 => Student) pu...\n      POP \t\t\tmapping(uint256 => Student) pu...\n      POP \t\t\tmapping(uint256 => Student) pu...\n      POP \t\t\tmapping(uint256 => Student) pu...\n      POP \t\t\tmapping(uint256 => Student) pu...\n      POP \t\t\tmapping(uint256 => Student) pu...\n      SWAP1 \t\t\tmapping(uint256 => Student) pu...\n      DUP1 \t\t\tmapping(uint256 => Student) pu...\n      PUSH 3\t\t\tmapping(uint256 => Student) pu...\n      ADD \t\t\tmapping(uint256 => Student) pu...\n      DUP1 \t\t\tmapping(uint256 => Student) pu...\n      SLOAD \t\t\tmapping(uint256 => Student) pu...\n      PUSH [tag] 42\t\t\tmapping(uint256 => Student) pu...\n      SWAP1 \t\t\tmapping(uint256 => Student) pu...\n      PUSH [tag] 27\t\t\tmapping(uint256 => Student) pu...\n      JUMP \t\t\tmapping(uint256 => Student) pu...\n    tag 42\t\t\tmapping(uint256 => Student) pu...\n      JUMPDEST \t\t\tmapping(uint256 => Student) pu...\n      DUP1 \t\t\tmapping(uint256 => Student) pu...\n      PUSH 1F\t\t\tmapping(uint256 => Student) pu...\n      ADD \t\t\tmapping(uint256 => Student) pu...\n      PUSH 20\t\t\tmapping(uint256 => Student) pu...\n      DUP1 \t\t\tmapping(uint256 => Student) pu...\n      SWAP2 \t\t\tmapping(uint256 => Student) pu...\n      DIV \t\t\tmapping(uint256 => Student) pu...\n      MUL \t\t\tmapping(uint256 => Student) pu...\n      PUSH 20\t\t\tmapping(uint256 => Student) pu...\n      ADD \t\t\tmapping(uint256 => Student) pu...\n      PUSH 40\t\t\tmapping(uint256 => Student) pu...\n      MLOAD \t\t\tmapping(uint256 => Student) pu...\n      SWAP1 \t\t\tmapping(uint256 => Student) pu...\n      DUP2 \t\t\tmapping(uint256 => Student) pu...\n      ADD \t\t\tmapping(uint256 => Student) pu...\n      PUSH 40\t\t\tmapping(uint256 => Student) pu...\n      MSTORE \t\t\tmapping(uint256 => Student) pu...\n      DUP1 \t\t\tmapping(uint256 => Student) pu...\n      SWAP3 \t\t\tmapping(uint256 => Student) pu...\n      SWAP2 \t\t\tmapping(uint256 => Student) pu...\n      SWAP1 \t\t\tmapping(uint256 => Student) pu...\n      DUP2 \t\t\tmapping(uint256 => Student) pu...\n      DUP2 \t\t\tmapping(uint256 => Student) pu...\n      MSTORE \t\t\tmapping(uint256 => Student) pu...\n      PUSH 20\t\t\tmapping(uint256 => Student) pu...\n      ADD \t\t\tmapping(uint256 => Student) pu...\n      DUP3 \t\t\tmapping(uint256 => Student) pu...\n      DUP1 \t\t\tmapping(uint256 => Student) pu...\n      SLOAD \t\t\tmapping(uint256 => Student) pu...\n      PUSH [tag] 43\t\t\tmapping(uint256 => Student) pu...\n      SWAP1 \t\t\tmapping(uint256 => Student) pu...\n      PUSH [tag] 27\t\t\tmapping(uint256 => Student) pu...\n      JUMP \t\t\tmapping(uint256 => Student) pu...\n    tag 43\t\t\tmapping(uint256 => Student) pu...\n      JUMPDEST \t\t\tmapping(uint256 => Student) pu...\n      DUP1 \t\t\tmapping(uint256 => Student) pu...\n      ISZERO \t\t\tmapping(uint256 => Student) pu...\n      PUSH [tag] 44\t\t\tmapping(uint256 => Student) pu...\n      JUMPI \t\t\tmapping(uint256 => Student) pu...\n      DUP1 \t\t\tmapping(uint256 => Student) pu...\n      PUSH 1F\t\t\tmapping(uint256 => Student) pu...\n      LT \t\t\tmapping(uint256 => Student) pu...\n      PUSH [tag] 45\t\t\tmapping(uint256 => Student) pu...\n      JUMPI \t\t\tmapping(uint256 => Student) pu...\n      PUSH 100\t\t\tmapping(uint256 => Student) pu...\n      DUP1 \t\t\tmapping(uint256 => Student) pu...\n      DUP4 \t\t\tmapping(uint256 => Student) pu...\n      SLOAD \t\t\tmapping(uint256 => Student) pu...\n      DIV \t\t\tmapping(uint256 => Student) pu...\n      MUL \t\t\tmapping(uint256 => Student) pu...\n      DUP4 \t\t\tmapping(uint256 => Student) pu...\n      MSTORE \t\t\tmapping(uint256 => Student) pu...\n      SWAP2 \t\t\tmapping(uint256 => Student) pu...\n      PUSH 20\t\t\tmapping(uint256 => Student) pu...\n      ADD \t\t\tmapping(uint256 => Student) pu...\n      SWAP2 \t\t\tmapping(uint256 => Student) pu...\n      PUSH [tag] 44\t\t\tmapping(uint256 => Student) pu...\n      JUMP \t\t\tmapping(uint256 => Student) pu...\n    tag 45\t\t\tmapping(uint256 => Student) pu...\n      JUMPDEST \t\t\tmapping(uint256 => Student) pu...\n      DUP3 \t\t\tmapping(uint256 => Student) pu...\n      ADD \t\t\tmapping(uint256 => Student) pu...\n      SWAP2 \t\t\tmapping(uint256 => Student) pu...\n      SWAP1 \t\t\tmapping(uint256 => Student) pu...\n      PUSH 0\t\t\tmapping(uint256 => Student) pu...\n      MSTORE \t\t\tmapping(uint256 => Student) pu...\n      PUSH 20\t\t\tmapping(uint256 => Student) pu...\n      PUSH 0\t\t\tmapping(uint256 => Student) pu...\n      KECCAK256 \t\t\tmapping(uint256 => Student) pu...\n      SWAP1 \t\t\tmapping(uint256 => Student) pu...\n    tag 46\t\t\tmapping(uint256 => Student) pu...\n      JUMPDEST \t\t\tmapping(uint256 => Student) pu...\n      DUP2 \t\t\tmapping(uint256 => Student) pu...\n      SLOAD \t\t\tmapping(uint256 => Student) pu...\n      DUP2 \t\t\tmapping(uint256 => Student) pu...\n      MSTORE \t\t\tmapping(uint256 => Student) pu...\n      SWAP1 \t\t\tmapping(uint256 => Student) pu...\n      PUSH 1\t\t\tmapping(uint256 => Student) pu...\n      ADD \t\t\tmapping(uint256 => Student) pu...\n      SWAP1 \t\t\tmapping(uint256 => Student) pu...\n      PUSH 20\t\t\tmapping(uint256 => Student) pu...\n      ADD \t\t\tmapping(uint256 => Student) pu...\n      DUP1 \t\t\tmapping(uint256 => Student) pu...\n      DUP4 \t\t\tmapping(uint256 => Student) pu...\n      GT \t\t\tmapping(uint256 => Student) pu...\n      PUSH [tag] 46\t\t\tmapping(uint256 => Student) pu...\n      JUMPI \t\t\tmapping(uint256 => Student) pu...\n      DUP3 \t\t\tmapping(uint256 => Student) pu...\n      SWAP1 \t\t\tmapping(uint256 => Student) pu...\n      SUB \t\t\tmapping(uint256 => Student) pu...\n      PUSH 1F\t\t\tmapping(uint256 => Student) pu...\n      AND \t\t\tmapping(uint256 => Student) pu...\n      DUP3 \t\t\tmapping(uint256 => Student) pu...\n      ADD \t\t\tmapping(uint256 => Student) pu...\n      SWAP2 \t\t\tmapping(uint256 => Student) pu...\n    tag 44\t\t\tmapping(uint256 => Student) pu...\n      JUMPDEST \t\t\tmapping(uint256 => Student) pu...\n      POP \t\t\tmapping(uint256 => Student) pu...\n      POP \t\t\tmapping(uint256 => Student) pu...\n      POP \t\t\tmapping(uint256 => Student) pu...\n      POP \t\t\tmapping(uint256 => Student) pu...\n      POP \t\t\tmapping(uint256 => Student) pu...\n      SWAP1 \t\t\tmapping(uint256 => Student) pu...\n      DUP1 \t\t\tmapping(uint256 => Student) pu...\n      PUSH 4\t\t\tmapping(uint256 => Student) pu...\n      ADD \t\t\tmapping(uint256 => Student) pu...\n      DUP1 \t\t\tmapping(uint256 => Student) pu...\n      SLOAD \t\t\tmapping(uint256 => Student) pu...\n      PUSH [tag] 47\t\t\tmapping(uint256 => Student) pu...\n      SWAP1 \t\t\tmapping(uint256 => Student) pu...\n      PUSH [tag] 27\t\t\tmapping(uint256 => Student) pu...\n      JUMP \t\t\tmapping(uint256 => Student) pu...\n    tag 47\t\t\tmapping(uint256 => Student) pu...\n      JUMPDEST \t\t\tmapping(uint256 => Student) pu...\n      DUP1 \t\t\tmapping(uint256 => Student) pu...\n      PUSH 1F\t\t\tmapping(uint256 => Student) pu...\n      ADD \t\t\tmapping(uint256 => Student) pu...\n      PUSH 20\t\t\tmapping(uint256 => Student) pu...\n      DUP1 \t\t\tmapping(uint256 => Student) pu...\n      SWAP2 \t\t\tmapping(uint256 => Student) pu...\n      DIV \t\t\tmapping(uint256 => Student) pu...\n      MUL \t\t\tmapping(uint256 => Student) pu...\n      PUSH 20\t\t\tmapping(uint256 => Student) pu...\n      ADD \t\t\tmapping(uint256 => Student) pu...\n      PUSH 40\t\t\tmapping(uint256 => Student) pu...\n      MLOAD \t\t\tmapping(uint256 => Student) pu...\n      SWAP1 \t\t\tmapping(uint256 => Student) pu...\n      DUP2 \t\t\tmapping(uint256 => Student) pu...\n      ADD \t\t\tmapping(uint256 => Student) pu...\n      PUSH 40\t\t\tmapping(uint256 => Student) pu...\n      MSTORE \t\t\tmapping(uint256 => Student) pu...\n      DUP1 \t\t\tmapping(uint256 => Student) pu...\n      SWAP3 \t\t\tmapping(uint256 => Student) pu...\n      SWAP2 \t\t\tmapping(uint256 => Student) pu...\n      SWAP1 \t\t\tmapping(uint256 => Student) pu...\n      DUP2 \t\t\tmapping(uint256 => Student) pu...\n      DUP2 \t\t\tmapping(uint256 => Student) pu...\n      MSTORE \t\t\tmapping(uint256 => Student) pu...\n      PUSH 20\t\t\tmapping(uint256 => Student) pu...\n      ADD \t\t\tmapping(uint256 => Student) pu...\n      DUP3 \t\t\tmapping(uint256 => Student) pu...\n      DUP1 \t\t\tmapping(uint256 => Student) pu...\n      SLOAD \t\t\tmapping(uint256 => Student) pu...\n      PUSH [tag] 48\t\t\tmapping(uint256 => Student) pu...\n      SWAP1 \t\t\tmapping(uint256 => Student) pu...\n      PUSH [tag] 27\t\t\tmapping(uint256 => Student) pu...\n      JUMP \t\t\tmapping(uint256 => Student) pu...\n    tag 48\t\t\tmapping(uint256 => Student) pu...\n      JUMPDEST \t\t\tmapping(uint256 => Student) pu...\n      DUP1 \t\t\tmapping(uint256 => Student) pu...\n      ISZERO \t\t\tmapping(uint256 => Student) pu...\n      PUSH [tag] 49\t\t\tmapping(uint256 => Student) pu...\n      JUMPI \t\t\tmapping(uint256 => Student) pu...\n      DUP1 \t\t\tmapping(uint256 => Student) pu...\n      PUSH 1F\t\t\tmapping(uint256 => Student) pu...\n      LT \t\t\tmapping(uint256 => Student) pu...\n      PUSH [tag] 50\t\t\tmapping(uint256 => Student) pu...\n      JUMPI \t\t\tmapping(uint256 => Student) pu...\n      PUSH 100\t\t\tmapping(uint256 => Student) pu...\n      DUP1 \t\t\tmapping(uint256 => Student) pu...\n      DUP4 \t\t\tmapping(uint256 => Student) pu...\n      SLOAD \t\t\tmapping(uint256 => Student) pu...\n      DIV \t\t\tmapping(uint256 => Student) pu...\n      MUL \t\t\tmapping(uint256 => Student) pu...\n      DUP4 \t\t\tmapping(uint256 => Student) pu...\n      MSTORE \t\t\tmapping(uint256 => Student) pu...\n      SWAP2 \t\t\tmapping(uint256 => Student) pu...\n      PUSH 20\t\t\tmapping(uint256 => Student) pu...\n      ADD \t\t\tmapping(uint256 => Student) pu...\n      SWAP2 \t\t\tmapping(uint256 => Student) pu...\n      PUSH [tag] 49\t\t\tmapping(uint256 => Student) pu...\n      JUMP \t\t\tmapping(uint256 => Student) pu...\n    tag 50\t\t\tmapping(uint256 => Student) pu...\n      JUMPDEST \t\t\tmapping(uint256 => Student) pu...\n      DUP3 \t\t\tmapping(uint256 => Student) pu...\n      ADD \t\t\tmapping(uint256 => Student) pu...\n      SWAP2 \t\t\tmapping(uint256 => Student) pu...\n      SWAP1 \t\t\tmapping(uint256 => Student) pu...\n      PUSH 0\t\t\tmapping(uint256 => Student) pu...\n      MSTORE \t\t\tmapping(uint256 => Student) pu...\n      PUSH 20\t\t\tmapping(uint256 => Student) pu...\n      PUSH 0\t\t\tmapping(uint256 => Student) pu...\n      KECCAK256 \t\t\tmapping(uint256 => Student) pu...\n      SWAP1 \t\t\tmapping(uint256 => Student) pu...\n    tag 51\t\t\tmapping(uint256 => Student) pu...\n      JUMPDEST \t\t\tmapping(uint256 => Student) pu...\n      DUP2 \t\t\tmapping(uint256 => Student) pu...\n      SLOAD \t\t\tmapping(uint256 => Student) pu...\n      DUP2 \t\t\tmapping(uint256 => Student) pu...\n      MSTORE \t\t\tmapping(uint256 => Student) pu...\n      SWAP1 \t\t\tmapping(uint256 => Student) pu...\n      PUSH 1\t\t\tmapping(uint256 => Student) pu...\n      ADD \t\t\tmapping(uint256 => Student) pu...\n      SWAP1 \t\t\tmapping(uint256 => Student) pu...\n      PUSH 20\t\t\tmapping(uint256 => Student) pu...\n      ADD \t\t\tmapping(uint256 => Student) pu...\n      DUP1 \t\t\tmapping(uint256 => Student) pu...\n      DUP4 \t\t\tmapping(uint256 => Student) pu...\n      GT \t\t\tmapping(uint256 => Student) pu...\n      PUSH [tag] 51\t\t\tmapping(uint256 => Student) pu...\n      JUMPI \t\t\tmapping(uint256 => Student) pu...\n      DUP3 \t\t\tmapping(uint256 => Student) pu...\n      SWAP1 \t\t\tmapping(uint256 => Student) pu...\n      SUB \t\t\tmapping(uint256 => Student) pu...\n      PUSH 1F\t\t\tmapping(uint256 => Student) pu...\n      AND \t\t\tmapping(uint256 => Student) pu...\n      DUP3 \t\t\tmapping(uint256 => Student) pu...\n      ADD \t\t\tmapping(uint256 => Student) pu...\n      SWAP2 \t\t\tmapping(uint256 => Student) pu...\n    tag 49\t\t\tmapping(uint256 => Student) pu...\n      JUMPDEST \t\t\tmapping(uint256 => Student) pu...\n      POP \t\t\tmapping(uint256 => Student) pu...\n      POP \t\t\tmapping(uint256 => Student) pu...\n      POP \t\t\tmapping(uint256 => Student) pu...\n      POP \t\t\tmapping(uint256 => Student) pu...\n      POP \t\t\tmapping(uint256 => Student) pu...\n      SWAP1 \t\t\tmapping(uint256 => Student) pu...\n      POP \t\t\tmapping(uint256 => Student) pu...\n      DUP6 \t\t\tmapping(uint256 => Student) pu...\n      JUMP \t\t\tmapping(uint256 => Student) pu...\n    tag 16\t\t\tfunction getStudentDataByQuery...\n      JUMPDEST \t\t\tfunction getStudentDataByQuery...\n      PUSH 60\t\t\tstring memory studentName\n      DUP1 \t\t\tstring memory adminName\n      PUSH 60\t\t\tstring memory ipfsHash\n      DUP1 \t\t\tstring memory blake3Hash\n      PUSH 60\t\t\tstring memory timestamp\n      PUSH 0\t\t\t0\n      PUSH 1\t\t\tstudentCount\n      SLOAD \t\t\tstudentCount\n      GT \t\t\tstudentCount > 0\n      PUSH [tag] 53\t\t\trequire(studentCount > 0, \"No ...\n      JUMPI \t\t\trequire(studentCount > 0, \"No ...\n      PUSH 40\t\t\trequire(studentCount > 0, \"No ...\n      MLOAD \t\t\trequire(studentCount > 0, \"No ...\n      PUSH 8C379A000000000000000000000000000000000000000000000000000000000\t\t\trequire(studentCount > 0, \"No ...\n      DUP2 \t\t\trequire(studentCount > 0, \"No ...\n      MSTORE \t\t\trequire(studentCount > 0, \"No ...\n      PUSH 4\t\t\trequire(studentCount > 0, \"No ...\n      ADD \t\t\trequire(studentCount > 0, \"No ...\n      PUSH [tag] 54\t\t\trequire(studentCount > 0, \"No ...\n      SWAP1 \t\t\trequire(studentCount > 0, \"No ...\n      PUSH [tag] 55\t\t\trequire(studentCount > 0, \"No ...\n      JUMP \t\t\trequire(studentCount > 0, \"No ...\n    tag 54\t\t\trequire(studentCount > 0, \"No ...\n      JUMPDEST \t\t\trequire(studentCount > 0, \"No ...\n      PUSH 40\t\t\trequire(studentCount > 0, \"No ...\n      MLOAD \t\t\trequire(studentCount > 0, \"No ...\n      DUP1 \t\t\trequire(studentCount > 0, \"No ...\n      SWAP2 \t\t\trequire(studentCount > 0, \"No ...\n      SUB \t\t\trequire(studentCount > 0, \"No ...\n      SWAP1 \t\t\trequire(studentCount > 0, \"No ...\n      REVERT \t\t\trequire(studentCount > 0, \"No ...\n    tag 53\t\t\trequire(studentCount > 0, \"No ...\n      JUMPDEST \t\t\trequire(studentCount > 0, \"No ...\n      PUSH 0\t\t\tuint256 i\n    tag 56\t\t\tfor (uint256 i = 0; i < studen...\n      JUMPDEST \t\t\tfor (uint256 i = 0; i < studen...\n      PUSH 1\t\t\tstudentCount\n      SLOAD \t\t\tstudentCount\n      DUP2 \t\t\ti\n      LT \t\t\ti < studentCount\n      ISZERO \t\t\tfor (uint256 i = 0; i < studen...\n      PUSH [tag] 57\t\t\tfor (uint256 i = 0; i < studen...\n      JUMPI \t\t\tfor (uint256 i = 0; i < studen...\n      PUSH [tag] 59\t\t\tcompareStrings(students[i].stu...\n      PUSH 0\t\t\tstudents\n      DUP1 \t\t\tstudents[i]\n      DUP4 \t\t\ti\n      DUP2 \t\t\tstudents[i]\n      MSTORE \t\t\tstudents[i]\n      PUSH 20\t\t\tstudents[i]\n      ADD \t\t\tstudents[i]\n      SWAP1 \t\t\tstudents[i]\n      DUP2 \t\t\tstudents[i]\n      MSTORE \t\t\tstudents[i]\n      PUSH 20\t\t\tstudents[i]\n      ADD \t\t\tstudents[i]\n      PUSH 0\t\t\tstudents[i]\n      KECCAK256 \t\t\tstudents[i]\n      PUSH 0\t\t\tstudents[i].studentName\n      ADD \t\t\tstudents[i].studentName\n      DUP1 \t\t\tcompareStrings(students[i].stu...\n      SLOAD \t\t\tcompareStrings(students[i].stu...\n      PUSH [tag] 60\t\t\tcompareStrings(students[i].stu...\n      SWAP1 \t\t\tcompareStrings(students[i].stu...\n      PUSH [tag] 27\t\t\tcompareStrings(students[i].stu...\n      JUMP \t\t\tcompareStrings(students[i].stu...\n    tag 60\t\t\tcompareStrings(students[i].stu...\n      JUMPDEST \t\t\tcompareStrings(students[i].stu...\n      DUP1 \t\t\tcompareStrings(students[i].stu...\n      PUSH 1F\t\t\tcompareStrings(students[i].stu...\n      ADD \t\t\tcompareStrings(students[i].stu...\n      PUSH 20\t\t\tcompareStrings(students[i].stu...\n      DUP1 \t\t\tcompareStrings(students[i].stu...\n      SWAP2 \t\t\tcompareStrings(students[i].stu...\n      DIV \t\t\tcompareStrings(students[i].stu...\n      MUL \t\t\tcompareStrings(students[i].stu...\n      PUSH 20\t\t\tcompareStrings(students[i].stu...\n      ADD \t\t\tcompareStrings(students[i].stu...\n      PUSH 40\t\t\tcompareStrings(students[i].stu...\n      MLOAD \t\t\tcompareStrings(students[i].stu...\n      SWAP1 \t\t\tcompareStrings(students[i].stu...\n      DUP2 \t\t\tcompareStrings(students[i].stu...\n      ADD \t\t\tcompareStrings(students[i].stu...\n      PUSH 40\t\t\tcompareStrings(students[i].stu...\n      MSTORE \t\t\tcompareStrings(students[i].stu...\n      DUP1 \t\t\tcompareStrings(students[i].stu...\n      SWAP3 \t\t\tcompareStrings(students[i].stu...\n      SWAP2 \t\t\tcompareStrings(students[i].stu...\n      SWAP1 \t\t\tcompareStrings(students[i].stu...\n      DUP2 \t\t\tcompareStrings(students[i].stu...\n      DUP2 \t\t\tcompareStrings(students[i].stu...\n      MSTORE \t\t\tcompareStrings(students[i].stu...\n      PUSH 20\t\t\tcompareStrings(students[i].stu...\n      ADD \t\t\tcompareStrings(students[i].stu...\n      DUP3 \t\t\tcompareStrings(students[i].stu...\n      DUP1 \t\t\tcompareStrings(students[i].stu...\n      SLOAD \t\t\tcompareStrings(students[i].stu...\n      PUSH [tag] 61\t\t\tcompareStrings(students[i].stu...\n      SWAP1 \t\t\tcompareStrings(students[i].stu...\n      PUSH [tag] 27\t\t\tcompareStrings(students[i].stu...\n      JUMP \t\t\tcompareStrings(students[i].stu...\n    tag 61\t\t\tcompareStrings(students[i].stu...\n      JUMPDEST \t\t\tcompareStrings(students[i].stu...\n      DUP1 \t\t\tcompareStrings(students[i].stu...\n      ISZERO \t\t\tcompareStrings(students[i].stu...\n      PUSH [tag] 62\t\t\tcompareStrings(students[i].stu...\n      JUMPI \t\t\tcompareStrings(students[i].stu...\n      DUP1 \t\t\tcompareStrings(students[i].stu...\n      PUSH 1F\t\t\tcompareStrings(students[i].stu...\n      LT \t\t\tcompareStrings(students[i].stu...\n      PUSH [tag] 63\t\t\tcompareStrings(students[i].stu...\n      JUMPI \t\t\tcompareStrings(students[i].stu...\n      PUSH 100\t\t\tcompareStrings(students[i].stu...\n      DUP1 \t\t\tcompareStrings(students[i].stu...\n      DUP4 \t\t\tcompareStrings(students[i].stu...\n      SLOAD \t\t\tcompareStrings(students[i].stu...\n      DIV \t\t\tcompareStrings(students[i].stu...\n      MUL \t\t\tcompareStrings(students[i].stu...\n      DUP4 \t\t\tcompareStrings(students[i].stu...\n      MSTORE \t\t\tcompareStrings(students[i].stu...\n      SWAP2 \t\t\tcompareStrings(students[i].stu...\n      PUSH 20\t\t\tcompareStrings(students[i].stu...\n      ADD \t\t\tcompareStrings(students[i].stu...\n      SWAP2 \t\t\tcompareStrings(students[i].stu...\n      PUSH [tag] 62\t\t\tcompareStrings(students[i].stu...\n      JUMP \t\t\tcompareStrings(students[i].stu...\n    tag 63\t\t\tcompareStrings(students[i].stu...\n      JUMPDEST \t\t\tcompareStrings(students[i].stu...\n      DUP3 \t\t\tcompareStrings(students[i].stu...\n      ADD \t\t\tcompareStrings(students[i].stu...\n      SWAP2 \t\t\tcompareStrings(students[i].stu...\n      SWAP1 \t\t\tcompareStrings(students[i].stu...\n      PUSH 0\t\t\tcompareStrings(students[i].stu...\n      MSTORE \t\t\tcompareStrings(students[i].stu...\n      PUSH 20\t\t\tcompareStrings(students[i].stu...\n      PUSH 0\t\t\tcompareStrings(students[i].stu...\n      KECCAK256 \t\t\tcompareStrings(students[i].stu...\n      SWAP1 \t\t\tcompareStrings(students[i].stu...\n    tag 64\t\t\tcompareStrings(students[i].stu...\n      JUMPDEST \t\t\tcompareStrings(students[i].stu...\n      DUP2 \t\t\tcompareStrings(students[i].stu...\n      SLOAD \t\t\tcompareStrings(students[i].stu...\n      DUP2 \t\t\tcompareStrings(students[i].stu...\n      MSTORE \t\t\tcompareStrings(students[i].stu...\n      SWAP1 \t\t\tcompareStrings(students[i].stu...\n      PUSH 1\t\t\tcompareStrings(students[i].stu...\n      ADD \t\t\tcompareStrings(students[i].stu...\n      SWAP1 \t\t\tcompareStrings(students[i].stu...\n      PUSH 20\t\t\tcompareStrings(students[i].stu...\n      ADD \t\t\tcompareStrings(students[i].stu...\n      DUP1 \t\t\tcompareStrings(students[i].stu...\n      DUP4 \t\t\tcompareStrings(students[i].stu...\n      GT \t\t\tcompareStrings(students[i].stu...\n      PUSH [tag] 64\t\t\tcompareStrings(students[i].stu...\n      JUMPI \t\t\tcompareStrings(students[i].stu...\n      DUP3 \t\t\tcompareStrings(students[i].stu...\n      SWAP1 \t\t\tcompareStrings(students[i].stu...\n      SUB \t\t\tcompareStrings(students[i].stu...\n      PUSH 1F\t\t\tcompareStrings(students[i].stu...\n      AND \t\t\tcompareStrings(students[i].stu...\n      DUP3 \t\t\tcompareStrings(students[i].stu...\n      ADD \t\t\tcompareStrings(students[i].stu...\n      SWAP2 \t\t\tcompareStrings(students[i].stu...\n    tag 62\t\t\tcompareStrings(students[i].stu...\n      JUMPDEST \t\t\tcompareStrings(students[i].stu...\n      POP \t\t\tcompareStrings(students[i].stu...\n      POP \t\t\tcompareStrings(students[i].stu...\n      POP \t\t\tcompareStrings(students[i].stu...\n      POP \t\t\tcompareStrings(students[i].stu...\n      POP \t\t\tcompareStrings(students[i].stu...\n      DUP9 \t\t\tqueryValue\n      PUSH [tag] 65\t\t\tcompareStrings\n      JUMP \t\t\tcompareStrings(students[i].stu...\n    tag 59\t\t\tcompareStrings(students[i].stu...\n      JUMPDEST \t\t\tcompareStrings(students[i].stu...\n      DUP1 \t\t\tcompareStrings(students[i].stu...\n      ISZERO \t\t\tcompareStrings(students[i].stu...\n      PUSH [tag] 66\t\t\tcompareStrings(students[i].stu...\n      JUMPI \t\t\tcompareStrings(students[i].stu...\n      POP \t\t\tcompareStrings(students[i].stu...\n      PUSH [tag] 67\t\t\tcompareStrings(queryType, \"stu...\n      DUP9 \t\t\tqueryType\n      PUSH 40\t\t\tcompareStrings(queryType, \"stu...\n      MLOAD \t\t\tcompareStrings(queryType, \"stu...\n      DUP1 \t\t\tcompareStrings(queryType, \"stu...\n      PUSH 40\t\t\tcompareStrings(queryType, \"stu...\n      ADD \t\t\tcompareStrings(queryType, \"stu...\n      PUSH 40\t\t\tcompareStrings(queryType, \"stu...\n      MSTORE \t\t\tcompareStrings(queryType, \"stu...\n      DUP1 \t\t\tcompareStrings(queryType, \"stu...\n      PUSH B\t\t\tcompareStrings(queryType, \"stu...\n      DUP2 \t\t\tcompareStrings(queryType, \"stu...\n      MSTORE \t\t\tcompareStrings(queryType, \"stu...\n      PUSH 20\t\t\tcompareStrings(queryType, \"stu...\n      ADD \t\t\tcompareStrings(queryType, \"stu...\n      PUSH 73747564656E744E616D65000000000000000000000000000000000000000000\t\t\tcompareStrings(queryType, \"stu...\n      DUP2 \t\t\tcompareStrings(queryType, \"stu...\n      MSTORE \t\t\tcompareStrings(queryType, \"stu...\n      POP \t\t\tcompareStrings(queryType, \"stu...\n      PUSH [tag] 65\t\t\tcompareStrings\n      JUMP \t\t\tcompareStrings(queryType, \"stu...\n    tag 67\t\t\tcompareStrings(queryType, \"stu...\n      JUMPDEST \t\t\tcompareStrings(queryType, \"stu...\n    tag 66\t\t\tcompareStrings(students[i].stu...\n      JUMPDEST \t\t\tcompareStrings(students[i].stu...\n      ISZERO \t\t\tif (compareStrings(students[i]...\n      PUSH [tag] 68\t\t\tif (compareStrings(students[i]...\n      JUMPI \t\t\tif (compareStrings(students[i]...\n      PUSH 0\t\t\tstudents\n      DUP1 \t\t\tstudents[i]\n      DUP3 \t\t\ti\n      DUP2 \t\t\tstudents[i]\n      MSTORE \t\t\tstudents[i]\n      PUSH 20\t\t\tstudents[i]\n      ADD \t\t\tstudents[i]\n      SWAP1 \t\t\tstudents[i]\n      DUP2 \t\t\tstudents[i]\n      MSTORE \t\t\tstudents[i]\n      PUSH 20\t\t\tstudents[i]\n      ADD \t\t\tstudents[i]\n      PUSH 0\t\t\tstudents[i]\n      KECCAK256 \t\t\tstudents[i]\n      PUSH 0\t\t\tstudents[i].studentName\n      ADD \t\t\tstudents[i].studentName\n      PUSH 0\t\t\tstudents\n      DUP1 \t\t\tstudents[i]\n      DUP4 \t\t\ti\n      DUP2 \t\t\tstudents[i]\n      MSTORE \t\t\tstudents[i]\n      PUSH 20\t\t\tstudents[i]\n      ADD \t\t\tstudents[i]\n      SWAP1 \t\t\tstudents[i]\n      DUP2 \t\t\tstudents[i]\n      MSTORE \t\t\tstudents[i]\n      PUSH 20\t\t\tstudents[i]\n      ADD \t\t\tstudents[i]\n      PUSH 0\t\t\tstudents[i]\n      KECCAK256 \t\t\tstudents[i]\n      PUSH 1\t\t\tstudents[i].adminName\n      ADD \t\t\tstudents[i].adminName\n      PUSH 0\t\t\tstudents\n      DUP1 \t\t\tstudents[i]\n      DUP5 \t\t\ti\n      DUP2 \t\t\tstudents[i]\n      MSTORE \t\t\tstudents[i]\n      PUSH 20\t\t\tstudents[i]\n      ADD \t\t\tstudents[i]\n      SWAP1 \t\t\tstudents[i]\n      DUP2 \t\t\tstudents[i]\n      MSTORE \t\t\tstudents[i]\n      PUSH 20\t\t\tstudents[i]\n      ADD \t\t\tstudents[i]\n      PUSH 0\t\t\tstudents[i]\n      KECCAK256 \t\t\tstudents[i]\n      PUSH 2\t\t\tstudents[i].ipfsHash\n      ADD \t\t\tstudents[i].ipfsHash\n      PUSH 0\t\t\tstudents\n      DUP1 \t\t\tstudents[i]\n      DUP6 \t\t\ti\n      DUP2 \t\t\tstudents[i]\n      MSTORE \t\t\tstudents[i]\n      PUSH 20\t\t\tstudents[i]\n      ADD \t\t\tstudents[i]\n      SWAP1 \t\t\tstudents[i]\n      DUP2 \t\t\tstudents[i]\n      MSTORE \t\t\tstudents[i]\n      PUSH 20\t\t\tstudents[i]\n      ADD \t\t\tstudents[i]\n      PUSH 0\t\t\tstudents[i]\n      KECCAK256 \t\t\tstudents[i]\n      PUSH 3\t\t\tstudents[i].blake3Hash\n      ADD \t\t\tstudents[i].blake3Hash\n      PUSH 0\t\t\tstudents\n      DUP1 \t\t\tstudents[i]\n      DUP7 \t\t\ti\n      DUP2 \t\t\tstudents[i]\n      MSTORE \t\t\tstudents[i]\n      PUSH 20\t\t\tstudents[i]\n      ADD \t\t\tstudents[i]\n      SWAP1 \t\t\tstudents[i]\n      DUP2 \t\t\tstudents[i]\n      MSTORE \t\t\tstudents[i]\n      PUSH 20\t\t\tstudents[i]\n      ADD \t\t\tstudents[i]\n      PUSH 0\t\t\tstudents[i]\n      KECCAK256 \t\t\tstudents[i]\n      PUSH 4\t\t\tstudents[i].timestamp\n      ADD \t\t\tstudents[i].timestamp\n      DUP5 \t\t\treturn (students[i].studentNam...\n      DUP1 \t\t\treturn (students[i].studentNam...\n      SLOAD \t\t\treturn (students[i].studentNam...\n      PUSH [tag] 69\t\t\treturn (students[i].studentNam...\n      SWAP1 \t\t\treturn (students[i].studentNam...\n      PUSH [tag] 27\t\t\treturn (students[i].studentNam...\n      JUMP \t\t\treturn (students[i].studentNam...\n    tag 69\t\t\treturn (students[i].studentNam...\n      JUMPDEST \t\t\treturn (students[i].studentNam...\n      DUP1 \t\t\treturn (students[i].studentNam...\n      PUSH 1F\t\t\treturn (students[i].studentNam...\n      ADD \t\t\treturn (students[i].studentNam...\n      PUSH 20\t\t\treturn (students[i].studentNam...\n      DUP1 \t\t\treturn (students[i].studentNam...\n      SWAP2 \t\t\treturn (students[i].studentNam...\n      DIV \t\t\treturn (students[i].studentNam...\n      MUL \t\t\treturn (students[i].studentNam...\n      PUSH 20\t\t\treturn (students[i].studentNam...\n      ADD \t\t\treturn (students[i].studentNam...\n      PUSH 40\t\t\treturn (students[i].studentNam...\n      MLOAD \t\t\treturn (students[i].studentNam...\n      SWAP1 \t\t\treturn (students[i].studentNam...\n      DUP2 \t\t\treturn (students[i].studentNam...\n      ADD \t\t\treturn (students[i].studentNam...\n      PUSH 40\t\t\treturn (students[i].studentNam...\n      MSTORE \t\t\treturn (students[i].studentNam...\n      DUP1 \t\t\treturn (students[i].studentNam...\n      SWAP3 \t\t\treturn (students[i].studentNam...\n      SWAP2 \t\t\treturn (students[i].studentNam...\n      SWAP1 \t\t\treturn (students[i].studentNam...\n      DUP2 \t\t\treturn (students[i].studentNam...\n      DUP2 \t\t\treturn (students[i].studentNam...\n      MSTORE \t\t\treturn (students[i].studentNam...\n      PUSH 20\t\t\treturn (students[i].studentNam...\n      ADD \t\t\treturn (students[i].studentNam...\n      DUP3 \t\t\treturn (students[i].studentNam...\n      DUP1 \t\t\treturn (students[i].studentNam...\n      SLOAD \t\t\treturn (students[i].studentNam...\n      PUSH [tag] 70\t\t\treturn (students[i].studentNam...\n      SWAP1 \t\t\treturn (students[i].studentNam...\n      PUSH [tag] 27\t\t\treturn (students[i].studentNam...\n      JUMP \t\t\treturn (students[i].studentNam...\n    tag 70\t\t\treturn (students[i].studentNam...\n      JUMPDEST \t\t\treturn (students[i].studentNam...\n      DUP1 \t\t\treturn (students[i].studentNam...\n      ISZERO \t\t\treturn (students[i].studentNam...\n      PUSH [tag] 71\t\t\treturn (students[i].studentNam...\n      JUMPI \t\t\treturn (students[i].studentNam...\n      DUP1 \t\t\treturn (students[i].studentNam...\n      PUSH 1F\t\t\treturn (students[i].studentNam...\n      LT \t\t\treturn (students[i].studentNam...\n      PUSH [tag] 72\t\t\treturn (students[i].studentNam...\n      JUMPI \t\t\treturn (students[i].studentNam...\n      PUSH 100\t\t\treturn (students[i].studentNam...\n      DUP1 \t\t\treturn (students[i].studentNam...\n      DUP4 \t\t\treturn (students[i].studentNam...\n      SLOAD \t\t\treturn (students[i].studentNam...\n      DIV \t\t\treturn (students[i].studentNam...\n      MUL \t\t\treturn (students[i].studentNam...\n      DUP4 \t\t\treturn (students[i].studentNam...\n      MSTORE \t\t\treturn (students[i].studentNam...\n      SWAP2 \t\t\treturn (students[i].studentNam...\n      PUSH 20\t\t\treturn (students[i].studentNam...\n      ADD \t\t\treturn (students[i].studentNam...\n      SWAP2 \t\t\treturn (students[i].studentNam...\n      PUSH [tag] 71\t\t\treturn (students[i].studentNam...\n      JUMP \t\t\treturn (students[i].studentNam...\n    tag 72\t\t\treturn (students[i].studentNam...\n      JUMPDEST \t\t\treturn (students[i].studentNam...\n      DUP3 \t\t\treturn (students[i].studentNam...\n      ADD \t\t\treturn (students[i].studentNam...\n      SWAP2 \t\t\treturn (students[i].studentNam...\n      SWAP1 \t\t\treturn (students[i].studentNam...\n      PUSH 0\t\t\treturn (students[i].studentNam...\n      MSTORE \t\t\treturn (students[i].studentNam...\n      PUSH 20\t\t\treturn (students[i].studentNam...\n      PUSH 0\t\t\treturn (students[i].studentNam...\n      KECCAK256 \t\t\treturn (students[i].studentNam...\n      SWAP1 \t\t\treturn (students[i].studentNam...\n    tag 73\t\t\treturn (students[i].studentNam...\n      JUMPDEST \t\t\treturn (students[i].studentNam...\n      DUP2 \t\t\treturn (students[i].studentNam...\n      SLOAD \t\t\treturn (students[i].studentNam...\n      DUP2 \t\t\treturn (students[i].studentNam...\n      MSTORE \t\t\treturn (students[i].studentNam...\n      SWAP1 \t\t\treturn (students[i].studentNam...\n      PUSH 1\t\t\treturn (students[i].studentNam...\n      ADD \t\t\treturn (students[i].studentNam...\n      SWAP1 \t\t\treturn (students[i].studentNam...\n      PUSH 20\t\t\treturn (students[i].studentNam...\n      ADD \t\t\treturn (students[i].studentNam...\n      DUP1 \t\t\treturn (students[i].studentNam...\n      DUP4 \t\t\treturn (students[i].studentNam...\n      GT \t\t\treturn (students[i].studentNam...\n      PUSH [tag] 73\t\t\treturn (students[i].studentNam...\n      JUMPI \t\t\treturn (students[i].studentNam...\n      DUP3 \t\t\treturn (students[i].studentNam...\n      SWAP1 \t\t\treturn (students[i].studentNam...\n      SUB \t\t\treturn (students[i].studentNam...\n      PUSH 1F\t\t\treturn (students[i].studentNam...\n      AND \t\t\treturn (students[i].studentNam...\n      DUP3 \t\t\treturn (students[i].studentNam...\n      ADD \t\t\treturn (students[i].studentNam...\n      SWAP2 \t\t\treturn (students[i].studentNam...\n    tag 71\t\t\treturn (students[i].studentNam...\n      JUMPDEST \t\t\treturn (students[i].studentNam...\n      POP \t\t\treturn (students[i].studentNam...\n      POP \t\t\treturn (students[i].studentNam...\n      POP \t\t\treturn (students[i].studentNam...\n      POP \t\t\treturn (students[i].studentNam...\n      POP \t\t\treturn (students[i].studentNam...\n      SWAP5 \t\t\treturn (students[i].studentNam...\n      POP \t\t\treturn (students[i].studentNam...\n      DUP4 \t\t\treturn (students[i].studentNam...\n      DUP1 \t\t\treturn (students[i].studentNam...\n      SLOAD \t\t\treturn (students[i].studentNam...\n      PUSH [tag] 74\t\t\treturn (students[i].studentNam...\n      SWAP1 \t\t\treturn (students[i].studentNam...\n      PUSH [tag] 27\t\t\treturn (students[i].studentNam...\n      JUMP \t\t\treturn (students[i].studentNam...\n    tag 74\t\t\treturn (students[i].studentNam...\n      JUMPDEST \t\t\treturn (students[i].studentNam...\n      DUP1 \t\t\treturn (students[i].studentNam...\n      PUSH 1F\t\t\treturn (students[i].studentNam...\n      ADD \t\t\treturn (students[i].studentNam...\n      PUSH 20\t\t\treturn (students[i].studentNam...\n      DUP1 \t\t\treturn (students[i].studentNam...\n      SWAP2 \t\t\treturn (students[i].studentNam...\n      DIV \t\t\treturn (students[i].studentNam...\n      MUL \t\t\treturn (students[i].studentNam...\n      PUSH 20\t\t\treturn (students[i].studentNam...\n      ADD \t\t\treturn (students[i].studentNam...\n      PUSH 40\t\t\treturn (students[i].studentNam...\n      MLOAD \t\t\treturn (students[i].studentNam...\n      SWAP1 \t\t\treturn (students[i].studentNam...\n      DUP2 \t\t\treturn (students[i].studentNam...\n      ADD \t\t\treturn (students[i].studentNam...\n      PUSH 40\t\t\treturn (students[i].studentNam...\n      MSTORE \t\t\treturn (students[i].studentNam...\n      DUP1 \t\t\treturn (students[i].studentNam...\n      SWAP3 \t\t\treturn (students[i].studentNam...\n      SWAP2 \t\t\treturn (students[i].studentNam...\n      SWAP1 \t\t\treturn (students[i].studentNam...\n      DUP2 \t\t\treturn (students[i].studentNam...\n      DUP2 \t\t\treturn (students[i].studentNam...\n      MSTORE \t\t\treturn (students[i].studentNam...\n      PUSH 20\t\t\treturn (students[i].studentNam...\n      ADD \t\t\treturn (students[i].studentNam...\n      DUP3 \t\t\treturn (students[i].studentNam...\n      DUP1 \t\t\treturn (students[i].studentNam...\n      SLOAD \t\t\treturn (students[i].studentNam...\n      PUSH [tag] 75\t\t\treturn (students[i].studentNam...\n      SWAP1 \t\t\treturn (students[i].studentNam...\n      PUSH [tag] 27\t\t\treturn (students[i].studentNam...\n      JUMP \t\t\treturn (students[i].studentNam...\n    tag 75\t\t\treturn (students[i].studentNam...\n      JUMPDEST \t\t\treturn (students[i].studentNam...\n      DUP1 \t\t\treturn (students[i].studentNam...\n      ISZERO \t\t\treturn (students[i].studentNam...\n      PUSH [tag] 76\t\t\treturn (students[i].studentNam...\n      JUMPI \t\t\treturn (students[i].studentNam...\n      DUP1 \t\t\treturn (students[i].studentNam...\n      PUSH 1F\t\t\treturn (students[i].studentNam...\n      LT \t\t\treturn (students[i].studentNam...\n      PUSH [tag] 77\t\t\treturn (students[i].studentNam...\n      JUMPI \t\t\treturn (students[i].studentNam...\n      PUSH 100\t\t\treturn (students[i].studentNam...\n      DUP1 \t\t\treturn (students[i].studentNam...\n      DUP4 \t\t\treturn (students[i].studentNam...\n      SLOAD \t\t\treturn (students[i].studentNam...\n      DIV \t\t\treturn (students[i].studentNam...\n      MUL \t\t\treturn (students[i].studentNam...\n      DUP4 \t\t\treturn (students[i].studentNam...\n      MSTORE \t\t\treturn (students[i].studentNam...\n      SWAP2 \t\t\treturn (students[i].studentNam...\n      PUSH 20\t\t\treturn (students[i].studentNam...\n      ADD \t\t\treturn (students[i].studentNam...\n      SWAP2 \t\t\treturn (students[i].studentNam...\n      PUSH [tag] 76\t\t\treturn (students[i].studentNam...\n      JUMP \t\t\treturn (students[i].studentNam...\n    tag 77\t\t\treturn (students[i].studentNam...\n      JUMPDEST \t\t\treturn (students[i].studentNam...\n      DUP3 \t\t\treturn (students[i].studentNam...\n      ADD \t\t\treturn (students[i].studentNam...\n      SWAP2 \t\t\treturn (students[i].studentNam...\n      SWAP1 \t\t\treturn (students[i].studentNam...\n      PUSH 0\t\t\treturn (students[i].studentNam...\n      MSTORE \t\t\treturn (students[i].studentNam...\n      PUSH 20\t\t\treturn (students[i].studentNam...\n      PUSH 0\t\t\treturn (students[i].studentNam...\n      KECCAK256 \t\t\treturn (students[i].studentNam...\n      SWAP1 \t\t\treturn (students[i].studentNam...\n    tag 78\t\t\treturn (students[i].studentNam...\n      JUMPDEST \t\t\treturn (students[i].studentNam...\n      DUP2 \t\t\treturn (students[i].studentNam...\n      SLOAD \t\t\treturn (students[i].studentNam...\n      DUP2 \t\t\treturn (students[i].studentNam...\n      MSTORE \t\t\treturn (students[i].studentNam...\n      SWAP1 \t\t\treturn (students[i].studentNam...\n      PUSH 1\t\t\treturn (students[i].studentNam...\n      ADD \t\t\treturn (students[i].studentNam...\n      SWAP1 \t\t\treturn (students[i].studentNam...\n      PUSH 20\t\t\treturn (students[i].studentNam...\n      ADD \t\t\treturn (students[i].studentNam...\n      DUP1 \t\t\treturn (students[i].studentNam...\n      DUP4 \t\t\treturn (students[i].studentNam...\n      GT \t\t\treturn (students[i].studentNam...\n      PUSH [tag] 78\t\t\treturn (students[i].studentNam...\n      JUMPI \t\t\treturn (students[i].studentNam...\n      DUP3 \t\t\treturn (students[i].studentNam...\n      SWAP1 \t\t\treturn (students[i].studentNam...\n      SUB \t\t\treturn (students[i].studentNam...\n      PUSH 1F\t\t\treturn (students[i].studentNam...\n      AND \t\t\treturn (students[i].studentNam...\n      DUP3 \t\t\treturn (students[i].studentNam...\n      ADD \t\t\treturn (students[i].studentNam...\n      SWAP2 \t\t\treturn (students[i].studentNam...\n    tag 76\t\t\treturn (students[i].studentNam...\n      JUMPDEST \t\t\treturn (students[i].studentNam...\n      POP \t\t\treturn (students[i].studentNam...\n      POP \t\t\treturn (students[i].studentNam...\n      POP \t\t\treturn (students[i].studentNam...\n      POP \t\t\treturn (students[i].studentNam...\n      POP \t\t\treturn (students[i].studentNam...\n      SWAP4 \t\t\treturn (students[i].studentNam...\n      POP \t\t\treturn (students[i].studentNam...\n      DUP3 \t\t\treturn (students[i].studentNam...\n      DUP1 \t\t\treturn (students[i].studentNam...\n      SLOAD \t\t\treturn (students[i].studentNam...\n      PUSH [tag] 79\t\t\treturn (students[i].studentNam...\n      SWAP1 \t\t\treturn (students[i].studentNam...\n      PUSH [tag] 27\t\t\treturn (students[i].studentNam...\n      JUMP \t\t\treturn (students[i].studentNam...\n    tag 79\t\t\treturn (students[i].studentNam...\n      JUMPDEST \t\t\treturn (students[i].studentNam...\n      DUP1 \t\t\treturn (students[i].studentNam...\n      PUSH 1F\t\t\treturn (students[i].studentNam...\n      ADD \t\t\treturn (students[i].studentNam...\n      PUSH 20\t\t\treturn (students[i].studentNam...\n      DUP1 \t\t\treturn (students[i].studentNam...\n      SWAP2 \t\t\treturn (students[i].studentNam...\n      DIV \t\t\treturn (students[i].studentNam...\n      MUL \t\t\treturn (students[i].studentNam...\n      PUSH 20\t\t\treturn (students[i].studentNam...\n      ADD \t\t\treturn (students[i].studentNam...\n      PUSH 40\t\t\treturn (students[i].studentNam...\n      MLOAD \t\t\treturn (students[i].studentNam...\n      SWAP1 \t\t\treturn (students[i].studentNam...\n      DUP2 \t\t\treturn (students[i].studentNam...\n      ADD \t\t\treturn (students[i].studentNam...\n      PUSH 40\t\t\treturn (students[i].studentNam...\n      MSTORE \t\t\treturn (students[i].studentNam...\n      DUP1 \t\t\treturn (students[i].studentNam...\n      SWAP3 \t\t\treturn (students[i].studentNam...\n      SWAP2 \t\t\treturn (students[i].studentNam...\n      SWAP1 \t\t\treturn (students[i].studentNam...\n      DUP2 \t\t\treturn (students[i].studentNam...\n      DUP2 \t\t\treturn (students[i].studentNam...\n      MSTORE \t\t\treturn (students[i].studentNam...\n      PUSH 20\t\t\treturn (students[i].studentNam...\n      ADD \t\t\treturn (students[i].studentNam...\n      DUP3 \t\t\treturn (students[i].studentNam...\n      DUP1 \t\t\treturn (students[i].studentNam...\n      SLOAD \t\t\treturn (students[i].studentNam...\n      PUSH [tag] 80\t\t\treturn (students[i].studentNam...\n      SWAP1 \t\t\treturn (students[i].studentNam...\n      PUSH [tag] 27\t\t\treturn (students[i].studentNam...\n      JUMP \t\t\treturn (students[i].studentNam...\n    tag 80\t\t\treturn (students[i].studentNam...\n      JUMPDEST \t\t\treturn (students[i].studentNam...\n      DUP1 \t\t\treturn (students[i].studentNam...\n      ISZERO \t\t\treturn (students[i].studentNam...\n      PUSH [tag] 81\t\t\treturn (students[i].studentNam...\n      JUMPI \t\t\treturn (students[i].studentNam...\n      DUP1 \t\t\treturn (students[i].studentNam...\n      PUSH 1F\t\t\treturn (students[i].studentNam...\n      LT \t\t\treturn (students[i].studentNam...\n      PUSH [tag] 82\t\t\treturn (students[i].studentNam...\n      JUMPI \t\t\treturn (students[i].studentNam...\n      PUSH 100\t\t\treturn (students[i].studentNam...\n      DUP1 \t\t\treturn (students[i].studentNam...\n      DUP4 \t\t\treturn (students[i].studentNam...\n      SLOAD \t\t\treturn (students[i].studentNam...\n      DIV \t\t\treturn (students[i].studentNam...\n      MUL \t\t\treturn (students[i].studentNam...\n      DUP4 \t\t\treturn (students[i].studentNam...\n      MSTORE \t\t\treturn (students[i].studentNam...\n      SWAP2 \t\t\treturn (students[i].studentNam...\n      PUSH 20\t\t\treturn (students[i].studentNam...\n      ADD \t\t\treturn (students[i].studentNam...\n      SWAP2 \t\t\treturn (students[i].studentNam...\n      PUSH [tag] 81\t\t\treturn (students[i].studentNam...\n      JUMP \t\t\treturn (students[i].studentNam...\n    tag 82\t\t\treturn (students[i].studentNam...\n      JUMPDEST \t\t\treturn (students[i].studentNam...\n      DUP3 \t\t\treturn (students[i].studentNam...\n      ADD \t\t\treturn (students[i].studentNam...\n      SWAP2 \t\t\treturn (students[i].studentNam...\n      SWAP1 \t\t\treturn (students[i].studentNam...\n      PUSH 0\t\t\treturn (students[i].studentNam...\n      MSTORE \t\t\treturn (students[i].studentNam...\n      PUSH 20\t\t\treturn (students[i].studentNam...\n      PUSH 0\t\t\treturn (students[i].studentNam...\n      KECCAK256 \t\t\treturn (students[i].studentNam...\n      SWAP1 \t\t\treturn (students[i].studentNam...\n    tag 83\t\t\treturn (students[i].studentNam...\n      JUMPDEST \t\t\treturn (students[i].studentNam...\n      DUP2 \t\t\treturn (students[i].studentNam...\n      SLOAD \t\t\treturn (students[i].studentNam...\n      DUP2 \t\t\treturn (students[i].studentNam...\n      MSTORE \t\t\treturn (students[i].studentNam...\n      SWAP1 \t\t\treturn (students[i].studentNam...\n      PUSH 1\t\t\treturn (students[i].studentNam...\n      ADD \t\t\treturn (students[i].studentNam...\n      SWAP1 \t\t\treturn (students[i].studentNam...\n      PUSH 20\t\t\treturn (students[i].studentNam...\n      ADD \t\t\treturn (students[i].studentNam...\n      DUP1 \t\t\treturn (students[i].studentNam...\n      DUP4 \t\t\treturn (students[i].studentNam...\n      GT \t\t\treturn (students[i].studentNam...\n      PUSH [tag] 83\t\t\treturn (students[i].studentNam...\n      JUMPI \t\t\treturn (students[i].studentNam...\n      DUP3 \t\t\treturn (students[i].studentNam...\n      SWAP1 \t\t\treturn (students[i].studentNam...\n      SUB \t\t\treturn (students[i].studentNam...\n      PUSH 1F\t\t\treturn (students[i].studentNam...\n      AND \t\t\treturn (students[i].studentNam...\n      DUP3 \t\t\treturn (students[i].studentNam...\n      ADD \t\t\treturn (students[i].studentNam...\n      SWAP2 \t\t\treturn (students[i].studentNam...\n    tag 81\t\t\treturn (students[i].studentNam...\n      JUMPDEST \t\t\treturn (students[i].studentNam...\n      POP \t\t\treturn (students[i].studentNam...\n      POP \t\t\treturn (students[i].studentNam...\n      POP \t\t\treturn (students[i].studentNam...\n      POP \t\t\treturn (students[i].studentNam...\n      POP \t\t\treturn (students[i].studentNam...\n      SWAP3 \t\t\treturn (students[i].studentNam...\n      POP \t\t\treturn (students[i].studentNam...\n      DUP2 \t\t\treturn (students[i].studentNam...\n      DUP1 \t\t\treturn (students[i].studentNam...\n      SLOAD \t\t\treturn (students[i].studentNam...\n      PUSH [tag] 84\t\t\treturn (students[i].studentNam...\n      SWAP1 \t\t\treturn (students[i].studentNam...\n      PUSH [tag] 27\t\t\treturn (students[i].studentNam...\n      JUMP \t\t\treturn (students[i].studentNam...\n    tag 84\t\t\treturn (students[i].studentNam...\n      JUMPDEST \t\t\treturn (students[i].studentNam...\n      DUP1 \t\t\treturn (students[i].studentNam...\n      PUSH 1F\t\t\treturn (students[i].studentNam...\n      ADD \t\t\treturn (students[i].studentNam...\n      PUSH 20\t\t\treturn (students[i].studentNam...\n      DUP1 \t\t\treturn (students[i].studentNam...\n      SWAP2 \t\t\treturn (students[i].studentNam...\n      DIV \t\t\treturn (students[i].studentNam...\n      MUL \t\t\treturn (students[i].studentNam...\n      PUSH 20\t\t\treturn (students[i].studentNam...\n      ADD \t\t\treturn (students[i].studentNam...\n      PUSH 40\t\t\treturn (students[i].studentNam...\n      MLOAD \t\t\treturn (students[i].studentNam...\n      SWAP1 \t\t\treturn (students[i].studentNam...\n      DUP2 \t\t\treturn (students[i].studentNam...\n      ADD \t\t\treturn (students[i].studentNam...\n      PUSH 40\t\t\treturn (students[i].studentNam...\n      MSTORE \t\t\treturn (students[i].studentNam...\n      DUP1 \t\t\treturn (students[i].studentNam...\n      SWAP3 \t\t\treturn (students[i].studentNam...\n      SWAP2 \t\t\treturn (students[i].studentNam...\n      SWAP1 \t\t\treturn (students[i].studentNam...\n      DUP2 \t\t\treturn (students[i].studentNam...\n      DUP2 \t\t\treturn (students[i].studentNam...\n      MSTORE \t\t\treturn (students[i].studentNam...\n      PUSH 20\t\t\treturn (students[i].studentNam...\n      ADD \t\t\treturn (students[i].studentNam...\n      DUP3 \t\t\treturn (students[i].studentNam...\n      DUP1 \t\t\treturn (students[i].studentNam...\n      SLOAD \t\t\treturn (students[i].studentNam...\n      PUSH [tag] 85\t\t\treturn (students[i].studentNam...\n      SWAP1 \t\t\treturn (students[i].studentNam...\n      PUSH [tag] 27\t\t\treturn (students[i].studentNam...\n      JUMP \t\t\treturn (students[i].studentNam...\n    tag 85\t\t\treturn (students[i].studentNam...\n      JUMPDEST \t\t\treturn (students[i].studentNam...\n      DUP1 \t\t\treturn (students[i].studentNam...\n      ISZERO \t\t\treturn (students[i].studentNam...\n      PUSH [tag] 86\t\t\treturn (students[i].studentNam...\n      JUMPI \t\t\treturn (students[i].studentNam...\n      DUP1 \t\t\treturn (students[i].studentNam...\n      PUSH 1F\t\t\treturn (students[i].studentNam...\n      LT \t\t\treturn (students[i].studentNam...\n      PUSH [tag] 87\t\t\treturn (students[i].studentNam...\n      JUMPI \t\t\treturn (students[i].studentNam...\n      PUSH 100\t\t\treturn (students[i].studentNam...\n      DUP1 \t\t\treturn (students[i].studentNam...\n      DUP4 \t\t\treturn (students[i].studentNam...\n      SLOAD \t\t\treturn (students[i].studentNam...\n      DIV \t\t\treturn (students[i].studentNam...\n      MUL \t\t\treturn (students[i].studentNam...\n      DUP4 \t\t\treturn (students[i].studentNam...\n      MSTORE \t\t\treturn (students[i].studentNam...\n      SWAP2 \t\t\treturn (students[i].studentNam...\n      PUSH 20\t\t\treturn (students[i].studentNam...\n      ADD \t\t\treturn (students[i].studentNam...\n      SWAP2 \t\t\treturn (students[i].studentNam...\n      PUSH [tag] 86\t\t\treturn (students[i].studentNam...\n      JUMP \t\t\treturn (students[i].studentNam...\n    tag 87\t\t\treturn (students[i].studentNam...\n      JUMPDEST \t\t\treturn (students[i].studentNam...\n      DUP3 \t\t\treturn (students[i].studentNam...\n      ADD \t\t\treturn (students[i].studentNam...\n      SWAP2 \t\t\treturn (students[i].studentNam...\n      SWAP1 \t\t\treturn (students[i].studentNam...\n      PUSH 0\t\t\treturn (students[i].studentNam...\n      MSTORE \t\t\treturn (students[i].studentNam...\n      PUSH 20\t\t\treturn (students[i].studentNam...\n      PUSH 0\t\t\treturn (students[i].studentNam...\n      KECCAK256 \t\t\treturn (students[i].studentNam...\n      SWAP1 \t\t\treturn (students[i].studentNam...\n    tag 88\t\t\treturn (students[i].studentNam...\n      JUMPDEST \t\t\treturn (students[i].studentNam...\n      DUP2 \t\t\treturn (students[i].studentNam...\n      SLOAD \t\t\treturn (students[i].studentNam...\n      DUP2 \t\t\treturn (students[i].studentNam...\n      MSTORE \t\t\treturn (students[i].studentNam...\n      SWAP1 \t\t\treturn (students[i].studentNam...\n      PUSH 1\t\t\treturn (students[i].studentNam...\n      ADD \t\t\treturn (students[i].studentNam...\n      SWAP1 \t\t\treturn (students[i].studentNam...\n      PUSH 20\t\t\treturn (students[i].studentNam...\n      ADD \t\t\treturn (students[i].studentNam...\n      DUP1 \t\t\treturn (students[i].studentNam...\n      DUP4 \t\t\treturn (students[i].studentNam...\n      GT \t\t\treturn (students[i].studentNam...\n      PUSH [tag] 88\t\t\treturn (students[i].studentNam...\n      JUMPI \t\t\treturn (students[i].studentNam...\n      DUP3 \t\t\treturn (students[i].studentNam...\n      SWAP1 \t\t\treturn (students[i].studentNam...\n      SUB \t\t\treturn (students[i].studentNam...\n      PUSH 1F\t\t\treturn (students[i].studentNam...\n      AND \t\t\treturn (students[i].studentNam...\n      DUP3 \t\t\treturn (students[i].studentNam...\n      ADD \t\t\treturn (students[i].studentNam...\n      SWAP2 \t\t\treturn (students[i].studentNam...\n    tag 86\t\t\treturn (students[i].studentNam...\n      JUMPDEST \t\t\treturn (students[i].studentNam...\n      POP \t\t\treturn (students[i].studentNam...\n      POP \t\t\treturn (students[i].studentNam...\n      POP \t\t\treturn (students[i].studentNam...\n      POP \t\t\treturn (students[i].studentNam...\n      POP \t\t\treturn (students[i].studentNam...\n      SWAP2 \t\t\treturn (students[i].studentNam...\n      POP \t\t\treturn (students[i].studentNam...\n      DUP1 \t\t\treturn (students[i].studentNam...\n      DUP1 \t\t\treturn (students[i].studentNam...\n      SLOAD \t\t\treturn (students[i].studentNam...\n      PUSH [tag] 89\t\t\treturn (students[i].studentNam...\n      SWAP1 \t\t\treturn (students[i].studentNam...\n      PUSH [tag] 27\t\t\treturn (students[i].studentNam...\n      JUMP \t\t\treturn (students[i].studentNam...\n    tag 89\t\t\treturn (students[i].studentNam...\n      JUMPDEST \t\t\treturn (students[i].studentNam...\n      DUP1 \t\t\treturn (students[i].studentNam...\n      PUSH 1F\t\t\treturn (students[i].studentNam...\n      ADD \t\t\treturn (students[i].studentNam...\n      PUSH 20\t\t\treturn (students[i].studentNam...\n      DUP1 \t\t\treturn (students[i].studentNam...\n      SWAP2 \t\t\treturn (students[i].studentNam...\n      DIV \t\t\treturn (students[i].studentNam...\n      MUL \t\t\treturn (students[i].studentNam...\n      PUSH 20\t\t\treturn (students[i].studentNam...\n      ADD \t\t\treturn (students[i].studentNam...\n      PUSH 40\t\t\treturn (students[i].studentNam...\n      MLOAD \t\t\treturn (students[i].studentNam...\n      SWAP1 \t\t\treturn (students[i].studentNam...\n      DUP2 \t\t\treturn (students[i].studentNam...\n      ADD \t\t\treturn (students[i].studentNam...\n      PUSH 40\t\t\treturn (students[i].studentNam...\n      MSTORE \t\t\treturn (students[i].studentNam...\n      DUP1 \t\t\treturn (students[i].studentNam...\n      SWAP3 \t\t\treturn (students[i].studentNam...\n      SWAP2 \t\t\treturn (students[i].studentNam...\n      SWAP1 \t\t\treturn (students[i].studentNam...\n      DUP2 \t\t\treturn (students[i].studentNam...\n      DUP2 \t\t\treturn (students[i].studentNam...\n      MSTORE \t\t\treturn (students[i].studentNam...\n      PUSH 20\t\t\treturn (students[i].studentNam...\n      ADD \t\t\treturn (students[i].studentNam...\n      DUP3 \t\t\treturn (students[i].studentNam...\n      DUP1 \t\t\treturn (students[i].studentNam...\n      SLOAD \t\t\treturn (students[i].studentNam...\n      PUSH [tag] 90\t\t\treturn (students[i].studentNam...\n      SWAP1 \t\t\treturn (students[i].studentNam...\n      PUSH [tag] 27\t\t\treturn (students[i].studentNam...\n      JUMP \t\t\treturn (students[i].studentNam...\n    tag 90\t\t\treturn (students[i].studentNam...\n      JUMPDEST \t\t\treturn (students[i].studentNam...\n      DUP1 \t\t\treturn (students[i].studentNam...\n      ISZERO \t\t\treturn (students[i].studentNam...\n      PUSH [tag] 91\t\t\treturn (students[i].studentNam...\n      JUMPI \t\t\treturn (students[i].studentNam...\n      DUP1 \t\t\treturn (students[i].studentNam...\n      PUSH 1F\t\t\treturn (students[i].studentNam...\n      LT \t\t\treturn (students[i].studentNam...\n      PUSH [tag] 92\t\t\treturn (students[i].studentNam...\n      JUMPI \t\t\treturn (students[i].studentNam...\n      PUSH 100\t\t\treturn (students[i].studentNam...\n      DUP1 \t\t\treturn (students[i].studentNam...\n      DUP4 \t\t\treturn (students[i].studentNam...\n      SLOAD \t\t\treturn (students[i].studentNam...\n      DIV \t\t\treturn (students[i].studentNam...\n      MUL \t\t\treturn (students[i].studentNam...\n      DUP4 \t\t\treturn (students[i].studentNam...\n      MSTORE \t\t\treturn (students[i].studentNam...\n      SWAP2 \t\t\treturn (students[i].studentNam...\n      PUSH 20\t\t\treturn (students[i].studentNam...\n      ADD \t\t\treturn (students[i].studentNam...\n      SWAP2 \t\t\treturn (students[i].studentNam...\n      PUSH [tag] 91\t\t\treturn (students[i].studentNam...\n      JUMP \t\t\treturn (students[i].studentNam...\n    tag 92\t\t\treturn (students[i].studentNam...\n      JUMPDEST \t\t\treturn (students[i].studentNam...\n      DUP3 \t\t\treturn (students[i].studentNam...\n      ADD \t\t\treturn (students[i].studentNam...\n      SWAP2 \t\t\treturn (students[i].studentNam...\n      SWAP1 \t\t\treturn (students[i].studentNam...\n      PUSH 0\t\t\treturn (students[i].studentNam...\n      MSTORE \t\t\treturn (students[i].studentNam...\n      PUSH 20\t\t\treturn (students[i].studentNam...\n      PUSH 0\t\t\treturn (students[i].studentNam...\n      KECCAK256 \t\t\treturn (students[i].studentNam...\n      SWAP1 \t\t\treturn (students[i].studentNam...\n    tag 93\t\t\treturn (students[i].studentNam...\n      JUMPDEST \t\t\treturn (students[i].studentNam...\n      DUP2 \t\t\treturn (students[i].studentNam...\n      SLOAD \t\t\treturn (students[i].studentNam...\n      DUP2 \t\t\treturn (students[i].studentNam...\n      MSTORE \t\t\treturn (students[i].studentNam...\n      SWAP1 \t\t\treturn (students[i].studentNam...\n      PUSH 1\t\t\treturn (students[i].studentNam...\n      ADD \t\t\treturn (students[i].studentNam...\n      SWAP1 \t\t\treturn (students[i].studentNam...\n      PUSH 20\t\t\treturn (students[i].studentNam...\n      ADD \t\t\treturn (students[i].studentNam...\n      DUP1 \t\t\treturn (students[i].studentNam...\n      DUP4 \t\t\treturn (students[i].studentNam...\n      GT \t\t\treturn (students[i].studentNam...\n      PUSH [tag] 93\t\t\treturn (students[i].studentNam...\n      JUMPI \t\t\treturn (students[i].studentNam...\n      DUP3 \t\t\treturn (students[i].studentNam...\n      SWAP1 \t\t\treturn (students[i].studentNam...\n      SUB \t\t\treturn (students[i].studentNam...\n      PUSH 1F\t\t\treturn (students[i].studentNam...\n      AND \t\t\treturn (students[i].studentNam...\n      DUP3 \t\t\treturn (students[i].studentNam...\n      ADD \t\t\treturn (students[i].studentNam...\n      SWAP2 \t\t\treturn (students[i].studentNam...\n    tag 91\t\t\treturn (students[i].studentNam...\n      JUMPDEST \t\t\treturn (students[i].studentNam...\n      POP \t\t\treturn (students[i].studentNam...\n      POP \t\t\treturn (students[i].studentNam...\n      POP \t\t\treturn (students[i].studentNam...\n      POP \t\t\treturn (students[i].studentNam...\n      POP \t\t\treturn (students[i].studentNam...\n      SWAP1 \t\t\treturn (students[i].studentNam...\n      POP \t\t\treturn (students[i].studentNam...\n      SWAP6 \t\t\treturn (students[i].studentNam...\n      POP \t\t\treturn (students[i].studentNam...\n      SWAP6 \t\t\treturn (students[i].studentNam...\n      POP \t\t\treturn (students[i].studentNam...\n      SWAP6 \t\t\treturn (students[i].studentNam...\n      POP \t\t\treturn (students[i].studentNam...\n      SWAP6 \t\t\treturn (students[i].studentNam...\n      POP \t\t\treturn (students[i].studentNam...\n      SWAP6 \t\t\treturn (students[i].studentNam...\n      POP \t\t\treturn (students[i].studentNam...\n      POP \t\t\treturn (students[i].studentNam...\n      PUSH [tag] 52\t\t\treturn (students[i].studentNam...\n      JUMP \t\t\treturn (students[i].studentNam...\n    tag 68\t\t\tif (compareStrings(students[i]...\n      JUMPDEST \t\t\tif (compareStrings(students[i]...\n      PUSH [tag] 94\t\t\tcompareStrings(students[i].ipf...\n      PUSH 0\t\t\tstudents\n      DUP1 \t\t\tstudents[i]\n      DUP4 \t\t\ti\n      DUP2 \t\t\tstudents[i]\n      MSTORE \t\t\tstudents[i]\n      PUSH 20\t\t\tstudents[i]\n      ADD \t\t\tstudents[i]\n      SWAP1 \t\t\tstudents[i]\n      DUP2 \t\t\tstudents[i]\n      MSTORE \t\t\tstudents[i]\n      PUSH 20\t\t\tstudents[i]\n      ADD \t\t\tstudents[i]\n      PUSH 0\t\t\tstudents[i]\n      KECCAK256 \t\t\tstudents[i]\n      PUSH 2\t\t\tstudents[i].ipfsHash\n      ADD \t\t\tstudents[i].ipfsHash\n      DUP1 \t\t\tcompareStrings(students[i].ipf...\n      SLOAD \t\t\tcompareStrings(students[i].ipf...\n      PUSH [tag] 95\t\t\tcompareStrings(students[i].ipf...\n      SWAP1 \t\t\tcompareStrings(students[i].ipf...\n      PUSH [tag] 27\t\t\tcompareStrings(students[i].ipf...\n      JUMP \t\t\tcompareStrings(students[i].ipf...\n    tag 95\t\t\tcompareStrings(students[i].ipf...\n      JUMPDEST \t\t\tcompareStrings(students[i].ipf...\n      DUP1 \t\t\tcompareStrings(students[i].ipf...\n      PUSH 1F\t\t\tcompareStrings(students[i].ipf...\n      ADD \t\t\tcompareStrings(students[i].ipf...\n      PUSH 20\t\t\tcompareStrings(students[i].ipf...\n      DUP1 \t\t\tcompareStrings(students[i].ipf...\n      SWAP2 \t\t\tcompareStrings(students[i].ipf...\n      DIV \t\t\tcompareStrings(students[i].ipf...\n      MUL \t\t\tcompareStrings(students[i].ipf...\n      PUSH 20\t\t\tcompareStrings(students[i].ipf...\n      ADD \t\t\tcompareStrings(students[i].ipf...\n      PUSH 40\t\t\tcompareStrings(students[i].ipf...\n      MLOAD \t\t\tcompareStrings(students[i].ipf...\n      SWAP1 \t\t\tcompareStrings(students[i].ipf...\n      DUP2 \t\t\tcompareStrings(students[i].ipf...\n      ADD \t\t\tcompareStrings(students[i].ipf...\n      PUSH 40\t\t\tcompareStrings(students[i].ipf...\n      MSTORE \t\t\tcompareStrings(students[i].ipf...\n      DUP1 \t\t\tcompareStrings(students[i].ipf...\n      SWAP3 \t\t\tcompareStrings(students[i].ipf...\n      SWAP2 \t\t\tcompareStrings(students[i].ipf...\n      SWAP1 \t\t\tcompareStrings(students[i].ipf...\n      DUP2 \t\t\tcompareStrings(students[i].ipf...\n      DUP2 \t\t\tcompareStrings(students[i].ipf...\n      MSTORE \t\t\tcompareStrings(students[i].ipf...\n      PUSH 20\t\t\tcompareStrings(students[i].ipf...\n      ADD \t\t\tcompareStrings(students[i].ipf...\n      DUP3 \t\t\tcompareStrings(students[i].ipf...\n      DUP1 \t\t\tcompareStrings(students[i].ipf...\n      SLOAD \t\t\tcompareStrings(students[i].ipf...\n      PUSH [tag] 96\t\t\tcompareStrings(students[i].ipf...\n      SWAP1 \t\t\tcompareStrings(students[i].ipf...\n      PUSH [tag] 27\t\t\tcompareStrings(students[i].ipf...\n      JUMP \t\t\tcompareStrings(students[i].ipf...\n    tag 96\t\t\tcompareStrings(students[i].ipf...\n      JUMPDEST \t\t\tcompareStrings(students[i].ipf...\n      DUP1 \t\t\tcompareStrings(students[i].ipf...\n      ISZERO \t\t\tcompareStrings(students[i].ipf...\n      PUSH [tag] 97\t\t\tcompareStrings(students[i].ipf...\n      JUMPI \t\t\tcompareStrings(students[i].ipf...\n      DUP1 \t\t\tcompareStrings(students[i].ipf...\n      PUSH 1F\t\t\tcompareStrings(students[i].ipf...\n      LT \t\t\tcompareStrings(students[i].ipf...\n      PUSH [tag] 98\t\t\tcompareStrings(students[i].ipf...\n      JUMPI \t\t\tcompareStrings(students[i].ipf...\n      PUSH 100\t\t\tcompareStrings(students[i].ipf...\n      DUP1 \t\t\tcompareStrings(students[i].ipf...\n      DUP4 \t\t\tcompareStrings(students[i].ipf...\n      SLOAD \t\t\tcompareStrings(students[i].ipf...\n      DIV \t\t\tcompareStrings(students[i].ipf...\n      MUL \t\t\tcompareStrings(students[i].ipf...\n      DUP4 \t\t\tcompareStrings(students[i].ipf...\n      MSTORE \t\t\tcompareStrings(students[i].ipf...\n      SWAP2 \t\t\tcompareStrings(students[i].ipf...\n      PUSH 20\t\t\tcompareStrings(students[i].ipf...\n      ADD \t\t\tcompareStrings(students[i].ipf...\n      SWAP2 \t\t\tcompareStrings(students[i].ipf...\n      PUSH [tag] 97\t\t\tcompareStrings(students[i].ipf...\n      JUMP \t\t\tcompareStrings(students[i].ipf...\n    tag 98\t\t\tcompareStrings(students[i].ipf...\n      JUMPDEST \t\t\tcompareStrings(students[i].ipf...\n      DUP3 \t\t\tcompareStrings(students[i].ipf...\n      ADD \t\t\tcompareStrings(students[i].ipf...\n      SWAP2 \t\t\tcompareStrings(students[i].ipf...\n      SWAP1 \t\t\tcompareStrings(students[i].ipf...\n      PUSH 0\t\t\tcompareStrings(students[i].ipf...\n      MSTORE \t\t\tcompareStrings(students[i].ipf...\n      PUSH 20\t\t\tcompareStrings(students[i].ipf...\n      PUSH 0\t\t\tcompareStrings(students[i].ipf...\n      KECCAK256 \t\t\tcompareStrings(students[i].ipf...\n      SWAP1 \t\t\tcompareStrings(students[i].ipf...\n    tag 99\t\t\tcompareStrings(students[i].ipf...\n      JUMPDEST \t\t\tcompareStrings(students[i].ipf...\n      DUP2 \t\t\tcompareStrings(students[i].ipf...\n      SLOAD \t\t\tcompareStrings(students[i].ipf...\n      DUP2 \t\t\tcompareStrings(students[i].ipf...\n      MSTORE \t\t\tcompareStrings(students[i].ipf...\n      SWAP1 \t\t\tcompareStrings(students[i].ipf...\n      PUSH 1\t\t\tcompareStrings(students[i].ipf...\n      ADD \t\t\tcompareStrings(students[i].ipf...\n      SWAP1 \t\t\tcompareStrings(students[i].ipf...\n      PUSH 20\t\t\tcompareStrings(students[i].ipf...\n      ADD \t\t\tcompareStrings(students[i].ipf...\n      DUP1 \t\t\tcompareStrings(students[i].ipf...\n      DUP4 \t\t\tcompareStrings(students[i].ipf...\n      GT \t\t\tcompareStrings(students[i].ipf...\n      PUSH [tag] 99\t\t\tcompareStrings(students[i].ipf...\n      JUMPI \t\t\tcompareStrings(students[i].ipf...\n      DUP3 \t\t\tcompareStrings(students[i].ipf...\n      SWAP1 \t\t\tcompareStrings(students[i].ipf...\n      SUB \t\t\tcompareStrings(students[i].ipf...\n      PUSH 1F\t\t\tcompareStrings(students[i].ipf...\n      AND \t\t\tcompareStrings(students[i].ipf...\n      DUP3 \t\t\tcompareStrings(students[i].ipf...\n      ADD \t\t\tcompareStrings(students[i].ipf...\n      SWAP2 \t\t\tcompareStrings(students[i].ipf...\n    tag 97\t\t\tcompareStrings(students[i].ipf...\n      JUMPDEST \t\t\tcompareStrings(students[i].ipf...\n      POP \t\t\tcompareStrings(students[i].ipf...\n      POP \t\t\tcompareStrings(students[i].ipf...\n      POP \t\t\tcompareStrings(students[i].ipf...\n      POP \t\t\tcompareStrings(students[i].ipf...\n      POP \t\t\tcompareStrings(students[i].ipf...\n      DUP9 \t\t\tqueryValue\n      PUSH [tag] 65\t\t\tcompareStrings\n      JUMP \t\t\tcompareStrings(students[i].ipf...\n    tag 94\t\t\tcompareStrings(students[i].ipf...\n      JUMPDEST \t\t\tcompareStrings(students[i].ipf...\n      DUP1 \t\t\tcompareStrings(students[i].ipf...\n      ISZERO \t\t\tcompareStrings(students[i].ipf...\n      PUSH [tag] 100\t\t\tcompareStrings(students[i].ipf...\n      JUMPI \t\t\tcompareStrings(students[i].ipf...\n      POP \t\t\tcompareStrings(students[i].ipf...\n      PUSH [tag] 101\t\t\tcompareStrings(queryType, \"ipf...\n      DUP9 \t\t\tqueryType\n      PUSH 40\t\t\tcompareStrings(queryType, \"ipf...\n      MLOAD \t\t\tcompareStrings(queryType, \"ipf...\n      DUP1 \t\t\tcompareStrings(queryType, \"ipf...\n      PUSH 40\t\t\tcompareStrings(queryType, \"ipf...\n      ADD \t\t\tcompareStrings(queryType, \"ipf...\n      PUSH 40\t\t\tcompareStrings(queryType, \"ipf...\n      MSTORE \t\t\tcompareStrings(queryType, \"ipf...\n      DUP1 \t\t\tcompareStrings(queryType, \"ipf...\n      PUSH 8\t\t\tcompareStrings(queryType, \"ipf...\n      DUP2 \t\t\tcompareStrings(queryType, \"ipf...\n      MSTORE \t\t\tcompareStrings(queryType, \"ipf...\n      PUSH 20\t\t\tcompareStrings(queryType, \"ipf...\n      ADD \t\t\tcompareStrings(queryType, \"ipf...\n      PUSH 6970667348617368000000000000000000000000000000000000000000000000\t\t\tcompareStrings(queryType, \"ipf...\n      DUP2 \t\t\tcompareStrings(queryType, \"ipf...\n      MSTORE \t\t\tcompareStrings(queryType, \"ipf...\n      POP \t\t\tcompareStrings(queryType, \"ipf...\n      PUSH [tag] 65\t\t\tcompareStrings\n      JUMP \t\t\tcompareStrings(queryType, \"ipf...\n    tag 101\t\t\tcompareStrings(queryType, \"ipf...\n      JUMPDEST \t\t\tcompareStrings(queryType, \"ipf...\n    tag 100\t\t\tcompareStrings(students[i].ipf...\n      JUMPDEST \t\t\tcompareStrings(students[i].ipf...\n      ISZERO \t\t\tif (compareStrings(students[i]...\n      PUSH [tag] 102\t\t\tif (compareStrings(students[i]...\n      JUMPI \t\t\tif (compareStrings(students[i]...\n      PUSH 0\t\t\tstudents\n      DUP1 \t\t\tstudents[i]\n      DUP3 \t\t\ti\n      DUP2 \t\t\tstudents[i]\n      MSTORE \t\t\tstudents[i]\n      PUSH 20\t\t\tstudents[i]\n      ADD \t\t\tstudents[i]\n      SWAP1 \t\t\tstudents[i]\n      DUP2 \t\t\tstudents[i]\n      MSTORE \t\t\tstudents[i]\n      PUSH 20\t\t\tstudents[i]\n      ADD \t\t\tstudents[i]\n      PUSH 0\t\t\tstudents[i]\n      KECCAK256 \t\t\tstudents[i]\n      PUSH 0\t\t\tstudents[i].studentName\n      ADD \t\t\tstudents[i].studentName\n      PUSH 0\t\t\tstudents\n      DUP1 \t\t\tstudents[i]\n      DUP4 \t\t\ti\n      DUP2 \t\t\tstudents[i]\n      MSTORE \t\t\tstudents[i]\n      PUSH 20\t\t\tstudents[i]\n      ADD \t\t\tstudents[i]\n      SWAP1 \t\t\tstudents[i]\n      DUP2 \t\t\tstudents[i]\n      MSTORE \t\t\tstudents[i]\n      PUSH 20\t\t\tstudents[i]\n      ADD \t\t\tstudents[i]\n      PUSH 0\t\t\tstudents[i]\n      KECCAK256 \t\t\tstudents[i]\n      PUSH 1\t\t\tstudents[i].adminName\n      ADD \t\t\tstudents[i].adminName\n      PUSH 0\t\t\tstudents\n      DUP1 \t\t\tstudents[i]\n      DUP5 \t\t\ti\n      DUP2 \t\t\tstudents[i]\n      MSTORE \t\t\tstudents[i]\n      PUSH 20\t\t\tstudents[i]\n      ADD \t\t\tstudents[i]\n      SWAP1 \t\t\tstudents[i]\n      DUP2 \t\t\tstudents[i]\n      MSTORE \t\t\tstudents[i]\n      PUSH 20\t\t\tstudents[i]\n      ADD \t\t\tstudents[i]\n      PUSH 0\t\t\tstudents[i]\n      KECCAK256 \t\t\tstudents[i]\n      PUSH 2\t\t\tstudents[i].ipfsHash\n      ADD \t\t\tstudents[i].ipfsHash\n      PUSH 0\t\t\tstudents\n      DUP1 \t\t\tstudents[i]\n      DUP6 \t\t\ti\n      DUP2 \t\t\tstudents[i]\n      MSTORE \t\t\tstudents[i]\n      PUSH 20\t\t\tstudents[i]\n      ADD \t\t\tstudents[i]\n      SWAP1 \t\t\tstudents[i]\n      DUP2 \t\t\tstudents[i]\n      MSTORE \t\t\tstudents[i]\n      PUSH 20\t\t\tstudents[i]\n      ADD \t\t\tstudents[i]\n      PUSH 0\t\t\tstudents[i]\n      KECCAK256 \t\t\tstudents[i]\n      PUSH 3\t\t\tstudents[i].blake3Hash\n      ADD \t\t\tstudents[i].blake3Hash\n      PUSH 0\t\t\tstudents\n      DUP1 \t\t\tstudents[i]\n      DUP7 \t\t\ti\n      DUP2 \t\t\tstudents[i]\n      MSTORE \t\t\tstudents[i]\n      PUSH 20\t\t\tstudents[i]\n      ADD \t\t\tstudents[i]\n      SWAP1 \t\t\tstudents[i]\n      DUP2 \t\t\tstudents[i]\n      MSTORE \t\t\tstudents[i]\n      PUSH 20\t\t\tstudents[i]\n      ADD \t\t\tstudents[i]\n      PUSH 0\t\t\tstudents[i]\n      KECCAK256 \t\t\tstudents[i]\n      PUSH 4\t\t\tstudents[i].timestamp\n      ADD \t\t\tstudents[i].timestamp\n      DUP5 \t\t\treturn (students[i].studentNam...\n      DUP1 \t\t\treturn (students[i].studentNam...\n      SLOAD \t\t\treturn (students[i].studentNam...\n      PUSH [tag] 103\t\t\treturn (students[i].studentNam...\n      SWAP1 \t\t\treturn (students[i].studentNam...\n      PUSH [tag] 27\t\t\treturn (students[i].studentNam...\n      JUMP \t\t\treturn (students[i].studentNam...\n    tag 103\t\t\treturn (students[i].studentNam...\n      JUMPDEST \t\t\treturn (students[i].studentNam...\n      DUP1 \t\t\treturn (students[i].studentNam...\n      PUSH 1F\t\t\treturn (students[i].studentNam...\n      ADD \t\t\treturn (students[i].studentNam...\n      PUSH 20\t\t\treturn (students[i].studentNam...\n      DUP1 \t\t\treturn (students[i].studentNam...\n      SWAP2 \t\t\treturn (students[i].studentNam...\n      DIV \t\t\treturn (students[i].studentNam...\n      MUL \t\t\treturn (students[i].studentNam...\n      PUSH 20\t\t\treturn (students[i].studentNam...\n      ADD \t\t\treturn (students[i].studentNam...\n      PUSH 40\t\t\treturn (students[i].studentNam...\n      MLOAD \t\t\treturn (students[i].studentNam...\n      SWAP1 \t\t\treturn (students[i].studentNam...\n      DUP2 \t\t\treturn (students[i].studentNam...\n      ADD \t\t\treturn (students[i].studentNam...\n      PUSH 40\t\t\treturn (students[i].studentNam...\n      MSTORE \t\t\treturn (students[i].studentNam...\n      DUP1 \t\t\treturn (students[i].studentNam...\n      SWAP3 \t\t\treturn (students[i].studentNam...\n      SWAP2 \t\t\treturn (students[i].studentNam...\n      SWAP1 \t\t\treturn (students[i].studentNam...\n      DUP2 \t\t\treturn (students[i].studentNam...\n      DUP2 \t\t\treturn (students[i].studentNam...\n      MSTORE \t\t\treturn (students[i].studentNam...\n      PUSH 20\t\t\treturn (students[i].studentNam...\n      ADD \t\t\treturn (students[i].studentNam...\n      DUP3 \t\t\treturn (students[i].studentNam...\n      DUP1 \t\t\treturn (students[i].studentNam...\n      SLOAD \t\t\treturn (students[i].studentNam...\n      PUSH [tag] 104\t\t\treturn (students[i].studentNam...\n      SWAP1 \t\t\treturn (students[i].studentNam...\n      PUSH [tag] 27\t\t\treturn (students[i].studentNam...\n      JUMP \t\t\treturn (students[i].studentNam...\n    tag 104\t\t\treturn (students[i].studentNam...\n      JUMPDEST \t\t\treturn (students[i].studentNam...\n      DUP1 \t\t\treturn (students[i].studentNam...\n      ISZERO \t\t\treturn (students[i].studentNam...\n      PUSH [tag] 105\t\t\treturn (students[i].studentNam...\n      JUMPI \t\t\treturn (students[i].studentNam...\n      DUP1 \t\t\treturn (students[i].studentNam...\n      PUSH 1F\t\t\treturn (students[i].studentNam...\n      LT \t\t\treturn (students[i].studentNam...\n      PUSH [tag] 106\t\t\treturn (students[i].studentNam...\n      JUMPI \t\t\treturn (students[i].studentNam...\n      PUSH 100\t\t\treturn (students[i].studentNam...\n      DUP1 \t\t\treturn (students[i].studentNam...\n      DUP4 \t\t\treturn (students[i].studentNam...\n      SLOAD \t\t\treturn (students[i].studentNam...\n      DIV \t\t\treturn (students[i].studentNam...\n      MUL \t\t\treturn (students[i].studentNam...\n      DUP4 \t\t\treturn (students[i].studentNam...\n      MSTORE \t\t\treturn (students[i].studentNam...\n      SWAP2 \t\t\treturn (students[i].studentNam...\n      PUSH 20\t\t\treturn (students[i].studentNam...\n      ADD \t\t\treturn (students[i].studentNam...\n      SWAP2 \t\t\treturn (students[i].studentNam...\n      PUSH [tag] 105\t\t\treturn (students[i].studentNam...\n      JUMP \t\t\treturn (students[i].studentNam...\n    tag 106\t\t\treturn (students[i].studentNam...\n      JUMPDEST \t\t\treturn (students[i].studentNam...\n      DUP3 \t\t\treturn (students[i].studentNam...\n      ADD \t\t\treturn (students[i].studentNam...\n      SWAP2 \t\t\treturn (students[i].studentNam...\n      SWAP1 \t\t\treturn (students[i].studentNam...\n      PUSH 0\t\t\treturn (students[i].studentNam...\n      MSTORE \t\t\treturn (students[i].studentNam...\n      PUSH 20\t\t\treturn (students[i].studentNam...\n      PUSH 0\t\t\treturn (students[i].studentNam...\n      KECCAK256 \t\t\treturn (students[i].studentNam...\n      SWAP1 \t\t\treturn (students[i].studentNam...\n    tag 107\t\t\treturn (students[i].studentNam...\n      JUMPDEST \t\t\treturn (students[i].studentNam...\n      DUP2 \t\t\treturn (students[i].studentNam...\n      SLOAD \t\t\treturn (students[i].studentNam...\n      DUP2 \t\t\treturn (students[i].studentNam...\n      MSTORE \t\t\treturn (students[i].studentNam...\n      SWAP1 \t\t\treturn (students[i].studentNam...\n      PUSH 1\t\t\treturn (students[i].studentNam...\n      ADD \t\t\treturn (students[i].studentNam...\n      SWAP1 \t\t\treturn (students[i].studentNam...\n      PUSH 20\t\t\treturn (students[i].studentNam...\n      ADD \t\t\treturn (students[i].studentNam...\n      DUP1 \t\t\treturn (students[i].studentNam...\n      DUP4 \t\t\treturn (students[i].studentNam...\n      GT \t\t\treturn (students[i].studentNam...\n      PUSH [tag] 107\t\t\treturn (students[i].studentNam...\n      JUMPI \t\t\treturn (students[i].studentNam...\n      DUP3 \t\t\treturn (students[i].studentNam...\n      SWAP1 \t\t\treturn (students[i].studentNam...\n      SUB \t\t\treturn (students[i].studentNam...\n      PUSH 1F\t\t\treturn (students[i].studentNam...\n      AND \t\t\treturn (students[i].studentNam...\n      DUP3 \t\t\treturn (students[i].studentNam...\n      ADD \t\t\treturn (students[i].studentNam...\n      SWAP2 \t\t\treturn (students[i].studentNam...\n    tag 105\t\t\treturn (students[i].studentNam...\n      JUMPDEST \t\t\treturn (students[i].studentNam...\n      POP \t\t\treturn (students[i].studentNam...\n      POP \t\t\treturn (students[i].studentNam...\n      POP \t\t\treturn (students[i].studentNam...\n      POP \t\t\treturn (students[i].studentNam...\n      POP \t\t\treturn (students[i].studentNam...\n      SWAP5 \t\t\treturn (students[i].studentNam...\n      POP \t\t\treturn (students[i].studentNam...\n      DUP4 \t\t\treturn (students[i].studentNam...\n      DUP1 \t\t\treturn (students[i].studentNam...\n      SLOAD \t\t\treturn (students[i].studentNam...\n      PUSH [tag] 108\t\t\treturn (students[i].studentNam...\n      SWAP1 \t\t\treturn (students[i].studentNam...\n      PUSH [tag] 27\t\t\treturn (students[i].studentNam...\n      JUMP \t\t\treturn (students[i].studentNam...\n    tag 108\t\t\treturn (students[i].studentNam...\n      JUMPDEST \t\t\treturn (students[i].studentNam...\n      DUP1 \t\t\treturn (students[i].studentNam...\n      PUSH 1F\t\t\treturn (students[i].studentNam...\n      ADD \t\t\treturn (students[i].studentNam...\n      PUSH 20\t\t\treturn (students[i].studentNam...\n      DUP1 \t\t\treturn (students[i].studentNam...\n      SWAP2 \t\t\treturn (students[i].studentNam...\n      DIV \t\t\treturn (students[i].studentNam...\n      MUL \t\t\treturn (students[i].studentNam...\n      PUSH 20\t\t\treturn (students[i].studentNam...\n      ADD \t\t\treturn (students[i].studentNam...\n      PUSH 40\t\t\treturn (students[i].studentNam...\n      MLOAD \t\t\treturn (students[i].studentNam...\n      SWAP1 \t\t\treturn (students[i].studentNam...\n      DUP2 \t\t\treturn (students[i].studentNam...\n      ADD \t\t\treturn (students[i].studentNam...\n      PUSH 40\t\t\treturn (students[i].studentNam...\n      MSTORE \t\t\treturn (students[i].studentNam...\n      DUP1 \t\t\treturn (students[i].studentNam...\n      SWAP3 \t\t\treturn (students[i].studentNam...\n      SWAP2 \t\t\treturn (students[i].studentNam...\n      SWAP1 \t\t\treturn (students[i].studentNam...\n      DUP2 \t\t\treturn (students[i].studentNam...\n      DUP2 \t\t\treturn (students[i].studentNam...\n      MSTORE \t\t\treturn (students[i].studentNam...\n      PUSH 20\t\t\treturn (students[i].studentNam...\n      ADD \t\t\treturn (students[i].studentNam...\n      DUP3 \t\t\treturn (students[i].studentNam...\n      DUP1 \t\t\treturn (students[i].studentNam...\n      SLOAD \t\t\treturn (students[i].studentNam...\n      PUSH [tag] 109\t\t\treturn (students[i].studentNam...\n      SWAP1 \t\t\treturn (students[i].studentNam...\n      PUSH [tag] 27\t\t\treturn (students[i].studentNam...\n      JUMP \t\t\treturn (students[i].studentNam...\n    tag 109\t\t\treturn (students[i].studentNam...\n      JUMPDEST \t\t\treturn (students[i].studentNam...\n      DUP1 \t\t\treturn (students[i].studentNam...\n      ISZERO \t\t\treturn (students[i].studentNam...\n      PUSH [tag] 110\t\t\treturn (students[i].studentNam...\n      JUMPI \t\t\treturn (students[i].studentNam...\n      DUP1 \t\t\treturn (students[i].studentNam...\n      PUSH 1F\t\t\treturn (students[i].studentNam...\n      LT \t\t\treturn (students[i].studentNam...\n      PUSH [tag] 111\t\t\treturn (students[i].studentNam...\n      JUMPI \t\t\treturn (students[i].studentNam...\n      PUSH 100\t\t\treturn (students[i].studentNam...\n      DUP1 \t\t\treturn (students[i].studentNam...\n      DUP4 \t\t\treturn (students[i].studentNam...\n      SLOAD \t\t\treturn (students[i].studentNam...\n      DIV \t\t\treturn (students[i].studentNam...\n      MUL \t\t\treturn (students[i].studentNam...\n      DUP4 \t\t\treturn (students[i].studentNam...\n      MSTORE \t\t\treturn (students[i].studentNam...\n      SWAP2 \t\t\treturn (students[i].studentNam...\n      PUSH 20\t\t\treturn (students[i].studentNam...\n      ADD \t\t\treturn (students[i].studentNam...\n      SWAP2 \t\t\treturn (students[i].studentNam...\n      PUSH [tag] 110\t\t\treturn (students[i].studentNam...\n      JUMP \t\t\treturn (students[i].studentNam...\n    tag 111\t\t\treturn (students[i].studentNam...\n      JUMPDEST \t\t\treturn (students[i].studentNam...\n      DUP3 \t\t\treturn (students[i].studentNam...\n      ADD \t\t\treturn (students[i].studentNam...\n      SWAP2 \t\t\treturn (students[i].studentNam...\n      SWAP1 \t\t\treturn (students[i].studentNam...\n      PUSH 0\t\t\treturn (students[i].studentNam...\n      MSTORE \t\t\treturn (students[i].studentNam...\n      PUSH 20\t\t\treturn (students[i].studentNam...\n      PUSH 0\t\t\treturn (students[i].studentNam...\n      KECCAK256 \t\t\treturn (students[i].studentNam...\n      SWAP1 \t\t\treturn (students[i].studentNam...\n    tag 112\t\t\treturn (students[i].studentNam...\n      JUMPDEST \t\t\treturn (students[i].studentNam...\n      DUP2 \t\t\treturn (students[i].studentNam...\n      SLOAD \t\t\treturn (students[i].studentNam...\n      DUP2 \t\t\treturn (students[i].studentNam...\n      MSTORE \t\t\treturn (students[i].studentNam...\n      SWAP1 \t\t\treturn (students[i].studentNam...\n      PUSH 1\t\t\treturn (students[i].studentNam...\n      ADD \t\t\treturn (students[i].studentNam...\n      SWAP1 \t\t\treturn (students[i].studentNam...\n      PUSH 20\t\t\treturn (students[i].studentNam...\n      ADD \t\t\treturn (students[i].studentNam...\n      DUP1 \t\t\treturn (students[i].studentNam...\n      DUP4 \t\t\treturn (students[i].studentNam...\n      GT \t\t\treturn (students[i].studentNam...\n      PUSH [tag] 112\t\t\treturn (students[i].studentNam...\n      JUMPI \t\t\treturn (students[i].studentNam...\n      DUP3 \t\t\treturn (students[i].studentNam...\n      SWAP1 \t\t\treturn (students[i].studentNam...\n      SUB \t\t\treturn (students[i].studentNam...\n      PUSH 1F\t\t\treturn (students[i].studentNam...\n      AND \t\t\treturn (students[i].studentNam...\n      DUP3 \t\t\treturn (students[i].studentNam...\n      ADD \t\t\treturn (students[i].studentNam...\n      SWAP2 \t\t\treturn (students[i].studentNam...\n    tag 110\t\t\treturn (students[i].studentNam...\n      JUMPDEST \t\t\treturn (students[i].studentNam...\n      POP \t\t\treturn (students[i].studentNam...\n      POP \t\t\treturn (students[i].studentNam...\n      POP \t\t\treturn (students[i].studentNam...\n      POP \t\t\treturn (students[i].studentNam...\n      POP \t\t\treturn (students[i].studentNam...\n      SWAP4 \t\t\treturn (students[i].studentNam...\n      POP \t\t\treturn (students[i].studentNam...\n      DUP3 \t\t\treturn (students[i].studentNam...\n      DUP1 \t\t\treturn (students[i].studentNam...\n      SLOAD \t\t\treturn (students[i].studentNam...\n      PUSH [tag] 113\t\t\treturn (students[i].studentNam...\n      SWAP1 \t\t\treturn (students[i].studentNam...\n      PUSH [tag] 27\t\t\treturn (students[i].studentNam...\n      JUMP \t\t\treturn (students[i].studentNam...\n    tag 113\t\t\treturn (students[i].studentNam...\n      JUMPDEST \t\t\treturn (students[i].studentNam...\n      DUP1 \t\t\treturn (students[i].studentNam...\n      PUSH 1F\t\t\treturn (students[i].studentNam...\n      ADD \t\t\treturn (students[i].studentNam...\n      PUSH 20\t\t\treturn (students[i].studentNam...\n      DUP1 \t\t\treturn (students[i].studentNam...\n      SWAP2 \t\t\treturn (students[i].studentNam...\n      DIV \t\t\treturn (students[i].studentNam...\n      MUL \t\t\treturn (students[i].studentNam...\n      PUSH 20\t\t\treturn (students[i].studentNam...\n      ADD \t\t\treturn (students[i].studentNam...\n      PUSH 40\t\t\treturn (students[i].studentNam...\n      MLOAD \t\t\treturn (students[i].studentNam...\n      SWAP1 \t\t\treturn (students[i].studentNam...\n      DUP2 \t\t\treturn (students[i].studentNam...\n      ADD \t\t\treturn (students[i].studentNam...\n      PUSH 40\t\t\treturn (students[i].studentNam...\n      MSTORE \t\t\treturn (students[i].studentNam...\n      DUP1 \t\t\treturn (students[i].studentNam...\n      SWAP3 \t\t\treturn (students[i].studentNam...\n      SWAP2 \t\t\treturn (students[i].studentNam...\n      SWAP1 \t\t\treturn (students[i].studentNam...\n      DUP2 \t\t\treturn (students[i].studentNam...\n      DUP2 \t\t\treturn (students[i].studentNam...\n      MSTORE \t\t\treturn (students[i].studentNam...\n      PUSH 20\t\t\treturn (students[i].studentNam...\n      ADD \t\t\treturn (students[i].studentNam...\n      DUP3 \t\t\treturn (students[i].studentNam...\n      DUP1 \t\t\treturn (students[i].studentNam...\n      SLOAD \t\t\treturn (students[i].studentNam...\n      PUSH [tag] 114\t\t\treturn (students[i].studentNam...\n      SWAP1 \t\t\treturn (students[i].studentNam...\n      PUSH [tag] 27\t\t\treturn (students[i].studentNam...\n      JUMP \t\t\treturn (students[i].studentNam...\n    tag 114\t\t\treturn (students[i].studentNam...\n      JUMPDEST \t\t\treturn (students[i].studentNam...\n      DUP1 \t\t\treturn (students[i].studentNam...\n      ISZERO \t\t\treturn (students[i].studentNam...\n      PUSH [tag] 115\t\t\treturn (students[i].studentNam...\n      JUMPI \t\t\treturn (students[i].studentNam...\n      DUP1 \t\t\treturn (students[i].studentNam...\n      PUSH 1F\t\t\treturn (students[i].studentNam...\n      LT \t\t\treturn (students[i].studentNam...\n      PUSH [tag] 116\t\t\treturn (students[i].studentNam...\n      JUMPI \t\t\treturn (students[i].studentNam...\n      PUSH 100\t\t\treturn (students[i].studentNam...\n      DUP1 \t\t\treturn (students[i].studentNam...\n      DUP4 \t\t\treturn (students[i].studentNam...\n      SLOAD \t\t\treturn (students[i].studentNam...\n      DIV \t\t\treturn (students[i].studentNam...\n      MUL \t\t\treturn (students[i].studentNam...\n      DUP4 \t\t\treturn (students[i].studentNam...\n      MSTORE \t\t\treturn (students[i].studentNam...\n      SWAP2 \t\t\treturn (students[i].studentNam...\n      PUSH 20\t\t\treturn (students[i].studentNam...\n      ADD \t\t\treturn (students[i].studentNam...\n      SWAP2 \t\t\treturn (students[i].studentNam...\n      PUSH [tag] 115\t\t\treturn (students[i].studentNam...\n      JUMP \t\t\treturn (students[i].studentNam...\n    tag 116\t\t\treturn (students[i].studentNam...\n      JUMPDEST \t\t\treturn (students[i].studentNam...\n      DUP3 \t\t\treturn (students[i].studentNam...\n      ADD \t\t\treturn (students[i].studentNam...\n      SWAP2 \t\t\treturn (students[i].studentNam...\n      SWAP1 \t\t\treturn (students[i].studentNam...\n      PUSH 0\t\t\treturn (students[i].studentNam...\n      MSTORE \t\t\treturn (students[i].studentNam...\n      PUSH 20\t\t\treturn (students[i].studentNam...\n      PUSH 0\t\t\treturn (students[i].studentNam...\n      KECCAK256 \t\t\treturn (students[i].studentNam...\n      SWAP1 \t\t\treturn (students[i].studentNam...\n    tag 117\t\t\treturn (students[i].studentNam...\n      JUMPDEST \t\t\treturn (students[i].studentNam...\n      DUP2 \t\t\treturn (students[i].studentNam...\n      SLOAD \t\t\treturn (students[i].studentNam...\n      DUP2 \t\t\treturn (students[i].studentNam...\n      MSTORE \t\t\treturn (students[i].studentNam...\n      SWAP1 \t\t\treturn (students[i].studentNam...\n      PUSH 1\t\t\treturn (students[i].studentNam...\n      ADD \t\t\treturn (students[i].studentNam...\n      SWAP1 \t\t\treturn (students[i].studentNam...\n      PUSH 20\t\t\treturn (students[i].studentNam...\n      ADD \t\t\treturn (students[i].studentNam...\n      DUP1 \t\t\treturn (students[i].studentNam...\n      DUP4 \t\t\treturn (students[i].studentNam...\n      GT \t\t\treturn (students[i].studentNam...\n      PUSH [tag] 117\t\t\treturn (students[i].studentNam...\n      JUMPI \t\t\treturn (students[i].studentNam...\n      DUP3 \t\t\treturn (students[i].studentNam...\n      SWAP1 \t\t\treturn (students[i].studentNam...\n      SUB \t\t\treturn (students[i].studentNam...\n      PUSH 1F\t\t\treturn (students[i].studentNam...\n      AND \t\t\treturn (students[i].studentNam...\n      DUP3 \t\t\treturn (students[i].studentNam...\n      ADD \t\t\treturn (students[i].studentNam...\n      SWAP2 \t\t\treturn (students[i].studentNam...\n    tag 115\t\t\treturn (students[i].studentNam...\n      JUMPDEST \t\t\treturn (students[i].studentNam...\n      POP \t\t\treturn (students[i].studentNam...\n      POP \t\t\treturn (students[i].studentNam...\n      POP \t\t\treturn (students[i].studentNam...\n      POP \t\t\treturn (students[i].studentNam...\n      POP \t\t\treturn (students[i].studentNam...\n      SWAP3 \t\t\treturn (students[i].studentNam...\n      POP \t\t\treturn (students[i].studentNam...\n      DUP2 \t\t\treturn (students[i].studentNam...\n      DUP1 \t\t\treturn (students[i].studentNam...\n      SLOAD \t\t\treturn (students[i].studentNam...\n      PUSH [tag] 118\t\t\treturn (students[i].studentNam...\n      SWAP1 \t\t\treturn (students[i].studentNam...\n      PUSH [tag] 27\t\t\treturn (students[i].studentNam...\n      JUMP \t\t\treturn (students[i].studentNam...\n    tag 118\t\t\treturn (students[i].studentNam...\n      JUMPDEST \t\t\treturn (students[i].studentNam...\n      DUP1 \t\t\treturn (students[i].studentNam...\n      PUSH 1F\t\t\treturn (students[i].studentNam...\n      ADD \t\t\treturn (students[i].studentNam...\n      PUSH 20\t\t\treturn (students[i].studentNam...\n      DUP1 \t\t\treturn (students[i].studentNam...\n      SWAP2 \t\t\treturn (students[i].studentNam...\n      DIV \t\t\treturn (students[i].studentNam...\n      MUL \t\t\treturn (students[i].studentNam...\n      PUSH 20\t\t\treturn (students[i].studentNam...\n      ADD \t\t\treturn (students[i].studentNam...\n      PUSH 40\t\t\treturn (students[i].studentNam...\n      MLOAD \t\t\treturn (students[i].studentNam...\n      SWAP1 \t\t\treturn (students[i].studentNam...\n      DUP2 \t\t\treturn (students[i].studentNam...\n      ADD \t\t\treturn (students[i].studentNam...\n      PUSH 40\t\t\treturn (students[i].studentNam...\n      MSTORE \t\t\treturn (students[i].studentNam...\n      DUP1 \t\t\treturn (students[i].studentNam...\n      SWAP3 \t\t\treturn (students[i].studentNam...\n      SWAP2 \t\t\treturn (students[i].studentNam...\n      SWAP1 \t\t\treturn (students[i].studentNam...\n      DUP2 \t\t\treturn (students[i].studentNam...\n      DUP2 \t\t\treturn (students[i].studentNam...\n      MSTORE \t\t\treturn (students[i].studentNam...\n      PUSH 20\t\t\treturn (students[i].studentNam...\n      ADD \t\t\treturn (students[i].studentNam...\n      DUP3 \t\t\treturn (students[i].studentNam...\n      DUP1 \t\t\treturn (students[i].studentNam...\n      SLOAD \t\t\treturn (students[i].studentNam...\n      PUSH [tag] 119\t\t\treturn (students[i].studentNam...\n      SWAP1 \t\t\treturn (students[i].studentNam...\n      PUSH [tag] 27\t\t\treturn (students[i].studentNam...\n      JUMP \t\t\treturn (students[i].studentNam...\n    tag 119\t\t\treturn (students[i].studentNam...\n      JUMPDEST \t\t\treturn (students[i].studentNam...\n      DUP1 \t\t\treturn (students[i].studentNam...\n      ISZERO \t\t\treturn (students[i].studentNam...\n      PUSH [tag] 120\t\t\treturn (students[i].studentNam...\n      JUMPI \t\t\treturn (students[i].studentNam...\n      DUP1 \t\t\treturn (students[i].studentNam...\n      PUSH 1F\t\t\treturn (students[i].studentNam...\n      LT \t\t\treturn (students[i].studentNam...\n      PUSH [tag] 121\t\t\treturn (students[i].studentNam...\n      JUMPI \t\t\treturn (students[i].studentNam...\n      PUSH 100\t\t\treturn (students[i].studentNam...\n      DUP1 \t\t\treturn (students[i].studentNam...\n      DUP4 \t\t\treturn (students[i].studentNam...\n      SLOAD \t\t\treturn (students[i].studentNam...\n      DIV \t\t\treturn (students[i].studentNam...\n      MUL \t\t\treturn (students[i].studentNam...\n      DUP4 \t\t\treturn (students[i].studentNam...\n      MSTORE \t\t\treturn (students[i].studentNam...\n      SWAP2 \t\t\treturn (students[i].studentNam...\n      PUSH 20\t\t\treturn (students[i].studentNam...\n      ADD \t\t\treturn (students[i].studentNam...\n      SWAP2 \t\t\treturn (students[i].studentNam...\n      PUSH [tag] 120\t\t\treturn (students[i].studentNam...\n      JUMP \t\t\treturn (students[i].studentNam...\n    tag 121\t\t\treturn (students[i].studentNam...\n      JUMPDEST \t\t\treturn (students[i].studentNam...\n      DUP3 \t\t\treturn (students[i].studentNam...\n      ADD \t\t\treturn (students[i].studentNam...\n      SWAP2 \t\t\treturn (students[i].studentNam...\n      SWAP1 \t\t\treturn (students[i].studentNam...\n      PUSH 0\t\t\treturn (students[i].studentNam...\n      MSTORE \t\t\treturn (students[i].studentNam...\n      PUSH 20\t\t\treturn (students[i].studentNam...\n      PUSH 0\t\t\treturn (students[i].studentNam...\n      KECCAK256 \t\t\treturn (students[i].studentNam...\n      SWAP1 \t\t\treturn (students[i].studentNam...\n    tag 122\t\t\treturn (students[i].studentNam...\n      JUMPDEST \t\t\treturn (students[i].studentNam...\n      DUP2 \t\t\treturn (students[i].studentNam...\n      SLOAD \t\t\treturn (students[i].studentNam...\n      DUP2 \t\t\treturn (students[i].studentNam...\n      MSTORE \t\t\treturn (students[i].studentNam...\n      SWAP1 \t\t\treturn (students[i].studentNam...\n      PUSH 1\t\t\treturn (students[i].studentNam...\n      ADD \t\t\treturn (students[i].studentNam...\n      SWAP1 \t\t\treturn (students[i].studentNam...\n      PUSH 20\t\t\treturn (students[i].studentNam...\n      ADD \t\t\treturn (students[i].studentNam...\n      DUP1 \t\t\treturn (students[i].studentNam...\n      DUP4 \t\t\treturn (students[i].studentNam...\n      GT \t\t\treturn (students[i].studentNam...\n      PUSH [tag] 122\t\t\treturn (students[i].studentNam...\n      JUMPI \t\t\treturn (students[i].studentNam...\n      DUP3 \t\t\treturn (students[i].studentNam...\n      SWAP1 \t\t\treturn (students[i].studentNam...\n      SUB \t\t\treturn (students[i].studentNam...\n      PUSH 1F\t\t\treturn (students[i].studentNam...\n      AND \t\t\treturn (students[i].studentNam...\n      DUP3 \t\t\treturn (students[i].studentNam...\n      ADD \t\t\treturn (students[i].studentNam...\n      SWAP2 \t\t\treturn (students[i].studentNam...\n    tag 120\t\t\treturn (students[i].studentNam...\n      JUMPDEST \t\t\treturn (students[i].studentNam...\n      POP \t\t\treturn (students[i].studentNam...\n      POP \t\t\treturn (students[i].studentNam...\n      POP \t\t\treturn (students[i].studentNam...\n      POP \t\t\treturn (students[i].studentNam...\n      POP \t\t\treturn (students[i].studentNam...\n      SWAP2 \t\t\treturn (students[i].studentNam...\n      POP \t\t\treturn (students[i].studentNam...\n      DUP1 \t\t\treturn (students[i].studentNam...\n      DUP1 \t\t\treturn (students[i].studentNam...\n      SLOAD \t\t\treturn (students[i].studentNam...\n      PUSH [tag] 123\t\t\treturn (students[i].studentNam...\n      SWAP1 \t\t\treturn (students[i].studentNam...\n      PUSH [tag] 27\t\t\treturn (students[i].studentNam...\n      JUMP \t\t\treturn (students[i].studentNam...\n    tag 123\t\t\treturn (students[i].studentNam...\n      JUMPDEST \t\t\treturn (students[i].studentNam...\n      DUP1 \t\t\treturn (students[i].studentNam...\n      PUSH 1F\t\t\treturn (students[i].studentNam...\n      ADD \t\t\treturn (students[i].studentNam...\n      PUSH 20\t\t\treturn (students[i].studentNam...\n      DUP1 \t\t\treturn (students[i].studentNam...\n      SWAP2 \t\t\treturn (students[i].studentNam...\n      DIV \t\t\treturn (students[i].studentNam...\n      MUL \t\t\treturn (students[i].studentNam...\n      PUSH 20\t\t\treturn (students[i].studentNam...\n      ADD \t\t\treturn (students[i].studentNam...\n      PUSH 40\t\t\treturn (students[i].studentNam...\n      MLOAD \t\t\treturn (students[i].studentNam...\n      SWAP1 \t\t\treturn (students[i].studentNam...\n      DUP2 \t\t\treturn (students[i].studentNam...\n      ADD \t\t\treturn (students[i].studentNam...\n      PUSH 40\t\t\treturn (students[i].studentNam...\n      MSTORE \t\t\treturn (students[i].studentNam...\n      DUP1 \t\t\treturn (students[i].studentNam...\n      SWAP3 \t\t\treturn (students[i].studentNam...\n      SWAP2 \t\t\treturn (students[i].studentNam...\n      SWAP1 \t\t\treturn (students[i].studentNam...\n      DUP2 \t\t\treturn (students[i].studentNam...\n      DUP2 \t\t\treturn (students[i].studentNam...\n      MSTORE \t\t\treturn (students[i].studentNam...\n      PUSH 20\t\t\treturn (students[i].studentNam...\n      ADD \t\t\treturn (students[i].studentNam...\n      DUP3 \t\t\treturn (students[i].studentNam...\n      DUP1 \t\t\treturn (students[i].studentNam...\n      SLOAD \t\t\treturn (students[i].studentNam...\n      PUSH [tag] 124\t\t\treturn (students[i].studentNam...\n      SWAP1 \t\t\treturn (students[i].studentNam...\n      PUSH [tag] 27\t\t\treturn (students[i].studentNam...\n      JUMP \t\t\treturn (students[i].studentNam...\n    tag 124\t\t\treturn (students[i].studentNam...\n      JUMPDEST \t\t\treturn (students[i].studentNam...\n      DUP1 \t\t\treturn (students[i].studentNam...\n      ISZERO \t\t\treturn (students[i].studentNam...\n      PUSH [tag] 125\t\t\treturn (students[i].studentNam...\n      JUMPI \t\t\treturn (students[i].studentNam...\n      DUP1 \t\t\treturn (students[i].studentNam...\n      PUSH 1F\t\t\treturn (students[i].studentNam...\n      LT \t\t\treturn (students[i].studentNam...\n      PUSH [tag] 126\t\t\treturn (students[i].studentNam...\n      JUMPI \t\t\treturn (students[i].studentNam...\n      PUSH 100\t\t\treturn (students[i].studentNam...\n      DUP1 \t\t\treturn (students[i].studentNam...\n      DUP4 \t\t\treturn (students[i].studentNam...\n      SLOAD \t\t\treturn (students[i].studentNam...\n      DIV \t\t\treturn (students[i].studentNam...\n      MUL \t\t\treturn (students[i].studentNam...\n      DUP4 \t\t\treturn (students[i].studentNam...\n      MSTORE \t\t\treturn (students[i].studentNam...\n      SWAP2 \t\t\treturn (students[i].studentNam...\n      PUSH 20\t\t\treturn (students[i].studentNam...\n      ADD \t\t\treturn (students[i].studentNam...\n      SWAP2 \t\t\treturn (students[i].studentNam...\n      PUSH [tag] 125\t\t\treturn (students[i].studentNam...\n      JUMP \t\t\treturn (students[i].studentNam...\n    tag 126\t\t\treturn (students[i].studentNam...\n      JUMPDEST \t\t\treturn (students[i].studentNam...\n      DUP3 \t\t\treturn (students[i].studentNam...\n      ADD \t\t\treturn (students[i].studentNam...\n      SWAP2 \t\t\treturn (students[i].studentNam...\n      SWAP1 \t\t\treturn (students[i].studentNam...\n      PUSH 0\t\t\treturn (students[i].studentNam...\n      MSTORE \t\t\treturn (students[i].studentNam...\n      PUSH 20\t\t\treturn (students[i].studentNam...\n      PUSH 0\t\t\treturn (students[i].studentNam...\n      KECCAK256 \t\t\treturn (students[i].studentNam...\n      SWAP1 \t\t\treturn (students[i].studentNam...\n    tag 127\t\t\treturn (students[i].studentNam...\n      JUMPDEST \t\t\treturn (students[i].studentNam...\n      DUP2 \t\t\treturn (students[i].studentNam...\n      SLOAD \t\t\treturn (students[i].studentNam...\n      DUP2 \t\t\treturn (students[i].studentNam...\n      MSTORE \t\t\treturn (students[i].studentNam...\n      SWAP1 \t\t\treturn (students[i].studentNam...\n      PUSH 1\t\t\treturn (students[i].studentNam...\n      ADD \t\t\treturn (students[i].studentNam...\n      SWAP1 \t\t\treturn (students[i].studentNam...\n      PUSH 20\t\t\treturn (students[i].studentNam...\n      ADD \t\t\treturn (students[i].studentNam...\n      DUP1 \t\t\treturn (students[i].studentNam...\n      DUP4 \t\t\treturn (students[i].studentNam...\n      GT \t\t\treturn (students[i].studentNam...\n      PUSH [tag] 127\t\t\treturn (students[i].studentNam...\n      JUMPI \t\t\treturn (students[i].studentNam...\n      DUP3 \t\t\treturn (students[i].studentNam...\n      SWAP1 \t\t\treturn (students[i].studentNam...\n      SUB \t\t\treturn (students[i].studentNam...\n      PUSH 1F\t\t\treturn (students[i].studentNam...\n      AND \t\t\treturn (students[i].studentNam...\n      DUP3 \t\t\treturn (students[i].studentNam...\n      ADD \t\t\treturn (students[i].studentNam...\n      SWAP2 \t\t\treturn (students[i].studentNam...\n    tag 125\t\t\treturn (students[i].studentNam...\n      JUMPDEST \t\t\treturn (students[i].studentNam...\n      POP \t\t\treturn (students[i].studentNam...\n      POP \t\t\treturn (students[i].studentNam...\n      POP \t\t\treturn (students[i].studentNam...\n      POP \t\t\treturn (students[i].studentNam...\n      POP \t\t\treturn (students[i].studentNam...\n      SWAP1 \t\t\treturn (students[i].studentNam...\n      POP \t\t\treturn (students[i].studentNam...\n      SWAP6 \t\t\treturn (students[i].studentNam...\n      POP \t\t\treturn (students[i].studentNam...\n      SWAP6 \t\t\treturn (students[i].studentNam...\n      POP \t\t\treturn (students[i].studentNam...\n      SWAP6 \t\t\treturn (students[i].studentNam...\n      POP \t\t\treturn (students[i].studentNam...\n      SWAP6 \t\t\treturn (students[i].studentNam...\n      POP \t\t\treturn (students[i].studentNam...\n      SWAP6 \t\t\treturn (students[i].studentNam...\n      POP \t\t\treturn (students[i].studentNam...\n      POP \t\t\treturn (students[i].studentNam...\n      PUSH [tag] 52\t\t\treturn (students[i].studentNam...\n      JUMP \t\t\treturn (students[i].studentNam...\n    tag 102\t\t\tif (compareStrings(students[i]...\n      JUMPDEST \t\t\tif (compareStrings(students[i]...\n      DUP1 \t\t\ti++\n      DUP1 \t\t\ti++\n      PUSH 1\t\t\ti++\n      ADD \t\t\ti++\n      SWAP2 \t\t\ti++\n      POP \t\t\ti++\n      POP \t\t\ti++\n      PUSH [tag] 56\t\t\tfor (uint256 i = 0; i < studen...\n      JUMP \t\t\tfor (uint256 i = 0; i < studen...\n    tag 57\t\t\tfor (uint256 i = 0; i < studen...\n      JUMPDEST \t\t\tfor (uint256 i = 0; i < studen...\n      POP \t\t\tfor (uint256 i = 0; i < studen...\n      PUSH 40\t\t\trevert(\"Student not found\")\n      MLOAD \t\t\trevert(\"Student not found\")\n      PUSH 8C379A000000000000000000000000000000000000000000000000000000000\t\t\trevert(\"Student not found\")\n      DUP2 \t\t\trevert(\"Student not found\")\n      MSTORE \t\t\trevert(\"Student not found\")\n      PUSH 4\t\t\trevert(\"Student not found\")\n      ADD \t\t\trevert(\"Student not found\")\n      PUSH [tag] 128\t\t\trevert(\"Student not found\")\n      SWAP1 \t\t\trevert(\"Student not found\")\n      PUSH [tag] 129\t\t\trevert(\"Student not found\")\n      JUMP \t\t\trevert(\"Student not found\")\n    tag 128\t\t\trevert(\"Student not found\")\n      JUMPDEST \t\t\trevert(\"Student not found\")\n      PUSH 40\t\t\trevert(\"Student not found\")\n      MLOAD \t\t\trevert(\"Student not found\")\n      DUP1 \t\t\trevert(\"Student not found\")\n      SWAP2 \t\t\trevert(\"Student not found\")\n      SUB \t\t\trevert(\"Student not found\")\n      SWAP1 \t\t\trevert(\"Student not found\")\n      REVERT \t\t\trevert(\"Student not found\")\n    tag 52\t\t\tfunction getStudentDataByQuery...\n      JUMPDEST \t\t\tfunction getStudentDataByQuery...\n      SWAP3 \t\t\tfunction getStudentDataByQuery...\n      SWAP6 \t\t\tfunction getStudentDataByQuery...\n      POP \t\t\tfunction getStudentDataByQuery...\n      SWAP3 \t\t\tfunction getStudentDataByQuery...\n      SWAP6 \t\t\tfunction getStudentDataByQuery...\n      SWAP1 \t\t\tfunction getStudentDataByQuery...\n      SWAP4 \t\t\tfunction getStudentDataByQuery...\n      POP \t\t\tfunction getStudentDataByQuery...\n      JUMP \t\t\tfunction getStudentDataByQuery...\n    tag 21\t\t\tfunction addStudentData(string...\n      JUMPDEST \t\t\tfunction addStudentData(string...\n      PUSH 40\t\t\tStudent(_studentName, _adminNa...\n      MLOAD \t\t\tStudent(_studentName, _adminNa...\n      DUP1 \t\t\tStudent(_studentName, _adminNa...\n      PUSH A0\t\t\tStudent(_studentName, _adminNa...\n      ADD \t\t\tStudent(_studentName, _adminNa...\n      PUSH 40\t\t\tStudent(_studentName, _adminNa...\n      MSTORE \t\t\tStudent(_studentName, _adminNa...\n      DUP1 \t\t\tStudent(_studentName, _adminNa...\n      DUP7 \t\t\t_studentName\n      DUP2 \t\t\tStudent(_studentName, _adminNa...\n      MSTORE \t\t\tStudent(_studentName, _adminNa...\n      PUSH 20\t\t\tStudent(_studentName, _adminNa...\n      ADD \t\t\tStudent(_studentName, _adminNa...\n      DUP6 \t\t\t_adminName\n      DUP2 \t\t\tStudent(_studentName, _adminNa...\n      MSTORE \t\t\tStudent(_studentName, _adminNa...\n      PUSH 20\t\t\tStudent(_studentName, _adminNa...\n      ADD \t\t\tStudent(_studentName, _adminNa...\n      DUP5 \t\t\t_ipfsHash\n      DUP2 \t\t\tStudent(_studentName, _adminNa...\n      MSTORE \t\t\tStudent(_studentName, _adminNa...\n      PUSH 20\t\t\tStudent(_studentName, _adminNa...\n      ADD \t\t\tStudent(_studentName, _adminNa...\n      DUP4 \t\t\t_blake3Hash\n      DUP2 \t\t\tStudent(_studentName, _adminNa...\n      MSTORE \t\t\tStudent(_studentName, _adminNa...\n      PUSH 20\t\t\tStudent(_studentName, _adminNa...\n      ADD \t\t\tStudent(_studentName, _adminNa...\n      DUP3 \t\t\t_timestamp\n      DUP2 \t\t\tStudent(_studentName, _adminNa...\n      MSTORE \t\t\tStudent(_studentName, _adminNa...\n      POP \t\t\tStudent(_studentName, _adminNa...\n      PUSH 0\t\t\tstudents\n      DUP1 \t\t\tstudents[studentCount]\n      PUSH 1\t\t\tstudentCount\n      SLOAD \t\t\tstudentCount\n      DUP2 \t\t\tstudents[studentCount]\n      MSTORE \t\t\tstudents[studentCount]\n      PUSH 20\t\t\tstudents[studentCount]\n      ADD \t\t\tstudents[studentCount]\n      SWAP1 \t\t\tstudents[studentCount]\n      DUP2 \t\t\tstudents[studentCount]\n      MSTORE \t\t\tstudents[studentCount]\n      PUSH 20\t\t\tstudents[studentCount]\n      ADD \t\t\tstudents[studentCount]\n      PUSH 0\t\t\tstudents[studentCount]\n      KECCAK256 \t\t\tstudents[studentCount]\n      PUSH 0\t\t\tstudents[studentCount] = Stude...\n      DUP3 \t\t\tstudents[studentCount] = Stude...\n      ADD \t\t\tstudents[studentCount] = Stude...\n      MLOAD \t\t\tstudents[studentCount] = Stude...\n      DUP2 \t\t\tstudents[studentCount] = Stude...\n      PUSH 0\t\t\tstudents[studentCount] = Stude...\n      ADD \t\t\tstudents[studentCount] = Stude...\n      SWAP1 \t\t\tstudents[studentCount] = Stude...\n      DUP2 \t\t\tstudents[studentCount] = Stude...\n      PUSH [tag] 131\t\t\tstudents[studentCount] = Stude...\n      SWAP2 \t\t\tstudents[studentCount] = Stude...\n      SWAP1 \t\t\tstudents[studentCount] = Stude...\n      PUSH [tag] 132\t\t\tstudents[studentCount] = Stude...\n      JUMP \t\t\tstudents[studentCount] = Stude...\n    tag 131\t\t\tstudents[studentCount] = Stude...\n      JUMPDEST \t\t\tstudents[studentCount] = Stude...\n      POP \t\t\tstudents[studentCount] = Stude...\n      PUSH 20\t\t\tstudents[studentCount] = Stude...\n      DUP3 \t\t\tstudents[studentCount] = Stude...\n      ADD \t\t\tstudents[studentCount] = Stude...\n      MLOAD \t\t\tstudents[studentCount] = Stude...\n      DUP2 \t\t\tstudents[studentCount] = Stude...\n      PUSH 1\t\t\tstudents[studentCount] = Stude...\n      ADD \t\t\tstudents[studentCount] = Stude...\n      SWAP1 \t\t\tstudents[studentCount] = Stude...\n      DUP2 \t\t\tstudents[studentCount] = Stude...\n      PUSH [tag] 133\t\t\tstudents[studentCount] = Stude...\n      SWAP2 \t\t\tstudents[studentCount] = Stude...\n      SWAP1 \t\t\tstudents[studentCount] = Stude...\n      PUSH [tag] 132\t\t\tstudents[studentCount] = Stude...\n      JUMP \t\t\tstudents[studentCount] = Stude...\n    tag 133\t\t\tstudents[studentCount] = Stude...\n      JUMPDEST \t\t\tstudents[studentCount] = Stude...\n      POP \t\t\tstudents[studentCount] = Stude...\n      PUSH 40\t\t\tstudents[studentCount] = Stude...\n      DUP3 \t\t\tstudents[studentCount] = Stude...\n      ADD \t\t\tstudents[studentCount] = Stude...\n      MLOAD \t\t\tstudents[studentCount] = Stude...\n      DUP2 \t\t\tstudents[studentCount] = Stude...\n      PUSH 2\t\t\tstudents[studentCount] = Stude...\n      ADD \t\t\tstudents[studentCount] = Stude...\n      SWAP1 \t\t\tstudents[studentCount] = Stude...\n      DUP2 \t\t\tstudents[studentCount] = Stude...\n      PUSH [tag] 134\t\t\tstudents[studentCount] = Stude...\n      SWAP2 \t\t\tstudents[studentCount] = Stude...\n      SWAP1 \t\t\tstudents[studentCount] = Stude...\n      PUSH [tag] 132\t\t\tstudents[studentCount] = Stude...\n      JUMP \t\t\tstudents[studentCount] = Stude...\n    tag 134\t\t\tstudents[studentCount] = Stude...\n      JUMPDEST \t\t\tstudents[studentCount] = Stude...\n      POP \t\t\tstudents[studentCount] = Stude...\n      PUSH 60\t\t\tstudents[studentCount] = Stude...\n      DUP3 \t\t\tstudents[studentCount] = Stude...\n      ADD \t\t\tstudents[studentCount] = Stude...\n      MLOAD \t\t\tstudents[studentCount] = Stude...\n      DUP2 \t\t\tstudents[studentCount] = Stude...\n      PUSH 3\t\t\tstudents[studentCount] = Stude...\n      ADD \t\t\tstudents[studentCount] = Stude...\n      SWAP1 \t\t\tstudents[studentCount] = Stude...\n      DUP2 \t\t\tstudents[studentCount] = Stude...\n      PUSH [tag] 135\t\t\tstudents[studentCount] = Stude...\n      SWAP2 \t\t\tstudents[studentCount] = Stude...\n      SWAP1 \t\t\tstudents[studentCount] = Stude...\n      PUSH [tag] 132\t\t\tstudents[studentCount] = Stude...\n      JUMP \t\t\tstudents[studentCount] = Stude...\n    tag 135\t\t\tstudents[studentCount] = Stude...\n      JUMPDEST \t\t\tstudents[studentCount] = Stude...\n      POP \t\t\tstudents[studentCount] = Stude...\n      PUSH 80\t\t\tstudents[studentCount] = Stude...\n      DUP3 \t\t\tstudents[studentCount] = Stude...\n      ADD \t\t\tstudents[studentCount] = Stude...\n      MLOAD \t\t\tstudents[studentCount] = Stude...\n      DUP2 \t\t\tstudents[studentCount] = Stude...\n      PUSH 4\t\t\tstudents[studentCount] = Stude...\n      ADD \t\t\tstudents[studentCount] = Stude...\n      SWAP1 \t\t\tstudents[studentCount] = Stude...\n      DUP2 \t\t\tstudents[studentCount] = Stude...\n      PUSH [tag] 136\t\t\tstudents[studentCount] = Stude...\n      SWAP2 \t\t\tstudents[studentCount] = Stude...\n      SWAP1 \t\t\tstudents[studentCount] = Stude...\n      PUSH [tag] 132\t\t\tstudents[studentCount] = Stude...\n      JUMP \t\t\tstudents[studentCount] = Stude...\n    tag 136\t\t\tstudents[studentCount] = Stude...\n      JUMPDEST \t\t\tstudents[studentCount] = Stude...\n      POP \t\t\tstudents[studentCount] = Stude...\n      SWAP1 \t\t\tstudents[studentCount] = Stude...\n      POP \t\t\tstudents[studentCount] = Stude...\n      POP \t\t\tstudents[studentCount] = Stude...\n      PUSH 1\t\t\tstudentCount\n      SLOAD \t\t\tstudentCount\n      PUSH 552D7A7B2CC9FC6DB021BCD1A30D794AAC5937D58DFF36AE3BBD24D18FE9085E\t\t\tStudentAdded(studentCount, _st...\n      DUP7 \t\t\t_studentName\n      DUP7 \t\t\t_adminName\n      DUP7 \t\t\t_ipfsHash\n      DUP7 \t\t\t_blake3Hash\n      DUP7 \t\t\t_timestamp\n      PUSH 40\t\t\tStudentAdded(studentCount, _st...\n      MLOAD \t\t\tStudentAdded(studentCount, _st...\n      PUSH [tag] 137\t\t\tStudentAdded(studentCount, _st...\n      SWAP6 \t\t\tStudentAdded(studentCount, _st...\n      SWAP5 \t\t\tStudentAdded(studentCount, _st...\n      SWAP4 \t\t\tStudentAdded(studentCount, _st...\n      SWAP3 \t\t\tStudentAdded(studentCount, _st...\n      SWAP2 \t\t\tStudentAdded(studentCount, _st...\n      SWAP1 \t\t\tStudentAdded(studentCount, _st...\n      PUSH [tag] 12\t\t\tStudentAdded(studentCount, _st...\n      JUMP \t\t\tStudentAdded(studentCount, _st...\n    tag 137\t\t\tStudentAdded(studentCount, _st...\n      JUMPDEST \t\t\tStudentAdded(studentCount, _st...\n      PUSH 40\t\t\tStudentAdded(studentCount, _st...\n      MLOAD \t\t\tStudentAdded(studentCount, _st...\n      DUP1 \t\t\tStudentAdded(studentCount, _st...\n      SWAP2 \t\t\tStudentAdded(studentCount, _st...\n      SUB \t\t\tStudentAdded(studentCount, _st...\n      SWAP1 \t\t\tStudentAdded(studentCount, _st...\n      LOG2 \t\t\tStudentAdded(studentCount, _st...\n      PUSH 1\t\t\tstudentCount\n      PUSH 0\t\t\tstudentCount\n      DUP2 \t\t\tstudentCount++\n      SLOAD \t\t\tstudentCount++\n      DUP1 \t\t\tstudentCount++\n      SWAP3 \t\t\tstudentCount++\n      SWAP2 \t\t\tstudentCount++\n      SWAP1 \t\t\tstudentCount++\n      PUSH [tag] 138\t\t\tstudentCount++\n      SWAP1 \t\t\tstudentCount++\n      PUSH [tag] 139\t\t\tstudentCount++\n      JUMP \t\t\tstudentCount++\n    tag 138\t\t\tstudentCount++\n      JUMPDEST \t\t\tstudentCount++\n      SWAP2 \t\t\tstudentCount++\n      SWAP1 \t\t\tstudentCount++\n      POP \t\t\tstudentCount++\n      SSTORE \t\t\tstudentCount++\n      POP \t\t\tstudentCount++\n      POP \t\t\tfunction addStudentData(string...\n      POP \t\t\tfunction addStudentData(string...\n      POP \t\t\tfunction addStudentData(string...\n      POP \t\t\tfunction addStudentData(string...\n      POP \t\t\tfunction addStudentData(string...\n      JUMP \t\t\tfunction addStudentData(string...\n    tag 23\t\t\tuint256 public studentCount\n      JUMPDEST \t\t\tuint256 public studentCount\n      PUSH 1\t\t\tuint256 public studentCount\n      SLOAD \t\t\tuint256 public studentCount\n      DUP2 \t\t\tuint256 public studentCount\n      JUMP \t\t\tuint256 public studentCount\n    tag 65\t\t\tfunction compareStrings(string...\n      JUMPDEST \t\t\tfunction compareStrings(string...\n      PUSH 0\t\t\tbool\n      DUP2 \t\t\tb\n      PUSH 40\t\t\tabi.encodePacked((b))\n      MLOAD \t\t\tabi.encodePacked((b))\n      PUSH 20\t\t\tabi.encodePacked((b))\n      ADD \t\t\tabi.encodePacked((b))\n      PUSH [tag] 141\t\t\tabi.encodePacked((b))\n      SWAP2 \t\t\tabi.encodePacked((b))\n      SWAP1 \t\t\tabi.encodePacked((b))\n      PUSH [tag] 142\t\t\tabi.encodePacked((b))\n      JUMP \t\t\tabi.encodePacked((b))\n    tag 141\t\t\tabi.encodePacked((b))\n      JUMPDEST \t\t\tabi.encodePacked((b))\n      PUSH 40\t\t\tabi.encodePacked((b))\n      MLOAD \t\t\tabi.encodePacked((b))\n      PUSH 20\t\t\tabi.encodePacked((b))\n      DUP2 \t\t\tabi.encodePacked((b))\n      DUP4 \t\t\tabi.encodePacked((b))\n      SUB \t\t\tabi.encodePacked((b))\n      SUB \t\t\tabi.encodePacked((b))\n      DUP2 \t\t\tabi.encodePacked((b))\n      MSTORE \t\t\tabi.encodePacked((b))\n      SWAP1 \t\t\tabi.encodePacked((b))\n      PUSH 40\t\t\tabi.encodePacked((b))\n      MSTORE \t\t\tabi.encodePacked((b))\n      DUP1 \t\t\tkeccak256(abi.encodePacked((b)...\n      MLOAD \t\t\tkeccak256(abi.encodePacked((b)...\n      SWAP1 \t\t\tkeccak256(abi.encodePacked((b)...\n      PUSH 20\t\t\tkeccak256(abi.encodePacked((b)...\n      ADD \t\t\tkeccak256(abi.encodePacked((b)...\n      KECCAK256 \t\t\tkeccak256(abi.encodePacked((b)...\n      DUP4 \t\t\ta\n      PUSH 40\t\t\tabi.encodePacked((a))\n      MLOAD \t\t\tabi.encodePacked((a))\n      PUSH 20\t\t\tabi.encodePacked((a))\n      ADD \t\t\tabi.encodePacked((a))\n      PUSH [tag] 143\t\t\tabi.encodePacked((a))\n      SWAP2 \t\t\tabi.encodePacked((a))\n      SWAP1 \t\t\tabi.encodePacked((a))\n      PUSH [tag] 142\t\t\tabi.encodePacked((a))\n      JUMP \t\t\tabi.encodePacked((a))\n    tag 143\t\t\tabi.encodePacked((a))\n      JUMPDEST \t\t\tabi.encodePacked((a))\n      PUSH 40\t\t\tabi.encodePacked((a))\n      MLOAD \t\t\tabi.encodePacked((a))\n      PUSH 20\t\t\tabi.encodePacked((a))\n      DUP2 \t\t\tabi.encodePacked((a))\n      DUP4 \t\t\tabi.encodePacked((a))\n      SUB \t\t\tabi.encodePacked((a))\n      SUB \t\t\tabi.encodePacked((a))\n      DUP2 \t\t\tabi.encodePacked((a))\n      MSTORE \t\t\tabi.encodePacked((a))\n      SWAP1 \t\t\tabi.encodePacked((a))\n      PUSH 40\t\t\tabi.encodePacked((a))\n      MSTORE \t\t\tabi.encodePacked((a))\n      DUP1 \t\t\tkeccak256(abi.encodePacked((a)...\n      MLOAD \t\t\tkeccak256(abi.encodePacked((a)...\n      SWAP1 \t\t\tkeccak256(abi.encodePacked((a)...\n      PUSH 20\t\t\tkeccak256(abi.encodePacked((a)...\n      ADD \t\t\tkeccak256(abi.encodePacked((a)...\n      KECCAK256 \t\t\tkeccak256(abi.encodePacked((a)...\n      EQ \t\t\tkeccak256(abi.encodePacked((a)...\n      SWAP1 \t\t\treturn (keccak256(abi.encodePa...\n      POP \t\t\treturn (keccak256(abi.encodePa...\n      SWAP3 \t\t\tfunction compareStrings(string...\n      SWAP2 \t\t\tfunction compareStrings(string...\n      POP \t\t\tfunction compareStrings(string...\n      POP \t\t\tfunction compareStrings(string...\n      JUMP \t\t\tfunction compareStrings(string...\n    tag 144\t\t\t-License-Identifier: MIT\\r\\npr...\n      JUMPDEST \t\t\t-License-Identifier: MIT\\r\\npr...\n      PUSH 0\t\t\tsolidi\n      PUSH 40\t\t\ten\n      MLOAD \t\t\tt Student\n      SWAP1 \t\t\t\\n\\r\\ncontract Student\n      POP \t\t\t\\n\\r\\ncontract Student\n      SWAP1 \t\t\t-License-Identifier: MIT\\r\\npr...\n      JUMP \t\t\t-License-Identifier: MIT\\r\\npr...\n    tag 145\t\t\t{\\r\\n    struct Student {\\r\\n ...\n      JUMPDEST \t\t\t{\\r\\n    struct Student {\\r\\n ...\n      PUSH 0\t\t\t \n      DUP1 \t\t\t\\n\n      REVERT \t\t\tsHash;\\r\\n    \n    tag 146\t\t\tlake3Hash;\\r\\n        string t...\n      JUMPDEST \t\t\tlake3Hash;\\r\\n        string t...\n      PUSH 0\t\t\t)\n      DUP1 \t\t\te\n      REVERT \t\t\t=> Student) \n    tag 147\t\t\tnts;\\r\\n    uint256 public stu...\n      JUMPDEST \t\t\tnts;\\r\\n    uint256 public stu...\n      PUSH 0\t\t\t;\\r\\n\\r\\n  \n      DUP2 \t\t\tint25\n      SWAP1 \t\t\tdentAdded(uint25\n      POP \t\t\tdentAdded(uint25\n      SWAP2 \t\t\tnts;\\r\\n    uint256 public stu...\n      SWAP1 \t\t\tnts;\\r\\n    uint256 public stu...\n      POP \t\t\tnts;\\r\\n    uint256 public stu...\n      JUMP \t\t\tnts;\\r\\n    uint256 public stu...\n    tag 148\t\t\tdex, string studentName, strin...\n      JUMPDEST \t\t\tdex, string studentName, strin...\n      PUSH [tag] 194\t\t\tHash, string timestamp);\n      DUP2 \t\t\ttamp)\n      PUSH [tag] 147\t\t\tHash, string timestamp);\n      JUMP \t\t\tHash, string timestamp);\n    tag 194\t\t\tHash, string timestamp);\n      JUMPDEST \t\t\tHash, string timestamp);\n      DUP2 \t\t\t blak\n      EQ \t\t\ting blake3Hash, string timesta...\n      PUSH [tag] 195\t\t\tsHash, string blake3Hash, stri...\n      JUMPI \t\t\tsHash, string blake3Hash, stri...\n      PUSH 0\t\t\tn\n      DUP1 \t\t\tt\n      REVERT \t\t\t   function \n    tag 195\t\t\tsHash, string blake3Hash, stri...\n      JUMPDEST \t\t\tsHash, string blake3Hash, stri...\n      POP \t\t\tdex, string studentName, strin...\n      JUMP \t\t\tdex, string studentName, strin...\n    tag 149\t\t\t(string memory _studentName, s...\n      JUMPDEST \t\t\t(string memory _studentName, s...\n      PUSH 0\t\t\tminNa\n      DUP2 \t\t\tng mem\n      CALLDATALOAD \t\t\tpfsHash, string memo\n      SWAP1 \t\t\tmemory _ipfsHash, string memo\n      POP \t\t\tmemory _ipfsHash, string memo\n      PUSH [tag] 197\t\t\t3Hash, string memory _timestam...\n      DUP2 \t\t\ttamp)\n      PUSH [tag] 148\t\t\t3Hash, string memory _timestam...\n      JUMP \t\t\t3Hash, string memory _timestam...\n    tag 197\t\t\t3Hash, string memory _timestam...\n      JUMPDEST \t\t\t3Hash, string memory _timestam...\n      SWAP3 \t\t\t(string memory _studentName, s...\n      SWAP2 \t\t\t(string memory _studentName, s...\n      POP \t\t\t(string memory _studentName, s...\n      POP \t\t\t(string memory _studentName, s...\n      JUMP \t\t\t(string memory _studentName, s...\n    tag 9\t\t\t      students[studentCount] =...\n      JUMPDEST \t\t\t      students[studentCount] =...\n      PUSH 0\t\t\tName, \n      PUSH 20\t\t\t  \n      DUP3 \t\t\tamp);\\r\\n  \n      DUP5 \t\t\t, _time\n      SUB \t\t\tHash, _timestamp);\\r\\n   \n      SLT \t\t\take3Hash, _timestamp);\\r\\n    ...\n      ISZERO \t\t\t_blake3Hash, _timestamp);\\r\\n ...\n      PUSH [tag] 199\t\t\t_blake3Hash, _timestamp);\\r\\n ...\n      JUMPI \t\t\t_blake3Hash, _timestamp);\\r\\n ...\n      PUSH [tag] 200\t\t\tt StudentAdded(studentCount, _...\n      PUSH [tag] 145\t\t\tt StudentAdded(studentCount, _...\n      JUMP \t\t\tt StudentAdded(studentCount, _...\n    tag 200\t\t\tt StudentAdded(studentCount, _...\n      JUMPDEST \t\t\tt StudentAdded(studentCount, _...\n    tag 199\t\t\t_blake3Hash, _timestamp);\\r\\n ...\n      JUMPDEST \t\t\t_blake3Hash, _timestamp);\\r\\n ...\n      PUSH 0\t\t\t \n      PUSH [tag] 201\t\t\tudentDataByQuery(string memory...\n      DUP5 \t\t\ting mem\n      DUP3 \t\t\tType, \n      DUP6 \t\t\temory que\n      ADD \t\t\tng memory queryType, s\n      PUSH [tag] 149\t\t\tudentDataByQuery(string memory...\n      JUMP \t\t\tudentDataByQuery(string memory...\n    tag 201\t\t\tudentDataByQuery(string memory...\n      JUMPDEST \t\t\tudentDataByQuery(string memory...\n      SWAP2 \t\t\ttion getStudentDataByQuery(str...\n      POP \t\t\ttion getStudentDataByQuery(str...\n      POP \t\t\t\\r\\n        studentCount++;\\r\\...\n      SWAP3 \t\t\t      students[studentCount] =...\n      SWAP2 \t\t\t      students[studentCount] =...\n      POP \t\t\t      students[studentCount] =...\n      POP \t\t\t      students[studentCount] =...\n      JUMP \t\t\t      students[studentCount] =...\n    tag 150\t\t\tiew returns (string memory stu...\n      JUMPDEST \t\t\tiew returns (string memory stu...\n      PUSH 0\t\t\ty admi\n      DUP2 \t\t\th, st\n      MLOAD \t\t\tpfsHash, str\n      SWAP1 \t\t\tg memory ipfsHash, str\n      POP \t\t\tg memory ipfsHash, str\n      SWAP2 \t\t\tiew returns (string memory stu...\n      SWAP1 \t\t\tiew returns (string memory stu...\n      POP \t\t\tiew returns (string memory stu...\n      JUMP \t\t\tiew returns (string memory stu...\n    tag 151\t\t\take3Hash, string memory timest...\n      JUMPDEST \t\t\take3Hash, string memory timest...\n      PUSH 0\t\t\t added yet\"\n      DUP3 \t\t\t256 i \n      DUP3 \t\t\t(ui\n      MSTORE \t\t\t   for (uint256 i =\n      PUSH 20\t\t\t    \n      DUP3 \t\t\t\\r\\n \n      ADD \t\t\t+) {\\r\\n        \n      SWAP1 \t\t\ttudentCount; i++) {\\r\\n       ...\n      POP \t\t\ttudentCount; i++) {\\r\\n       ...\n      SWAP3 \t\t\take3Hash, string memory timest...\n      SWAP2 \t\t\take3Hash, string memory timest...\n      POP \t\t\take3Hash, string memory timest...\n      POP \t\t\take3Hash, string memory timest...\n      JUMP \t\t\take3Hash, string memory timest...\n    tag 152\t\t\tareStrings(students[i].student...\n      JUMPDEST \t\t\tareStrings(students[i].student...\n      PUSH 0\t\t\te\n    tag 205\t\t\t {\\r\\n                return (...\n      JUMPDEST \t\t\t {\\r\\n                return (...\n      DUP4 \t\t\t      \n      DUP2 \t\t\t \n      LT \t\t\t            r\n      ISZERO \t\t\t {\\r\\n                return (...\n      PUSH [tag] 207\t\t\t {\\r\\n                return (...\n      JUMPI \t\t\t {\\r\\n                return (...\n      DUP1 \t\t\tt\n      DUP3 \t\t\tsh,\n      ADD \t\t\tfsHash, stu\n      MLOAD \t\t\t[i].ipfsHash, stud\n      DUP2 \t\t\te\n      DUP5 \t\t\t st\n      ADD \t\t\tame, studen\n      MSTORE \t\t\t.adminName, students[i].ipfsHa...\n      PUSH 20\t\t\t[i\n      DUP2 \t\t\tn\n      ADD \t\t\ttudents[i]\n      SWAP1 \t\t\trn (students[i]\n      POP \t\t\trn (students[i]\n      PUSH [tag] 205\t\t\t {\\r\\n                return (...\n      JUMP \t\t\t {\\r\\n                return (...\n    tag 207\t\t\t {\\r\\n                return (...\n      JUMPDEST \t\t\t {\\r\\n                return (...\n      PUSH 0\t\t\t \n      DUP5 \t\t\tstamp)\n      DUP5 \t\t\t.ti\n      ADD \t\t\ts[i].timestamp);\n      MSTORE \t\t\tstudents[i].timestamp);\\r\\n  \n      POP \t\t\tngs(queryType, \"studentName\"))...\n      POP \t\t\tareStrings(students[i].student...\n      POP \t\t\tareStrings(students[i].student...\n      POP \t\t\tareStrings(students[i].student...\n      JUMP \t\t\tareStrings(students[i].student...\n    tag 153\t\t\t            if (compareStrings...\n      JUMPDEST \t\t\t            if (compareStrings...\n      PUSH 0\t\t\t].ipfs\n      PUSH 1F\t\t\t, \n      NOT \t\t\tType, \"\n      PUSH 1F\t\t\tqu\n      DUP4 \t\t\ttring\n      ADD \t\t\tareStrings(que\n      AND \t\t\tcompareStrings(queryType, \"i\n      SWAP1 \t\t\tValue) && compareStrings(query...\n      POP \t\t\tValue) && compareStrings(query...\n      SWAP2 \t\t\t            if (compareStrings...\n      SWAP1 \t\t\t            if (compareStrings...\n      POP \t\t\t            if (compareStrings...\n      JUMP \t\t\t            if (compareStrings...\n    tag 154\t\t\t\\r\\n                return (st...\n      JUMPDEST \t\t\t\\r\\n                return (st...\n      PUSH 0\t\t\tfsH\n      PUSH [tag] 210\t\t\tsh, students[i].timestamp);\\r\\...\n      DUP3 \t\t\t     \n      PUSH [tag] 150\t\t\tsh, students[i].timestamp);\\r\\...\n      JUMP \t\t\tsh, students[i].timestamp);\\r\\...\n    tag 210\t\t\tsh, students[i].timestamp);\\r\\...\n      JUMPDEST \t\t\tsh, students[i].timestamp);\\r\\...\n      PUSH [tag] 211\t\t\t        revert(\"Student not fo...\n      DUP2 \t\t\tareStr\n      DUP6 \t\t\t co\n      PUSH [tag] 151\t\t\t        revert(\"Student not fo...\n      JUMP \t\t\t        revert(\"Student not fo...\n    tag 211\t\t\t        revert(\"Student not fo...\n      JUMPDEST \t\t\t        revert(\"Student not fo...\n      SWAP4 \t\t\t    }\\r\\n        revert(\"Stude...\n      POP \t\t\t    }\\r\\n        revert(\"Stude...\n      PUSH [tag] 212\t\t\tg memory a, string memory b) i...\n      DUP2 \t\t\t{\\r\\n   \n      DUP6 \t\t\tool\n      PUSH 20\t\t\turns\n      DUP7 \t\t\ture r\n      ADD \t\t\tal pure returns \n      PUSH [tag] 152\t\t\tg memory a, string memory b) i...\n      JUMP \t\t\tg memory a, string memory b) i...\n    tag 212\t\t\tg memory a, string memory b) i...\n      JUMPDEST \t\t\tg memory a, string memory b) i...\n      PUSH [tag] 213\t\t\t.encodePacked((a))) == keccak\n      DUP2 \t\t\t kecca\n      PUSH [tag] 153\t\t\t.encodePacked((a))) == keccak\n      JUMP \t\t\t.encodePacked((a))) == keccak\n    tag 213\t\t\t.encodePacked((a))) == keccak\n      JUMPDEST \t\t\t.encodePacked((a))) == keccak\n      DUP5 \t\t\t6(a\n      ADD \t\t\tak256(abi.encodePacked((a))) =...\n      SWAP2 \t\t\tn (keccak256(abi.encodePacked(...\n      POP \t\t\tn (keccak256(abi.encodePacked(...\n      POP \t\t\tsh, students[i].blake3Hash, st...\n      SWAP3 \t\t\t\\r\\n                return (st...\n      SWAP2 \t\t\t\\r\\n                return (st...\n      POP \t\t\t\\r\\n                return (st...\n      POP \t\t\t\\r\\n                return (st...\n      JUMP \t\t\t\\r\\n                return (st...\n    tag 12\t\t\tePacked((b))));\\r\\n    }\\r\\n}\\...\n      JUMPDEST \t\t\tePacked((b))));\\r\\n    }\\r\\n}\\...\n      PUSH 0\t\t\t\n      PUSH A0\t\t\t\n      DUP3 \t\t\t\n      ADD \t\t\t\n      SWAP1 \t\t\t\n      POP \t\t\t\n      DUP2 \t\t\t\n      DUP2 \t\t\t\n      SUB \t\t\t\n      PUSH 0\t\t\t\n      DUP4 \t\t\t\n      ADD \t\t\t\n      MSTORE \t\t\t\n      PUSH [tag] 215\t\t\t\n      DUP2 \t\t\t\n      DUP9 \t\t\t\n      PUSH [tag] 154\t\t\t\n      JUMP \t\t\t\n    tag 215\t\t\t\n      JUMPDEST \t\t\t\n      SWAP1 \t\t\t\n      POP \t\t\t\n      DUP2 \t\t\t\n      DUP2 \t\t\t\n      SUB \t\t\t\n      PUSH 20\t\t\t\n      DUP4 \t\t\t\n      ADD \t\t\t\n      MSTORE \t\t\t\n      PUSH [tag] 216\t\t\t\n      DUP2 \t\t\t\n      DUP8 \t\t\t\n      PUSH [tag] 154\t\t\t\n      JUMP \t\t\t\n    tag 216\t\t\t\n      JUMPDEST \t\t\t\n      SWAP1 \t\t\t\n      POP \t\t\t\n      DUP2 \t\t\t\n      DUP2 \t\t\t\n      SUB \t\t\t\n      PUSH 40\t\t\t\n      DUP4 \t\t\t\n      ADD \t\t\t\n      MSTORE \t\t\t\n      PUSH [tag] 217\t\t\t\n      DUP2 \t\t\t\n      DUP7 \t\t\t\n      PUSH [tag] 154\t\t\t\n      JUMP \t\t\t\n    tag 217\t\t\t\n      JUMPDEST \t\t\t\n      SWAP1 \t\t\t\n      POP \t\t\t\n      DUP2 \t\t\t\n      DUP2 \t\t\t\n      SUB \t\t\t\n      PUSH 60\t\t\t\n      DUP4 \t\t\t\n      ADD \t\t\t\n      MSTORE \t\t\t\n      PUSH [tag] 218\t\t\t\n      DUP2 \t\t\t\n      DUP6 \t\t\t\n      PUSH [tag] 154\t\t\t\n      JUMP \t\t\t\n    tag 218\t\t\t\n      JUMPDEST \t\t\t\n      SWAP1 \t\t\t\n      POP \t\t\t\n      DUP2 \t\t\t\n      DUP2 \t\t\t\n      SUB \t\t\t\n      PUSH 80\t\t\t\n      DUP4 \t\t\t\n      ADD \t\t\t\n      MSTORE \t\t\t\n      PUSH [tag] 219\t\t\t\n      DUP2 \t\t\t\n      DUP5 \t\t\t\n      PUSH [tag] 154\t\t\t\n      JUMP \t\t\t\n    tag 219\t\t\t\n      JUMPDEST \t\t\t\n      SWAP1 \t\t\t\n      POP \t\t\t\n      SWAP7 \t\t\tePacked((b))));\\r\\n    }\\r\\n}\\...\n      SWAP6 \t\t\tePacked((b))));\\r\\n    }\\r\\n}\\...\n      POP \t\t\tePacked((b))));\\r\\n    }\\r\\n}\\...\n      POP \t\t\tePacked((b))));\\r\\n    }\\r\\n}\\...\n      POP \t\t\tePacked((b))));\\r\\n    }\\r\\n}\\...\n      POP \t\t\tePacked((b))));\\r\\n    }\\r\\n}\\...\n      POP \t\t\tePacked((b))));\\r\\n    }\\r\\n}\\...\n      POP \t\t\tePacked((b))));\\r\\n    }\\r\\n}\\...\n      JUMP \t\t\tePacked((b))));\\r\\n    }\\r\\n}\\...\n    tag 155\t\t\t\n      JUMPDEST \t\t\t\n      PUSH 0\t\t\t\n      DUP1 \t\t\t\n      REVERT \t\t\t\n    tag 156\t\t\t\n      JUMPDEST \t\t\t\n      PUSH 0\t\t\t\n      DUP1 \t\t\t\n      REVERT \t\t\t\n    tag 157\t\t\t\n      JUMPDEST \t\t\t\n      PUSH 4E487B7100000000000000000000000000000000000000000000000000000000\t\t\t\n      PUSH 0\t\t\t\n      MSTORE \t\t\t\n      PUSH 41\t\t\t\n      PUSH 4\t\t\t\n      MSTORE \t\t\t\n      PUSH 24\t\t\t\n      PUSH 0\t\t\t\n      REVERT \t\t\t\n    tag 158\t\t\t\n      JUMPDEST \t\t\t\n      PUSH [tag] 224\t\t\t\n      DUP3 \t\t\t\n      PUSH [tag] 153\t\t\t\n      JUMP \t\t\t\n    tag 224\t\t\t\n      JUMPDEST \t\t\t\n      DUP2 \t\t\t\n      ADD \t\t\t\n      DUP2 \t\t\t\n      DUP2 \t\t\t\n      LT \t\t\t\n      PUSH FFFFFFFFFFFFFFFF\t\t\t\n      DUP3 \t\t\t\n      GT \t\t\t\n      OR \t\t\t\n      ISZERO \t\t\t\n      PUSH [tag] 225\t\t\t\n      JUMPI \t\t\t\n      PUSH [tag] 226\t\t\t\n      PUSH [tag] 157\t\t\t\n      JUMP \t\t\t\n    tag 226\t\t\t\n      JUMPDEST \t\t\t\n    tag 225\t\t\t\n      JUMPDEST \t\t\t\n      DUP1 \t\t\t\n      PUSH 40\t\t\t\n      MSTORE \t\t\t\n      POP \t\t\t\n      POP \t\t\t\n      POP \t\t\t\n      JUMP \t\t\t\n    tag 159\t\t\t\n      JUMPDEST \t\t\t\n      PUSH 0\t\t\t\n      PUSH [tag] 228\t\t\t\n      PUSH [tag] 144\t\t\t\n      JUMP \t\t\t\n    tag 228\t\t\t\n      JUMPDEST \t\t\t\n      SWAP1 \t\t\t\n      POP \t\t\t\n      PUSH [tag] 229\t\t\t\n      DUP3 \t\t\t\n      DUP3 \t\t\t\n      PUSH [tag] 158\t\t\t\n      JUMP \t\t\t\n    tag 229\t\t\t\n      JUMPDEST \t\t\t\n      SWAP2 \t\t\t\n      SWAP1 \t\t\t\n      POP \t\t\t\n      JUMP \t\t\t\n    tag 160\t\t\t\n      JUMPDEST \t\t\t\n      PUSH 0\t\t\t\n      PUSH FFFFFFFFFFFFFFFF\t\t\t\n      DUP3 \t\t\t\n      GT \t\t\t\n      ISZERO \t\t\t\n      PUSH [tag] 231\t\t\t\n      JUMPI \t\t\t\n      PUSH [tag] 232\t\t\t\n      PUSH [tag] 157\t\t\t\n      JUMP \t\t\t\n    tag 232\t\t\t\n      JUMPDEST \t\t\t\n    tag 231\t\t\t\n      JUMPDEST \t\t\t\n      PUSH [tag] 233\t\t\t\n      DUP3 \t\t\t\n      PUSH [tag] 153\t\t\t\n      JUMP \t\t\t\n    tag 233\t\t\t\n      JUMPDEST \t\t\t\n      SWAP1 \t\t\t\n      POP \t\t\t\n      PUSH 20\t\t\t\n      DUP2 \t\t\t\n      ADD \t\t\t\n      SWAP1 \t\t\t\n      POP \t\t\t\n      SWAP2 \t\t\t\n      SWAP1 \t\t\t\n      POP \t\t\t\n      JUMP \t\t\t\n    tag 161\t\t\t\n      JUMPDEST \t\t\t\n      DUP3 \t\t\t\n      DUP2 \t\t\t\n      DUP4 \t\t\t\n      CALLDATACOPY \t\t\t\n      PUSH 0\t\t\t\n      DUP4 \t\t\t\n      DUP4 \t\t\t\n      ADD \t\t\t\n      MSTORE \t\t\t\n      POP \t\t\t\n      POP \t\t\t\n      POP \t\t\t\n      JUMP \t\t\t\n    tag 162\t\t\t\n      JUMPDEST \t\t\t\n      PUSH 0\t\t\t\n      PUSH [tag] 236\t\t\t\n      PUSH [tag] 237\t\t\t\n      DUP5 \t\t\t\n      PUSH [tag] 160\t\t\t\n      JUMP \t\t\t\n    tag 237\t\t\t\n      JUMPDEST \t\t\t\n      PUSH [tag] 159\t\t\t\n      JUMP \t\t\t\n    tag 236\t\t\t\n      JUMPDEST \t\t\t\n      SWAP1 \t\t\t\n      POP \t\t\t\n      DUP3 \t\t\t\n      DUP2 \t\t\t\n      MSTORE \t\t\t\n      PUSH 20\t\t\t\n      DUP2 \t\t\t\n      ADD \t\t\t\n      DUP5 \t\t\t\n      DUP5 \t\t\t\n      DUP5 \t\t\t\n      ADD \t\t\t\n      GT \t\t\t\n      ISZERO \t\t\t\n      PUSH [tag] 238\t\t\t\n      JUMPI \t\t\t\n      PUSH [tag] 239\t\t\t\n      PUSH [tag] 156\t\t\t\n      JUMP \t\t\t\n    tag 239\t\t\t\n      JUMPDEST \t\t\t\n    tag 238\t\t\t\n      JUMPDEST \t\t\t\n      PUSH [tag] 240\t\t\t\n      DUP5 \t\t\t\n      DUP3 \t\t\t\n      DUP6 \t\t\t\n      PUSH [tag] 161\t\t\t\n      JUMP \t\t\t\n    tag 240\t\t\t\n      JUMPDEST \t\t\t\n      POP \t\t\t\n      SWAP4 \t\t\t\n      SWAP3 \t\t\t\n      POP \t\t\t\n      POP \t\t\t\n      POP \t\t\t\n      JUMP \t\t\t\n    tag 163\t\t\t\n      JUMPDEST \t\t\t\n      PUSH 0\t\t\t\n      DUP3 \t\t\t\n      PUSH 1F\t\t\t\n      DUP4 \t\t\t\n      ADD \t\t\t\n      SLT \t\t\t\n      PUSH [tag] 242\t\t\t\n      JUMPI \t\t\t\n      PUSH [tag] 243\t\t\t\n      PUSH [tag] 155\t\t\t\n      JUMP \t\t\t\n    tag 243\t\t\t\n      JUMPDEST \t\t\t\n    tag 242\t\t\t\n      JUMPDEST \t\t\t\n      DUP2 \t\t\t\n      CALLDATALOAD \t\t\t\n      PUSH [tag] 244\t\t\t\n      DUP5 \t\t\t\n      DUP3 \t\t\t\n      PUSH 20\t\t\t\n      DUP7 \t\t\t\n      ADD \t\t\t\n      PUSH [tag] 162\t\t\t\n      JUMP \t\t\t\n    tag 244\t\t\t\n      JUMPDEST \t\t\t\n      SWAP2 \t\t\t\n      POP \t\t\t\n      POP \t\t\t\n      SWAP3 \t\t\t\n      SWAP2 \t\t\t\n      POP \t\t\t\n      POP \t\t\t\n      JUMP \t\t\t\n    tag 15\t\t\t\n      JUMPDEST \t\t\t\n      PUSH 0\t\t\t\n      DUP1 \t\t\t\n      PUSH 40\t\t\t\n      DUP4 \t\t\t\n      DUP6 \t\t\t\n      SUB \t\t\t\n      SLT \t\t\t\n      ISZERO \t\t\t\n      PUSH [tag] 246\t\t\t\n      JUMPI \t\t\t\n      PUSH [tag] 247\t\t\t\n      PUSH [tag] 145\t\t\t\n      JUMP \t\t\t\n    tag 247\t\t\t\n      JUMPDEST \t\t\t\n    tag 246\t\t\t\n      JUMPDEST \t\t\t\n      PUSH 0\t\t\t\n      DUP4 \t\t\t\n      ADD \t\t\t\n      CALLDATALOAD \t\t\t\n      PUSH FFFFFFFFFFFFFFFF\t\t\t\n      DUP2 \t\t\t\n      GT \t\t\t\n      ISZERO \t\t\t\n      PUSH [tag] 248\t\t\t\n      JUMPI \t\t\t\n      PUSH [tag] 249\t\t\t\n      PUSH [tag] 146\t\t\t\n      JUMP \t\t\t\n    tag 249\t\t\t\n      JUMPDEST \t\t\t\n    tag 248\t\t\t\n      JUMPDEST \t\t\t\n      PUSH [tag] 250\t\t\t\n      DUP6 \t\t\t\n      DUP3 \t\t\t\n      DUP7 \t\t\t\n      ADD \t\t\t\n      PUSH [tag] 163\t\t\t\n      JUMP \t\t\t\n    tag 250\t\t\t\n      JUMPDEST \t\t\t\n      SWAP3 \t\t\t\n      POP \t\t\t\n      POP \t\t\t\n      PUSH 20\t\t\t\n      DUP4 \t\t\t\n      ADD \t\t\t\n      CALLDATALOAD \t\t\t\n      PUSH FFFFFFFFFFFFFFFF\t\t\t\n      DUP2 \t\t\t\n      GT \t\t\t\n      ISZERO \t\t\t\n      PUSH [tag] 251\t\t\t\n      JUMPI \t\t\t\n      PUSH [tag] 252\t\t\t\n      PUSH [tag] 146\t\t\t\n      JUMP \t\t\t\n    tag 252\t\t\t\n      JUMPDEST \t\t\t\n    tag 251\t\t\t\n      JUMPDEST \t\t\t\n      PUSH [tag] 253\t\t\t\n      DUP6 \t\t\t\n      DUP3 \t\t\t\n      DUP7 \t\t\t\n      ADD \t\t\t\n      PUSH [tag] 163\t\t\t\n      JUMP \t\t\t\n    tag 253\t\t\t\n      JUMPDEST \t\t\t\n      SWAP2 \t\t\t\n      POP \t\t\t\n      POP \t\t\t\n      SWAP3 \t\t\t\n      POP \t\t\t\n      SWAP3 \t\t\t\n      SWAP1 \t\t\t\n      POP \t\t\t\n      JUMP \t\t\t\n    tag 20\t\t\t\n      JUMPDEST \t\t\t\n      PUSH 0\t\t\t\n      DUP1 \t\t\t\n      PUSH 0\t\t\t\n      DUP1 \t\t\t\n      PUSH 0\t\t\t\n      PUSH A0\t\t\t\n      DUP7 \t\t\t\n      DUP9 \t\t\t\n      SUB \t\t\t\n      SLT \t\t\t\n      ISZERO \t\t\t\n      PUSH [tag] 255\t\t\t\n      JUMPI \t\t\t\n      PUSH [tag] 256\t\t\t\n      PUSH [tag] 145\t\t\t\n      JUMP \t\t\t\n    tag 256\t\t\t\n      JUMPDEST \t\t\t\n    tag 255\t\t\t\n      JUMPDEST \t\t\t\n      PUSH 0\t\t\t\n      DUP7 \t\t\t\n      ADD \t\t\t\n      CALLDATALOAD \t\t\t\n      PUSH FFFFFFFFFFFFFFFF\t\t\t\n      DUP2 \t\t\t\n      GT \t\t\t\n      ISZERO \t\t\t\n      PUSH [tag] 257\t\t\t\n      JUMPI \t\t\t\n      PUSH [tag] 258\t\t\t\n      PUSH [tag] 146\t\t\t\n      JUMP \t\t\t\n    tag 258\t\t\t\n      JUMPDEST \t\t\t\n    tag 257\t\t\t\n      JUMPDEST \t\t\t\n      PUSH [tag] 259\t\t\t\n      DUP9 \t\t\t\n      DUP3 \t\t\t\n      DUP10 \t\t\t\n      ADD \t\t\t\n      PUSH [tag] 163\t\t\t\n      JUMP \t\t\t\n    tag 259\t\t\t\n      JUMPDEST \t\t\t\n      SWAP6 \t\t\t\n      POP \t\t\t\n      POP \t\t\t\n      PUSH 20\t\t\t\n      DUP7 \t\t\t\n      ADD \t\t\t\n      CALLDATALOAD \t\t\t\n      PUSH FFFFFFFFFFFFFFFF\t\t\t\n      DUP2 \t\t\t\n      GT \t\t\t\n      ISZERO \t\t\t\n      PUSH [tag] 260\t\t\t\n      JUMPI \t\t\t\n      PUSH [tag] 261\t\t\t\n      PUSH [tag] 146\t\t\t\n      JUMP \t\t\t\n    tag 261\t\t\t\n      JUMPDEST \t\t\t\n    tag 260\t\t\t\n      JUMPDEST \t\t\t\n      PUSH [tag] 262\t\t\t\n      DUP9 \t\t\t\n      DUP3 \t\t\t\n      DUP10 \t\t\t\n      ADD \t\t\t\n      PUSH [tag] 163\t\t\t\n      JUMP \t\t\t\n    tag 262\t\t\t\n      JUMPDEST \t\t\t\n      SWAP5 \t\t\t\n      POP \t\t\t\n      POP \t\t\t\n      PUSH 40\t\t\t\n      DUP7 \t\t\t\n      ADD \t\t\t\n      CALLDATALOAD \t\t\t\n      PUSH FFFFFFFFFFFFFFFF\t\t\t\n      DUP2 \t\t\t\n      GT \t\t\t\n      ISZERO \t\t\t\n      PUSH [tag] 263\t\t\t\n      JUMPI \t\t\t\n      PUSH [tag] 264\t\t\t\n      PUSH [tag] 146\t\t\t\n      JUMP \t\t\t\n    tag 264\t\t\t\n      JUMPDEST \t\t\t\n    tag 263\t\t\t\n      JUMPDEST \t\t\t\n      PUSH [tag] 265\t\t\t\n      DUP9 \t\t\t\n      DUP3 \t\t\t\n      DUP10 \t\t\t\n      ADD \t\t\t\n      PUSH [tag] 163\t\t\t\n      JUMP \t\t\t\n    tag 265\t\t\t\n      JUMPDEST \t\t\t\n      SWAP4 \t\t\t\n      POP \t\t\t\n      POP \t\t\t\n      PUSH 60\t\t\t\n      DUP7 \t\t\t\n      ADD \t\t\t\n      CALLDATALOAD \t\t\t\n      PUSH FFFFFFFFFFFFFFFF\t\t\t\n      DUP2 \t\t\t\n      GT \t\t\t\n      ISZERO \t\t\t\n      PUSH [tag] 266\t\t\t\n      JUMPI \t\t\t\n      PUSH [tag] 267\t\t\t\n      PUSH [tag] 146\t\t\t\n      JUMP \t\t\t\n    tag 267\t\t\t\n      JUMPDEST \t\t\t\n    tag 266\t\t\t\n      JUMPDEST \t\t\t\n      PUSH [tag] 268\t\t\t\n      DUP9 \t\t\t\n      DUP3 \t\t\t\n      DUP10 \t\t\t\n      ADD \t\t\t\n      PUSH [tag] 163\t\t\t\n      JUMP \t\t\t\n    tag 268\t\t\t\n      JUMPDEST \t\t\t\n      SWAP3 \t\t\t\n      POP \t\t\t\n      POP \t\t\t\n      PUSH 80\t\t\t\n      DUP7 \t\t\t\n      ADD \t\t\t\n      CALLDATALOAD \t\t\t\n      PUSH FFFFFFFFFFFFFFFF\t\t\t\n      DUP2 \t\t\t\n      GT \t\t\t\n      ISZERO \t\t\t\n      PUSH [tag] 269\t\t\t\n      JUMPI \t\t\t\n      PUSH [tag] 270\t\t\t\n      PUSH [tag] 146\t\t\t\n      JUMP \t\t\t\n    tag 270\t\t\t\n      JUMPDEST \t\t\t\n    tag 269\t\t\t\n      JUMPDEST \t\t\t\n      PUSH [tag] 271\t\t\t\n      DUP9 \t\t\t\n      DUP3 \t\t\t\n      DUP10 \t\t\t\n      ADD \t\t\t\n      PUSH [tag] 163\t\t\t\n      JUMP \t\t\t\n    tag 271\t\t\t\n      JUMPDEST \t\t\t\n      SWAP2 \t\t\t\n      POP \t\t\t\n      POP \t\t\t\n      SWAP3 \t\t\t\n      SWAP6 \t\t\t\n      POP \t\t\t\n      SWAP3 \t\t\t\n      SWAP6 \t\t\t\n      SWAP1 \t\t\t\n      SWAP4 \t\t\t\n      POP \t\t\t\n      JUMP \t\t\t\n    tag 164\t\t\t\n      JUMPDEST \t\t\t\n      PUSH [tag] 273\t\t\t\n      DUP2 \t\t\t\n      PUSH [tag] 147\t\t\t\n      JUMP \t\t\t\n    tag 273\t\t\t\n      JUMPDEST \t\t\t\n      DUP3 \t\t\t\n      MSTORE \t\t\t\n      POP \t\t\t\n      POP \t\t\t\n      JUMP \t\t\t\n    tag 25\t\t\t\n      JUMPDEST \t\t\t\n      PUSH 0\t\t\t\n      PUSH 20\t\t\t\n      DUP3 \t\t\t\n      ADD \t\t\t\n      SWAP1 \t\t\t\n      POP \t\t\t\n      PUSH [tag] 275\t\t\t\n      PUSH 0\t\t\t\n      DUP4 \t\t\t\n      ADD \t\t\t\n      DUP5 \t\t\t\n      PUSH [tag] 164\t\t\t\n      JUMP \t\t\t\n    tag 275\t\t\t\n      JUMPDEST \t\t\t\n      SWAP3 \t\t\t\n      SWAP2 \t\t\t\n      POP \t\t\t\n      POP \t\t\t\n      JUMP \t\t\t\n    tag 165\t\t\t\n      JUMPDEST \t\t\t\n      PUSH 4E487B7100000000000000000000000000000000000000000000000000000000\t\t\t\n      PUSH 0\t\t\t\n      MSTORE \t\t\t\n      PUSH 22\t\t\t\n      PUSH 4\t\t\t\n      MSTORE \t\t\t\n      PUSH 24\t\t\t\n      PUSH 0\t\t\t\n      REVERT \t\t\t\n    tag 27\t\t\t\n      JUMPDEST \t\t\t\n      PUSH 0\t\t\t\n      PUSH 2\t\t\t\n      DUP3 \t\t\t\n      DIV \t\t\t\n      SWAP1 \t\t\t\n      POP \t\t\t\n      PUSH 1\t\t\t\n      DUP3 \t\t\t\n      AND \t\t\t\n      DUP1 \t\t\t\n      PUSH [tag] 278\t\t\t\n      JUMPI \t\t\t\n      PUSH 7F\t\t\t\n      DUP3 \t\t\t\n      AND \t\t\t\n      SWAP2 \t\t\t\n      POP \t\t\t\n    tag 278\t\t\t\n      JUMPDEST \t\t\t\n      PUSH 20\t\t\t\n      DUP3 \t\t\t\n      LT \t\t\t\n      DUP2 \t\t\t\n      SUB \t\t\t\n      PUSH [tag] 279\t\t\t\n      JUMPI \t\t\t\n      PUSH [tag] 280\t\t\t\n      PUSH [tag] 165\t\t\t\n      JUMP \t\t\t\n    tag 280\t\t\t\n      JUMPDEST \t\t\t\n    tag 279\t\t\t\n      JUMPDEST \t\t\t\n      POP \t\t\t\n      SWAP2 \t\t\t\n      SWAP1 \t\t\t\n      POP \t\t\t\n      JUMP \t\t\t\n    tag 166\t\t\t\n      JUMPDEST \t\t\t\n      PUSH 4E6F2073747564656E7473206164646564207965740000000000000000000000\t\t\t\n      PUSH 0\t\t\t\n      DUP3 \t\t\t\n      ADD \t\t\t\n      MSTORE \t\t\t\n      POP \t\t\t\n      JUMP \t\t\t\n    tag 167\t\t\t\n      JUMPDEST \t\t\t\n      PUSH 0\t\t\t\n      PUSH [tag] 283\t\t\t\n      PUSH 15\t\t\t\n      DUP4 \t\t\t\n      PUSH [tag] 151\t\t\t\n      JUMP \t\t\t\n    tag 283\t\t\t\n      JUMPDEST \t\t\t\n      SWAP2 \t\t\t\n      POP \t\t\t\n      PUSH [tag] 284\t\t\t\n      DUP3 \t\t\t\n      PUSH [tag] 166\t\t\t\n      JUMP \t\t\t\n    tag 284\t\t\t\n      JUMPDEST \t\t\t\n      PUSH 20\t\t\t\n      DUP3 \t\t\t\n      ADD \t\t\t\n      SWAP1 \t\t\t\n      POP \t\t\t\n      SWAP2 \t\t\t\n      SWAP1 \t\t\t\n      POP \t\t\t\n      JUMP \t\t\t\n    tag 55\t\t\t\n      JUMPDEST \t\t\t\n      PUSH 0\t\t\t\n      PUSH 20\t\t\t\n      DUP3 \t\t\t\n      ADD \t\t\t\n      SWAP1 \t\t\t\n      POP \t\t\t\n      DUP2 \t\t\t\n      DUP2 \t\t\t\n      SUB \t\t\t\n      PUSH 0\t\t\t\n      DUP4 \t\t\t\n      ADD \t\t\t\n      MSTORE \t\t\t\n      PUSH [tag] 286\t\t\t\n      DUP2 \t\t\t\n      PUSH [tag] 167\t\t\t\n      JUMP \t\t\t\n    tag 286\t\t\t\n      JUMPDEST \t\t\t\n      SWAP1 \t\t\t\n      POP \t\t\t\n      SWAP2 \t\t\t\n      SWAP1 \t\t\t\n      POP \t\t\t\n      JUMP \t\t\t\n    tag 168\t\t\t\n      JUMPDEST \t\t\t\n      PUSH 53747564656E74206E6F7420666F756E64000000000000000000000000000000\t\t\t\n      PUSH 0\t\t\t\n      DUP3 \t\t\t\n      ADD \t\t\t\n      MSTORE \t\t\t\n      POP \t\t\t\n      JUMP \t\t\t\n    tag 169\t\t\t\n      JUMPDEST \t\t\t\n      PUSH 0\t\t\t\n      PUSH [tag] 289\t\t\t\n      PUSH 11\t\t\t\n      DUP4 \t\t\t\n      PUSH [tag] 151\t\t\t\n      JUMP \t\t\t\n    tag 289\t\t\t\n      JUMPDEST \t\t\t\n      SWAP2 \t\t\t\n      POP \t\t\t\n      PUSH [tag] 290\t\t\t\n      DUP3 \t\t\t\n      PUSH [tag] 168\t\t\t\n      JUMP \t\t\t\n    tag 290\t\t\t\n      JUMPDEST \t\t\t\n      PUSH 20\t\t\t\n      DUP3 \t\t\t\n      ADD \t\t\t\n      SWAP1 \t\t\t\n      POP \t\t\t\n      SWAP2 \t\t\t\n      SWAP1 \t\t\t\n      POP \t\t\t\n      JUMP \t\t\t\n    tag 129\t\t\t\n      JUMPDEST \t\t\t\n      PUSH 0\t\t\t\n      PUSH 20\t\t\t\n      DUP3 \t\t\t\n      ADD \t\t\t\n      SWAP1 \t\t\t\n      POP \t\t\t\n      DUP2 \t\t\t\n      DUP2 \t\t\t\n      SUB \t\t\t\n      PUSH 0\t\t\t\n      DUP4 \t\t\t\n      ADD \t\t\t\n      MSTORE \t\t\t\n      PUSH [tag] 292\t\t\t\n      DUP2 \t\t\t\n      PUSH [tag] 169\t\t\t\n      JUMP \t\t\t\n    tag 292\t\t\t\n      JUMPDEST \t\t\t\n      SWAP1 \t\t\t\n      POP \t\t\t\n      SWAP2 \t\t\t\n      SWAP1 \t\t\t\n      POP \t\t\t\n      JUMP \t\t\t\n    tag 170\t\t\t\n      JUMPDEST \t\t\t\n      PUSH 0\t\t\t\n      DUP2 \t\t\t\n      SWAP1 \t\t\t\n      POP \t\t\t\n      DUP2 \t\t\t\n      PUSH 0\t\t\t\n      MSTORE \t\t\t\n      PUSH 20\t\t\t\n      PUSH 0\t\t\t\n      KECCAK256 \t\t\t\n      SWAP1 \t\t\t\n      POP \t\t\t\n      SWAP2 \t\t\t\n      SWAP1 \t\t\t\n      POP \t\t\t\n      JUMP \t\t\t\n    tag 171\t\t\t\n      JUMPDEST \t\t\t\n      PUSH 0\t\t\t\n      PUSH 20\t\t\t\n      PUSH 1F\t\t\t\n      DUP4 \t\t\t\n      ADD \t\t\t\n      DIV \t\t\t\n      SWAP1 \t\t\t\n      POP \t\t\t\n      SWAP2 \t\t\t\n      SWAP1 \t\t\t\n      POP \t\t\t\n      JUMP \t\t\t\n    tag 172\t\t\t\n      JUMPDEST \t\t\t\n      PUSH 0\t\t\t\n      DUP3 \t\t\t\n      DUP3 \t\t\t\n      SHL \t\t\t\n      SWAP1 \t\t\t\n      POP \t\t\t\n      SWAP3 \t\t\t\n      SWAP2 \t\t\t\n      POP \t\t\t\n      POP \t\t\t\n      JUMP \t\t\t\n    tag 173\t\t\t\n      JUMPDEST \t\t\t\n      PUSH 0\t\t\t\n      PUSH 8\t\t\t\n      DUP4 \t\t\t\n      MUL \t\t\t\n      PUSH [tag] 297\t\t\t\n      PUSH FFFFFFFFFFFFFFFFFFFFFFFFFFFFFFFFFFFFFFFFFFFFFFFFFFFFFFFFFFFFFFFF\t\t\t\n      DUP3 \t\t\t\n      PUSH [tag] 172\t\t\t\n      JUMP \t\t\t\n    tag 297\t\t\t\n      JUMPDEST \t\t\t\n      PUSH [tag] 298\t\t\t\n      DUP7 \t\t\t\n      DUP4 \t\t\t\n      PUSH [tag] 172\t\t\t\n      JUMP \t\t\t\n    tag 298\t\t\t\n      JUMPDEST \t\t\t\n      SWAP6 \t\t\t\n      POP \t\t\t\n      DUP1 \t\t\t\n      NOT \t\t\t\n      DUP5 \t\t\t\n      AND \t\t\t\n      SWAP4 \t\t\t\n      POP \t\t\t\n      DUP1 \t\t\t\n      DUP7 \t\t\t\n      AND \t\t\t\n      DUP5 \t\t\t\n      OR \t\t\t\n      SWAP3 \t\t\t\n      POP \t\t\t\n      POP \t\t\t\n      POP \t\t\t\n      SWAP4 \t\t\t\n      SWAP3 \t\t\t\n      POP \t\t\t\n      POP \t\t\t\n      POP \t\t\t\n      JUMP \t\t\t\n    tag 174\t\t\t\n      JUMPDEST \t\t\t\n      PUSH 0\t\t\t\n      DUP2 \t\t\t\n      SWAP1 \t\t\t\n      POP \t\t\t\n      SWAP2 \t\t\t\n      SWAP1 \t\t\t\n      POP \t\t\t\n      JUMP \t\t\t\n    tag 175\t\t\t\n      JUMPDEST \t\t\t\n      PUSH 0\t\t\t\n      PUSH [tag] 301\t\t\t\n      PUSH [tag] 302\t\t\t\n      PUSH [tag] 303\t\t\t\n      DUP5 \t\t\t\n      PUSH [tag] 147\t\t\t\n      JUMP \t\t\t\n    tag 303\t\t\t\n      JUMPDEST \t\t\t\n      PUSH [tag] 174\t\t\t\n      JUMP \t\t\t\n    tag 302\t\t\t\n      JUMPDEST \t\t\t\n      PUSH [tag] 147\t\t\t\n      JUMP \t\t\t\n    tag 301\t\t\t\n      JUMPDEST \t\t\t\n      SWAP1 \t\t\t\n      POP \t\t\t\n      SWAP2 \t\t\t\n      SWAP1 \t\t\t\n      POP \t\t\t\n      JUMP \t\t\t\n    tag 176\t\t\t\n      JUMPDEST \t\t\t\n      PUSH 0\t\t\t\n      DUP2 \t\t\t\n      SWAP1 \t\t\t\n      POP \t\t\t\n      SWAP2 \t\t\t\n      SWAP1 \t\t\t\n      POP \t\t\t\n      JUMP \t\t\t\n    tag 177\t\t\t\n      JUMPDEST \t\t\t\n      PUSH [tag] 306\t\t\t\n      DUP4 \t\t\t\n      PUSH [tag] 175\t\t\t\n      JUMP \t\t\t\n    tag 306\t\t\t\n      JUMPDEST \t\t\t\n      PUSH [tag] 307\t\t\t\n      PUSH [tag] 308\t\t\t\n      DUP3 \t\t\t\n      PUSH [tag] 176\t\t\t\n      JUMP \t\t\t\n    tag 308\t\t\t\n      JUMPDEST \t\t\t\n      DUP5 \t\t\t\n      DUP5 \t\t\t\n      SLOAD \t\t\t\n      PUSH [tag] 173\t\t\t\n      JUMP \t\t\t\n    tag 307\t\t\t\n      JUMPDEST \t\t\t\n      DUP3 \t\t\t\n      SSTORE \t\t\t\n      POP \t\t\t\n      POP \t\t\t\n      POP \t\t\t\n      POP \t\t\t\n      JUMP \t\t\t\n    tag 178\t\t\t\n      JUMPDEST \t\t\t\n      PUSH 0\t\t\t\n      SWAP1 \t\t\t\n      JUMP \t\t\t\n    tag 179\t\t\t\n      JUMPDEST \t\t\t\n      PUSH [tag] 311\t\t\t\n      PUSH [tag] 178\t\t\t\n      JUMP \t\t\t\n    tag 311\t\t\t\n      JUMPDEST \t\t\t\n      PUSH [tag] 312\t\t\t\n      DUP2 \t\t\t\n      DUP5 \t\t\t\n      DUP5 \t\t\t\n      PUSH [tag] 177\t\t\t\n      JUMP \t\t\t\n    tag 312\t\t\t\n      JUMPDEST \t\t\t\n      POP \t\t\t\n      POP \t\t\t\n      POP \t\t\t\n      JUMP \t\t\t\n    tag 180\t\t\t\n      JUMPDEST \t\t\t\n    tag 314\t\t\t\n      JUMPDEST \t\t\t\n      DUP2 \t\t\t\n      DUP2 \t\t\t\n      LT \t\t\t\n      ISZERO \t\t\t\n      PUSH [tag] 316\t\t\t\n      JUMPI \t\t\t\n      PUSH [tag] 317\t\t\t\n      PUSH 0\t\t\t\n      DUP3 \t\t\t\n      PUSH [tag] 179\t\t\t\n      JUMP \t\t\t\n    tag 317\t\t\t\n      JUMPDEST \t\t\t\n      PUSH 1\t\t\t\n      DUP2 \t\t\t\n      ADD \t\t\t\n      SWAP1 \t\t\t\n      POP \t\t\t\n      PUSH [tag] 314\t\t\t\n      JUMP \t\t\t\n    tag 316\t\t\t\n      JUMPDEST \t\t\t\n      POP \t\t\t\n      POP \t\t\t\n      JUMP \t\t\t\n    tag 181\t\t\t\n      JUMPDEST \t\t\t\n      PUSH 1F\t\t\t\n      DUP3 \t\t\t\n      GT \t\t\t\n      ISZERO \t\t\t\n      PUSH [tag] 319\t\t\t\n      JUMPI \t\t\t\n      PUSH [tag] 320\t\t\t\n      DUP2 \t\t\t\n      PUSH [tag] 170\t\t\t\n      JUMP \t\t\t\n    tag 320\t\t\t\n      JUMPDEST \t\t\t\n      PUSH [tag] 321\t\t\t\n      DUP5 \t\t\t\n      PUSH [tag] 171\t\t\t\n      JUMP \t\t\t\n    tag 321\t\t\t\n      JUMPDEST \t\t\t\n      DUP2 \t\t\t\n      ADD \t\t\t\n      PUSH 20\t\t\t\n      DUP6 \t\t\t\n      LT \t\t\t\n      ISZERO \t\t\t\n      PUSH [tag] 322\t\t\t\n      JUMPI \t\t\t\n      DUP2 \t\t\t\n      SWAP1 \t\t\t\n      POP \t\t\t\n    tag 322\t\t\t\n      JUMPDEST \t\t\t\n      PUSH [tag] 323\t\t\t\n      PUSH [tag] 324\t\t\t\n      DUP6 \t\t\t\n      PUSH [tag] 171\t\t\t\n      JUMP \t\t\t\n    tag 324\t\t\t\n      JUMPDEST \t\t\t\n      DUP4 \t\t\t\n      ADD \t\t\t\n      DUP3 \t\t\t\n      PUSH [tag] 180\t\t\t\n      JUMP \t\t\t\n    tag 323\t\t\t\n      JUMPDEST \t\t\t\n      POP \t\t\t\n      POP \t\t\t\n    tag 319\t\t\t\n      JUMPDEST \t\t\t\n      POP \t\t\t\n      POP \t\t\t\n      POP \t\t\t\n      JUMP \t\t\t\n    tag 182\t\t\t\n      JUMPDEST \t\t\t\n      PUSH 0\t\t\t\n      DUP3 \t\t\t\n      DUP3 \t\t\t\n      SHR \t\t\t\n      SWAP1 \t\t\t\n      POP \t\t\t\n      SWAP3 \t\t\t\n      SWAP2 \t\t\t\n      POP \t\t\t\n      POP \t\t\t\n      JUMP \t\t\t\n    tag 183\t\t\t\n      JUMPDEST \t\t\t\n      PUSH 0\t\t\t\n      PUSH [tag] 327\t\t\t\n      PUSH 0\t\t\t\n      NOT \t\t\t\n      DUP5 \t\t\t\n      PUSH 8\t\t\t\n      MUL \t\t\t\n      PUSH [tag] 182\t\t\t\n      JUMP \t\t\t\n    tag 327\t\t\t\n      JUMPDEST \t\t\t\n      NOT \t\t\t\n      DUP1 \t\t\t\n      DUP4 \t\t\t\n      AND \t\t\t\n      SWAP2 \t\t\t\n      POP \t\t\t\n      POP \t\t\t\n      SWAP3 \t\t\t\n      SWAP2 \t\t\t\n      POP \t\t\t\n      POP \t\t\t\n      JUMP \t\t\t\n    tag 184\t\t\t\n      JUMPDEST \t\t\t\n      PUSH 0\t\t\t\n      PUSH [tag] 329\t\t\t\n      DUP4 \t\t\t\n      DUP4 \t\t\t\n      PUSH [tag] 183\t\t\t\n      JUMP \t\t\t\n    tag 329\t\t\t\n      JUMPDEST \t\t\t\n      SWAP2 \t\t\t\n      POP \t\t\t\n      DUP3 \t\t\t\n      PUSH 2\t\t\t\n      MUL \t\t\t\n      DUP3 \t\t\t\n      OR \t\t\t\n      SWAP1 \t\t\t\n      POP \t\t\t\n      SWAP3 \t\t\t\n      SWAP2 \t\t\t\n      POP \t\t\t\n      POP \t\t\t\n      JUMP \t\t\t\n    tag 132\t\t\t\n      JUMPDEST \t\t\t\n      PUSH [tag] 331\t\t\t\n      DUP3 \t\t\t\n      PUSH [tag] 150\t\t\t\n      JUMP \t\t\t\n    tag 331\t\t\t\n      JUMPDEST \t\t\t\n      PUSH FFFFFFFFFFFFFFFF\t\t\t\n      DUP2 \t\t\t\n      GT \t\t\t\n      ISZERO \t\t\t\n      PUSH [tag] 332\t\t\t\n      JUMPI \t\t\t\n      PUSH [tag] 333\t\t\t\n      PUSH [tag] 157\t\t\t\n      JUMP \t\t\t\n    tag 333\t\t\t\n      JUMPDEST \t\t\t\n    tag 332\t\t\t\n      JUMPDEST \t\t\t\n      PUSH [tag] 334\t\t\t\n      DUP3 \t\t\t\n      SLOAD \t\t\t\n      PUSH [tag] 27\t\t\t\n      JUMP \t\t\t\n    tag 334\t\t\t\n      JUMPDEST \t\t\t\n      PUSH [tag] 335\t\t\t\n      DUP3 \t\t\t\n      DUP3 \t\t\t\n      DUP6 \t\t\t\n      PUSH [tag] 181\t\t\t\n      JUMP \t\t\t\n    tag 335\t\t\t\n      JUMPDEST \t\t\t\n      PUSH 0\t\t\t\n      PUSH 20\t\t\t\n      SWAP1 \t\t\t\n      POP \t\t\t\n      PUSH 1F\t\t\t\n      DUP4 \t\t\t\n      GT \t\t\t\n      PUSH 1\t\t\t\n      DUP2 \t\t\t\n      EQ \t\t\t\n      PUSH [tag] 337\t\t\t\n      JUMPI \t\t\t\n      PUSH 0\t\t\t\n      DUP5 \t\t\t\n      ISZERO \t\t\t\n      PUSH [tag] 338\t\t\t\n      JUMPI \t\t\t\n      DUP3 \t\t\t\n      DUP8 \t\t\t\n      ADD \t\t\t\n      MLOAD \t\t\t\n      SWAP1 \t\t\t\n      POP \t\t\t\n    tag 338\t\t\t\n      JUMPDEST \t\t\t\n      PUSH [tag] 339\t\t\t\n      DUP6 \t\t\t\n      DUP3 \t\t\t\n      PUSH [tag] 184\t\t\t\n      JUMP \t\t\t\n    tag 339\t\t\t\n      JUMPDEST \t\t\t\n      DUP7 \t\t\t\n      SSTORE \t\t\t\n      POP \t\t\t\n      PUSH [tag] 336\t\t\t\n      JUMP \t\t\t\n    tag 337\t\t\t\n      JUMPDEST \t\t\t\n      PUSH 1F\t\t\t\n      NOT \t\t\t\n      DUP5 \t\t\t\n      AND \t\t\t\n      PUSH [tag] 340\t\t\t\n      DUP7 \t\t\t\n      PUSH [tag] 170\t\t\t\n      JUMP \t\t\t\n    tag 340\t\t\t\n      JUMPDEST \t\t\t\n      PUSH 0\t\t\t\n    tag 341\t\t\t\n      JUMPDEST \t\t\t\n      DUP3 \t\t\t\n      DUP2 \t\t\t\n      LT \t\t\t\n      ISZERO \t\t\t\n      PUSH [tag] 343\t\t\t\n      JUMPI \t\t\t\n      DUP5 \t\t\t\n      DUP10 \t\t\t\n      ADD \t\t\t\n      MLOAD \t\t\t\n      DUP3 \t\t\t\n      SSTORE \t\t\t\n      PUSH 1\t\t\t\n      DUP3 \t\t\t\n      ADD \t\t\t\n      SWAP2 \t\t\t\n      POP \t\t\t\n      PUSH 20\t\t\t\n      DUP6 \t\t\t\n      ADD \t\t\t\n      SWAP5 \t\t\t\n      POP \t\t\t\n      PUSH 20\t\t\t\n      DUP2 \t\t\t\n      ADD \t\t\t\n      SWAP1 \t\t\t\n      POP \t\t\t\n      PUSH [tag] 341\t\t\t\n      JUMP \t\t\t\n    tag 343\t\t\t\n      JUMPDEST \t\t\t\n      DUP7 \t\t\t\n      DUP4 \t\t\t\n      LT \t\t\t\n      ISZERO \t\t\t\n      PUSH [tag] 344\t\t\t\n      JUMPI \t\t\t\n      DUP5 \t\t\t\n      DUP10 \t\t\t\n      ADD \t\t\t\n      MLOAD \t\t\t\n      PUSH [tag] 345\t\t\t\n      PUSH 1F\t\t\t\n      DUP10 \t\t\t\n      AND \t\t\t\n      DUP3 \t\t\t\n      PUSH [tag] 183\t\t\t\n      JUMP \t\t\t\n    tag 345\t\t\t\n      JUMPDEST \t\t\t\n      DUP4 \t\t\t\n      SSTORE \t\t\t\n      POP \t\t\t\n    tag 344\t\t\t\n      JUMPDEST \t\t\t\n      PUSH 1\t\t\t\n      PUSH 2\t\t\t\n      DUP9 \t\t\t\n      MUL \t\t\t\n      ADD \t\t\t\n      DUP9 \t\t\t\n      SSTORE \t\t\t\n      POP \t\t\t\n      POP \t\t\t\n      POP \t\t\t\n    tag 336\t\t\t\n      JUMPDEST \t\t\t\n      POP \t\t\t\n      POP \t\t\t\n      POP \t\t\t\n      POP \t\t\t\n      POP \t\t\t\n      POP \t\t\t\n      JUMP \t\t\t\n    tag 185\t\t\t\n      JUMPDEST \t\t\t\n      PUSH 4E487B7100000000000000000000000000000000000000000000000000000000\t\t\t\n      PUSH 0\t\t\t\n      MSTORE \t\t\t\n      PUSH 11\t\t\t\n      PUSH 4\t\t\t\n      MSTORE \t\t\t\n      PUSH 24\t\t\t\n      PUSH 0\t\t\t\n      REVERT \t\t\t\n    tag 139\t\t\t\n      JUMPDEST \t\t\t\n      PUSH 0\t\t\t\n      PUSH [tag] 348\t\t\t\n      DUP3 \t\t\t\n      PUSH [tag] 147\t\t\t\n      JUMP \t\t\t\n    tag 348\t\t\t\n      JUMPDEST \t\t\t\n      SWAP2 \t\t\t\n      POP \t\t\t\n      PUSH FFFFFFFFFFFFFFFFFFFFFFFFFFFFFFFFFFFFFFFFFFFFFFFFFFFFFFFFFFFFFFFF\t\t\t\n      DUP3 \t\t\t\n      SUB \t\t\t\n      PUSH [tag] 349\t\t\t\n      JUMPI \t\t\t\n      PUSH [tag] 350\t\t\t\n      PUSH [tag] 185\t\t\t\n      JUMP \t\t\t\n    tag 350\t\t\t\n      JUMPDEST \t\t\t\n    tag 349\t\t\t\n      JUMPDEST \t\t\t\n      PUSH 1\t\t\t\n      DUP3 \t\t\t\n      ADD \t\t\t\n      SWAP1 \t\t\t\n      POP \t\t\t\n      SWAP2 \t\t\t\n      SWAP1 \t\t\t\n      POP \t\t\t\n      JUMP \t\t\t\n    tag 186\t\t\t\n      JUMPDEST \t\t\t\n      PUSH 0\t\t\t\n      DUP2 \t\t\t\n      SWAP1 \t\t\t\n      POP \t\t\t\n      SWAP3 \t\t\t\n      SWAP2 \t\t\t\n      POP \t\t\t\n      POP \t\t\t\n      JUMP \t\t\t\n    tag 187\t\t\t\n      JUMPDEST \t\t\t\n      PUSH 0\t\t\t\n      PUSH [tag] 353\t\t\t\n      DUP3 \t\t\t\n      PUSH [tag] 150\t\t\t\n      JUMP \t\t\t\n    tag 353\t\t\t\n      JUMPDEST \t\t\t\n      PUSH [tag] 354\t\t\t\n      DUP2 \t\t\t\n      DUP6 \t\t\t\n      PUSH [tag] 186\t\t\t\n      JUMP \t\t\t\n    tag 354\t\t\t\n      JUMPDEST \t\t\t\n      SWAP4 \t\t\t\n      POP \t\t\t\n      PUSH [tag] 355\t\t\t\n      DUP2 \t\t\t\n      DUP6 \t\t\t\n      PUSH 20\t\t\t\n      DUP7 \t\t\t\n      ADD \t\t\t\n      PUSH [tag] 152\t\t\t\n      JUMP \t\t\t\n    tag 355\t\t\t\n      JUMPDEST \t\t\t\n      DUP1 \t\t\t\n      DUP5 \t\t\t\n      ADD \t\t\t\n      SWAP2 \t\t\t\n      POP \t\t\t\n      POP \t\t\t\n      SWAP3 \t\t\t\n      SWAP2 \t\t\t\n      POP \t\t\t\n      POP \t\t\t\n      JUMP \t\t\t\n    tag 142\t\t\t\n      JUMPDEST \t\t\t\n      PUSH 0\t\t\t\n      PUSH [tag] 357\t\t\t\n      DUP3 \t\t\t\n      DUP5 \t\t\t\n      PUSH [tag] 187\t\t\t\n      JUMP \t\t\t\n    tag 357\t\t\t\n      JUMPDEST \t\t\t\n      SWAP2 \t\t\t\n      POP \t\t\t\n      DUP2 \t\t\t\n      SWAP1 \t\t\t\n      POP \t\t\t\n      SWAP3 \t\t\t\n      SWAP2 \t\t\t\n      POP \t\t\t\n      POP \t\t\t\n      JUMP \t\t\t\n    .data\n"
}